{
  "abi": [
    {
      "inputs": [
        {
          "internalType": "bool",
          "name": "nonUpgradable",
          "type": "bool"
        },
        {
          "internalType": "bool",
          "name": "appWhiteListingEnabled",
          "type": "bool"
        }
      ],
      "stateMutability": "nonpayable",
      "type": "constructor"
    },
    {
      "anonymous": false,
      "inputs": [
        {
          "indexed": false,
          "internalType": "bytes32",
          "name": "agreementType",
          "type": "bytes32"
        },
        {
          "indexed": false,
          "internalType": "address",
          "name": "code",
          "type": "address"
        }
      ],
      "name": "AgreementClassRegistered",
      "type": "event"
    },
    {
      "anonymous": false,
      "inputs": [
        {
          "indexed": false,
          "internalType": "bytes32",
          "name": "agreementType",
          "type": "bytes32"
        },
        {
          "indexed": false,
          "internalType": "address",
          "name": "code",
          "type": "address"
        }
      ],
      "name": "AgreementClassUpdated",
      "type": "event"
    },
    {
      "anonymous": false,
      "inputs": [
        {
          "indexed": true,
          "internalType": "contract ISuperApp",
          "name": "app",
          "type": "address"
        }
      ],
      "name": "AppRegistered",
      "type": "event"
    },
    {
      "anonymous": false,
      "inputs": [
        {
          "indexed": false,
          "internalType": "bytes32",
          "name": "uuid",
          "type": "bytes32"
        },
        {
          "indexed": false,
          "internalType": "address",
          "name": "codeAddress",
          "type": "address"
        }
      ],
      "name": "CodeUpdated",
      "type": "event"
    },
    {
      "anonymous": false,
      "inputs": [
        {
          "indexed": false,
          "internalType": "contract ISuperfluidGovernance",
          "name": "oldGov",
          "type": "address"
        },
        {
          "indexed": false,
          "internalType": "contract ISuperfluidGovernance",
          "name": "newGov",
          "type": "address"
        }
      ],
      "name": "GovernanceReplaced",
      "type": "event"
    },
    {
      "anonymous": false,
      "inputs": [
        {
          "indexed": false,
          "internalType": "uint8",
          "name": "version",
          "type": "uint8"
        }
      ],
      "name": "Initialized",
      "type": "event"
    },
    {
      "anonymous": false,
      "inputs": [
        {
          "indexed": true,
          "internalType": "contract ISuperApp",
          "name": "app",
          "type": "address"
        },
        {
          "indexed": false,
          "internalType": "uint256",
          "name": "reason",
          "type": "uint256"
        }
      ],
      "name": "Jail",
      "type": "event"
    },
    {
      "anonymous": false,
      "inputs": [
        {
          "indexed": false,
          "internalType": "contract ISuperTokenFactory",
          "name": "newFactory",
          "type": "address"
        }
      ],
      "name": "SuperTokenFactoryUpdated",
      "type": "event"
    },
    {
      "anonymous": false,
      "inputs": [
        {
          "indexed": true,
          "internalType": "contract ISuperToken",
          "name": "token",
          "type": "address"
        },
        {
          "indexed": false,
          "internalType": "address",
          "name": "code",
          "type": "address"
        }
      ],
      "name": "SuperTokenLogicUpdated",
      "type": "event"
    },
    {
      "inputs": [],
      "name": "APP_WHITE_LISTING_ENABLED",
      "outputs": [
        {
          "internalType": "bool",
          "name": "",
          "type": "bool"
        }
      ],
      "stateMutability": "view",
      "type": "function"
    },
    {
      "inputs": [],
      "name": "CALLBACK_GAS_LIMIT",
      "outputs": [
        {
          "internalType": "uint64",
          "name": "",
          "type": "uint64"
        }
      ],
      "stateMutability": "view",
      "type": "function"
    },
    {
      "inputs": [],
      "name": "MAX_APP_LEVEL",
      "outputs": [
        {
          "internalType": "uint256",
          "name": "",
          "type": "uint256"
        }
      ],
      "stateMutability": "view",
      "type": "function"
    },
    {
      "inputs": [],
      "name": "NON_UPGRADABLE_DEPLOYMENT",
      "outputs": [
        {
          "internalType": "bool",
          "name": "",
          "type": "bool"
        }
      ],
      "stateMutability": "view",
      "type": "function"
    },
    {
      "inputs": [
        {
          "internalType": "uint256",
          "name": "bitmap",
          "type": "uint256"
        },
        {
          "internalType": "bytes32",
          "name": "agreementType",
          "type": "bytes32"
        }
      ],
      "name": "addToAgreementClassesBitmap",
      "outputs": [
        {
          "internalType": "uint256",
          "name": "newBitmap",
          "type": "uint256"
        }
      ],
      "stateMutability": "view",
      "type": "function"
    },
    {
      "inputs": [
        {
          "internalType": "contract ISuperApp",
          "name": "targetApp",
          "type": "address"
        }
      ],
      "name": "allowCompositeApp",
      "outputs": [],
      "stateMutability": "nonpayable",
      "type": "function"
    },
    {
      "inputs": [
        {
          "internalType": "bytes",
          "name": "ctx",
          "type": "bytes"
        },
        {
          "internalType": "int256",
          "name": "appAllowanceUsedDelta",
          "type": "int256"
        }
      ],
      "name": "appCallbackPop",
      "outputs": [
        {
          "internalType": "bytes",
          "name": "newCtx",
          "type": "bytes"
        }
      ],
      "stateMutability": "nonpayable",
      "type": "function"
    },
    {
      "inputs": [
        {
          "internalType": "bytes",
          "name": "ctx",
          "type": "bytes"
        },
        {
          "internalType": "contract ISuperApp",
          "name": "app",
          "type": "address"
        },
        {
          "internalType": "uint256",
          "name": "appAllowanceGranted",
          "type": "uint256"
        },
        {
          "internalType": "int256",
          "name": "appAllowanceUsed",
          "type": "int256"
        },
        {
          "internalType": "contract ISuperfluidToken",
          "name": "appAllowanceToken",
          "type": "address"
        }
      ],
      "name": "appCallbackPush",
      "outputs": [
        {
          "internalType": "bytes",
          "name": "appCtx",
          "type": "bytes"
        }
      ],
      "stateMutability": "nonpayable",
      "type": "function"
    },
    {
      "inputs": [
        {
          "components": [
            {
              "internalType": "uint32",
              "name": "operationType",
              "type": "uint32"
            },
            {
              "internalType": "address",
              "name": "target",
              "type": "address"
            },
            {
              "internalType": "bytes",
              "name": "data",
              "type": "bytes"
            }
          ],
          "internalType": "struct ISuperfluid.Operation[]",
          "name": "operations",
          "type": "tuple[]"
        }
      ],
      "name": "batchCall",
      "outputs": [],
      "stateMutability": "nonpayable",
      "type": "function"
    },
    {
      "inputs": [
        {
          "internalType": "contract ISuperAgreement",
          "name": "agreementClass",
          "type": "address"
        },
        {
          "internalType": "bytes",
          "name": "callData",
          "type": "bytes"
        },
        {
          "internalType": "bytes",
          "name": "userData",
          "type": "bytes"
        }
      ],
      "name": "callAgreement",
      "outputs": [
        {
          "internalType": "bytes",
          "name": "returnedData",
          "type": "bytes"
        }
      ],
      "stateMutability": "nonpayable",
      "type": "function"
    },
    {
      "inputs": [
        {
          "internalType": "contract ISuperAgreement",
          "name": "agreementClass",
          "type": "address"
        },
        {
          "internalType": "bytes",
          "name": "callData",
          "type": "bytes"
        },
        {
          "internalType": "bytes",
          "name": "userData",
          "type": "bytes"
        },
        {
          "internalType": "bytes",
          "name": "ctx",
          "type": "bytes"
        }
      ],
      "name": "callAgreementWithContext",
      "outputs": [
        {
          "internalType": "bytes",
          "name": "newCtx",
          "type": "bytes"
        },
        {
          "internalType": "bytes",
          "name": "returnedData",
          "type": "bytes"
        }
      ],
      "stateMutability": "nonpayable",
      "type": "function"
    },
    {
      "inputs": [
        {
          "internalType": "contract ISuperApp",
          "name": "app",
          "type": "address"
        },
        {
          "internalType": "bytes",
          "name": "callData",
          "type": "bytes"
        }
      ],
      "name": "callAppAction",
      "outputs": [
        {
          "internalType": "bytes",
          "name": "returnedData",
          "type": "bytes"
        }
      ],
      "stateMutability": "nonpayable",
      "type": "function"
    },
    {
      "inputs": [
        {
          "internalType": "contract ISuperApp",
          "name": "app",
          "type": "address"
        },
        {
          "internalType": "bytes",
          "name": "callData",
          "type": "bytes"
        },
        {
          "internalType": "bytes",
          "name": "ctx",
          "type": "bytes"
        }
      ],
      "name": "callAppActionWithContext",
      "outputs": [
        {
          "internalType": "bytes",
          "name": "newCtx",
          "type": "bytes"
        }
      ],
      "stateMutability": "nonpayable",
      "type": "function"
    },
    {
      "inputs": [
        {
          "internalType": "contract ISuperApp",
          "name": "app",
          "type": "address"
        },
        {
          "internalType": "bytes",
          "name": "callData",
          "type": "bytes"
        },
        {
          "internalType": "bool",
          "name": "isTermination",
          "type": "bool"
        },
        {
          "internalType": "bytes",
          "name": "ctx",
          "type": "bytes"
        }
      ],
      "name": "callAppAfterCallback",
      "outputs": [
        {
          "internalType": "bytes",
          "name": "newCtx",
          "type": "bytes"
        }
      ],
      "stateMutability": "nonpayable",
      "type": "function"
    },
    {
      "inputs": [
        {
          "internalType": "contract ISuperApp",
          "name": "app",
          "type": "address"
        },
        {
          "internalType": "bytes",
          "name": "callData",
          "type": "bytes"
        },
        {
          "internalType": "bool",
          "name": "isTermination",
          "type": "bool"
        },
        {
          "internalType": "bytes",
          "name": "ctx",
          "type": "bytes"
        }
      ],
      "name": "callAppBeforeCallback",
      "outputs": [
        {
          "internalType": "bytes",
          "name": "cbdata",
          "type": "bytes"
        }
      ],
      "stateMutability": "nonpayable",
      "type": "function"
    },
    {
      "inputs": [
        {
          "internalType": "bytes",
          "name": "ctx",
          "type": "bytes"
        },
        {
          "internalType": "uint256",
          "name": "appAllowanceWantedMore",
          "type": "uint256"
        },
        {
          "internalType": "int256",
          "name": "appAllowanceUsedDelta",
          "type": "int256"
        }
      ],
      "name": "ctxUseAllowance",
      "outputs": [
        {
          "internalType": "bytes",
          "name": "newCtx",
          "type": "bytes"
        }
      ],
      "stateMutability": "nonpayable",
      "type": "function"
    },
    {
      "inputs": [
        {
          "internalType": "bytes",
          "name": "ctx",
          "type": "bytes"
        }
      ],
      "name": "decodeCtx",
      "outputs": [
        {
          "components": [
            {
              "internalType": "uint8",
              "name": "appLevel",
              "type": "uint8"
            },
            {
              "internalType": "uint8",
              "name": "callType",
              "type": "uint8"
            },
            {
              "internalType": "uint256",
              "name": "timestamp",
              "type": "uint256"
            },
            {
              "internalType": "address",
              "name": "msgSender",
              "type": "address"
            },
            {
              "internalType": "bytes4",
              "name": "agreementSelector",
              "type": "bytes4"
            },
            {
              "internalType": "bytes",
              "name": "userData",
              "type": "bytes"
            },
            {
              "internalType": "uint256",
              "name": "appAllowanceGranted",
              "type": "uint256"
            },
            {
              "internalType": "uint256",
              "name": "appAllowanceWanted",
              "type": "uint256"
            },
            {
              "internalType": "int256",
              "name": "appAllowanceUsed",
              "type": "int256"
            },
            {
              "internalType": "address",
              "name": "appAddress",
              "type": "address"
            },
            {
              "internalType": "contract ISuperfluidToken",
              "name": "appAllowanceToken",
              "type": "address"
            }
          ],
          "internalType": "struct ISuperfluid.Context",
          "name": "context",
          "type": "tuple"
        }
      ],
      "stateMutability": "pure",
      "type": "function"
    },
    {
      "inputs": [
        {
          "components": [
            {
              "internalType": "uint32",
              "name": "operationType",
              "type": "uint32"
            },
            {
              "internalType": "address",
              "name": "target",
              "type": "address"
            },
            {
              "internalType": "bytes",
              "name": "data",
              "type": "bytes"
            }
          ],
          "internalType": "struct ISuperfluid.Operation[]",
          "name": "operations",
          "type": "tuple[]"
        }
      ],
      "name": "forwardBatchCall",
      "outputs": [],
      "stateMutability": "nonpayable",
      "type": "function"
    },
    {
      "inputs": [
        {
          "internalType": "bytes32",
          "name": "agreementType",
          "type": "bytes32"
        }
      ],
      "name": "getAgreementClass",
      "outputs": [
        {
          "internalType": "contract ISuperAgreement",
          "name": "agreementClass",
          "type": "address"
        }
      ],
      "stateMutability": "view",
      "type": "function"
    },
    {
      "inputs": [
        {
          "internalType": "contract ISuperApp",
          "name": "appAddr",
          "type": "address"
        }
      ],
      "name": "getAppLevel",
      "outputs": [
        {
          "internalType": "uint8",
          "name": "",
          "type": "uint8"
        }
      ],
      "stateMutability": "view",
      "type": "function"
    },
    {
      "inputs": [
        {
          "internalType": "contract ISuperApp",
          "name": "app",
          "type": "address"
        }
      ],
      "name": "getAppManifest",
      "outputs": [
        {
          "internalType": "bool",
          "name": "isSuperApp",
          "type": "bool"
        },
        {
          "internalType": "bool",
          "name": "isJailed",
          "type": "bool"
        },
        {
          "internalType": "uint256",
          "name": "noopMask",
          "type": "uint256"
        }
      ],
      "stateMutability": "view",
      "type": "function"
    },
    {
      "inputs": [],
      "name": "getCodeAddress",
      "outputs": [
        {
          "internalType": "address",
          "name": "codeAddress",
          "type": "address"
        }
      ],
      "stateMutability": "view",
      "type": "function"
    },
    {
      "inputs": [],
      "name": "getGovernance",
      "outputs": [
        {
          "internalType": "contract ISuperfluidGovernance",
          "name": "",
          "type": "address"
        }
      ],
      "stateMutability": "view",
      "type": "function"
    },
    {
      "inputs": [],
      "name": "getNow",
      "outputs": [
        {
          "internalType": "uint256",
          "name": "",
          "type": "uint256"
        }
      ],
      "stateMutability": "view",
      "type": "function"
    },
    {
      "inputs": [],
      "name": "getSuperTokenFactory",
      "outputs": [
        {
          "internalType": "contract ISuperTokenFactory",
          "name": "factory",
          "type": "address"
        }
      ],
      "stateMutability": "view",
      "type": "function"
    },
    {
      "inputs": [],
      "name": "getSuperTokenFactoryLogic",
      "outputs": [
        {
          "internalType": "address",
          "name": "logic",
          "type": "address"
        }
      ],
      "stateMutability": "view",
      "type": "function"
    },
    {
      "inputs": [
        {
          "internalType": "contract ISuperfluidGovernance",
          "name": "gov",
          "type": "address"
        }
      ],
      "name": "initialize",
      "outputs": [],
      "stateMutability": "nonpayable",
      "type": "function"
    },
    {
      "inputs": [
        {
          "internalType": "contract ISuperAgreement",
          "name": "agreementClass",
          "type": "address"
        }
      ],
      "name": "isAgreementClassListed",
      "outputs": [
        {
          "internalType": "bool",
          "name": "yes",
          "type": "bool"
        }
      ],
      "stateMutability": "view",
      "type": "function"
    },
    {
      "inputs": [
        {
          "internalType": "bytes32",
          "name": "agreementType",
          "type": "bytes32"
        }
      ],
      "name": "isAgreementTypeListed",
      "outputs": [
        {
          "internalType": "bool",
          "name": "yes",
          "type": "bool"
        }
      ],
      "stateMutability": "view",
      "type": "function"
    },
    {
      "inputs": [
        {
          "internalType": "contract ISuperApp",
          "name": "app",
          "type": "address"
        }
      ],
      "name": "isApp",
      "outputs": [
        {
          "internalType": "bool",
          "name": "",
          "type": "bool"
        }
      ],
      "stateMutability": "view",
      "type": "function"
    },
    {
      "inputs": [
        {
          "internalType": "contract ISuperApp",
          "name": "app",
          "type": "address"
        }
      ],
      "name": "isAppJailed",
      "outputs": [
        {
          "internalType": "bool",
          "name": "",
          "type": "bool"
        }
      ],
      "stateMutability": "view",
      "type": "function"
    },
    {
      "inputs": [
        {
          "internalType": "contract ISuperApp",
          "name": "app",
          "type": "address"
        },
        {
          "internalType": "contract ISuperApp",
          "name": "targetApp",
          "type": "address"
        }
      ],
      "name": "isCompositeAppAllowed",
      "outputs": [
        {
          "internalType": "bool",
          "name": "",
          "type": "bool"
        }
      ],
      "stateMutability": "view",
      "type": "function"
    },
    {
      "inputs": [
        {
          "internalType": "bytes",
          "name": "ctx",
          "type": "bytes"
        }
      ],
      "name": "isCtxValid",
      "outputs": [
        {
          "internalType": "bool",
          "name": "",
          "type": "bool"
        }
      ],
      "stateMutability": "view",
      "type": "function"
    },
    {
      "inputs": [
        {
          "internalType": "address",
          "name": "forwarder",
          "type": "address"
        }
      ],
      "name": "isTrustedForwarder",
      "outputs": [
        {
          "internalType": "bool",
          "name": "",
          "type": "bool"
        }
      ],
      "stateMutability": "view",
      "type": "function"
    },
    {
      "inputs": [
        {
          "internalType": "bytes",
          "name": "ctx",
          "type": "bytes"
        },
        {
          "internalType": "contract ISuperApp",
          "name": "app",
          "type": "address"
        },
        {
          "internalType": "uint256",
          "name": "reason",
          "type": "uint256"
        }
      ],
      "name": "jailApp",
      "outputs": [
        {
          "internalType": "bytes",
          "name": "newCtx",
          "type": "bytes"
        }
      ],
      "stateMutability": "nonpayable",
      "type": "function"
    },
    {
      "inputs": [
        {
          "internalType": "uint256",
          "name": "bitmap",
          "type": "uint256"
        }
      ],
      "name": "mapAgreementClasses",
      "outputs": [
        {
          "internalType": "contract ISuperAgreement[]",
          "name": "agreementClasses",
          "type": "address[]"
        }
      ],
      "stateMutability": "view",
      "type": "function"
    },
    {
      "inputs": [],
      "name": "proxiableUUID",
      "outputs": [
        {
          "internalType": "bytes32",
          "name": "",
          "type": "bytes32"
        }
      ],
      "stateMutability": "pure",
      "type": "function"
    },
    {
      "inputs": [
        {
          "internalType": "contract ISuperAgreement",
          "name": "agreementClassLogic",
          "type": "address"
        }
      ],
      "name": "registerAgreementClass",
      "outputs": [],
      "stateMutability": "nonpayable",
      "type": "function"
    },
    {
      "inputs": [
        {
          "internalType": "uint256",
          "name": "configWord",
          "type": "uint256"
        }
      ],
      "name": "registerApp",
      "outputs": [],
      "stateMutability": "nonpayable",
      "type": "function"
    },
    {
      "inputs": [
        {
          "internalType": "contract ISuperApp",
          "name": "app",
          "type": "address"
        },
        {
          "internalType": "uint256",
          "name": "configWord",
          "type": "uint256"
        }
      ],
      "name": "registerAppByFactory",
      "outputs": [],
      "stateMutability": "nonpayable",
      "type": "function"
    },
    {
      "inputs": [
        {
          "internalType": "uint256",
          "name": "configWord",
          "type": "uint256"
        },
        {
          "internalType": "string",
          "name": "registrationKey",
          "type": "string"
        }
      ],
      "name": "registerAppWithKey",
      "outputs": [],
      "stateMutability": "nonpayable",
      "type": "function"
    },
    {
      "inputs": [
        {
          "internalType": "uint256",
          "name": "bitmap",
          "type": "uint256"
        },
        {
          "internalType": "bytes32",
          "name": "agreementType",
          "type": "bytes32"
        }
      ],
      "name": "removeFromAgreementClassesBitmap",
      "outputs": [
        {
          "internalType": "uint256",
          "name": "newBitmap",
          "type": "uint256"
        }
      ],
      "stateMutability": "view",
      "type": "function"
    },
    {
      "inputs": [
        {
          "internalType": "contract ISuperfluidGovernance",
          "name": "newGov",
          "type": "address"
        }
      ],
      "name": "replaceGovernance",
      "outputs": [],
      "stateMutability": "nonpayable",
      "type": "function"
    },
    {
      "inputs": [
        {
          "internalType": "contract ISuperAgreement",
          "name": "agreementClassLogic",
          "type": "address"
        }
      ],
      "name": "updateAgreementClass",
      "outputs": [],
      "stateMutability": "nonpayable",
      "type": "function"
    },
    {
      "inputs": [
        {
          "internalType": "address",
          "name": "newAddress",
          "type": "address"
        }
      ],
      "name": "updateCode",
      "outputs": [],
      "stateMutability": "nonpayable",
      "type": "function"
    },
    {
      "inputs": [
        {
          "internalType": "contract ISuperTokenFactory",
          "name": "newFactory",
          "type": "address"
        }
      ],
      "name": "updateSuperTokenFactory",
      "outputs": [],
      "stateMutability": "nonpayable",
      "type": "function"
    },
    {
      "inputs": [
        {
          "internalType": "contract ISuperToken",
          "name": "token",
          "type": "address"
        }
      ],
      "name": "updateSuperTokenLogic",
      "outputs": [],
      "stateMutability": "nonpayable",
      "type": "function"
    },
    {
      "inputs": [],
      "name": "versionRecipient",
      "outputs": [
        {
          "internalType": "string",
          "name": "",
          "type": "string"
        }
      ],
      "stateMutability": "pure",
      "type": "function"
    }
  ],
  "bytecode": {
    "object": "0x610100604052600160c052622dc6c060e0523480156200001e57600080fd5b506040516200569a3803806200569a833981016040819052620000419162000068565b901515608052151560a052620000a0565b805180151581146200006357600080fd5b919050565b600080604083850312156200007c57600080fd5b620000878362000052565b9150620000976020840162000052565b90509250929050565b60805160a05160c05160e05161556c6200012e6000396000818161037101528181612d080152612d960152600081816107020152612b4501526000818161058501528181611f390152818161254201526129c20152600081816106b9015281816107aa01528181610bd0015281816112a60152818161141d0152818161157c01526128c5015261556c6000f3fe608060405234801561001057600080fd5b50600436106102a05760003560e01c806374041e0211610167578063bbe4fd50116100ce578063cd312ec411610087578063cd312ec4146106b4578063e8dccb7d146106db578063f213bb02146106fd578063f2e55caf14610724578063f37330521461072c578063f9f522f41461073f57600080fd5b8063bbe4fd5014610642578063bced3ddc14610648578063bd1c448b1461065b578063bf4287341461066e578063c4d66de814610681578063c56a069d1461069457600080fd5b8063a5dbbbcd11610120578063a5dbbbcd146105a7578063ad3915c8146105ba578063b6d200de146105cd578063b724211e146105e0578063ba48b5f8146105f3578063bb84cfa11461060657600080fd5b806374041e0214610521578063768fabb014610534578063787afde7146105475780638ca484841461055a578063989b0c3e1461056d5780639d297e301461058057600080fd5b8063469519541161020b578063572b6c05116101c4578063572b6c05146104b1578063670e77e3146104c45780636ad3ca7d146104d75780636b4f3335146104ea5780637283100c146104fd578063731aed6e1461051057600080fd5b80634695195414610422578063486ff0cd1461043557806350d75d251461045357806352d1902d1461045b57806354fbc4931461048b57806357121e0c1461049e57600080fd5b8063289b3c0d1161025d578063289b3c0d1461034157806333d608f11461036c57806339255d5b146103ab5780633ca3ad4e146103be5780633f6c923a146103e15780634329d2931461040157600080fd5b806306cecba8146102a55780630792f20a146102ba57806313349046146102e357806315a024e1146103085780631e6d0a841461031b5780631e855cf31461032e575b600080fd5b6102b86102b33660046142d3565b61076f565b005b6102cd6102c8366004614338565b61094c565b6040516102da91906143e0565b60405180910390f35b6102f66102f13660046142d3565b610a44565b60405160ff90911681526020016102da565b6102b86103163660046142d3565b610a67565b6102cd610329366004614401565b610d33565b6102cd61033c366004614582565b610fa1565b6000546201000090046001600160a01b03165b6040516001600160a01b0390911681526020016102da565b6103937f000000000000000000000000000000000000000000000000000000000000000081565b6040516001600160401b0390911681526020016102da565b6102cd6103b93660046145d1565b610fb5565b6103d16103cc3660046142d3565b610fcb565b60405190151581526020016102da565b6103f46103ef366004614646565b610fe8565b6040516102da919061467a565b61041461040f36600461475b565b610ff9565b6040516102da929190614807565b6102b86104303660046142d3565b611274565b604080518082019091526002815261763160f01b60208201526102cd565b6103546113ac565b7fcd355cae2c435f8c5e0c626c4691d22fd85aa7422a424c6f0bced6e64c7aba745b6040519081526020016102da565b6102b86104993660046142d3565b6113db565b6102b86104ac3660046142d3565b61165c565b6103d16104bf3660046142d3565b6117b2565b6102b86104d236600461482c565b61183c565b6102b86104e536600461482c565b61184d565b6103d16104f83660046142d3565b611857565b6102b861050b3660046142d3565b61187b565b6003546001600160a01b0316610354565b6102cd61052f366004614401565b611922565b6102cd610542366004614945565b611a9c565b6102b86105553660046142d3565b611c54565b6103d16105683660046142d3565b611d96565b6102cd61057b3660046149c0565b611e5b565b6103d17f000000000000000000000000000000000000000000000000000000000000000081565b61047d6105b5366004614a0b565b611eee565b6102b86105c8366004614a2d565b611f37565b6103546105db366004614a2d565b611fc2565b6102cd6105ee366004614a46565b612028565b6102cd610601366004614aa2565b6120e8565b6103d1610614366004614b24565b6001600160a01b03918216600090815260056020908152604080832093909416825291909152205460ff1690565b4261047d565b61047d610656366004614a0b565b6124b4565b6102b8610669366004614b5d565b6124fc565b6103d161067c366004614ba8565b612651565b6102b861068f3660046142d3565b612692565b6106a76106a2366004614a2d565b6127be565b6040516102da9190614be9565b6103d17f000000000000000000000000000000000000000000000000000000000000000081565b6103d16106e9366004614a2d565b600090815260026020526040902054151590565b61047d7f000000000000000000000000000000000000000000000000000000000000000081565b6103546128a8565b6102b861073a366004614c36565b612970565b61075261074d3660046142d3565b612ad2565b6040805193151584529115156020840152908201526060016102da565b6000546201000090046001600160a01b031633146107a85760405162461bcd60e51b815260040161079f90614c62565b60405180910390fd5b7f0000000000000000000000000000000000000000000000000000000000000000156107e65760405162461bcd60e51b815260040161079f90614c99565b6000816001600160a01b0316637730599e6040518163ffffffff1660e01b8152600401602060405180830381865afa158015610826573d6000803e3d6000fd5b505050506040513d601f19601f8201168201806040525081019061084a9190614cc5565b60008181526002602052604081205491925081900361087b5760405162461bcd60e51b815260040161079f90614cde565b600060016108898184614d36565b8154811061089957610899614d4d565b6000918252602090912001546040516311a5465560e21b81526001600160a01b03868116600483015290911691508190634695195490602401600060405180830381600087803b1580156108ec57600080fd5b505af1158015610900573d6000803e3d6000fd5b5050604080518681526001600160a01b03881660208201527f9279aa773f2b588996032d8de89911555039f28b13a11a7c17074330bc082d9a935001905060405180910390a150505050565b606061095733611d96565b6109735760405162461bcd60e51b815260040161079f90614d63565b84848080601f0160208091040260200160405190810160405280939291908181526020018383808284376000920191909152506109b59250839150612b219050565b6109c1576109c1614da6565b6000610a0287878080601f016020809104026020016040519081016040528093929190818152602001838380828437600092019190915250610fe892505050565b9050848160e00151610a149190614dbc565b60e0820152610100810151610a2a908590614dd4565b610100820152610a3981612b41565b979650505050505050565b6001600160a01b03811660009081526004602052604081205460ff165b92915050565b6000546201000090046001600160a01b03163314610a975760405162461bcd60e51b815260040161079f90614c62565b6000816001600160a01b0316637730599e6040518163ffffffff1660e01b8152600401602060405180830381865afa158015610ad7573d6000803e3d6000fd5b505050506040513d601f19601f82011682018060405250810190610afb9190614cc5565b60008181526002602052604090205490915015610b695760405162461bcd60e51b815260206004820152602660248201527f53463a2061677265656d656e7420636c61737320616c726561647920726567696044820152651cdd195c995960d21b606482015260840161079f565b60015461010011610bcc5760405162461bcd60e51b815260206004820152602760248201527f53463a20737570706f727420757020746f203235362061677265656d656e7420604482015266636c617373657360c81b606482015260840161079f565b60007f0000000000000000000000000000000000000000000000000000000000000000610c86576000604051610c0190614256565b604051809103906000f080158015610c1d573d6000803e3d6000fd5b50604051634a0687ef60e01b81526001600160a01b03868116600483015291925090821690634a0687ef90602401600060405180830381600087803b158015610c6557600080fd5b505af1158015610c79573d6000803e3d6000fd5b5050505080915050610c89565b50815b6001805480820182557fb10e2d527612073b26eecdfd717e6a320cf44b4afac2b0732d9fcbe2b7fa0cf60180546001600160a01b0384166001600160a01b0319909116179055546000838152600260205260409081902091909155517f878135063a6cfb3bc333e534b1fdc83f4f12221cad6705c31c0567048a8bd3d190610d2690849086909182526001600160a01b0316602082015260400190565b60405180910390a1505050565b6060610d3e33611d96565b610d5a5760405162461bcd60e51b815260040161079f90614d63565b82828080601f016020809104026020016040519081016040528093929190818152602001838380828437600092019190915250610d9c9250839150612b219050565b610da857610da8614da6565b600080610e228a6000898c8c8080601f01602080910402602001604051908101604052809392919081815260200183838082843760009201919091525050604080516020601f8f018190048102820181019092528d815292508d91508c9081908401838280828437600092019190915250612ccb92505050565b915091508115610f5a57610e3581612e92565b15610ec65780806020019051810190610e4e9190614e5a565b9350610e5984612b21565b610ec15786610e7a5760405162461bcd60e51b815260040161079f90614e8e565b85858080601f016020809104026020016040519081016040528093929190818152602001838380828437600092019190915250929650610ec192508c915060149050612ee6565b610f94565b86610f135760405162461bcd60e51b815260206004820152601f60248201527f53463a204150505f52554c455f4354585f49535f4d414c464f524d4154454400604482015260640161079f565b85858080601f016020809104026020016040519081016040528093929190818152602001838380828437600092019190915250929650610ec192508c915060169050612ee6565b85858080601f0160208091040260200160405190810160405280939291908181526020018383808284376000920191909152509296505050505b5050509695505050505050565b6060610fae338484612f5b565b9392505050565b6060610fc333858585613239565b949350505050565b6001600160a01b0316600090815260046020526040902054151590565b610ff0614263565b610a618261338c565b60608083838080601f01602080910402602001604051908101604052809392919081815260200183838082843760009201919091525061103e9250839150612b219050565b61108a5760405162461bcd60e51b815260206004820152601d60248201527f53463a204150505f52554c455f4354585f49535f4e4f545f56414c4944000000604482015260640161079f565b8961109481611d96565b6110b05760405162461bcd60e51b815260040161079f90614ec5565b60006110f187878080601f016020809104026020016040519081016040528093929190818152602001838380828437600092019190915250610fe892505050565b6101208101519091506001600160a01b031633146111695760405162461bcd60e51b815260206004820152602f60248201527f53463a2063616c6c41677265656d656e7457697468436f6e746578742066726f60448201526e6d2077726f6e67206164647265737360881b606482015260840161079f565b60608101805133909152604080516020601f8c018190048102820181019092528a8152908b908b908190840183828082843760009201919091525050505060a08301526111b582612b41565b955060006111fb8e8e8e8080601f0160208091040260200160405190810160405280939291908181526020018383808284376000920191909152508c9250613457915050565b96509050801561125a57858060200190518101906112199190614e5a565b965061122487612b21565b61123057611230614da6565b61123987610fe8565b6001600160a01b0383166060820152925061125383612b41565b9650611263565b6112638661353c565b505050505097509795505050505050565b6000546201000090046001600160a01b031633146112a45760405162461bcd60e51b815260040161079f90614c62565b7f0000000000000000000000000000000000000000000000000000000000000000156112e25760405162461bcd60e51b815260040161079f90614c99565b806001600160a01b031663cd312ec46040518163ffffffff1660e01b8152600401602060405180830381865afa158015611320573d6000803e3d6000fd5b505050506040513d601f19601f820116820180604052508101906113449190614f07565b156113a05760405162461bcd60e51b815260206004820152602660248201527f53463a2063616e6e6f7420646f776e677261646520746f206e6f6e2075706772604482015265616461626c6560d01b606482015260840161079f565b6113a981613647565b50565b60006113d67f360894a13ba1a3210667c828492db98dca3e2076cc3735a920a3ca505d382bbc5490565b905090565b6000546201000090046001600160a01b0316331461140b5760405162461bcd60e51b815260040161079f90614c62565b6003546001600160a01b031661157a577f00000000000000000000000000000000000000000000000000000000000000006114f157600060405161144e90614256565b604051809103906000f08015801561146a573d6000803e3d6000fd5b50604051634a0687ef60e01b81526001600160a01b03848116600483015291925090821690634a0687ef90602401600060405180830381600087803b1580156114b257600080fd5b505af11580156114c6573d6000803e3d6000fd5b5050600380546001600160a01b0319166001600160a01b0394909416939093179092555061150d9050565b600380546001600160a01b0319166001600160a01b0383161790555b600360009054906101000a90046001600160a01b03166001600160a01b0316638129fc1c6040518163ffffffff1660e01b8152600401600060405180830381600087803b15801561155d57600080fd5b505af1158015611571573d6000803e3d6000fd5b50505050611618565b7f0000000000000000000000000000000000000000000000000000000000000000156115b85760405162461bcd60e51b815260040161079f90614c99565b6003546040516311a5465560e21b81526001600160a01b03838116600483015290911690634695195490602401600060405180830381600087803b1580156115ff57600080fd5b505af1158015611613573d6000803e3d6000fd5b505050505b6003546040516001600160a01b0390911681527fce13a9895a1719ad4493b2ac1a9bfb36070566161abab408e7ecbe586da8d499906020015b60405180910390a150565b3361166681610fcb565b6116b25760405162461bcd60e51b815260206004820152601860248201527f53463a2073656e646572206973206e6f7420616e206170700000000000000000604482015260640161079f565b6116bb82610fcb565b6117075760405162461bcd60e51b815260206004820152601860248201527f53463a20746172676574206973206e6f7420616e206170700000000000000000604482015260640161079f565b61171082610a44565b60ff1661171c82610a44565b60ff16116117805760405162461bcd60e51b815260206004820152602b60248201527f53463a20736f75726365206170702073686f756c64206861766520686967686560448201526a1c88185c1c081b195d995b60aa1b606482015260840161079f565b503360009081526005602090815260408083206001600160a01b0394909416835292905220805460ff19166001179055565b600080546201000090046001600160a01b03166380f70cba30836117d586613881565b6040518463ffffffff1660e01b81526004016117f393929190614f24565b602060405180830381865afa158015611810573d6000803e3d6000fd5b505050506040513d601f19601f820116820180604052508101906118349190614cc5565b151592915050565b6113a9611847613909565b82613971565b6113a93382613971565b6001600160a01b038116600090815260046020526040812054618000161515610a61565b6000546201000090046001600160a01b031633146118ab5760405162461bcd60e51b815260040161079f90614c62565b600054604080516001600160a01b03620100009093048316815291831660208301527f13abda02e63c790d0e2818b251282cfe5cbe0a8abd69c54bf5d2260c0907bd2e910160405180910390a1600080546001600160a01b03909216620100000262010000600160b01b0319909216919091179055565b606061192d33611d96565b6119495760405162461bcd60e51b815260040161079f90614d63565b82828080601f01602080910402602001604051908101604052809392919081815260200183838082843760009201919091525061198b9250839150612b219050565b61199757611997614da6565b600080611a118a6001898c8c8080601f01602080910402602001604051908101604052809392919081815260200183838082843760009201919091525050604080516020601f8f018190048102820181019092528d815292508d91508c9081908401838280828437600092019190915250612ccb92505050565b915091508115610f9457611a2481612e92565b15611a445780806020019051810190611a3d9190614e5a565b9350610f94565b86611a915760405162461bcd60e51b815260206004820152601f60248201527f53463a204150505f52554c455f4354585f49535f4d414c464f524d4154454400604482015260640161079f565b610f948a6016612ee6565b6060611aa733611d96565b611ac35760405162461bcd60e51b815260040161079f90614d63565b86868080601f016020809104026020016040519081016040528093929190818152602001838380828437600092019190915250611b059250839150612b219050565b611b1157611b11614da6565b6000611b5289898080601f016020809104026020016040519081016040528093929190818152602001838380828437600092019190915250610fe892505050565b9050611b618160600151610fcb565b15611bf65760608101516001600160a01b039081166000908152600560209081526040808320938b168352929052205460ff16611bf65760405162461bcd60e51b815260206004820152602d60248201527f53463a204150505f52554c455f434f4d504f534954455f4150505f49535f4e4f60448201526c1517d5d2125511531254d51151609a1b606482015260840161079f565b805181611c0282614f48565b60ff169052506003602082015260c08101869052600060e082015261010081018590526001600160a01b038088166101208301528416610140820152611c4781612b41565b9998505050505050505050565b6000546201000090046001600160a01b03163314611c845760405162461bcd60e51b815260040161079f90614c62565b60035460408051634a3852d960e11b815290516000926001600160a01b031691639470a5b29160048083019260209291908290030181865afa158015611cce573d6000803e3d6000fd5b505050506040513d601f19601f82011682018060405250810190611cf29190614f67565b6040516311a5465560e21b81526001600160a01b03808316600483015291925090831690634695195490602401600060405180830381600087803b158015611d3957600080fd5b505af1158015611d4d573d6000803e3d6000fd5b50506040516001600160a01b038481168252851692507f840acbd291b38534819f47f875839277e502f40e1c7bfea2c5fc2c8017442cd391506020015b60405180910390a25050565b600080826001600160a01b0316637730599e6040518163ffffffff1660e01b8152600401602060405180830381865afa158015611dd7573d6000803e3d6000fd5b505050506040513d601f19601f82011682018060405250810190611dfb9190614cc5565b6000818152600260205260409020549091508015801590610fc357506001600160a01b0384166001611e2d8184614d36565b81548110611e3d57611e3d614d4d565b6000918252602090912001546001600160a01b031614949350505050565b6060611e6633611d96565b611e825760405162461bcd60e51b815260040161079f90614d63565b6000611ec385858080601f016020809104026020016040519081016040528093929190818152602001838380828437600092019190915250610fe892505050565b905082816101000151611ed69190614dd4565b610100820152611ee581612b41565b95945050505050565b600081815260026020526040812054808203611f1c5760405162461bcd60e51b815260040161079f90614cde565b611f27600182614d36565b6001901b19841691505092915050565b7f000000000000000000000000000000000000000000000000000000000000000015611fb65760405162461bcd60e51b815260206004820152602860248201527f53463a2061707020726567697374726174696f6e2072657175697265732070656044820152673936b4b9b9b4b7b760c11b606482015260840161079f565b6113a981336001613db5565b600081815260026020526040812054808203611ff05760405162461bcd60e51b815260040161079f90614cde565b6001611ffc8183614d36565b8154811061200c5761200c614d4d565b6000918252602090912001546001600160a01b03169392505050565b606061203333611d96565b61204f5760405162461bcd60e51b815260040161079f90614d63565b84848080601f0160208091040260200160405190810160405280939291908181526020018383808284376000920191909152506120919250839150612b219050565b61209d5761209d614da6565b6120a78484612ee6565b85858080601f016020809104026020016040519081016040528093929190818152602001838380828437600092019190915250929998505050505050505050565b606082828080601f01602080910402602001604051908101604052809392919081815260200183838082843760009201919091525061212c9250839150612b219050565b6121785760405162461bcd60e51b815260206004820152601d60248201527f53463a204150505f52554c455f4354585f49535f4e4f545f56414c4944000000604482015260640161079f565b6001600160a01b0387166000908152600460205260409020548790806121d65760405162461bcd60e51b8152602060048201526013602482015272053463a206e6f7420612073757065722061707606c1b604482015260640161079f565b61800081161561221c5760405162461bcd60e51b815260206004820152601160248201527014d18e88185c1c081a5cc81a985a5b1959607a1b604482015260640161079f565b87878080601f0160208091040260200160405190810160405280939291908181526020018383808284376000920182905250925061225d9150839050613fac565b90506001600160e01b031981166330d9c91560e01b148061228e57506001600160e01b0319811663d86ed3e560e01b145b806122a957506001600160e01b03198116630221347d60e61b145b806122c457506001600160e01b0319811663230dbd2960e01b145b806122df57506001600160e01b03198116635f9e7d7760e01b145b806122fa57506001600160e01b031981166353c11f9960e01b145b156123175760405162461bcd60e51b815260040161079f90614f84565b600061235889898080601f016020809104026020016040519081016040528093929190818152602001838380828437600092019190915250610fe892505050565b6101208101519091506001600160a01b031633146123d05760405162461bcd60e51b815260206004820152602f60248201527f53463a2063616c6c417070416374696f6e57697468436f6e746578742066726f60448201526e6d2077726f6e67206164647265737360881b606482015260840161079f565b606081018051339091526123e382612b41565b975060008061242a8f8f8f8080601f0160208091040260200160405190810160405280939291908181526020018383808284376000920191909152508f9250613457915050565b91509150811561249957808060200190518101906124489190614e5a565b99506124538a612b21565b61246f5760405162461bcd60e51b815260040161079f90614e8e565b6124788a610fe8565b6001600160a01b0384166060820152935061249284612b41565b99506124a2565b6124a28161353c565b50505050505050505095945050505050565b6000818152600260205260408120548082036124e25760405162461bcd60e51b815260040161079f90614cde565b6124ed600182614d36565b6001901b841791505092915050565b600061253e3284848080601f01602080910402602001604051908101604052809392919081815260200183838082843760009201919091525061400892505050565b90507f00000000000000000000000000000000000000000000000000000000000000001561263f576000805460405163407b865d60e11b81524292620100009092046001600160a01b0316916380f70cba916125a09130918790600401614f24565b602060405180830381865afa1580156125bd573d6000803e3d6000fd5b505050506040513d601f19601f820116820180604052508101906125e19190614cc5565b101561263f5760405162461bcd60e51b815260206004820152602760248201527f53463a20696e76616c6964206f72206578706972656420726567697374726174604482015266696f6e206b657960c81b606482015260840161079f565b61264b84336001613db5565b50505050565b6000610fae83838080601f016020809104026020016040519081016040528093929190818152602001838380828437600092019190915250612b2192505050565b600054610100900460ff16158080156126b25750600054600160ff909116105b806126cc5750303b1580156126cc575060005460ff166001145b61272f5760405162461bcd60e51b815260206004820152602e60248201527f496e697469616c697a61626c653a20636f6e747261637420697320616c72656160448201526d191e481a5b9a5d1a585b1a5e995960921b606482015260840161079f565b6000805460ff191660011790558015612752576000805461ff0019166101001790555b6000805462010000600160b01b031916620100006001600160a01b0385160217905580156127ba576000805461ff0019169055604051600181527f7f26b83ff96e1f2b6a682f133852f6798a09c465da95921460cefb38474024989060200160405180910390a15b5050565b60606000806001805490506001600160401b038111156127e0576127e0614497565b604051908082528060200260200182016040528015612809578160200160208202803683370190505b50925060009050600091505b6001548210156128a0576001821b841615612890576001828154811061283d5761283d614d4d565b6000918252602090912001546001600160a01b0316838261285d81614fc8565b93508151811061286f5761286f614d4d565b60200260200101906001600160a01b031690816001600160a01b0316815250505b61289982614fc8565b9150612815565b825250919050565b6003546000906001600160a01b03166128c3576128c3614da6565b7f0000000000000000000000000000000000000000000000000000000000000000156128f957506003546001600160a01b031690565b600360009054906101000a90046001600160a01b03166001600160a01b03166350d75d256040518163ffffffff1660e01b8152600401602060405180830381865afa15801561294c573d6000803e3d6000fd5b505050506040513d601f19601f820116820180604052508101906113d69190614f67565b333b806129bf5760405162461bcd60e51b815260206004820152601e60248201527f53463a20666163746f7279206d757374206265206120636f6e74726163740000604482015260640161079f565b507f000000000000000000000000000000000000000000000000000000000000000015612ac65760006129f13361403b565b6000805460405163407b865d60e11b81529293509091620100009091046001600160a01b0316906380f70cba90612a3090309085908790600401614f24565b602060405180830381865afa158015612a4d573d6000803e3d6000fd5b505050506040513d601f19601f82011682018060405250810190612a719190614cc5565b600114905080612ac35760405162461bcd60e51b815260206004820152601f60248201527f53463a20617574686f72697a656420666163746f727920726571756972656400604482015260640161079f565b50505b6127ba81836000613db5565b6001600160a01b038116600090815260046020908152604080832081519283019091525480825215801592918291612b1957805161800081161515935064ff000000001691505b509193909250565b60008151600014158015610a615750600654825160208401201492915050565b60607f0000000000000000000000000000000000000000000000000000000000000000826000015160ff161115612bc55760405162461bcd60e51b815260206004820152602260248201527f53463a204150505f52554c455f4d41585f4150505f4c4556454c5f5245414348604482015261115160f21b606482015260840161079f565b815160208084015160009260ff1664ff000000009190921b1617905060006080612bf28560e001516140b5565b6001600160801b0316901b612c0a8560c001516140b5565b6001600160801b0316179050818460400151856060015186608001518760a00151604051602001612c3f959493929190614fe1565b60408051601f1981840301815282825261010087015161012088015161014089015160208601879052938501919091526001600160a01b03908116606085015290911660808301529060a00160408051601f1981840301815290829052612ca99291602001614807565b60408051601f1981840301815291905280516020820120600655949350505050565b600060606001600160a01b038716612ce557612ce5614da6565b612cef8484614122565b935060005a90508615612d8a57876001600160a01b03167f00000000000000000000000000000000000000000000000000000000000000006001600160401b031686604051612d3e9190615022565b6000604051808303818686fa925050503d8060008114612d7a576040519150601f19603f3d011682016040523d82523d6000602084013e612d7f565b606091505b509093509150612e16565b876001600160a01b03167f00000000000000000000000000000000000000000000000000000000000000006001600160401b031686604051612dcc9190615022565b60006040518083038160008787f1925050503d8060008114612e0a576040519150601f19603f3d011682016040523d82523d6000602084013e612e0f565b606091505b5090935091505b82612e8757612e26603f8261503e565b5a1115612e4b5785612e4057612e3b8261353c565b612e87565b612e3b88600a612ee6565b60405162461bcd60e51b815260206004820152601160248201527053463a206e656564206d6f72652067617360781b604482015260640161079f565b509550959350505050565b6000604082511015612ea657506000919050565b602082810151906000908214612ec0575060009392505050565b506040830151612ecf8161421d565b612eda906040614dbc565b84511492505050919050565b6001600160a01b0382166000908152600460205260408120546180001690036127ba576001600160a01b038216600081815260046020526040908190208054618000179055517fbe3aa33bd245135e4e26b223d79d14ea479a47bff09f2b03c53838af1edbb14b90611d8a9084815260200190565b60065460609015612fae5760405162461bcd60e51b815260206004820152601d60248201527f53463a204150505f52554c455f4354585f49535f4e4f545f434c45414e000000604482015260640161079f565b6001600160a01b03831660009081526004602052604090205483908061300c5760405162461bcd60e51b8152602060048201526013602482015272053463a206e6f7420612073757065722061707606c1b604482015260640161079f565b6180008116156130525760405162461bcd60e51b815260206004820152601160248201527014d18e88185c1c081a5cc81a985a5b1959607a1b604482015260640161079f565b83600061305e82613fac565b90506001600160e01b031981166330d9c91560e01b148061308f57506001600160e01b0319811663d86ed3e560e01b145b806130aa57506001600160e01b03198116630221347d60e61b145b806130c557506001600160e01b0319811663230dbd2960e01b145b806130e057506001600160e01b03198116635f9e7d7760e01b145b806130fb57506001600160e01b031981166353c11f9960e01b145b156131185760405162461bcd60e51b815260040161079f90614f84565b60006131c46040518061016001604052806131328c610fcb565b61313d576000613140565b60015b60ff168152600260208201526040014281526020018b6001600160a01b03168152602001600060e01b6001600160e01b03191681526020016040518060200160405280600081525081526020016000815260200160008152602001600081526020018a6001600160a01b0316815260200160006001600160a01b0316815250612b41565b905060006131d3898984613457565b97509050801561321d57868060200190518101906131f19190614e5a565b91506131fc82612b21565b6132185760405162461bcd60e51b815260040161079f90614e8e565b613226565b6132268761353c565b5050600060065550929695505050505050565b6006546060901561328c5760405162461bcd60e51b815260206004820152601d60248201527f53463a204150505f52554c455f4354585f49535f4e4f545f434c45414e000000604482015260640161079f565b8361329681611d96565b6132b25760405162461bcd60e51b815260040161079f90614ec5565b60006132bd85613fac565b905060006133596040518061016001604052806132d98b610fcb565b6132e45760006132e7565b60015b60ff168152600160208201526040014281526020018a6001600160a01b03168152602001846001600160e01b031916815260200187815260200160008152602001600081526020016000815260200160006001600160a01b0316815260200160006001600160a01b0316815250612b41565b90506000613368888884613457565b955090508061337a5761337a8561353c565b50506000600655509095945050505050565b613394614263565b606080838060200190518101906133ab9190615060565b815191935091506000906133c890840160209081019085016150b9565b60a08901526001600160e01b03191660808801526001600160a01b031660608701526040860152602081811c600f168187015260ff909116855282516000925061341991908401810190840161513d565b6001600160a01b03908116610140890152166101208701526101008601526001600160801b03811660c086015260801c60e085015250919392505050565b600060606001600160a01b03851661347157613471614da6565b61347b8484614122565b9350846001600160a01b0316846040516134959190615022565b6000604051808303816000865af19150503d80600081146134d2576040519150601f19603f3d011682016040523d82523d6000602084013e6134d7565b606091505b50909250905081156135345760008151116135345760405162461bcd60e51b815260206004820152601960248201527f53463a204150505f52554c455f4354585f49535f454d50545900000000000000604482015260640161079f565b935093915050565b60048151101561358e5760405162461bcd60e51b815260206004820152601a60248201527f43616c6c5574696c733a20746172676574207265766572742829000000000000604482015260640161079f565b602081015163b1b7848f60e01b6001600160e01b031982160161363e5760408051808201825260208082527f43616c6c5574696c733a207461726765742070616e69636b65643a2030785f5f90820190815260248501517f43616c6c5574696c733a207461726765742070616e69636b65643a2030780000600482811c600f908116603090810160081b918516011791909117909252925162461bcd60e51b815291929161079f918491016143e0565b81518060208401fd5b60006136717f360894a13ba1a3210667c828492db98dca3e2076cc3735a920a3ca505d382bbc5490565b6001600160a01b0316036136c75760405162461bcd60e51b815260206004820152601d60248201527f5555505350726f786961626c653a206e6f742075706772616461626c65000000604482015260640161079f565b806001600160a01b03166352d1902d6040518163ffffffff1660e01b8152600401602060405180830381865afa158015613705573d6000803e3d6000fd5b505050506040513d601f19601f820116820180604052508101906137299190614cc5565b7fcd355cae2c435f8c5e0c626c4691d22fd85aa7422a424c6f0bced6e64c7aba74146137a35760405162461bcd60e51b815260206004820152602360248201527f5555505350726f786961626c653a206e6f7420636f6d70617469626c65206c6f60448201526267696360e81b606482015260840161079f565b6001600160a01b03811630036137fb5760405162461bcd60e51b815260206004820152601960248201527f5555505350726f786961626c653a2070726f7879206c6f6f7000000000000000604482015260640161079f565b613823817f360894a13ba1a3210667c828492db98dca3e2076cc3735a920a3ca505d382bbc55565b7fe011bc04c286c344a8fcbb8de77f953da762c3e25d8cdea984147fc4168a5dcc7fcd355cae2c435f8c5e0c626c4691d22fd85aa7422a424c6f0bced6e64c7aba74604080519182526001600160a01b038416602083015201611651565b6040805160208101829052603260608201527f6f72672e7375706572666c7569642d66696e616e63652e7375706572666c756960808201527132173a393ab9ba32b22337b93bb0b93232b960711b60a08201526001600160a01b0383169181019190915260009060c0015b604051602081830303815290604052805190602001209050919050565b6000601836108015906139205750613920336117b2565b6139645760405162461bcd60e51b81526020600482015260156024820152742737ba103a393ab9ba32b2103337b93bb0b93232b960591b604482015260640161079f565b5060131936013560601c90565b60005b8151811015613db057600082828151811061399157613991614d4d565b6020026020010151600001519050600163ffffffff168163ffffffff1603613a71576000808484815181106139c8576139c8614d4d565b6020026020010151604001518060200190518101906139e79190615188565b915091508484815181106139fd576139fd614d4d565b6020026020010151602001516001600160a01b03166362aa52878784846040518463ffffffff1660e01b8152600401613a3893929190614f24565b600060405180830381600087803b158015613a5257600080fd5b505af1158015613a66573d6000803e3d6000fd5b505050505050613d9d565b60011963ffffffff821601613b57576000806000858581518110613a9757613a97614d4d565b602002602001015160400151806020019051810190613ab691906151b6565b925092509250858581518110613ace57613ace614d4d565b6020908102919091018101510151604051630b682aeb60e11b81526001600160a01b0389811660048301528581166024830152848116604483015260648201849052909116906316d055d690608401600060405180830381600087803b158015613b3757600080fd5b505af1158015613b4b573d6000803e3d6000fd5b50505050505050613d9d565b60641963ffffffff821601613c2757828281518110613b7857613b78614d4d565b6020026020010151602001516001600160a01b031663ca78946485858581518110613ba557613ba5614d4d565b602002602001015160400151806020019051810190613bc49190614cc5565b6040516001600160e01b031960e085901b1681526001600160a01b0390921660048301526024820152604401600060405180830381600087803b158015613c0a57600080fd5b505af1158015613c1e573d6000803e3d6000fd5b50505050613d9d565b60651963ffffffff821601613c7557828281518110613c4857613c48614d4d565b6020026020010151602001516001600160a01b031663245887fc85858581518110613ba557613ba5614d4d565b60c81963ffffffff821601613ced57600080848481518110613c9957613c99614d4d565b602002602001015160400151806020019051810190613cb89190615060565b91509150613ce586868681518110613cd257613cd2614d4d565b6020026020010151602001518484613239565b505050613d9d565b60c91963ffffffff821601613d4757613d4184848481518110613d1257613d12614d4d565b602002602001015160200151858581518110613d3057613d30614d4d565b602002602001015160400151612f5b565b50613d9d565b60405162461bcd60e51b815260206004820152602560248201527f53463a20756e6b6e6f776e2062617463682063616c6c206f7065726174696f6e604482015264207479706560d81b606482015260840161079f565b5080613da881614fc8565b915050613974565b505050565b323303613e105760405162461bcd60e51b8152602060048201526024808201527f53463a204150505f52554c455f4e4f5f524547495354524154494f4e5f464f526044820152635f454f4160e01b606482015260840161079f565b8015613e7e57813b8015613e7c5760405162461bcd60e51b815260206004820152602d60248201527f53463a204150505f52554c455f524547495354524154494f4e5f4f4e4c595f4960448201526c272fa1a7a729aa292aa1aa27a960991b606482015260840161079f565b505b64ff000080ff198316158015613e96575060ff831615155b8015613ea457506180008316155b613ef05760405162461bcd60e51b815260206004820152601760248201527f53463a20696e76616c696420636f6e66696720776f7264000000000000000000604482015260640161079f565b6001600160a01b03821660009081526004602052604090205415613f565760405162461bcd60e51b815260206004820152601a60248201527f53463a2061707020616c72656164792072656769737465726564000000000000604482015260640161079f565b60408051602080820183528582526001600160a01b038516600081815260049092528382209251909255915190917f0d540ad8f39e07d19909687352b9fa017405d93c91a6760981fbae9cf28bfef791a2505050565b60006004825110156140005760405162461bcd60e51b815260206004820152601b60248201527f43616c6c5574696c733a20696e76616c69642063616c6c446174610000000000604482015260640161079f565b506020015190565b6000828260405160200161401d9291906151f9565b60405160208183030381529060405280519060200120905092915050565b6040805160208101829052603960608201527f6f72672e7375706572666c7569642d66696e616e63652e7375706572666c756960808201527f642e61707057686974654c697374696e672e666163746f72790000000000000060a08201526001600160a01b0383169181019190915260009060c0016138ec565b60006001600160801b0382111561411e5760405162461bcd60e51b815260206004820152602760248201527f53616665436173743a2076616c756520646f65736e27742066697420696e20316044820152663238206269747360c81b606482015260840161079f565b5090565b81518083015160609190801561418f5760405162461bcd60e51b815260206004820152602c60248201527f53463a20706c61636572686f6c646572206374782073686f756c64206861766560448201526b040f4cae4de40d8cadccee8d60a31b606482015260840161079f565b50601f19810184528251849084816141a68161421d565b6141b09190614d36565b6001600160401b038111156141c7576141c7614497565b6040519080825280601f01601f1916602001820160405280156141f1576020820181803683370190505b50604051602001614205949392919061527e565b60405160208183030381529060405291505092915050565b60008082601f1611614230576000614233565b60015b60ff1661424160208461503e565b61424b9190614dbc565b610a619060206152cd565b61024a806152ed83390190565b604080516101608101825260008082526020820181905291810182905260608082018390526080820183905260a082015260c0810182905260e081018290526101008101829052610120810182905261014081019190915290565b6001600160a01b03811681146113a957600080fd5b6000602082840312156142e557600080fd5b8135610fae816142be565b60008083601f84011261430257600080fd5b5081356001600160401b0381111561431957600080fd5b60208301915083602082850101111561433157600080fd5b9250929050565b6000806000806060858703121561434e57600080fd5b84356001600160401b0381111561436457600080fd5b614370878288016142f0565b90989097506020870135966040013595509350505050565b60005b838110156143a357818101518382015260200161438b565b8381111561264b5750506000910152565b600081518084526143cc816020860160208601614388565b601f01601f19169290920160200192915050565b602081526000610fae60208301846143b4565b80151581146113a957600080fd5b6000806000806000806080878903121561441a57600080fd5b8635614425816142be565b955060208701356001600160401b038082111561444157600080fd5b61444d8a838b016142f0565b909750955060408901359150614462826143f3565b9093506060880135908082111561447857600080fd5b5061448589828a016142f0565b979a9699509497509295939492505050565b634e487b7160e01b600052604160045260246000fd5b604051606081016001600160401b03811182821017156144cf576144cf614497565b60405290565b604051601f8201601f191681016001600160401b03811182821017156144fd576144fd614497565b604052919050565b60006001600160401b0382111561451e5761451e614497565b50601f01601f191660200190565b600082601f83011261453d57600080fd5b813561455061454b82614505565b6144d5565b81815284602083860101111561456557600080fd5b816020850160208301376000918101602001919091529392505050565b6000806040838503121561459557600080fd5b82356145a0816142be565b915060208301356001600160401b038111156145bb57600080fd5b6145c78582860161452c565b9150509250929050565b6000806000606084860312156145e657600080fd5b83356145f1816142be565b925060208401356001600160401b038082111561460d57600080fd5b6146198783880161452c565b9350604086013591508082111561462f57600080fd5b5061463c8682870161452c565b9150509250925092565b60006020828403121561465857600080fd5b81356001600160401b0381111561466e57600080fd5b610fc38482850161452c565b6020815261468e60208201835160ff169052565b600060208301516146a4604084018260ff169052565b506040830151606083015260608301516146c960808401826001600160a01b03169052565b5060808301516001600160e01b0319811660a08401525060a08301516101608060c08501526146fc6101808501836143b4565b915060c085015160e085015260e0850151610100818187015280870151915050610120818187015280870151915050610140614742818701836001600160a01b03169052565b909501516001600160a01b031693019290925250919050565b60008060008060008060006080888a03121561477657600080fd5b8735614781816142be565b965060208801356001600160401b038082111561479d57600080fd5b6147a98b838c016142f0565b909850965060408a01359150808211156147c257600080fd5b6147ce8b838c016142f0565b909650945060608a01359150808211156147e757600080fd5b506147f48a828b016142f0565b989b979a50959850939692959293505050565b60408152600061481a60408301856143b4565b8281036020840152611ee581856143b4565b6000602080838503121561483f57600080fd5b82356001600160401b038082111561485657600080fd5b818501915085601f83011261486a57600080fd5b81358181111561487c5761487c614497565b8060051b61488b8582016144d5565b91825283810185019185810190898411156148a557600080fd5b86860192505b83831015611c47578235858111156148c35760008081fd5b86016060818c03601f19018113156148db5760008081fd5b6148e36144ad565b8983013563ffffffff811681146148fa5760008081fd5b815260408381013561490b816142be565b828c01529183013591888311156149225760008081fd5b6149308e8c8587010161452c565b908201528452505091860191908601906148ab565b60008060008060008060a0878903121561495e57600080fd5b86356001600160401b0381111561497457600080fd5b61498089828a016142f0565b9097509550506020870135614994816142be565b9350604087013592506060870135915060808701356149b2816142be565b809150509295509295509295565b6000806000604084860312156149d557600080fd5b83356001600160401b038111156149eb57600080fd5b6149f7868287016142f0565b909790965060209590950135949350505050565b60008060408385031215614a1e57600080fd5b50508035926020909101359150565b600060208284031215614a3f57600080fd5b5035919050565b60008060008060608587031215614a5c57600080fd5b84356001600160401b03811115614a7257600080fd5b614a7e878288016142f0565b9095509350506020850135614a92816142be565b9396929550929360400135925050565b600080600080600060608688031215614aba57600080fd5b8535614ac5816142be565b945060208601356001600160401b0380821115614ae157600080fd5b614aed89838a016142f0565b90965094506040880135915080821115614b0657600080fd5b50614b13888289016142f0565b969995985093965092949392505050565b60008060408385031215614b3757600080fd5b8235614b42816142be565b91506020830135614b52816142be565b809150509250929050565b600080600060408486031215614b7257600080fd5b8335925060208401356001600160401b03811115614b8f57600080fd5b614b9b868287016142f0565b9497909650939450505050565b60008060208385031215614bbb57600080fd5b82356001600160401b03811115614bd157600080fd5b614bdd858286016142f0565b90969095509350505050565b6020808252825182820181905260009190848201906040850190845b81811015614c2a5783516001600160a01b031683529284019291840191600101614c05565b50909695505050505050565b60008060408385031215614c4957600080fd5b8235614c54816142be565b946020939093013593505050565b6020808252601b908201527f53463a206f6e6c7920676f7665726e616e636520616c6c6f7765640000000000604082015260600190565b60208082526012908201527153463a206e6f6e2075706772616461626c6560701b604082015260600190565b600060208284031215614cd757600080fd5b5051919050565b60208082526022908201527f53463a2061677265656d656e7420636c617373206e6f74207265676973746572604082015261195960f21b606082015260800190565b634e487b7160e01b600052601160045260246000fd5b600082821015614d4857614d48614d20565b500390565b634e487b7160e01b600052603260045260246000fd5b60208082526023908201527f53463a2073656e646572206973206e6f74206c6973746564206167726565656d604082015262195b9d60ea1b606082015260800190565b634e487b7160e01b600052600160045260246000fd5b60008219821115614dcf57614dcf614d20565b500190565b600080821280156001600160ff1b0384900385131615614df657614df6614d20565b600160ff1b8390038412811615614e0f57614e0f614d20565b50500190565b600082601f830112614e2657600080fd5b8151614e3461454b82614505565b818152846020838601011115614e4957600080fd5b610fc3826020830160208701614388565b600060208284031215614e6c57600080fd5b81516001600160401b03811115614e8257600080fd5b610fc384828501614e15565b6020808252601c908201527f53463a204150505f52554c455f4354585f49535f524541444f4e4c5900000000604082015260600190565b60208082526022908201527f53463a206f6e6c79206c6973746564206167726565656d656e7420616c6c6f77604082015261195960f21b606082015260800190565b600060208284031215614f1957600080fd5b8151610fae816143f3565b6001600160a01b039384168152919092166020820152604081019190915260600190565b600060ff821660ff8103614f5e57614f5e614d20565b60010192915050565b600060208284031215614f7957600080fd5b8151610fae816142be565b60208082526024908201527f53463a2061677265656d656e742063616c6c6261636b206973206e6f742061636040820152633a34b7b760e11b606082015260800190565b600060018201614fda57614fda614d20565b5060010190565b858152602081018590526001600160a01b03841660408201526001600160e01b03198316606082015260a060808201819052600090610a39908301846143b4565b60008251615034818460208701614388565b9190910192915050565b60008261505b57634e487b7160e01b600052601260045260246000fd5b500490565b6000806040838503121561507357600080fd5b82516001600160401b038082111561508a57600080fd5b61509686838701614e15565b935060208501519150808211156150ac57600080fd5b506145c785828601614e15565b600080600080600060a086880312156150d157600080fd5b855194506020860151935060408601516150ea816142be565b60608701519093506001600160e01b03198116811461510857600080fd5b60808701519092506001600160401b0381111561512457600080fd5b61513088828901614e15565b9150509295509295909350565b6000806000806080858703121561515357600080fd5b8451935060208501519250604085015161516c816142be565b606086015190925061517d816142be565b939692955090935050565b6000806040838503121561519b57600080fd5b82516151a6816142be565b6020939093015192949293505050565b6000806000606084860312156151cb57600080fd5b83516151d6816142be565b60208501519093506151e7816142be565b80925050604084015190509250925092565b60608152604160608201527f6f72672e7375706572666c7569642d66696e616e63652e7375706572666c756960808201527f642e61707057686974654c697374696e672e726567697374726174696f6e4b6560a0820152607960f81b60c082015260018060a01b038316602082015260e060408201526000610fc360e08301846143b4565b6000855160206152918285838b01614388565b818401915086825285516152aa81838501848a01614388565b85519201916152be81838501848901614388565b91909101019695505050505050565b60008160001904831182151516156152e7576152e7614d20565b50029056fe608060405234801561001057600080fd5b5061022a806100206000396000f3fe6080604052600436106100225760003560e01c80634a0687ef1461003957610031565b366100315761002f610059565b005b61002f610059565b34801561004557600080fd5b5061002f6100543660046101c4565b61006b565b610069610064610171565b6101a0565b565b6001600160a01b0381166100c65760405162461bcd60e51b815260206004820152601760248201527f5555505350726f78793a207a65726f206164647265737300000000000000000060448201526064015b60405180910390fd5b60006100f07f360894a13ba1a3210667c828492db98dca3e2076cc3735a920a3ca505d382bbc5490565b6001600160a01b0316146101465760405162461bcd60e51b815260206004820152601e60248201527f5555505350726f78793a20616c726561647920696e697469616c697a6564000060448201526064016100bd565b61016e817f360894a13ba1a3210667c828492db98dca3e2076cc3735a920a3ca505d382bbc55565b50565b600061019b7f360894a13ba1a3210667c828492db98dca3e2076cc3735a920a3ca505d382bbc5490565b905090565b3660008037600080366000845af43d6000803e8080156101bf573d6000f35b3d6000fd5b6000602082840312156101d657600080fd5b81356001600160a01b03811681146101ed57600080fd5b939250505056fea2646970667358221220a1e972ca4b71b3da292febdd0198df1567eb4dca84bc4721dd8d4f37bdeae9a664736f6c634300080e0033a264697066735822122030daec7d7a59e8a27c38dffebeed717be725bd203567f4855c4f6f8df39c3f5d64736f6c634300080e0033",
    "linkReferences": {}
  },
  "methodIdentifiers": {
    "APP_WHITE_LISTING_ENABLED()": "9d297e30",
    "CALLBACK_GAS_LIMIT()": "33d608f1",
    "MAX_APP_LEVEL()": "f213bb02",
    "NON_UPGRADABLE_DEPLOYMENT()": "cd312ec4",
    "addToAgreementClassesBitmap(uint256,bytes32)": "bced3ddc",
    "allowCompositeApp(address)": "57121e0c",
    "appCallbackPop(bytes,int256)": "989b0c3e",
    "appCallbackPush(bytes,address,uint256,int256,address)": "768fabb0",
    "batchCall((uint32,address,bytes)[])": "6ad3ca7d",
    "callAgreement(address,bytes,bytes)": "39255d5b",
    "callAgreementWithContext(address,bytes,bytes,bytes)": "4329d293",
    "callAppAction(address,bytes)": "1e855cf3",
    "callAppActionWithContext(address,bytes,bytes)": "ba48b5f8",
    "callAppAfterCallback(address,bytes,bool,bytes)": "1e6d0a84",
    "callAppBeforeCallback(address,bytes,bool,bytes)": "74041e02",
    "ctxUseAllowance(bytes,uint256,int256)": "0792f20a",
    "decodeCtx(bytes)": "3f6c923a",
    "forwardBatchCall((uint32,address,bytes)[])": "670e77e3",
    "getAgreementClass(bytes32)": "b6d200de",
    "getAppLevel(address)": "13349046",
    "getAppManifest(address)": "f9f522f4",
    "getCodeAddress()": "50d75d25",
    "getGovernance()": "289b3c0d",
    "getNow()": "bbe4fd50",
    "getSuperTokenFactory()": "731aed6e",
    "getSuperTokenFactoryLogic()": "f2e55caf",
    "initialize(address)": "c4d66de8",
    "isAgreementClassListed(address)": "8ca48484",
    "isAgreementTypeListed(bytes32)": "e8dccb7d",
    "isApp(address)": "3ca3ad4e",
    "isAppJailed(address)": "6b4f3335",
    "isCompositeAppAllowed(address,address)": "bb84cfa1",
    "isCtxValid(bytes)": "bf428734",
    "isTrustedForwarder(address)": "572b6c05",
    "jailApp(bytes,address,uint256)": "b724211e",
    "mapAgreementClasses(uint256)": "c56a069d",
    "proxiableUUID()": "52d1902d",
    "registerAgreementClass(address)": "15a024e1",
    "registerApp(uint256)": "ad3915c8",
    "registerAppByFactory(address,uint256)": "f3733052",
    "registerAppWithKey(uint256,string)": "bd1c448b",
    "removeFromAgreementClassesBitmap(uint256,bytes32)": "a5dbbbcd",
    "replaceGovernance(address)": "7283100c",
    "updateAgreementClass(address)": "06cecba8",
    "updateCode(address)": "46951954",
    "updateSuperTokenFactory(address)": "54fbc493",
    "updateSuperTokenLogic(address)": "787afde7",
    "versionRecipient()": "486ff0cd"
  },
  "id": 70
}