{
  "abi": [
    {
      "inputs": [
        {
          "internalType": "contract ISuperfluid",
          "name": "host",
          "type": "address"
        }
      ],
      "stateMutability": "nonpayable",
      "type": "constructor"
    },
    {
      "anonymous": false,
      "inputs": [
        {
          "indexed": false,
          "internalType": "bytes32",
          "name": "uuid",
          "type": "bytes32"
        },
        {
          "indexed": false,
          "internalType": "address",
          "name": "codeAddress",
          "type": "address"
        }
      ],
      "name": "CodeUpdated",
      "type": "event"
    },
    {
      "anonymous": false,
      "inputs": [
        {
          "indexed": true,
          "internalType": "contract ISuperfluidToken",
          "name": "token",
          "type": "address"
        },
        {
          "indexed": true,
          "internalType": "address",
          "name": "sender",
          "type": "address"
        },
        {
          "indexed": true,
          "internalType": "address",
          "name": "flowOperator",
          "type": "address"
        },
        {
          "indexed": false,
          "internalType": "uint8",
          "name": "permissions",
          "type": "uint8"
        },
        {
          "indexed": false,
          "internalType": "int96",
          "name": "flowRateAllowance",
          "type": "int96"
        }
      ],
      "name": "FlowOperatorUpdated",
      "type": "event"
    },
    {
      "anonymous": false,
      "inputs": [
        {
          "indexed": true,
          "internalType": "contract ISuperfluidToken",
          "name": "token",
          "type": "address"
        },
        {
          "indexed": true,
          "internalType": "address",
          "name": "sender",
          "type": "address"
        },
        {
          "indexed": true,
          "internalType": "address",
          "name": "receiver",
          "type": "address"
        },
        {
          "indexed": false,
          "internalType": "int96",
          "name": "flowRate",
          "type": "int96"
        },
        {
          "indexed": false,
          "internalType": "int256",
          "name": "totalSenderFlowRate",
          "type": "int256"
        },
        {
          "indexed": false,
          "internalType": "int256",
          "name": "totalReceiverFlowRate",
          "type": "int256"
        },
        {
          "indexed": false,
          "internalType": "bytes",
          "name": "userData",
          "type": "bytes"
        }
      ],
      "name": "FlowUpdated",
      "type": "event"
    },
    {
      "anonymous": false,
      "inputs": [
        {
          "indexed": true,
          "internalType": "address",
          "name": "flowOperator",
          "type": "address"
        },
        {
          "indexed": false,
          "internalType": "uint256",
          "name": "deposit",
          "type": "uint256"
        }
      ],
      "name": "FlowUpdatedExtension",
      "type": "event"
    },
    {
      "anonymous": false,
      "inputs": [
        {
          "indexed": false,
          "internalType": "uint8",
          "name": "version",
          "type": "uint8"
        }
      ],
      "name": "Initialized",
      "type": "event"
    },
    {
      "inputs": [],
      "name": "DEFAULT_MINIMUM_DEPOSIT",
      "outputs": [
        {
          "internalType": "uint256",
          "name": "",
          "type": "uint256"
        }
      ],
      "stateMutability": "view",
      "type": "function"
    },
    {
      "inputs": [],
      "name": "MAXIMUM_DEPOSIT",
      "outputs": [
        {
          "internalType": "uint256",
          "name": "",
          "type": "uint256"
        }
      ],
      "stateMutability": "view",
      "type": "function"
    },
    {
      "inputs": [],
      "name": "MAXIMUM_FLOW_RATE",
      "outputs": [
        {
          "internalType": "uint256",
          "name": "",
          "type": "uint256"
        }
      ],
      "stateMutability": "view",
      "type": "function"
    },
    {
      "inputs": [],
      "name": "agreementType",
      "outputs": [
        {
          "internalType": "bytes32",
          "name": "",
          "type": "bytes32"
        }
      ],
      "stateMutability": "pure",
      "type": "function"
    },
    {
      "inputs": [
        {
          "internalType": "contract ISuperfluidToken",
          "name": "token",
          "type": "address"
        },
        {
          "internalType": "address",
          "name": "flowOperator",
          "type": "address"
        },
        {
          "internalType": "bytes",
          "name": "ctx",
          "type": "bytes"
        }
      ],
      "name": "authorizeFlowOperatorWithFullControl",
      "outputs": [
        {
          "internalType": "bytes",
          "name": "newCtx",
          "type": "bytes"
        }
      ],
      "stateMutability": "nonpayable",
      "type": "function"
    },
    {
      "inputs": [
        {
          "internalType": "contract ISuperfluidToken",
          "name": "token",
          "type": "address"
        },
        {
          "internalType": "address",
          "name": "receiver",
          "type": "address"
        },
        {
          "internalType": "int96",
          "name": "flowRate",
          "type": "int96"
        },
        {
          "internalType": "bytes",
          "name": "ctx",
          "type": "bytes"
        }
      ],
      "name": "createFlow",
      "outputs": [
        {
          "internalType": "bytes",
          "name": "newCtx",
          "type": "bytes"
        }
      ],
      "stateMutability": "nonpayable",
      "type": "function"
    },
    {
      "inputs": [
        {
          "internalType": "contract ISuperfluidToken",
          "name": "token",
          "type": "address"
        },
        {
          "internalType": "address",
          "name": "sender",
          "type": "address"
        },
        {
          "internalType": "address",
          "name": "receiver",
          "type": "address"
        },
        {
          "internalType": "int96",
          "name": "flowRate",
          "type": "int96"
        },
        {
          "internalType": "bytes",
          "name": "ctx",
          "type": "bytes"
        }
      ],
      "name": "createFlowByOperator",
      "outputs": [
        {
          "internalType": "bytes",
          "name": "newCtx",
          "type": "bytes"
        }
      ],
      "stateMutability": "nonpayable",
      "type": "function"
    },
    {
      "inputs": [
        {
          "internalType": "contract ISuperfluidToken",
          "name": "token",
          "type": "address"
        },
        {
          "internalType": "address",
          "name": "sender",
          "type": "address"
        },
        {
          "internalType": "address",
          "name": "receiver",
          "type": "address"
        },
        {
          "internalType": "bytes",
          "name": "ctx",
          "type": "bytes"
        }
      ],
      "name": "deleteFlow",
      "outputs": [
        {
          "internalType": "bytes",
          "name": "newCtx",
          "type": "bytes"
        }
      ],
      "stateMutability": "nonpayable",
      "type": "function"
    },
    {
      "inputs": [
        {
          "internalType": "contract ISuperfluidToken",
          "name": "token",
          "type": "address"
        },
        {
          "internalType": "address",
          "name": "sender",
          "type": "address"
        },
        {
          "internalType": "address",
          "name": "receiver",
          "type": "address"
        },
        {
          "internalType": "bytes",
          "name": "ctx",
          "type": "bytes"
        }
      ],
      "name": "deleteFlowByOperator",
      "outputs": [
        {
          "internalType": "bytes",
          "name": "newCtx",
          "type": "bytes"
        }
      ],
      "stateMutability": "nonpayable",
      "type": "function"
    },
    {
      "inputs": [
        {
          "internalType": "contract ISuperfluidToken",
          "name": "token",
          "type": "address"
        },
        {
          "internalType": "address",
          "name": "account",
          "type": "address"
        }
      ],
      "name": "getAccountFlowInfo",
      "outputs": [
        {
          "internalType": "uint256",
          "name": "timestamp",
          "type": "uint256"
        },
        {
          "internalType": "int96",
          "name": "flowRate",
          "type": "int96"
        },
        {
          "internalType": "uint256",
          "name": "deposit",
          "type": "uint256"
        },
        {
          "internalType": "uint256",
          "name": "owedDeposit",
          "type": "uint256"
        }
      ],
      "stateMutability": "view",
      "type": "function"
    },
    {
      "inputs": [],
      "name": "getCodeAddress",
      "outputs": [
        {
          "internalType": "address",
          "name": "codeAddress",
          "type": "address"
        }
      ],
      "stateMutability": "view",
      "type": "function"
    },
    {
      "inputs": [
        {
          "internalType": "contract ISuperfluidToken",
          "name": "token",
          "type": "address"
        },
        {
          "internalType": "int96",
          "name": "flowRate",
          "type": "int96"
        }
      ],
      "name": "getDepositRequiredForFlowRate",
      "outputs": [
        {
          "internalType": "uint256",
          "name": "deposit",
          "type": "uint256"
        }
      ],
      "stateMutability": "view",
      "type": "function"
    },
    {
      "inputs": [
        {
          "internalType": "contract ISuperfluidToken",
          "name": "token",
          "type": "address"
        },
        {
          "internalType": "address",
          "name": "sender",
          "type": "address"
        },
        {
          "internalType": "address",
          "name": "receiver",
          "type": "address"
        }
      ],
      "name": "getFlow",
      "outputs": [
        {
          "internalType": "uint256",
          "name": "timestamp",
          "type": "uint256"
        },
        {
          "internalType": "int96",
          "name": "flowRate",
          "type": "int96"
        },
        {
          "internalType": "uint256",
          "name": "deposit",
          "type": "uint256"
        },
        {
          "internalType": "uint256",
          "name": "owedDeposit",
          "type": "uint256"
        }
      ],
      "stateMutability": "view",
      "type": "function"
    },
    {
      "inputs": [
        {
          "internalType": "contract ISuperfluidToken",
          "name": "token",
          "type": "address"
        },
        {
          "internalType": "bytes32",
          "name": "flowId",
          "type": "bytes32"
        }
      ],
      "name": "getFlowByID",
      "outputs": [
        {
          "internalType": "uint256",
          "name": "timestamp",
          "type": "uint256"
        },
        {
          "internalType": "int96",
          "name": "flowRate",
          "type": "int96"
        },
        {
          "internalType": "uint256",
          "name": "deposit",
          "type": "uint256"
        },
        {
          "internalType": "uint256",
          "name": "owedDeposit",
          "type": "uint256"
        }
      ],
      "stateMutability": "view",
      "type": "function"
    },
    {
      "inputs": [
        {
          "internalType": "contract ISuperfluidToken",
          "name": "token",
          "type": "address"
        },
        {
          "internalType": "address",
          "name": "sender",
          "type": "address"
        },
        {
          "internalType": "address",
          "name": "flowOperator",
          "type": "address"
        }
      ],
      "name": "getFlowOperatorData",
      "outputs": [
        {
          "internalType": "bytes32",
          "name": "flowOperatorId",
          "type": "bytes32"
        },
        {
          "internalType": "uint8",
          "name": "permissions",
          "type": "uint8"
        },
        {
          "internalType": "int96",
          "name": "flowRateAllowance",
          "type": "int96"
        }
      ],
      "stateMutability": "view",
      "type": "function"
    },
    {
      "inputs": [
        {
          "internalType": "contract ISuperfluidToken",
          "name": "token",
          "type": "address"
        },
        {
          "internalType": "bytes32",
          "name": "flowOperatorId",
          "type": "bytes32"
        }
      ],
      "name": "getFlowOperatorDataByID",
      "outputs": [
        {
          "internalType": "uint8",
          "name": "permissions",
          "type": "uint8"
        },
        {
          "internalType": "int96",
          "name": "flowRateAllowance",
          "type": "int96"
        }
      ],
      "stateMutability": "view",
      "type": "function"
    },
    {
      "inputs": [
        {
          "internalType": "contract ISuperfluidToken",
          "name": "token",
          "type": "address"
        },
        {
          "internalType": "uint256",
          "name": "deposit",
          "type": "uint256"
        }
      ],
      "name": "getMaximumFlowRateFromDeposit",
      "outputs": [
        {
          "internalType": "int96",
          "name": "flowRate",
          "type": "int96"
        }
      ],
      "stateMutability": "view",
      "type": "function"
    },
    {
      "inputs": [
        {
          "internalType": "contract ISuperfluidToken",
          "name": "token",
          "type": "address"
        },
        {
          "internalType": "address",
          "name": "account",
          "type": "address"
        }
      ],
      "name": "getNetFlow",
      "outputs": [
        {
          "internalType": "int96",
          "name": "flowRate",
          "type": "int96"
        }
      ],
      "stateMutability": "view",
      "type": "function"
    },
    {
      "inputs": [
        {
          "internalType": "contract ISuperfluidToken",
          "name": "token",
          "type": "address"
        },
        {
          "internalType": "address",
          "name": "account",
          "type": "address"
        },
        {
          "internalType": "uint256",
          "name": "timestamp",
          "type": "uint256"
        }
      ],
      "name": "isPatricianPeriod",
      "outputs": [
        {
          "internalType": "bool",
          "name": "",
          "type": "bool"
        }
      ],
      "stateMutability": "view",
      "type": "function"
    },
    {
      "inputs": [
        {
          "internalType": "contract ISuperfluidToken",
          "name": "token",
          "type": "address"
        },
        {
          "internalType": "address",
          "name": "account",
          "type": "address"
        }
      ],
      "name": "isPatricianPeriodNow",
      "outputs": [
        {
          "internalType": "bool",
          "name": "isCurrentlyPatricianPeriod",
          "type": "bool"
        },
        {
          "internalType": "uint256",
          "name": "timestamp",
          "type": "uint256"
        }
      ],
      "stateMutability": "view",
      "type": "function"
    },
    {
      "inputs": [],
      "name": "proxiableUUID",
      "outputs": [
        {
          "internalType": "bytes32",
          "name": "",
          "type": "bytes32"
        }
      ],
      "stateMutability": "view",
      "type": "function"
    },
    {
      "inputs": [
        {
          "internalType": "contract ISuperfluidToken",
          "name": "token",
          "type": "address"
        },
        {
          "internalType": "address",
          "name": "account",
          "type": "address"
        },
        {
          "internalType": "uint256",
          "name": "time",
          "type": "uint256"
        }
      ],
      "name": "realtimeBalanceOf",
      "outputs": [
        {
          "internalType": "int256",
          "name": "dynamicBalance",
          "type": "int256"
        },
        {
          "internalType": "uint256",
          "name": "deposit",
          "type": "uint256"
        },
        {
          "internalType": "uint256",
          "name": "owedDeposit",
          "type": "uint256"
        }
      ],
      "stateMutability": "view",
      "type": "function"
    },
    {
      "inputs": [
        {
          "internalType": "contract ISuperfluidToken",
          "name": "token",
          "type": "address"
        },
        {
          "internalType": "address",
          "name": "flowOperator",
          "type": "address"
        },
        {
          "internalType": "bytes",
          "name": "ctx",
          "type": "bytes"
        }
      ],
      "name": "revokeFlowOperatorWithFullControl",
      "outputs": [
        {
          "internalType": "bytes",
          "name": "newCtx",
          "type": "bytes"
        }
      ],
      "stateMutability": "nonpayable",
      "type": "function"
    },
    {
      "inputs": [
        {
          "internalType": "address",
          "name": "newAddress",
          "type": "address"
        }
      ],
      "name": "updateCode",
      "outputs": [],
      "stateMutability": "nonpayable",
      "type": "function"
    },
    {
      "inputs": [
        {
          "internalType": "contract ISuperfluidToken",
          "name": "token",
          "type": "address"
        },
        {
          "internalType": "address",
          "name": "receiver",
          "type": "address"
        },
        {
          "internalType": "int96",
          "name": "flowRate",
          "type": "int96"
        },
        {
          "internalType": "bytes",
          "name": "ctx",
          "type": "bytes"
        }
      ],
      "name": "updateFlow",
      "outputs": [
        {
          "internalType": "bytes",
          "name": "newCtx",
          "type": "bytes"
        }
      ],
      "stateMutability": "nonpayable",
      "type": "function"
    },
    {
      "inputs": [
        {
          "internalType": "contract ISuperfluidToken",
          "name": "token",
          "type": "address"
        },
        {
          "internalType": "address",
          "name": "sender",
          "type": "address"
        },
        {
          "internalType": "address",
          "name": "receiver",
          "type": "address"
        },
        {
          "internalType": "int96",
          "name": "flowRate",
          "type": "int96"
        },
        {
          "internalType": "bytes",
          "name": "ctx",
          "type": "bytes"
        }
      ],
      "name": "updateFlowByOperator",
      "outputs": [
        {
          "internalType": "bytes",
          "name": "newCtx",
          "type": "bytes"
        }
      ],
      "stateMutability": "nonpayable",
      "type": "function"
    },
    {
      "inputs": [
        {
          "internalType": "contract ISuperfluidToken",
          "name": "token",
          "type": "address"
        },
        {
          "internalType": "address",
          "name": "flowOperator",
          "type": "address"
        },
        {
          "internalType": "uint8",
          "name": "permissions",
          "type": "uint8"
        },
        {
          "internalType": "int96",
          "name": "flowRateAllowance",
          "type": "int96"
        },
        {
          "internalType": "bytes",
          "name": "ctx",
          "type": "bytes"
        }
      ],
      "name": "updateFlowOperatorPermissions",
      "outputs": [
        {
          "internalType": "bytes",
          "name": "newCtx",
          "type": "bytes"
        }
      ],
      "stateMutability": "nonpayable",
      "type": "function"
    }
  ],
  "bytecode": {
    "object": "0x60a06040523480156200001157600080fd5b506040516200538b3803806200538b833981016040819052620000349162000046565b6001600160a01b031660805262000078565b6000602082840312156200005957600080fd5b81516001600160a01b03811681146200007157600080fd5b9392505050565b6080516152f762000094600039600061077701526152f76000f3fe608060405234801561001057600080fd5b50600436106101a85760003560e01c806350d75d25116100f957806394229ecb11610097578063aabd266811610071578063aabd26681461042e578063b4b333c614610441578063e6a1e88814610454578063e8e7e2d11461046757600080fd5b806394229ecb146103ed5780639b2e48bc146104005780639cb28b72146102aa57600080fd5b806362fc305e116100d357806362fc305e1461038e5780637730599e146103a1578063811b3d40146103c75780638d997f6e146103da57600080fd5b806350d75d251461035357806352d1902d1461037357806354b770e31461037b57600080fd5b806326b0f536116101665780634b839e0b116101405780634b839e0b146102e05780634c8b181f146103035780634fe9c2911461031657806350209a621461034057600080fd5b806326b0f536146102aa578063354b9590146102b857806346951954146102cb57600080fd5b8062422bbe146101ad57806304aafa49146101e55780630602f7db146101ff578063062e56ec1461022557806309d256ef146102455780630f1ac49514610274575b600080fd5b6101c06101bb366004614493565b61047a565b6040805193845260ff9092166020840152600b0b908201526060015b60405180910390f35b6101f164010000000081565b6040519081526020016101dc565b61021261020d3660046144de565b6104b0565b604051600b9190910b81526020016101dc565b61023861023336600461454c565b6104d1565b6040516101dc919061460d565b6102586102533660046144de565b6104eb565b6040805160ff9093168352600b9190910b6020830152016101dc565b610287610282366004614620565b61050f565b60408051948552600b9390930b60208501529183015260608201526080016101dc565b6101f160016001605f1b0381565b6102386102c636600461466b565b610545565b6102de6102d93660046146f7565b61076c565b005b6102f36102ee366004614714565b6107f0565b60405190151581526020016101dc565b610238610311366004614755565b6108c7565b610329610324366004614620565b6109e1565b6040805192151583526020830191909152016101dc565b61023861034e3660046147d1565b610ac3565b61035b610b96565b6040516001600160a01b0390911681526020016101dc565b6101f1610bc5565b61023861038936600461454c565b610c29565b61023861039c3660046147d1565b610c41565b7fa9214cc96615e0085d3bb077758db69497dc2dce3b2b1e97bc93c3d18d83efd36101f1565b6102386103d5366004614821565b610cf4565b6101f16103e8366004614865565b610f7e565b6102386103fb36600461466b565b611199565b61041361040e366004614714565b611379565b604080519384526020840192909252908201526060016101dc565b61028761043c3660046144de565b6113d3565b61023861044f366004614755565b6113e5565b610287610462366004614493565b611479565b610212610475366004614620565b6114b4565b600080600061048985856114ce565b925060006104978785611539565b8051602090910151959990985094965093945050505050565b6000806104bc846115fe565b5090506104c98184611779565b949350505050565b60606104e285856000808787610cf4565b95945050505050565b60008060006104fa8585611539565b80516020909101519097909650945050505050565b600080600080600061052187876117e8565b805160208201516040830151606090930151919b909a509198509650945050505050565b606060006105898885858080601f0160208091040260200160405190810160405280939291908181526020018383808284376000920191909152506118a192505050565b9050866001600160a01b031681606001516001600160a01b0316036105f55760405162461bcd60e51b815260206004820152601760248201527f4346413a20455f4e4f5f53454e4445525f55504441544500000000000000000060448201526064015b60405180910390fd5b60008061060b8a6106068b8b611a65565b611a8d565b9150915060008060006106238d8d886060015161047a565b925092509250610634826001611ad4565b6106805760405162461bcd60e51b815260206004820152601960248201527f455f4e4f5f4f50455241544f525f5550444154455f464c4f570000000000000060448201526064016105ec565b6000600b82900b60016001605f1b0314806106a557508a600b0b8560200151600b0b12155b6106c75760208501516106b8908c6148b0565b6106c290836148b0565b6106c9565b815b9050600081600b0b12156106ef5760405162461bcd60e51b81526004016105ec90614900565b6106fb8e858584611b2f565b5050505061072960408051608081018252600080825260208201819052918101829052606081019190915290565b6001600160a01b03808c1682528a8116602083015289166040820152600b88900b606082015261075d8183858a8a89611bb8565b9b9a5050505050505050505050565b336001600160a01b037f000000000000000000000000000000000000000000000000000000000000000016146107e45760405162461bcd60e51b815260206004820152601960248201527f6f6e6c7920686f73742063616e2075706461746520636f64650000000000000060448201526064016105ec565b6107ed81611d3d565b50565b604051633acd4df360e21b81526001600160a01b03838116600483015260248201839052600091829186169063eb3537cc90604401606060405180830381865afa158015610842573d6000803e3d6000fd5b505050506040513d601f19601f820116820180604052508101906108669190614941565b505090506000811261087c5760019150506108c0565b600080610888876115fe565b91509150600061089888886117e8565b91505060006108aa8260400151611f4b565b90506108b885828686611fb9565b955050505050505b9392505050565b6060600061090b8785858080601f0160208091040260200160405190810160405280939291908181526020018383808284376000920191909152506118a192505050565b9050600061091e8888846060015161047a565b50915050600061092f826002611ad4565b90508061097e5760405162461bcd60e51b815260206004820152601960248201527f455f4e4f5f4f50455241544f525f44454c4554455f464c4f570000000000000060448201526064016105ec565b6040805160808101825260008082526020820181905291810182905260608101919091525b6001600160a01b03808b168252898116602083015288166040820152600060608201526109d38183898988611ff6565b9a9950505050505050505050565b6000806000846001600160a01b03166320bc44256040518163ffffffff1660e01b8152600401602060405180830381865afa158015610a24573d6000803e3d6000fd5b505050506040513d601f19601f82011682018060405250810190610a48919061497a565b9050806001600160a01b031663bbe4fd506040518163ffffffff1660e01b8152600401602060405180830381865afa158015610a88573d6000803e3d6000fd5b505050506040513d601f19601f82011682018060405250810190610aac9190614997565b9150610ab98585846107f0565b9250509250929050565b60606000610b078785858080601f0160208091040260200160405190810160405280939291908181526020018383808284376000920191909152506118a192505050565b9050610b3360408051608081018252600080825260208201819052918101829052606081019190915290565b6001600160a01b03808916825260608084015182166020840181905291891660408401819052600b89900b91840191909152600091610b7191611a65565b9050600080610b84846000015184611a8d565b9150915061075d8482848b8b8a611bb8565b6000610bc07f360894a13ba1a3210667c828492db98dca3e2076cc3735a920a3ca505d382bbc5490565b905090565b6000306001600160a01b0316637730599e6040518163ffffffff1660e01b8152600401602060405180830381865afa158015610c05573d6000803e3d6000fd5b505050506040513d601f19601f82011682018060405250810190610bc09190614997565b60606104e28585600760016001605f1b038787610cf4565b60606000610c858785858080601f0160208091040260200160405190810160405280939291908181526020018383808284376000920191909152506118a192505050565b9050610cb160408051608081018252600080825260208201819052918101829052606081019190915290565b6001600160a01b038089168252606080840151821660208401529088166040830152600b87900b90820152610ce88186868561278d565b98975050505050505050565b606082828080601f016020809104026020016040519081016040528093929190818152602001838380828437600092019190915250929350610d3b925087915061292d9050565b610d875760405162461bcd60e51b815260206004820152601860248201527f4346413a20556e636c65616e207065726d697373696f6e73000000000000000060448201526064016105ec565b6000610dc98885858080601f0160208091040260200160405190810160405280939291908181526020018383808284376000920191909152506118a192505050565b9050866001600160a01b031681606001516001600160a01b031603610e305760405162461bcd60e51b815260206004820152601e60248201527f4346413a20455f4e4f5f53454e4445525f464c4f575f4f50455241544f52000060448201526064016105ec565b600085600b0b1215610e845760405162461bcd60e51b815260206004820152601c60248201527f4346413a20455f4e4f5f4e454741544956455f414c4c4f57414e43450000000060448201526064016105ec565b6040805180820190915260ff87168152600b86900b60208201526060820151600090610eb0908a6114ce565b9050896001600160a01b031663a1b2bf8b82610ecb85612934565b6040518363ffffffff1660e01b8152600401610ee89291906149eb565b600060405180830381600087803b158015610f0257600080fd5b505af1158015610f16573d6000803e3d6000fd5b50505060608401516040805160ff8c168152600b8b900b60208201526001600160a01b03808e169450928316928e16917fc0d5d3a6ac18cc1769788c925e6e7fc89cd47e4270a42884736fa9b3ec09f3a8910160405180910390a45050509695505050505050565b600080836001600160a01b03166320bc44256040518163ffffffff1660e01b8152600401602060405180830381865afa158015610fbf573d6000803e3d6000fd5b505050506040513d601f19601f82011682018060405250810190610fe3919061497a565b90506000816001600160a01b031663289b3c0d6040518163ffffffff1660e01b8152600401602060405180830381865afa158015611025573d6000803e3d6000fd5b505050506040513d601f19601f82011682018060405250810190611049919061497a565b90506000816001600160a01b03166380f70cba84887feae305fa863b373417e615b1044222e2806cefc7788d169ce6748a443c3f6cc46040518463ffffffff1660e01b815260040161109d93929190614a04565b602060405180830381865afa1580156110ba573d6000803e3d6000fd5b505050506040513d601f19601f820116820180604052508101906110de9190614997565b90506000826001600160a01b03166380f70cba85897fe420d96e81cb4a6b2abb2366c4f93312d4e2ae878a7d4b22e73472fdad891f786040518463ffffffff1660e01b815260040161113293929190614a04565b602060405180830381865afa15801561114f573d6000803e3d6000fd5b505050506040513d601f19601f820116820180604052508101906111739190614997565b9050602081901c63ffffffff1661118b8382896129aa565b955050505050505b92915050565b606060006111dd8885858080601f0160208091040260200160405190810160405280939291908181526020018383808284376000920191909152506118a192505050565b9050866001600160a01b031681606001516001600160a01b0316036112445760405162461bcd60e51b815260206004820152601760248201527f4346413a20455f4e4f5f53454e4445525f43524541544500000000000000000060448201526064016105ec565b60008060006112588b8b866060015161047a565b925092509250611269826000611ad4565b6112b55760405162461bcd60e51b815260206004820152601e60248201527f4346413a20455f4e4f5f4f50455241544f525f4352454154455f464c4f57000060448201526064016105ec565b6000600b82900b60016001605f1b03146112d8576112d389836148b0565b6112da565b815b9050600081600b0b12156113005760405162461bcd60e51b81526004016105ec90614900565b61130c8c858584611b2f565b5050505061133a60408051608081018252600080825260208201819052918101829052606081019190915290565b6001600160a01b03808a168252888116602083015287166040820152600b86900b606082015261136c8186868561278d565b9998505050505050505050565b600080600080600061138b88886117e8565b9150915081156113c8578060200151600b0b8160000151876113ad9190614a28565b6113b79190614a67565b945080604001519350806060015192505b505093509350939050565b60008060008060006105218787611a8d565b606060006114298785858080601f0160208091040260200160405190810160405280939291908181526020018383808284376000920191909152506118a192505050565b9050600061143c8888846060015161047a565b50915050600061144d826002611ad4565b90506109a360408051608081018252600080825260208201819052918101829052606081019190915290565b600080600080600061148f886106068989611a65565b805160208201516040830151606090930151919c909b50919950975095505050505050565b6000806114c184846117e8565b6020015195945050505050565b6000828260405160200161151b9291906060808252600c908201526b333637bba7b832b930ba37b960a11b60808201526001600160a01b0392831660208201529116604082015260a00190565b60405160208183030381529060405280519060200120905092915050565b6040805180820182526000808252602082018190529151636c2d9f2f60e01b8152306004820152602481018490526001604482015282906001600160a01b03861690636c2d9f2f90606401600060405180830381865afa1580156115a1573d6000803e3d6000fd5b505050506040513d6000823e601f3d908101601f191682016040526115c99190810190614b5d565b90506115f1816000815181106115e1576115e1614bf7565b602002602001015160001c612a7f565b92509250505b9250929050565b6000806000836001600160a01b03166320bc44256040518163ffffffff1660e01b8152600401602060405180830381865afa158015611641573d6000803e3d6000fd5b505050506040513d601f19601f82011682018060405250810190611665919061497a565b90506000816001600160a01b031663289b3c0d6040518163ffffffff1660e01b8152600401602060405180830381865afa1580156116a7573d6000803e3d6000fd5b505050506040513d601f19601f820116820180604052508101906116cb919061497a565b90506000816001600160a01b03166380f70cba84887fe420d96e81cb4a6b2abb2366c4f93312d4e2ae878a7d4b22e73472fdad891f786040518463ffffffff1660e01b815260040161171f93929190614a04565b602060405180830381865afa15801561173c573d6000803e3d6000fd5b505050506040513d601f19601f820116820180604052508101906117609190614997565b63ffffffff602082901c81169891169650945050505050565b600060016001605f1b038211156117d25760405162461bcd60e51b815260206004820152601b60248201527f4346413a206465706f736974206e756d62657220746f6f20626967000000000060448201526064016105ec565b63ffffffff198216915060006104c98484614c23565b60006117f26143cc565b604051634b61cc3360e01b81523060048201526001600160a01b038481166024830152600060448301819052600160648401529190861690634b61cc33906084015b600060405180830381865afa158015611851573d6000803e3d6000fd5b505050506040513d6000823e601f3d908101601f191682016040526118799190810190614b5d565b90506115f18160008151811061189157611891614bf7565b602002602001015160001c612abf565b6118a96143f7565b336001600160a01b0316836001600160a01b03166320bc44256040518163ffffffff1660e01b8152600401602060405180830381865afa1580156118f1573d6000803e3d6000fd5b505050506040513d601f19601f82011682018060405250810190611915919061497a565b6001600160a01b03161461195f5760405162461bcd60e51b81526020600482015260116024820152701d5b985d5d1a1bdc9a5e9959081a1bdcdd607a1b60448201526064016105ec565b604051632fd0a1cd60e21b8152339063bf4287349061198290859060040161460d565b602060405180830381865afa15801561199f573d6000803e3d6000fd5b505050506040513d601f19601f820116820180604052508101906119c39190614c47565b6119fd5760405162461bcd60e51b815260206004820152600b60248201526a0d2dcecc2d8d2c840c6e8f60ab1b60448201526064016105ec565b604051631fb6491d60e11b81523390633f6c923a90611a2090859060040161460d565b600060405180830381865afa158015611a3d573d6000803e3d6000fd5b505050506040513d6000823e601f3d908101601f191682016040526108c09190810190614ce9565b604080516001600160a01b03808516602083015283169181019190915260009060600161151b565b6000611a976143cc565b604051636c2d9f2f60e01b815230600482015260248101849052600160448201526000906001600160a01b03861690636c2d9f2f90606401611834565b600080826002811115611ae957611ae9614df0565b03611afa5750600182811614611193565b6001826002811115611b0e57611b0e614df0565b03611b215750600182811c811614611193565b505060021c60019081161490565b6040805180820190915260ff83168152600b82900b60208201526001600160a01b03851663a1b2bf8b85611b6284612934565b6040518363ffffffff1660e01b8152600401611b7f9291906149eb565b600060405180830381600087803b158015611b9957600080fd5b505af1158015611bad573d6000803e3d6000fd5b505050505050505050565b60606000611bc68884612b1f565b91505085611c115760405162461bcd60e51b815260206004820152601860248201527710d1904e88199b1bddc8191bd95cc81b9bdd08195e1a5cdd60421b60448201526064016105ec565b6040888101519051631e51d6a760e11b81526001600160a01b0390911660048201523390633ca3ad4e90602401602060405180830381865afa158015611c5b573d6000803e3d6000fd5b505050506040513d601f19601f82011682018060405250810190611c7f9190614c47565b15611cdb57611cd488604001518960000151838a89898080601f0160208091040260200160405190810160405280939291908181526020018383808284376000920191909152508b925060019150612c929050565b9150611d26565b611d238860000151828988888080601f0160208091040260200160405190810160405280939291908181526020018383808284376000920191909152508a92506133af915050565b91505b8751611d329084613487565b509695505050505050565b6000611d677f360894a13ba1a3210667c828492db98dca3e2076cc3735a920a3ca505d382bbc5490565b6001600160a01b031603611dbd5760405162461bcd60e51b815260206004820152601d60248201527f5555505350726f786961626c653a206e6f742075706772616461626c6500000060448201526064016105ec565b806001600160a01b03166352d1902d6040518163ffffffff1660e01b8152600401602060405180830381865afa158015611dfb573d6000803e3d6000fd5b505050506040513d601f19601f82011682018060405250810190611e1f9190614997565b611e27610bc5565b14611e805760405162461bcd60e51b815260206004820152602360248201527f5555505350726f786961626c653a206e6f7420636f6d70617469626c65206c6f60448201526267696360e81b60648201526084016105ec565b6001600160a01b0381163003611ed85760405162461bcd60e51b815260206004820152601960248201527f5555505350726f786961626c653a2070726f7879206c6f6f700000000000000060448201526064016105ec565b611f00817f360894a13ba1a3210667c828492db98dca3e2076cc3735a920a3ca505d382bbc55565b7fe011bc04c286c344a8fcbb8de77f953da762c3e25d8cdea984147fc4168a5dcc611f29610bc5565b604080519182526001600160a01b03841660208301520160405180910390a150565b60006001600160ff1b03821115611fb55760405162461bcd60e51b815260206004820152602860248201527f53616665436173743a2076616c756520646f65736e27742066697420696e2061604482015267371034b73a191a9b60c11b60648201526084016105ec565b5090565b600080611fc68587614e06565b90506000611fd48587614e47565b9050611fe08486614e75565b611fea8284614e47565b13979650505050505050565b6040805160c0810182526000808252602082018190529181018290526060818101839052608082019290925260a0810182905260208701516001600160a01b03166120795760405162461bcd60e51b81526020600482015260136024820152724346413a2073656e646572206973207a65726f60681b60448201526064016105ec565b60408701516001600160a01b03166120cb5760405162461bcd60e51b81526020600482015260156024820152744346413a207265636569766572206973207a65726f60581b60448201526064016105ec565b6120dd87602001518860400151611a65565b8082526020808901516001600160a01b03908116918401919091526040808a01518216908401526060808601519091169083015260006080830181905260a0808601519084015288519091829161213391611a8d565b915091508161217f5760405162461bcd60e51b815260206004820152601860248201527710d1904e88199b1bddc8191bd95cc81b9bdd08195e1a5cdd60421b60448201526064016105ec565b885160208a01516040808801519051633acd4df360e21b81526000936001600160a01b03169263eb3537cc926121cb926004016001600160a01b03929092168252602082015260400190565b606060405180830381865afa1580156121e8573d6000803e3d6000fd5b505050506040513d601f19601f8201168201806040525081019061220c9190614941565b5050905089602001516001600160a01b031686606001516001600160a01b031614158015612254575089604001516001600160a01b031686606001516001600160a01b031614155b801561225e575088155b156123aa5760208a0151604051636b4f333560e01b81526001600160a01b0390911660048201523390636b4f333590602401602060405180830381865afa1580156122ad573d6000803e3d6000fd5b505050506040513d601f19601f820116820180604052508101906122d19190614c47565b158015612349575060408a8101519051636b4f333560e01b81526001600160a01b0390911660048201523390636b4f333590602401602060405180830381865afa158015612323573d6000803e3d6000fd5b505050506040513d601f19601f820116820180604052508101906123479190614c47565b155b156123aa57600081126123aa5760405162461bcd60e51b815260206004820152602360248201527f4346413a2073656e646572206163636f756e74206973206e6f7420637269746960448201526218d85b60ea1b60648201526084016105ec565b60008112156123c8576123c88a600001518286858a6060015161359e565b87878080601f01602080910402602001604051908101604052809392919081815260200183838082843760009201919091525050505060208b015160608801519196506001600160a01b039081169116036124be5760408a8101519051631e51d6a760e11b81526001600160a01b0390911660048201523390633ca3ad4e90602401602060405180830381865afa158015612467573d6000803e3d6000fd5b505050506040513d601f19601f8201168201806040525081019061248b9190614c47565b156124af576124a88a604001518b600001518685898b6002612c92565b9450612780565b89516124a8908584888a6133af565b89604001516001600160a01b031686606001516001600160a01b0316036125f25760208a0151604051631e51d6a760e11b81526001600160a01b0390911660048201523390633ca3ad4e90602401602060405180830381865afa158015612529573d6000803e3d6000fd5b505050506040513d601f19601f8201168201806040525081019061254d9190614c47565b1561256a576124a88a602001518b600001518685898b6002612c92565b60408a8101519051631e51d6a760e11b81526001600160a01b0390911660048201523390633ca3ad4e90602401602060405180830381865afa1580156125b4573d6000803e3d6000fd5b505050506040513d601f19601f820116820180604052508101906125d89190614c47565b156124af576124a860008b600001518685898b6002612c92565b60208a0151604051631e51d6a760e11b81526001600160a01b0390911660048201523390633ca3ad4e90602401602060405180830381865afa15801561263c573d6000803e3d6000fd5b505050506040513d601f19601f820116820180604052508101906126609190614c47565b801561266c5750600081125b156126e65760208a0151604051635b92108f60e11b8152339163b724211e9161269c918991600b90600401614e8c565b6000604051808303816000875af11580156126bb573d6000803e3d6000fd5b505050506040513d6000823e601f3d908101601f191682016040526126e39190810190614eba565b94505b60408a8101519051631e51d6a760e11b81526001600160a01b0390911660048201523390633ca3ad4e90602401602060405180830381865afa158015612730573d6000803e3d6000fd5b505050506040513d601f19601f820116820180604052508101906127549190614c47565b15612771576124a88a604001518b600001518685898b6002612c92565b89516109d3908584888a6133af565b5050505095945050505050565b606060008061279c8785612b1f565b915091506000806127b1896000015185611a8d565b9150915081156128035760405162461bcd60e51b815260206004820152601760248201527f4346413a20666c6f7720616c726561647920657869737400000000000000000060448201526064016105ec565b6040898101519051631e51d6a760e11b81526001600160a01b0390911660048201523390633ca3ad4e90602401602060405180830381865afa15801561284d573d6000803e3d6000fd5b505050506040513d601f19601f820116820180604052508101906128719190614c47565b156128ca576128c389604001518a6000015185848c8c8080601f01602080910402602001604051908101604052809392919081815260200183838082843760009201829052508f93509150612c929050565b9450612915565b612912896000015184838b8b8080601f0160208091040260200160405190810160405280939291908181526020018383808284376000920191909152508d92506133af915050565b94505b88516129219087613487565b50505050949350505050565b60f8161590565b606060008260200151600b0b121561294e5761294e614eef565b60408051600180825281830190925290602080830190803683370190505090508160200151600b0b6080836000015160ff16901b1760001b8160008151811061299957612999614bf7565b602002602001018181525050919050565b60008082600b0b13612a0a5760405162461bcd60e51b815260206004820152602360248201527f4346413a206e6f7420666f72206e6f6e2d706f73697469766520666c6f77207260448201526261746560e81b60648201526084016105ec565b60016001605f1b03612a2084600b85900b614f05565b1115612a675760405162461bcd60e51b81526020600482015260166024820152754346413a20666c6f77207261746520746f6f2062696760501b60448201526064016105ec565b6000612a7383856137aa565b90506104e285826137ee565b6040805180820190915260008082526020820152811580159190612aba5760016001605f1b038316600b0b6020820152608083901c60ff1681525b915091565b6000612ac96143cc565b821580159250612aba5760e083901c8152608083901c6bffffffffffffffffffffffff16600b0b6020808301919091526bffffffffffffffff0000000084821c811660408401529084901b166060820152915091565b6040805160c08101825260008082526020820181905291810182905260608082018390526080820183905260a082015260408401516001600160a01b0316612ba15760405162461bcd60e51b81526020600482015260156024820152744346413a207265636569766572206973207a65726f60581b60448201526064016105ec565b612bb384602001518560400151611a65565b8082526020808601516001600160a01b0390811691840182905260408088015182169085018190526060808801519092168286015290870151600b0b608085015260a0808701519085015291935003612c425760405162461bcd60e51b81526020600482015260116024820152704346413a206e6f2073656c6620666c6f7760781b60448201526064016105ec565b60008160800151600b0b136115f75760405162461bcd60e51b81526020600482015260166024820152754346413a20696e76616c696420666c6f77207261746560501b60448201526064016105ec565b82612c9b614452565b6001600160a01b03891615612e84576000612d30898b8a600001518b602001518c60400151604051602001612ce69291906001600160a01b0392831681529116602082015260400190565b60408051601f1981840301815260e08301825260006080840181905260a0840181905260c08401526001600160a01b03958616835293909416602082015292830152606082015290565b90506000846002811115612d4657612d46614df0565b03612d5b5764010000000060c0820152612d90565b6001846002811115612d6f57612d6f614df0565b03612d845764040000000060c0820152612d90565b64100000000060c08201525b612d9a8187613804565b82526040850151610140860151612db491908b8b8b6139bb565b506080830152508451612dc8906001614f24565b60ff168160800151612dda9190614f05565b60808201526060870151612ded90611f4b565b60a08201526000846002811115612e0657612e06614df0565b03612e1b5764020000000060c0820152612e50565b6001846002811115612e2f57612e2f614df0565b03612e445764080000000060c0820152612e50565b64200000000060c08201525b612e5f81836000015185613d9f565b60408401919091528851909350612e77908a90611a8d565b602084015250612ea29050565b612e9a84604001518561014001518a8a8a6139bb565b602084015250505b6000816040015161010001511315612ee157612ed6612ed1612ecc83604001516101000151614008565b61405a565b611f4b565b604082015161010001525b6000612ef08760600151611f4b565b82604001516101000151612f049190614a28565b9050612f2a81612f1b846020015160400151611f4b565b612f259190614e06565b614008565b82602001516040018181525050612f4c81612f1b846020015160600151611f4b565b60208301805160600191909152885190516001600160a01b038b169163a1b2bf8b91612f779061408e565b6040518363ffffffff1660e01b8152600401612f949291906149eb565b600060405180830381600087803b158015612fae57600080fd5b505af1158015612fc2573d6000803e3d6000fd5b50505050612fde89896020015160008460008a604001516140ff565b50612ff6898960400151600080858a604001516140ff565b506101408501516001600160a01b031615806130285750886001600160a01b03168561014001516001600160a01b0316145b156130a657602082015160409081015190516303c9790560e11b81523391630792f20a9161305c9187918690600401614f49565b6000604051808303816000875af115801561307b573d6000803e3d6000fd5b505050506040513d6000823e601f3d908101601f191682016040526130a39190810190614eba565b92505b6040888101519051631e51d6a760e11b81526001600160a01b0390911660048201523390633ca3ad4e90602401602060405180830381865afa1580156130f0573d6000803e3d6000fd5b505050506040513d601f19601f820116820180604052508101906131149190614c47565b156133a257604088810151868201519151633acd4df360e21b81526001600160a01b0391821660048201526024810192909252600091908b169063eb3537cc90604401606060405180830381865afa158015613174573d6000803e3d6000fd5b505050506040513d601f19601f820116820180604052508101906131989190614941565b509091505060008112156133a05760028560028111156131ba576131ba614df0565b03613345576040808a01519051635b92108f60e11b8152339163b724211e916131ea918891600c90600401614e8c565b6000604051808303816000875af1158015613209573d6000803e3d6000fd5b505050506040513d6000823e601f3d908101601f191682016040526132319190810190614eba565b9350600061325961324183614f6e565b613254600061324f87614f6e565b61426b565b61427a565b90508a6001600160a01b031663cf97256d8b602001518361327990614f6e565b6040516001600160e01b031960e085901b1681526001600160a01b0390921660048301526024820152604401600060405180830381600087803b1580156132bf57600080fd5b505af11580156132d3573d6000803e3d6000fd5b5050505060408a810151905163cf97256d60e01b81526001600160a01b03918216600482015260248101839052908c169063cf97256d90604401600060405180830381600087803b15801561332757600080fd5b505af115801561333b573d6000803e3d6000fd5b50505050506133a0565b60405162461bcd60e51b815260206004820152602a60248201527f4346413a204150505f52554c455f4e4f5f435249544943414c5f524543454956604482015269115497d050d0d3d5539560b21b60648201526084016105ec565b505b5050979650505050505050565b606083810151156133c2576133c2614eef565b60006133cc6143cc565b6133e284604001518561014001518a8a8a6139bb565b6101408701519294509250506001600160a01b03808a169116036134785760408082015190516303c9790560e11b81523391630792f20a9161342a9189918790600401614f49565b6000604051808303816000875af1158015613449573d6000803e3d6000fd5b505050506040513d6000823e601f3d908101601f191682016040526134719190810190614eba565b925061347c565b8492505b505095945050505050565b602081015160ff1660031415806134b55750816001600160a01b03168161014001516001600160a01b031614155b1561359a5760608101516040808301519051633acd4df360e21b81526001600160a01b039283166004820152602481019190915260009184169063eb3537cc90604401606060405180830381865afa158015613515573d6000803e3d6000fd5b505050506040513d601f19601f820116820180604052508101906135399190614941565b5050905060008112156135985760405162461bcd60e51b815260206004820152602160248201527f4346413a206e6f7420656e6f75676820617661696c61626c652062616c616e636044820152606560f81b60648201526084016105ec565b505b5050565b60006135ae8685602001516117e8565b91505060006135c08460400151611f4b565b905060006135d18360400151611f4b565b905060606000806135e2848b614e06565b90506000806135f08d6115fe565b915091506136008c878484611fb9565b93505050600081126136eb576000846136198388614a67565b6136239190614e47565b9050600183613633576001613636565b60005b6040805160ff9384166020820152929091169082015260600160405160208183030381529060405293508b6001600160a01b0316631863e8098b60000151868b878f6020015161368588614008565b61369189600019614a67565b6040518863ffffffff1660e01b81526004016136b39796959493929190614f8a565b600060405180830381600087803b1580156136cd57600080fd5b505af11580156136e1573d6000803e3d6000fd5b505050505061379d565b6040805160016020820152600291810191909152859060600160405160208183030381529060405293508b6001600160a01b0316631863e8098b60000151868b60008f6020015161373b88614008565b6137478a600019614a67565b6040518863ffffffff1660e01b81526004016137699796959493929190614f8a565b600060405180830381600087803b15801561378357600080fd5b505af1158015613797573d6000803e3d6000fd5b50505050505b5050505050505050505050565b600082600b0b6000036137bf57506000611193565b60016001605f1b038211156137d6576137d6614eef565b6137e08284614fd7565b600b0b90506108c08161405a565b60008183116137fd57816108c0565b5090919050565b6020820151604051633e7d48bd60e21b81526001600160a01b03909116600482015260609060009081908190339063f9f522f490602401606060405180830381865afa158015613858573d6000803e3d6000fd5b505050506040513d601f19601f8201168201806040525081019061387c9190615071565b9194509250905082801561388e575081155b156139b257600061389f868861428f565b90508660c0015182166000036139a45760006138be8860c0015161430d565b88516040808b015160608c0151825160008152602081019093526138ea939230929190604481016150ad565b60408051601f19818403018152918152602080830180516001600160e01b03166001600160e01b031990951694909417909352918a015160c08b01519251633a020f0160e11b815291935033926374041e029261395992918691641000000000919091149088906004016150f2565b6000604051808303816000875af1158015613978573d6000803e3d6000fd5b505050506040513d6000823e601f3d908101601f191682016040526139a09190810190614eba565b9550505b6139af8660006143a4565b50505b50505092915050565b6000806139c66143cc565b60008060006139d4896115fe565b5090506000336001600160a01b031663289b3c0d6040518163ffffffff1660e01b8152600401602060405180830381865afa158015613a17573d6000803e3d6000fd5b505050506040513d601f19601f82011682018060405250810190613a3b919061497a565b60405163407b865d60e11b81529091506001600160a01b038216906380f70cba90613a8e9033908e907feae305fa863b373417e615b1044222e2806cefc7788d169ce6748a443c3f6cc490600401614a04565b602060405180830381865afa158015613aab573d6000803e3d6000fd5b505050506040513d601f19601f82011682018060405250810190613acf9190614997565b9250613adf8960800151836137aa565b95505050613af08660600151611f4b565b613afd8760400151611f4b565b613b0686611f4b565b613b109190614a28565b613b1a9190614e06565b9450613b2d85612f1b8860400151611f4b565b91508082108015613b45575060008760800151600b0b135b15613b8757613b578660600151611f4b565b613b648760400151611f4b565b613b6d83611f4b565b613b779190614a28565b613b819190614e06565b94508091505b6001600160a01b03891615801590613bb15750876001600160a01b0316896001600160a01b031614155b15613bbb57600093505b604051806080016040528060008960800151600b0b13613bdc576000613bde565b8b5b81526020018860800151600b0b815260200183815260200187606001518152509250876001600160a01b031663a1b2bf8b8860000151613c1d8661408e565b6040518363ffffffff1660e01b8152600401613c3a9291906149eb565b600060405180830381600087803b158015613c5457600080fd5b505af1158015613c68573d6000803e3d6000fd5b505060408051808201909152600080825260208201529250613c88915050565b613cae88886020015189608001518960200151613ca591906148b0565b8860008f6140ff565b600b0b8152604087015160208701516080890151613cdd928b929091613cd491906148b0565b6000808f6140ff565b600b0b60208083018290526040808a0151918a015160808b0151855160a08d015193516001600160a01b0395861696938616958f16947f57269d2ebcccecdcc0d9d2c0a0b80ead95f344e28ec20f50f709811f209d4e0e94613d4394939290919061513b565b60405180910390a486606001516001600160a01b03167f71e0c98e270fc3084227b473f176924d5303ece8c639e679998a2d7dc8e70f7483604051613d8a91815260200190565b60405180910390a25050955095509592505050565b613da76143f7565b6020840151604051633e7d48bd60e21b81526001600160a01b03909116600482015260609060009081908190339063f9f522f490602401606060405180830381865afa158015613dfb573d6000803e3d6000fd5b505050506040513d601f19601f82011682018060405250810190613e1f9190615071565b88965091945092509050828015613e34575081155b15613ffd57613e43848961428f565b93508760c001518116600003613feb576000613e628960c0015161430d565b89516040808c015160608d015182516000815260208101909352613e909392309291908e9060448101615173565b60408051601f19818403018152918152602080830180516001600160e01b03166001600160e01b031990951694909417909352918b015160c08c0151925163079b42a160e21b81529193503392631e6d0a8492613eff9291869164200000000091909114908b906004016150f2565b6000604051808303816000875af1158015613f1e573d6000803e3d6000fd5b505050506040513d6000823e601f3d908101601f19168201604052613f469190810190614eba565b604051631fb6491d60e11b81529095503390633f6c923a90613f6c90889060040161460d565b600060405180830381865afa158015613f89573d6000803e3d6000fd5b505050506040513d6000823e601f3d908101601f19168201604052613fb19190810190614ce9565b9550613fe3600061324f613fc88c60800151611f4b565b613254613fd88b60e00151611f4b565b8b610100015161426b565b610100870152505b613ffa868661010001516143a4565b93505b505050935093915050565b600080821215611fb55760405162461bcd60e51b815260206004820181905260248201527f53616665436173743a2076616c7565206d75737420626520706f73697469766560448201526064016105ec565b60008063ffffffff831661406f576000614072565b60015b60ff16905060206140858285831c6151cc565b901b9392505050565b6040805160018082528183019092526060916020808301908036833701905050905060208260600151901c604060208460400151901c901b608084602001516bffffffffffffffffffffffff16901b60e08560000151901b17171760001b8160008151811061299957612999614bf7565b60008061410c88886117e8565b91505060008160200151600b0b61412c836000015186612ed19190614e75565b6141369190614a67565b905080156141a15760405163cf97256d60e01b81526001600160a01b038981166004830152602482018390528a169063cf97256d90604401600060405180830381600087803b15801561418857600080fd5b505af115801561419c573d6000803e3d6000fd5b505050505b8682602001516141b191906151e4565b600b0b602083015283825260408201516141d0908790612f1b90611f4b565b604083015260608201516141e9908690612f1b90611f4b565b60608301526001600160a01b03891663090c415e8960006142098661408e565b6040518463ffffffff1660e01b815260040161422793929190615233565b600060405180830381600087803b15801561424157600080fd5b505af1158015614255573d6000803e3d6000fd5b5050506020909201519998505050505050505050565b60008183136137fd57816108c0565b600081831361428957826108c0565b50919050565b6020810151608082015160a08301518351604051630768fabb60e41b8152606094339463768fabb0946142c6948a9460040161525a565b6000604051808303816000875af11580156142e5573d6000803e3d6000fd5b505050506040513d6000823e601f3d908101601f191682016040526108c09190810190614eba565b6000640100000000820361432957506330d9c91560e01b919050565b64040000000082036143435750630221347d60e61b919050565b641000000000820361435d5750635f9e7d7760e01b919050565b6402000000008203614377575063d86ed3e560e01b919050565b6408000000008203614391575063230dbd2960e01b919050565b506353c11f9960e01b919050565b919050565b604051634c4d861f60e11b8152606090339063989b0c3e906142c6908690869060040161529f565b6040518060800160405280600081526020016000600b0b815260200160008152602001600081525090565b604080516101608101825260008082526020820181905291810182905260608082018390526080820183905260a082015260c0810182905260e081018290526101008101829052610120810182905261014081019190915290565b60405180606001604052806060815260200161446c6143cc565b81526020016144796143f7565b905290565b6001600160a01b03811681146107ed57600080fd5b6000806000606084860312156144a857600080fd5b83356144b38161447e565b925060208401356144c38161447e565b915060408401356144d38161447e565b809150509250925092565b600080604083850312156144f157600080fd5b82356144fc8161447e565b946020939093013593505050565b60008083601f84011261451c57600080fd5b50813567ffffffffffffffff81111561453457600080fd5b6020830191508360208285010111156115f757600080fd5b6000806000806060858703121561456257600080fd5b843561456d8161447e565b9350602085013561457d8161447e565b9250604085013567ffffffffffffffff81111561459957600080fd5b6145a58782880161450a565b95989497509550505050565b60005b838110156145cc5781810151838201526020016145b4565b838111156145db576000848401525b50505050565b600081518084526145f98160208601602086016145b1565b601f01601f19169290920160200192915050565b6020815260006108c060208301846145e1565b6000806040838503121561463357600080fd5b823561463e8161447e565b9150602083013561464e8161447e565b809150509250929050565b8035600b81900b811461439f57600080fd5b60008060008060008060a0878903121561468457600080fd5b863561468f8161447e565b9550602087013561469f8161447e565b945060408701356146af8161447e565b93506146bd60608801614659565b9250608087013567ffffffffffffffff8111156146d957600080fd5b6146e589828a0161450a565b979a9699509497509295939492505050565b60006020828403121561470957600080fd5b81356108c08161447e565b60008060006060848603121561472957600080fd5b83356147348161447e565b925060208401356147448161447e565b929592945050506040919091013590565b60008060008060006080868803121561476d57600080fd5b85356147788161447e565b945060208601356147888161447e565b935060408601356147988161447e565b9250606086013567ffffffffffffffff8111156147b457600080fd5b6147c08882890161450a565b969995985093965092949392505050565b6000806000806000608086880312156147e957600080fd5b85356147f48161447e565b945060208601356148048161447e565b935061479860408701614659565b60ff811681146107ed57600080fd5b60008060008060008060a0878903121561483a57600080fd5b86356148458161447e565b955060208701356148558161447e565b945060408701356146af81614812565b6000806040838503121561487857600080fd5b82356148838161447e565b915061489160208401614659565b90509250929050565b634e487b7160e01b600052601160045260246000fd5b600081600b0b83600b0b600081128160016001605f1b0319018312811516156148db576148db61489a565b8160016001605f1b030183138116156148f6576148f661489a565b5090039392505050565b60208082526021908201527f4346413a20455f4558434545445f464c4f575f524154455f414c4c4f57414e436040820152604560f81b606082015260800190565b60008060006060848603121561495657600080fd5b8351925060208401519150604084015190509250925092565b805161439f8161447e565b60006020828403121561498c57600080fd5b81516108c08161447e565b6000602082840312156149a957600080fd5b5051919050565b600081518084526020808501945080840160005b838110156149e0578151875295820195908201906001016149c4565b509495945050505050565b8281526040602082015260006104c960408301846149b0565b6001600160a01b039384168152919092166020820152604081019190915260600190565b60008083128015600160ff1b850184121615614a4657614a4661489a565b6001600160ff1b0384018313811615614a6157614a6161489a565b50500390565b60006001600160ff1b0381841382841380821686840486111615614a8d57614a8d61489a565b600160ff1b6000871282811687830589121615614aac57614aac61489a565b60008712925087820587128484161615614ac857614ac861489a565b87850587128184161615614ade57614ade61489a565b505050929093029392505050565b634e487b7160e01b600052604160045260246000fd5b604051610160810167ffffffffffffffff81118282101715614b2657614b26614aec565b60405290565b604051601f8201601f1916810167ffffffffffffffff81118282101715614b5557614b55614aec565b604052919050565b60006020808385031215614b7057600080fd5b825167ffffffffffffffff80821115614b8857600080fd5b818501915085601f830112614b9c57600080fd5b815181811115614bae57614bae614aec565b8060051b9150614bbf848301614b2c565b8181529183018401918481019088841115614bd957600080fd5b938501935b83851015610ce857845182529385019390850190614bde565b634e487b7160e01b600052603260045260246000fd5b634e487b7160e01b600052601260045260246000fd5b600082614c3257614c32614c0d565b500490565b8051801515811461439f57600080fd5b600060208284031215614c5957600080fd5b6108c082614c37565b805161439f81614812565b80516001600160e01b03198116811461439f57600080fd5b600082601f830112614c9657600080fd5b815167ffffffffffffffff811115614cb057614cb0614aec565b614cc3601f8201601f1916602001614b2c565b818152846020838601011115614cd857600080fd5b6104c98260208301602087016145b1565b600060208284031215614cfb57600080fd5b815167ffffffffffffffff80821115614d1357600080fd5b908301906101608286031215614d2857600080fd5b614d30614b02565b614d3983614c62565b8152614d4760208401614c62565b602082015260408301516040820152614d626060840161496f565b6060820152614d7360808401614c6d565b608082015260a083015182811115614d8a57600080fd5b614d9687828601614c85565b60a08301525060c083015160c082015260e083015160e0820152610100915081830151828201526101209150614dcd82840161496f565b828201526101409150614de182840161496f565b91810191909152949350505050565b634e487b7160e01b600052602160045260246000fd5b600080821280156001600160ff1b0384900385131615614e2857614e2861489a565b600160ff1b8390038412811615614e4157614e4161489a565b50500190565b600082614e5657614e56614c0d565b600160ff1b821460001984141615614e7057614e7061489a565b500590565b600082821015614e8757614e8761489a565b500390565b606081526000614e9f60608301866145e1565b6001600160a01b039490941660208301525060400152919050565b600060208284031215614ecc57600080fd5b815167ffffffffffffffff811115614ee357600080fd5b6104c984828501614c85565b634e487b7160e01b600052600160045260246000fd5b6000816000190483118215151615614f1f57614f1f61489a565b500290565b600060ff821660ff84168060ff03821115614f4157614f4161489a565b019392505050565b606081526000614f5c60608301866145e1565b60208301949094525060400152919050565b6000600160ff1b8201614f8357614f8361489a565b5060000390565b87815260e060208201526000614fa360e08301896145e1565b6001600160a01b03978816604084015295151560608301525092909416608083015260a082015260c0019190915292915050565b600081600b0b83600b0b60016001605f1b036000821360008413838304851182821616156150075761500761489a565b6b7fffffffffffffffffffffff19600085128281168783058712161561502f5761502f61489a565b6000871292508582058712848416161561504b5761504b61489a565b858505871281841616156150615761506161489a565b5050509290910295945050505050565b60008060006060848603121561508657600080fd5b61508f84614c37565b925061509d60208501614c37565b9150604084015190509250925092565b6001600160a01b038681168252851660208201526040810184905260a0606082018190526000906150e0908301856145e1565b8281036080840152610ce881856145e1565b6001600160a01b0385168152608060208201819052600090615116908301866145e1565b8415156040840152828103606084015261513081856145e1565b979650505050505050565b84600b0b815283600b0b602082015282600b0b604082015260806060820152600061516960808301846145e1565b9695505050505050565b6001600160a01b038781168252861660208201526040810185905260c0606082018190526000906151a6908301866145e1565b82810360808401526151b881866145e1565b905082810360a084015261136c81856145e1565b600082198211156151df576151df61489a565b500190565b600081600b0b83600b0b600082128260016001605f1b030382138115161561520e5761520e61489a565b8260016001605f1b031903821281161561522a5761522a61489a565b50019392505050565b60018060a01b03841681528260208201526060604082015260006104e260608301846149b0565b60a08152600061526d60a08301886145e1565b6001600160a01b0396871660208401526040830195909552506060810192909252909216608090920191909152919050565b6040815260006152b260408301856145e1565b9050826020830152939250505056fea2646970667358221220821e5fd89d6f680039e761dc95c041dd8524708172bd7903ba49ff24a7953df464736f6c634300080e0033",
    "linkReferences": {}
  },
  "methodIdentifiers": {
    "DEFAULT_MINIMUM_DEPOSIT()": "04aafa49",
    "MAXIMUM_DEPOSIT()": "9cb28b72",
    "MAXIMUM_FLOW_RATE()": "26b0f536",
    "agreementType()": "7730599e",
    "authorizeFlowOperatorWithFullControl(address,address,bytes)": "54b770e3",
    "createFlow(address,address,int96,bytes)": "62fc305e",
    "createFlowByOperator(address,address,address,int96,bytes)": "94229ecb",
    "deleteFlow(address,address,address,bytes)": "b4b333c6",
    "deleteFlowByOperator(address,address,address,bytes)": "4c8b181f",
    "getAccountFlowInfo(address,address)": "0f1ac495",
    "getCodeAddress()": "50d75d25",
    "getDepositRequiredForFlowRate(address,int96)": "8d997f6e",
    "getFlow(address,address,address)": "e6a1e888",
    "getFlowByID(address,bytes32)": "aabd2668",
    "getFlowOperatorData(address,address,address)": "00422bbe",
    "getFlowOperatorDataByID(address,bytes32)": "09d256ef",
    "getMaximumFlowRateFromDeposit(address,uint256)": "0602f7db",
    "getNetFlow(address,address)": "e8e7e2d1",
    "isPatricianPeriod(address,address,uint256)": "4b839e0b",
    "isPatricianPeriodNow(address,address)": "4fe9c291",
    "proxiableUUID()": "52d1902d",
    "realtimeBalanceOf(address,address,uint256)": "9b2e48bc",
    "revokeFlowOperatorWithFullControl(address,address,bytes)": "062e56ec",
    "updateCode(address)": "46951954",
    "updateFlow(address,address,int96,bytes)": "50209a62",
    "updateFlowByOperator(address,address,address,int96,bytes)": "354b9590",
    "updateFlowOperatorPermissions(address,address,uint8,int96,bytes)": "811b3d40"
  },
  "id": 43
}