{
  "abi": [
    {
      "inputs": [],
      "stateMutability": "nonpayable",
      "type": "constructor"
    },
    {
      "inputs": [
        {
          "internalType": "string",
          "name": "name",
          "type": "string"
        },
        {
          "internalType": "string",
          "name": "symbol",
          "type": "string"
        }
      ],
      "name": "deployWrapperSuperToken",
      "outputs": [
        {
          "internalType": "contract ERC20PresetMinterPauser",
          "name": "token",
          "type": "address"
        },
        {
          "internalType": "contract SuperToken",
          "name": "superToken",
          "type": "address"
        }
      ],
      "stateMutability": "nonpayable",
      "type": "function"
    },
    {
      "inputs": [],
      "name": "getFramework",
      "outputs": [
        {
          "components": [
            {
              "internalType": "contract TestGovernance",
              "name": "governance",
              "type": "address"
            },
            {
              "internalType": "contract Superfluid",
              "name": "host",
              "type": "address"
            },
            {
              "internalType": "contract ConstantFlowAgreementV1",
              "name": "cfa",
              "type": "address"
            },
            {
              "components": [
                {
                  "internalType": "contract ISuperfluid",
                  "name": "host",
                  "type": "address"
                },
                {
                  "internalType": "contract IConstantFlowAgreementV1",
                  "name": "cfa",
                  "type": "address"
                }
              ],
              "internalType": "struct CFAv1Library.InitData",
              "name": "cfaLib",
              "type": "tuple"
            },
            {
              "internalType": "contract InstantDistributionAgreementV1",
              "name": "ida",
              "type": "address"
            },
            {
              "components": [
                {
                  "internalType": "contract ISuperfluid",
                  "name": "host",
                  "type": "address"
                },
                {
                  "internalType": "contract IInstantDistributionAgreementV1",
                  "name": "ida",
                  "type": "address"
                }
              ],
              "internalType": "struct IDAv1Library.InitData",
              "name": "idaLib",
              "type": "tuple"
            },
            {
              "internalType": "contract SuperTokenFactory",
              "name": "superTokenFactory",
              "type": "address"
            }
          ],
          "internalType": "struct SuperfluidFrameworkDeployer.Framework",
          "name": "sf",
          "type": "tuple"
        }
      ],
      "stateMutability": "view",
      "type": "function"
    }
  ],
  "bytecode": {
    "object": "0x60806040523480156200001157600080fd5b5060405162000020906200047b565b604051809103906000f0801580156200003d573d6000803e3d6000fd5b50600080546001600160a01b0319166001600160a01b039290921691909117815560405160019190620000709062000489565b911515825215156020820152604001604051809103906000f0801580156200009c573d6000803e3d6000fd5b50600180546001600160a01b0319166001600160a01b0392831690811790915560005460405163189acdbd60e31b8152921660048301529063c4d66de890602401600060405180830381600087803b158015620000f857600080fd5b505af11580156200010d573d6000803e3d6000fd5b50600092508291506200011d9050565b60405190808252806020026020018201604052801562000147578160200160208202803683370190505b50600054600154604051630b520f0360e31b81529293506001600160a01b0391821692635a907818926200018d9216906045906138409061070890889060040162000515565b600060405180830381600087803b158015620001a857600080fd5b505af1158015620001bd573d6000803e3d6000fd5b50506001546040516001600160a01b039091169250620001de915062000497565b6001600160a01b039091168152602001604051809103906000f0801580156200020b573d6000803e3d6000fd5b50600280546001600160a01b0319166001600160a01b0392831690811790915560005460015460405163cadf8f8560e01b8152908416600482015260248101929092529091169063cadf8f8590604401600060405180830381600087803b1580156200027657600080fd5b505af11580156200028b573d6000803e3d6000fd5b50506001546040516001600160a01b039091169250620002ac9150620004a5565b6001600160a01b039091168152602001604051809103906000f080158015620002d9573d6000803e3d6000fd5b50600380546001600160a01b0319166001600160a01b0392831690811790915560005460015460405163cadf8f8560e01b8152908416600482015260248101929092529091169063cadf8f8590604401600060405180830381600087803b1580156200034457600080fd5b505af115801562000359573d6000803e3d6000fd5b5050505060006040516200036d90620004b3565b604051809103906000f0801580156200038a573d6000803e3d6000fd5b506001546040519192506001600160a01b0316908290620003ab90620004c1565b6001600160a01b03928316815291166020820152604001604051809103906000f080158015620003df573d6000803e3d6000fd5b50600480546001600160a01b0319166001600160a01b039283169081179091556000805460015460408051848152602081019182905263109e50a960e21b9091529185169463427942a4946200043f94929091169290602482016200055c565b600060405180830381600087803b1580156200045a57600080fd5b505af11580156200046f573d6000803e3d6000fd5b5050505050506200059c565b61194c8062002b0383390190565b61569a806200444f83390190565b61538b8062009ae983390190565b61543c806200ee7483390190565b614b2a80620142b083390190565b6113b18062018dda83390190565b600081518084526020808501945080840160005b838110156200050a5781516001600160a01b031687529582019590820190600101620004e3565b509495945050505050565b6001600160a01b03868116825285166020820152604081018490526060810183905260a0608082018190526000906200055190830184620004cf565b979650505050505050565b600060018060a01b038087168352808616602084015260806040840152620005886080840186620004cf565b915080841660608401525095945050505050565b61255780620005ac6000396000f3fe60806040523480156200001157600080fd5b50600436106200003a5760003560e01c8063845531a4146200003f578063dfa98ad5146200007b575b600080fd5b620000566200005036600462000539565b62000160565b604080516001600160a01b039384168152929091166020830152015b60405180910390f35b620001516040805160e08101825260008082526020808301829052828401829052835180850185528281528082018390526060840152608083018290528351808501909452818452830181905260a082019290925260c0810191909152506040805160e0810182526000546001600160a01b03908116825260015481166020808401829052600254831684860181905285518087018752838152808301919091526060850152600354831660808501819052855180870190965291855284015260a082019290925260045490911660c082015290565b604051620000729190620005ac565b600080858585856040516200017590620004df565b62000184949392919062000678565b604051809103906000f080158015620001a1573d6000803e3d6000fd5b509150816001600160a01b0316632f2ff15d836001600160a01b031663a217fddf6040518163ffffffff1660e01b8152600401602060405180830381865afa158015620001f2573d6000803e3d6000fd5b505050506040513d601f19601f82011682018060405250810190620002189190620006ae565b6040516001600160e01b031960e084901b1681526004810191909152336024820152604401600060405180830381600087803b1580156200025857600080fd5b505af11580156200026d573d6000803e3d6000fd5b50505050816001600160a01b0316632f2ff15d836001600160a01b031663d53913936040518163ffffffff1660e01b8152600401602060405180830381865afa158015620002bf573d6000803e3d6000fd5b505050506040513d601f19601f82011682018060405250810190620002e59190620006ae565b6040516001600160e01b031960e084901b1681526004810191909152336024820152604401600060405180830381600087803b1580156200032557600080fd5b505af11580156200033a573d6000803e3d6000fd5b50505050816001600160a01b0316632f2ff15d836001600160a01b031663e63ab1e96040518163ffffffff1660e01b8152600401602060405180830381865afa1580156200038c573d6000803e3d6000fd5b505050506040513d601f19601f82011682018060405250810190620003b29190620006ae565b6040516001600160e01b031960e084901b1681526004810191909152336024820152604401600060405180830381600087803b158015620003f257600080fd5b505af115801562000407573d6000803e3d6000fd5b50506004546040516001600160a01b03909116925063431f1481915084906001906200043a908b908b90602001620006c8565b60405160208183030381529060405288886040516020016200045e929190620006c8565b6040516020818303038152906040526040518563ffffffff1660e01b81526004016200048e94939291906200072e565b6020604051808303816000875af1158015620004ae573d6000803e3d6000fd5b505050506040513d601f19601f82011682018060405250810190620004d491906200078b565b905094509492505050565b611d6480620007be83390190565b60008083601f8401126200050057600080fd5b50813567ffffffffffffffff8111156200051957600080fd5b6020830191508360208285010111156200053257600080fd5b9250929050565b600080600080604085870312156200055057600080fd5b843567ffffffffffffffff808211156200056957600080fd5b6200057788838901620004ed565b909650945060208701359150808211156200059157600080fd5b50620005a087828801620004ed565b95989497509550505050565b81516001600160a01b03908116825260208084015182168184015260408085015183169084015260608085015180518416918501919091520151166080808301919091528201516101208201906200060f60a08401826001600160a01b03169052565b5060a083015180516001600160a01b0390811660c085015260208201511660e08401525060c08301516001600160a01b0381166101008401525092915050565b81835281816020850137506000828201602090810191909152601f909101601f19169091010190565b6040815260006200068e6040830186886200064f565b8281036020840152620006a38185876200064f565b979650505050505050565b600060208284031215620006c157600080fd5b5051919050565b81838237600f60fb1b9101908152600101919050565b6000815180845260005b818110156200070657602081850181015186830182015201620006e8565b8181111562000719576000602083870101525b50601f01601f19169290920160200192915050565b6001600160a01b03851681526000600385106200075b57634e487b7160e01b600052602160045260246000fd5b84602083015260806040830152620007776080830185620006de565b8281036060840152620006a38185620006de565b6000602082840312156200079e57600080fd5b81516001600160a01b0381168114620007b657600080fd5b939250505056fe60806040523480156200001157600080fd5b5060405162001d6438038062001d648339810160408190526200003491620003b5565b8151829082906200004d90600590602085019062000242565b5080516200006390600690602084019062000242565b50506007805460ff19169055506200007d600033620000dd565b620000a97f9f2df0fed2c77648de5860a4cc508cd0818c85b8b8a1ab4ceeef8d981c8956a633620000dd565b620000d57f65d7a28e3265b37a6474929f336521b332c1681b933f6cb9f3376673440d862a33620000dd565b50506200045b565b620000e98282620000ed565b5050565b6200010482826200013060201b6200093d1760201c565b60008281526001602090815260409091206200012b918390620009c1620001d0821b17901c565b505050565b6000828152602081815260408083206001600160a01b038516845290915290205460ff16620000e9576000828152602081815260408083206001600160a01b03851684529091529020805460ff191660011790556200018c3390565b6001600160a01b0316816001600160a01b0316837f2f8788117e7eff1d82e926ec794901d17c78024a50270940304540a733656f0d60405160405180910390a45050565b6000620001e7836001600160a01b038416620001f0565b90505b92915050565b60008181526001830160205260408120546200023957508154600181810184556000848152602080822090930184905584548482528286019093526040902091909155620001ea565b506000620001ea565b82805462000250906200041f565b90600052602060002090601f016020900481019282620002745760008555620002bf565b82601f106200028f57805160ff1916838001178555620002bf565b82800160010185558215620002bf579182015b82811115620002bf578251825591602001919060010190620002a2565b50620002cd929150620002d1565b5090565b5b80821115620002cd5760008155600101620002d2565b634e487b7160e01b600052604160045260246000fd5b600082601f8301126200031057600080fd5b81516001600160401b03808211156200032d576200032d620002e8565b604051601f8301601f19908116603f01168101908282118183101715620003585762000358620002e8565b816040528381526020925086838588010111156200037557600080fd5b600091505b838210156200039957858201830151818301840152908201906200037a565b83821115620003ab5760008385830101525b9695505050505050565b60008060408385031215620003c957600080fd5b82516001600160401b0380821115620003e157600080fd5b620003ef86838701620002fe565b935060208501519150808211156200040657600080fd5b506200041585828601620002fe565b9150509250929050565b600181811c908216806200043457607f821691505b6020821081036200045557634e487b7160e01b600052602260045260246000fd5b50919050565b6118f9806200046b6000396000f3fe608060405234801561001057600080fd5b50600436106101c45760003560e01c806370a08231116100f9578063a457c2d711610097578063d539139311610071578063d5391393146103af578063d547741f146103d6578063dd62ed3e146103e9578063e63ab1e9146103fc57600080fd5b8063a457c2d714610376578063a9059cbb14610389578063ca15c8731461039c57600080fd5b80639010d07c116100d35780639010d07c1461032857806391d148541461035357806395d89b4114610366578063a217fddf1461036e57600080fd5b806370a08231146102e457806379cc67901461030d5780638456cb591461032057600080fd5b8063313ce567116101665780633f4ba83a116101405780633f4ba83a146102ab57806340c10f19146102b357806342966c68146102c65780635c975abb146102d957600080fd5b8063313ce5671461027657806336568abe14610285578063395093511461029857600080fd5b806318160ddd116101a257806318160ddd1461021957806323b872dd1461022b578063248a9ca31461023e5780632f2ff15d1461026157600080fd5b806301ffc9a7146101c957806306fdde03146101f1578063095ea7b314610206575b600080fd5b6101dc6101d73660046115a0565b610423565b60405190151581526020015b60405180910390f35b6101f961044e565b6040516101e891906115f6565b6101dc610214366004611645565b6104e0565b6004545b6040519081526020016101e8565b6101dc61023936600461166f565b6104f8565b61021d61024c3660046116ab565b60009081526020819052604090206001015490565b61027461026f3660046116c4565b61051c565b005b604051601281526020016101e8565b6102746102933660046116c4565b610546565b6101dc6102a6366004611645565b6105c9565b6102746105eb565b6102746102c1366004611645565b610691565b6102746102d43660046116ab565b610730565b60075460ff166101dc565b61021d6102f23660046116f0565b6001600160a01b031660009081526002602052604090205490565b61027461031b366004611645565b61073d565b610274610752565b61033b61033636600461170b565b6107f6565b6040516001600160a01b0390911681526020016101e8565b6101dc6103613660046116c4565b610815565b6101f961083e565b61021d600081565b6101dc610384366004611645565b61084d565b6101dc610397366004611645565b6108c8565b61021d6103aa3660046116ab565b6108d6565b61021d7f9f2df0fed2c77648de5860a4cc508cd0818c85b8b8a1ab4ceeef8d981c8956a681565b6102746103e43660046116c4565b6108ed565b61021d6103f736600461172d565b610912565b61021d7f65d7a28e3265b37a6474929f336521b332c1681b933f6cb9f3376673440d862a81565b60006001600160e01b03198216635a05180f60e01b14806104485750610448826109d6565b92915050565b60606005805461045d90611757565b80601f016020809104026020016040519081016040528092919081815260200182805461048990611757565b80156104d65780601f106104ab576101008083540402835291602001916104d6565b820191906000526020600020905b8154815290600101906020018083116104b957829003601f168201915b5050505050905090565b6000336104ee818585610a0b565b5060019392505050565b600033610506858285610b2f565b610511858585610ba9565b506001949350505050565b60008281526020819052604090206001015461053781610d82565b6105418383610d8c565b505050565b6001600160a01b03811633146105bb5760405162461bcd60e51b815260206004820152602f60248201527f416363657373436f6e74726f6c3a2063616e206f6e6c792072656e6f756e636560448201526e103937b632b9903337b91039b2b63360891b60648201526084015b60405180910390fd5b6105c58282610dae565b5050565b6000336104ee8185856105dc8383610912565b6105e691906117a7565b610a0b565b6106157f65d7a28e3265b37a6474929f336521b332c1681b933f6cb9f3376673440d862a33610815565b6106875760405162461bcd60e51b815260206004820152603960248201527f45524332305072657365744d696e7465725061757365723a206d75737420686160448201527f76652070617573657220726f6c6520746f20756e70617573650000000000000060648201526084016105b2565b61068f610dd0565b565b6106bb7f9f2df0fed2c77648de5860a4cc508cd0818c85b8b8a1ab4ceeef8d981c8956a633610815565b6107265760405162461bcd60e51b815260206004820152603660248201527f45524332305072657365744d696e7465725061757365723a206d7573742068616044820152751d99481b5a5b9d195c881c9bdb19481d1bc81b5a5b9d60521b60648201526084016105b2565b6105c58282610e22565b61073a3382610f0d565b50565b610748823383610b2f565b6105c58282610f0d565b61077c7f65d7a28e3265b37a6474929f336521b332c1681b933f6cb9f3376673440d862a33610815565b6107ee5760405162461bcd60e51b815260206004820152603760248201527f45524332305072657365744d696e7465725061757365723a206d75737420686160448201527f76652070617573657220726f6c6520746f20706175736500000000000000000060648201526084016105b2565b61068f611067565b600082815260016020526040812061080e90836110a4565b9392505050565b6000918252602082815260408084206001600160a01b0393909316845291905290205460ff1690565b60606006805461045d90611757565b6000338161085b8286610912565b9050838110156108bb5760405162461bcd60e51b815260206004820152602560248201527f45524332303a2064656372656173656420616c6c6f77616e63652062656c6f77604482015264207a65726f60d81b60648201526084016105b2565b6105118286868403610a0b565b6000336104ee818585610ba9565b6000818152600160205260408120610448906110b0565b60008281526020819052604090206001015461090881610d82565b6105418383610dae565b6001600160a01b03918216600090815260036020908152604080832093909416825291909152205490565b6109478282610815565b6105c5576000828152602081815260408083206001600160a01b03851684529091529020805460ff1916600117905561097d3390565b6001600160a01b0316816001600160a01b0316837f2f8788117e7eff1d82e926ec794901d17c78024a50270940304540a733656f0d60405160405180910390a45050565b600061080e836001600160a01b0384166110ba565b60006001600160e01b03198216637965db0b60e01b148061044857506301ffc9a760e01b6001600160e01b0319831614610448565b6001600160a01b038316610a6d5760405162461bcd60e51b8152602060048201526024808201527f45524332303a20617070726f76652066726f6d20746865207a65726f206164646044820152637265737360e01b60648201526084016105b2565b6001600160a01b038216610ace5760405162461bcd60e51b815260206004820152602260248201527f45524332303a20617070726f766520746f20746865207a65726f206164647265604482015261737360f01b60648201526084016105b2565b6001600160a01b0383811660008181526003602090815260408083209487168084529482529182902085905590518481527f8c5be1e5ebec7d5bd14f71427d1e84f3dd0314c0f7b2291e5b200ac8c7c3b925910160405180910390a3505050565b6000610b3b8484610912565b90506000198114610ba35781811015610b965760405162461bcd60e51b815260206004820152601d60248201527f45524332303a20696e73756666696369656e7420616c6c6f77616e636500000060448201526064016105b2565b610ba38484848403610a0b565b50505050565b6001600160a01b038316610c0d5760405162461bcd60e51b815260206004820152602560248201527f45524332303a207472616e736665722066726f6d20746865207a65726f206164604482015264647265737360d81b60648201526084016105b2565b6001600160a01b038216610c6f5760405162461bcd60e51b815260206004820152602360248201527f45524332303a207472616e7366657220746f20746865207a65726f206164647260448201526265737360e81b60648201526084016105b2565b610c7a838383611109565b6001600160a01b03831660009081526002602052604090205481811015610cf25760405162461bcd60e51b815260206004820152602660248201527f45524332303a207472616e7366657220616d6f756e7420657863656564732062604482015265616c616e636560d01b60648201526084016105b2565b6001600160a01b03808516600090815260026020526040808220858503905591851681529081208054849290610d299084906117a7565b92505081905550826001600160a01b0316846001600160a01b03167fddf252ad1be2c89b69c2b068fc378daa952ba7f163c4a11628f55a4df523b3ef84604051610d7591815260200190565b60405180910390a3610ba3565b61073a8133611114565b610d96828261093d565b600082815260016020526040902061054190826109c1565b610db88282611178565b600082815260016020526040902061054190826111dd565b610dd86111f2565b6007805460ff191690557f5db9ee0a495bf2e6ff9c91a7834c1ba4fdd244a5e8aa4e537bd38aeae4b073aa335b6040516001600160a01b03909116815260200160405180910390a1565b6001600160a01b038216610e785760405162461bcd60e51b815260206004820152601f60248201527f45524332303a206d696e7420746f20746865207a65726f20616464726573730060448201526064016105b2565b610e8460008383611109565b8060046000828254610e9691906117a7565b90915550506001600160a01b03821660009081526002602052604081208054839290610ec39084906117a7565b90915550506040518181526001600160a01b038316906000907fddf252ad1be2c89b69c2b068fc378daa952ba7f163c4a11628f55a4df523b3ef9060200160405180910390a35050565b6001600160a01b038216610f6d5760405162461bcd60e51b815260206004820152602160248201527f45524332303a206275726e2066726f6d20746865207a65726f206164647265736044820152607360f81b60648201526084016105b2565b610f7982600083611109565b6001600160a01b03821660009081526002602052604090205481811015610fed5760405162461bcd60e51b815260206004820152602260248201527f45524332303a206275726e20616d6f756e7420657863656564732062616c616e604482015261636560f01b60648201526084016105b2565b6001600160a01b038316600090815260026020526040812083830390556004805484929061101c9084906117bf565b90915550506040518281526000906001600160a01b038516907fddf252ad1be2c89b69c2b068fc378daa952ba7f163c4a11628f55a4df523b3ef9060200160405180910390a3505050565b61106f61123b565b6007805460ff191660011790557f62e78cea01bee320cd4e420270b5ea74000d11b0c9f74754ebdbfc544b05a258610e053390565b600061080e8383611281565b6000610448825490565b600081815260018301602052604081205461110157508154600181810184556000848152602080822090930184905584548482528286019093526040902091909155610448565b506000610448565b6105418383836112ab565b61111e8282610815565b6105c557611136816001600160a01b03166014611311565b611141836020611311565b6040516020016111529291906117d6565b60408051601f198184030181529082905262461bcd60e51b82526105b2916004016115f6565b6111828282610815565b156105c5576000828152602081815260408083206001600160a01b0385168085529252808320805460ff1916905551339285917ff6391f5c32d9c69d2a47ea670b442974b53935d1edc7fd64eb21e047a839171b9190a45050565b600061080e836001600160a01b0384166114ad565b60075460ff1661068f5760405162461bcd60e51b815260206004820152601460248201527314185d5cd8589b194e881b9bdd081c185d5cd95960621b60448201526064016105b2565b60075460ff161561068f5760405162461bcd60e51b815260206004820152601060248201526f14185d5cd8589b194e881c185d5cd95960821b60448201526064016105b2565b60008260000182815481106112985761129861184b565b9060005260206000200154905092915050565b60075460ff16156105415760405162461bcd60e51b815260206004820152602a60248201527f45524332305061757361626c653a20746f6b656e207472616e736665722077686044820152691a5b19481c185d5cd95960b21b60648201526084016105b2565b60606000611320836002611861565b61132b9060026117a7565b67ffffffffffffffff81111561134357611343611880565b6040519080825280601f01601f19166020018201604052801561136d576020820181803683370190505b509050600360fc1b816000815181106113885761138861184b565b60200101906001600160f81b031916908160001a905350600f60fb1b816001815181106113b7576113b761184b565b60200101906001600160f81b031916908160001a90535060006113db846002611861565b6113e69060016117a7565b90505b600181111561145e576f181899199a1a9b1b9c1cb0b131b232b360811b85600f166010811061141a5761141a61184b565b1a60f81b8282815181106114305761143061184b565b60200101906001600160f81b031916908160001a90535060049490941c9361145781611896565b90506113e9565b50831561080e5760405162461bcd60e51b815260206004820181905260248201527f537472696e67733a20686578206c656e67746820696e73756666696369656e7460448201526064016105b2565b600081815260018301602052604081205480156115965760006114d16001836117bf565b85549091506000906114e5906001906117bf565b905081811461154a5760008660000182815481106115055761150561184b565b90600052602060002001549050808760000184815481106115285761152861184b565b6000918252602080832090910192909255918252600188019052604090208390555b855486908061155b5761155b6118ad565b600190038181906000526020600020016000905590558560010160008681526020019081526020016000206000905560019350505050610448565b6000915050610448565b6000602082840312156115b257600080fd5b81356001600160e01b03198116811461080e57600080fd5b60005b838110156115e55781810151838201526020016115cd565b83811115610ba35750506000910152565b60208152600082518060208401526116158160408501602087016115ca565b601f01601f19169190910160400192915050565b80356001600160a01b038116811461164057600080fd5b919050565b6000806040838503121561165857600080fd5b61166183611629565b946020939093013593505050565b60008060006060848603121561168457600080fd5b61168d84611629565b925061169b60208501611629565b9150604084013590509250925092565b6000602082840312156116bd57600080fd5b5035919050565b600080604083850312156116d757600080fd5b823591506116e760208401611629565b90509250929050565b60006020828403121561170257600080fd5b61080e82611629565b6000806040838503121561171e57600080fd5b50508035926020909101359150565b6000806040838503121561174057600080fd5b61174983611629565b91506116e760208401611629565b600181811c9082168061176b57607f821691505b60208210810361178b57634e487b7160e01b600052602260045260246000fd5b50919050565b634e487b7160e01b600052601160045260246000fd5b600082198211156117ba576117ba611791565b500190565b6000828210156117d1576117d1611791565b500390565b7f416363657373436f6e74726f6c3a206163636f756e742000000000000000000081526000835161180e8160178501602088016115ca565b7001034b99036b4b9b9b4b733903937b6329607d1b601791840191820152835161183f8160288401602088016115ca565b01602801949350505050565b634e487b7160e01b600052603260045260246000fd5b600081600019048311821515161561187b5761187b611791565b500290565b634e487b7160e01b600052604160045260246000fd5b6000816118a5576118a5611791565b506000190190565b634e487b7160e01b600052603160045260246000fdfea2646970667358221220a8b2a62ba8b6c9639f12636f5f9435df1f5d6f5634736d79cb498c59ed69799264736f6c634300080e0033a264697066735822122050bceb14beda26773a676155c97801efc01c6f582b5317c8c25c5547c9274a7f64736f6c634300080e0033608060405234801561001057600080fd5b5061001a3361001f565b61006f565b600080546001600160a01b038381166001600160a01b0319831681178455604051919092169283917f8be0079c531659141344cd1fd0a4f28419497f9722a3daafe3b4186f6b6457e09190a35050565b6118ce8061007e6000396000f3fe608060405234801561001057600080fd5b50600436106101d95760003560e01c80637f0558e4116101045780638da5cb5b116100a2578063e447cc1d11610071578063e447cc1d1461040c578063f047a2d91461041f578063f2fde38b14610432578063f79a8e631461044557600080fd5b80638da5cb5b146103c25780638ecbd87b146103d3578063ab846f1a146103e6578063cadf8f85146103f957600080fd5b80638a7ff2f7116100de5780638a7ff2f7146103665780638abe04e9146103795780638b93b3f51461039c5780638ce93379146103af57600080fd5b80637f0558e41461032457806380f70cba146103375780638369a0f11461035857600080fd5b8063427942a41161017c578063640b6cc91161014b578063640b6cc9146102e3578063715018a6146102f657806378707cb8146102fe5780637dce4f811461031157600080fd5b8063427942a41461028257806344864b251461029557806345228235146102a85780635a907818146102d057600080fd5b806321964473116101b8578063219644731461023657806325c955c314610249578063325529081461025c57806342148deb1461026f57600080fd5b806286d555146101de57806301a06b97146101f357806319df62ab14610206575b600080fd5b6101f16101ec366004611403565b610458565b005b6101f1610201366004611449565b610573565b610219610214366004611449565b6105f2565b6040516001600160a01b0390911681526020015b60405180910390f35b6101f16102443660046114ce565b610626565b6101f1610257366004611449565b6106ef565b6101f161026a366004611561565b610703565b6101f161027d3660046115ac565b61077f565b6101f1610290366004611601565b610834565b6101f16102a3366004611449565b6109c7565b6102bb6102b6366004611449565b610a32565b6040805192835260208301919091520161022d565b6101f16102de366004611694565b610a7a565b6101f16102f1366004611794565b610b31565b6101f1610b3c565b6101f161030c3660046117d5565b610b50565b6101f161031f366004611561565b610b5c565b6101f1610332366004611794565b610bcc565b61034a610345366004611794565b610c42565b60405190815260200161022d565b610219610345366004611794565b61034a610374366004611449565b610cb3565b61038c610387366004611449565b610ce0565b604051901515815260200161022d565b6101f16103aa366004611449565b610cfb565b6101f16103bd366004611561565b610d6b565b6000546001600160a01b0316610219565b6101f16103e1366004611449565b610dca565b6101f16103f4366004611561565b610e3e565b6101f1610407366004611449565b610e9a565b6101f161041a366004611449565b610ed2565b61038c61042d366004611561565b610f46565b6101f1610440366004611828565b610f61565b6101f1610453366004611403565b610fda565b808211801561046a575063ffffffff82105b8015610479575063ffffffff81105b6104e65760405162461bcd60e51b815260206004820152603360248201527f5346476f763a20496e76616c6964206c69717569646174696f6e506572696f64604482015272081bdc881c185d1c9a58da585b94195c9a5bd9606a1b60648201526084015b60405180910390fd5b6040805160018152602081018490529081018290526001600160a01b0380851691908616907f60a59221512cd8cbfb226200f7ba6f20dc4b38a3cf04993d17ea4e56d26aa1869060600160405180910390a3602082901b811761056b85857fe420d96e81cb4a6b2abb2366c4f93312d4e2ae878a7d4b22e73472fdad891f7884610fe2565b505b50505050565b604080516000808252602082018190528183015290516001600160a01b0383811692908516917f60a59221512cd8cbfb226200f7ba6f20dc4b38a3cf04993d17ea4e56d26aa1869181900360600190a36105ee82827fe420d96e81cb4a6b2abb2366c4f93312d4e2ae878a7d4b22e73472fdad891f78611095565b5050565b600061061f83837f9f60ae461adf056670e03ae602566409933242392cb06744f5747c9f38b05d09610c42565b9392505050565b8281146106835760405162461bcd60e51b815260206004820152602560248201527f5346476f763a2061727261797320617265206e6f74207468652073616d65206c6044820152640cadccee8d60db1b60648201526084016104dd565b60005b818110156106e7576106d7868686848181106106a4576106a4611845565b90506020020160208101906106b99190611828565b8585858181106106cb576106cb611845565b90506020020135610bcc565b6106e08161185b565b9050610686565b505050505050565b6105ee8260006106fe84611156565b611095565b60408051600181526001600160a01b03838116602083015280851692908616917f14e12f219a4f9023456dc7832e10119ab768b8ccefc8cb79bc6de0419781eeeb910160405180910390a361077a83837f9f60ae461adf056670e03ae602566409933242392cb06744f5747c9f38b05d09846111e9565b505050565b826107898161129e565b60005b8281101561056b57846001600160a01b031663787afde78585848181106107b5576107b5611845565b90506020020160208101906107ca9190611828565b6040516001600160e01b031960e084901b1681526001600160a01b039091166004820152602401600060405180830381600087803b15801561080b57600080fd5b505af115801561081f573d6000803e3d6000fd5b505050508061082d9061185b565b905061078c565b8461083e8161129e565b6001600160a01b038516156108a9576040516311a5465560e21b81526001600160a01b038681166004830152871690634695195490602401600060405180830381600087803b15801561089057600080fd5b505af11580156108a4573d6000803e3d6000fd5b505050505b60005b8381101561095457866001600160a01b03166306cecba88686848181106108d5576108d5611845565b90506020020160208101906108ea9190611828565b6040516001600160e01b031960e084901b1681526001600160a01b039091166004820152602401600060405180830381600087803b15801561092b57600080fd5b505af115801561093f573d6000803e3d6000fd5b505050508061094d9061185b565b90506108ac565b506001600160a01b038216156106e7576040516354fbc49360e01b81526001600160a01b0383811660048301528716906354fbc49390602401600060405180830381600087803b1580156109a757600080fd5b505af11580156109bb573d6000803e3d6000fd5b50505050505050505050565b816109d18161129e565b604051631ca0c40360e21b81526001600160a01b038381166004830152841690637283100c906024015b600060405180830381600087803b158015610a1557600080fd5b505af1158015610a29573d6000803e3d6000fd5b50505050505050565b6000806000610a6285857fe420d96e81cb4a6b2abb2366c4f93312d4e2ae878a7d4b22e73472fdad891f78610c42565b63ffffffff602082901c811697911695509350505050565b6001600160a01b038516610a9057610a90611882565b6002546001600160a01b031615610aa957610aa9611882565b600280546001600160a01b0319166001600160a01b038716908117909155610ad390600086610703565b610ae08560008585610458565b60005b81518110156106e7576002548251610b21916001600160a01b031690600090859085908110610b1457610b14611845565b6020026020010151610e3e565b610b2a8161185b565b9050610ae3565b61077a838383611095565b610b446112d5565b610b4e600061132f565b565b61056d848484846111e9565b610b718383610b6a8461137f565b6000610fe2565b60408051600181526001600160a01b038381166020830152600092820192909252818416918516907f168da2dec91b2e06e30d49955479383e76f71ba185807a8a5b75e2ed563e1d27906060015b60405180910390a3505050565b6040805160018152602081018390526001600160a01b0380851692908616917fc055c4a3853372c08a98805545379133f00f7261d956b9197729d67f37a82a53910160405180910390a361077a83837feae305fa863b373417e615b1044222e2806cefc7788d169ce6748a443c3f6cc484610fe2565b6001600160a01b03808416600090815260016020908152604080832093861683529281528282208483529052908120805460ff16610ca757506001600160a01b0384166000908152600160209081526040808320838052825280832085845290915290205b60010154949350505050565b600061061f83837feae305fa863b373417e615b1044222e2806cefc7788d169ce6748a443c3f6cc4610c42565b6000610cf183600061034585611156565b6001149392505050565b803b80610d545760405162461bcd60e51b815260206004820152602160248201527f5346476f763a20666163746f7279206d757374206265206120636f6e747261636044820152601d60fa1b60648201526084016104dd565b506105ee826000610d6484611156565b6001610fe2565b6040805160008082526001600160a01b03848116602084015292820152818416918516907f168da2dec91b2e06e30d49955479383e76f71ba185807a8a5b75e2ed563e1d279060600160405180910390a361077a83836106fe8461137f565b60408051600080825260208201526001600160a01b0380841692908516917fc055c4a3853372c08a98805545379133f00f7261d956b9197729d67f37a82a53910160405180910390a36105ee82827feae305fa863b373417e615b1044222e2806cefc7788d169ce6748a443c3f6cc4611095565b610e4c8383610d648461137f565b6040805160018082526001600160a01b03848116602084015292820152818416918516907f168da2dec91b2e06e30d49955479383e76f71ba185807a8a5b75e2ed563e1d2790606001610bbf565b81610ea48161129e565b6040516315a024e160e01b81526001600160a01b0383811660048301528416906315a024e1906024016109fb565b60408051600080825260208201526001600160a01b0380841692908516917f14e12f219a4f9023456dc7832e10119ab768b8ccefc8cb79bc6de0419781eeeb910160405180910390a36105ee82827f9f60ae461adf056670e03ae602566409933242392cb06744f5747c9f38b05d09611095565b6000610f5684846103458561137f565b600114949350505050565b610f696112d5565b6001600160a01b038116610fce5760405162461bcd60e51b815260206004820152602660248201527f4f776e61626c653a206e6577206f776e657220697320746865207a65726f206160448201526564647265737360d01b60648201526084016104dd565b610fd78161132f565b50565b61056d848484845b83610fec8161129e565b60408051848152600160208201529081018390526001600160a01b0380861691908716907f33afe19ae6902b933890ff48190fabdc4cf7f5ab499be9c4d9d98e3b4562e3909060600160405180910390a350604080518082018252600180825260208083019485526001600160a01b039788166000908152828252848120979098168852958652828720948752939094529093209151825460ff19169015151782559151910155565b8261109f8161129e565b826001600160a01b0316846001600160a01b03167f33afe19ae6902b933890ff48190fabdc4cf7f5ab499be9c4d9d98e3b4562e390846000806040516110f8939291909283529015156020830152604082015260600190565b60405180910390a350604080518082018252600080825260208083018281526001600160a01b03978816835260018083528584209790981683529581528382209482529390935291209051815460ff19169015151781559051910155565b6040805160208101829052603960608201527f6f72672e7375706572666c7569642d66696e616e63652e7375706572666c756960808201527f642e61707057686974654c697374696e672e666163746f72790000000000000060a08201526001600160a01b0383169181019190915260009060c0015b604051602081830303815290604052805190602001209050919050565b836111f38161129e565b60408051848152600160208201526001600160a01b03848116828401529151868316928816917f33afe19ae6902b933890ff48190fabdc4cf7f5ab499be9c4d9d98e3b4562e390919081900360600190a35060408051808201825260018082526001600160a01b03938416602080840191825297851660009081528289528481209790951685529587528284209484529390955290209251835460ff19169015151783559051910155565b6002546001600160a01b038281169116146112bb576112bb611882565b6000546001600160a01b03163314610fd757610fd7611882565b6000546001600160a01b03163314610b4e5760405162461bcd60e51b815260206004820181905260248201527f4f776e61626c653a2063616c6c6572206973206e6f7420746865206f776e657260448201526064016104dd565b600080546001600160a01b038381166001600160a01b0319831681178455604051919092169283917f8be0079c531659141344cd1fd0a4f28419497f9722a3daafe3b4186f6b6457e09190a35050565b6040805160208101829052603260608201527f6f72672e7375706572666c7569642d66696e616e63652e7375706572666c756960808201527132173a393ab9ba32b22337b93bb0b93232b960711b60a08201526001600160a01b0383169181019190915260009060c0016111cc565b6001600160a01b0381168114610fd757600080fd5b6000806000806080858703121561141957600080fd5b8435611424816113ee565b93506020850135611434816113ee565b93969395505050506040820135916060013590565b6000806040838503121561145c57600080fd5b8235611467816113ee565b91506020830135611477816113ee565b809150509250929050565b60008083601f84011261149457600080fd5b50813567ffffffffffffffff8111156114ac57600080fd5b6020830191508360208260051b85010111156114c757600080fd5b9250929050565b6000806000806000606086880312156114e657600080fd5b85356114f1816113ee565b9450602086013567ffffffffffffffff8082111561150e57600080fd5b61151a89838a01611482565b9096509450604088013591508082111561153357600080fd5b5061154088828901611482565b969995985093965092949392505050565b803561155c816113ee565b919050565b60008060006060848603121561157657600080fd5b8335611581816113ee565b92506020840135611591816113ee565b915060408401356115a1816113ee565b809150509250925092565b6000806000604084860312156115c157600080fd5b83356115cc816113ee565b9250602084013567ffffffffffffffff8111156115e857600080fd5b6115f486828701611482565b9497909650939450505050565b60008060008060006080868803121561161957600080fd5b8535611624816113ee565b94506020860135611634816113ee565b9350604086013567ffffffffffffffff81111561165057600080fd5b61165c88828901611482565b9094509250506060860135611670816113ee565b809150509295509295909350565b634e487b7160e01b600052604160045260246000fd5b600080600080600060a086880312156116ac57600080fd5b85356116b7816113ee565b94506020868101356116c8816113ee565b94506040870135935060608701359250608087013567ffffffffffffffff808211156116f357600080fd5b818901915089601f83011261170757600080fd5b8135818111156117195761171961167e565b8060051b604051601f19603f8301168101818110858211171561173e5761173e61167e565b60405291825284820192508381018501918c83111561175c57600080fd5b938501935b828510156117815761177285611551565b84529385019392850192611761565b8096505050505050509295509295909350565b6000806000606084860312156117a957600080fd5b83356117b4816113ee565b925060208401356117c4816113ee565b929592945050506040919091013590565b600080600080608085870312156117eb57600080fd5b84356117f6816113ee565b93506020850135611806816113ee565b925060408501359150606085013561181d816113ee565b939692955090935050565b60006020828403121561183a57600080fd5b813561061f816113ee565b634e487b7160e01b600052603260045260246000fd5b60006001820161187b57634e487b7160e01b600052601160045260246000fd5b5060010190565b634e487b7160e01b600052600160045260246000fdfea26469706673582212202e538a007c2842cbb8f6f38c12bb90275fd2e7b211998d09796977c5a9af9c3964736f6c634300080e0033610100604052600160c052622dc6c060e0523480156200001e57600080fd5b506040516200569a3803806200569a833981016040819052620000419162000068565b901515608052151560a052620000a0565b805180151581146200006357600080fd5b919050565b600080604083850312156200007c57600080fd5b620000878362000052565b9150620000976020840162000052565b90509250929050565b60805160a05160c05160e05161556c6200012e6000396000818161037101528181612d080152612d960152600081816107020152612b4501526000818161058501528181611f390152818161254201526129c20152600081816106b9015281816107aa01528181610bd0015281816112a60152818161141d0152818161157c01526128c5015261556c6000f3fe608060405234801561001057600080fd5b50600436106102a05760003560e01c806374041e0211610167578063bbe4fd50116100ce578063cd312ec411610087578063cd312ec4146106b4578063e8dccb7d146106db578063f213bb02146106fd578063f2e55caf14610724578063f37330521461072c578063f9f522f41461073f57600080fd5b8063bbe4fd5014610642578063bced3ddc14610648578063bd1c448b1461065b578063bf4287341461066e578063c4d66de814610681578063c56a069d1461069457600080fd5b8063a5dbbbcd11610120578063a5dbbbcd146105a7578063ad3915c8146105ba578063b6d200de146105cd578063b724211e146105e0578063ba48b5f8146105f3578063bb84cfa11461060657600080fd5b806374041e0214610521578063768fabb014610534578063787afde7146105475780638ca484841461055a578063989b0c3e1461056d5780639d297e301461058057600080fd5b8063469519541161020b578063572b6c05116101c4578063572b6c05146104b1578063670e77e3146104c45780636ad3ca7d146104d75780636b4f3335146104ea5780637283100c146104fd578063731aed6e1461051057600080fd5b80634695195414610422578063486ff0cd1461043557806350d75d251461045357806352d1902d1461045b57806354fbc4931461048b57806357121e0c1461049e57600080fd5b8063289b3c0d1161025d578063289b3c0d1461034157806333d608f11461036c57806339255d5b146103ab5780633ca3ad4e146103be5780633f6c923a146103e15780634329d2931461040157600080fd5b806306cecba8146102a55780630792f20a146102ba57806313349046146102e357806315a024e1146103085780631e6d0a841461031b5780631e855cf31461032e575b600080fd5b6102b86102b33660046142d3565b61076f565b005b6102cd6102c8366004614338565b61094c565b6040516102da91906143e0565b60405180910390f35b6102f66102f13660046142d3565b610a44565b60405160ff90911681526020016102da565b6102b86103163660046142d3565b610a67565b6102cd610329366004614401565b610d33565b6102cd61033c366004614582565b610fa1565b6000546201000090046001600160a01b03165b6040516001600160a01b0390911681526020016102da565b6103937f000000000000000000000000000000000000000000000000000000000000000081565b6040516001600160401b0390911681526020016102da565b6102cd6103b93660046145d1565b610fb5565b6103d16103cc3660046142d3565b610fcb565b60405190151581526020016102da565b6103f46103ef366004614646565b610fe8565b6040516102da919061467a565b61041461040f36600461475b565b610ff9565b6040516102da929190614807565b6102b86104303660046142d3565b611274565b604080518082019091526002815261763160f01b60208201526102cd565b6103546113ac565b7fcd355cae2c435f8c5e0c626c4691d22fd85aa7422a424c6f0bced6e64c7aba745b6040519081526020016102da565b6102b86104993660046142d3565b6113db565b6102b86104ac3660046142d3565b61165c565b6103d16104bf3660046142d3565b6117b2565b6102b86104d236600461482c565b61183c565b6102b86104e536600461482c565b61184d565b6103d16104f83660046142d3565b611857565b6102b861050b3660046142d3565b61187b565b6003546001600160a01b0316610354565b6102cd61052f366004614401565b611922565b6102cd610542366004614945565b611a9c565b6102b86105553660046142d3565b611c54565b6103d16105683660046142d3565b611d96565b6102cd61057b3660046149c0565b611e5b565b6103d17f000000000000000000000000000000000000000000000000000000000000000081565b61047d6105b5366004614a0b565b611eee565b6102b86105c8366004614a2d565b611f37565b6103546105db366004614a2d565b611fc2565b6102cd6105ee366004614a46565b612028565b6102cd610601366004614aa2565b6120e8565b6103d1610614366004614b24565b6001600160a01b03918216600090815260056020908152604080832093909416825291909152205460ff1690565b4261047d565b61047d610656366004614a0b565b6124b4565b6102b8610669366004614b5d565b6124fc565b6103d161067c366004614ba8565b612651565b6102b861068f3660046142d3565b612692565b6106a76106a2366004614a2d565b6127be565b6040516102da9190614be9565b6103d17f000000000000000000000000000000000000000000000000000000000000000081565b6103d16106e9366004614a2d565b600090815260026020526040902054151590565b61047d7f000000000000000000000000000000000000000000000000000000000000000081565b6103546128a8565b6102b861073a366004614c36565b612970565b61075261074d3660046142d3565b612ad2565b6040805193151584529115156020840152908201526060016102da565b6000546201000090046001600160a01b031633146107a85760405162461bcd60e51b815260040161079f90614c62565b60405180910390fd5b7f0000000000000000000000000000000000000000000000000000000000000000156107e65760405162461bcd60e51b815260040161079f90614c99565b6000816001600160a01b0316637730599e6040518163ffffffff1660e01b8152600401602060405180830381865afa158015610826573d6000803e3d6000fd5b505050506040513d601f19601f8201168201806040525081019061084a9190614cc5565b60008181526002602052604081205491925081900361087b5760405162461bcd60e51b815260040161079f90614cde565b600060016108898184614d36565b8154811061089957610899614d4d565b6000918252602090912001546040516311a5465560e21b81526001600160a01b03868116600483015290911691508190634695195490602401600060405180830381600087803b1580156108ec57600080fd5b505af1158015610900573d6000803e3d6000fd5b5050604080518681526001600160a01b03881660208201527f9279aa773f2b588996032d8de89911555039f28b13a11a7c17074330bc082d9a935001905060405180910390a150505050565b606061095733611d96565b6109735760405162461bcd60e51b815260040161079f90614d63565b84848080601f0160208091040260200160405190810160405280939291908181526020018383808284376000920191909152506109b59250839150612b219050565b6109c1576109c1614da6565b6000610a0287878080601f016020809104026020016040519081016040528093929190818152602001838380828437600092019190915250610fe892505050565b9050848160e00151610a149190614dbc565b60e0820152610100810151610a2a908590614dd4565b610100820152610a3981612b41565b979650505050505050565b6001600160a01b03811660009081526004602052604081205460ff165b92915050565b6000546201000090046001600160a01b03163314610a975760405162461bcd60e51b815260040161079f90614c62565b6000816001600160a01b0316637730599e6040518163ffffffff1660e01b8152600401602060405180830381865afa158015610ad7573d6000803e3d6000fd5b505050506040513d601f19601f82011682018060405250810190610afb9190614cc5565b60008181526002602052604090205490915015610b695760405162461bcd60e51b815260206004820152602660248201527f53463a2061677265656d656e7420636c61737320616c726561647920726567696044820152651cdd195c995960d21b606482015260840161079f565b60015461010011610bcc5760405162461bcd60e51b815260206004820152602760248201527f53463a20737570706f727420757020746f203235362061677265656d656e7420604482015266636c617373657360c81b606482015260840161079f565b60007f0000000000000000000000000000000000000000000000000000000000000000610c86576000604051610c0190614256565b604051809103906000f080158015610c1d573d6000803e3d6000fd5b50604051634a0687ef60e01b81526001600160a01b03868116600483015291925090821690634a0687ef90602401600060405180830381600087803b158015610c6557600080fd5b505af1158015610c79573d6000803e3d6000fd5b5050505080915050610c89565b50815b6001805480820182557fb10e2d527612073b26eecdfd717e6a320cf44b4afac2b0732d9fcbe2b7fa0cf60180546001600160a01b0384166001600160a01b0319909116179055546000838152600260205260409081902091909155517f878135063a6cfb3bc333e534b1fdc83f4f12221cad6705c31c0567048a8bd3d190610d2690849086909182526001600160a01b0316602082015260400190565b60405180910390a1505050565b6060610d3e33611d96565b610d5a5760405162461bcd60e51b815260040161079f90614d63565b82828080601f016020809104026020016040519081016040528093929190818152602001838380828437600092019190915250610d9c9250839150612b219050565b610da857610da8614da6565b600080610e228a6000898c8c8080601f01602080910402602001604051908101604052809392919081815260200183838082843760009201919091525050604080516020601f8f018190048102820181019092528d815292508d91508c9081908401838280828437600092019190915250612ccb92505050565b915091508115610f5a57610e3581612e92565b15610ec65780806020019051810190610e4e9190614e5a565b9350610e5984612b21565b610ec15786610e7a5760405162461bcd60e51b815260040161079f90614e8e565b85858080601f016020809104026020016040519081016040528093929190818152602001838380828437600092019190915250929650610ec192508c915060149050612ee6565b610f94565b86610f135760405162461bcd60e51b815260206004820152601f60248201527f53463a204150505f52554c455f4354585f49535f4d414c464f524d4154454400604482015260640161079f565b85858080601f016020809104026020016040519081016040528093929190818152602001838380828437600092019190915250929650610ec192508c915060169050612ee6565b85858080601f0160208091040260200160405190810160405280939291908181526020018383808284376000920191909152509296505050505b5050509695505050505050565b6060610fae338484612f5b565b9392505050565b6060610fc333858585613239565b949350505050565b6001600160a01b0316600090815260046020526040902054151590565b610ff0614263565b610a618261338c565b60608083838080601f01602080910402602001604051908101604052809392919081815260200183838082843760009201919091525061103e9250839150612b219050565b61108a5760405162461bcd60e51b815260206004820152601d60248201527f53463a204150505f52554c455f4354585f49535f4e4f545f56414c4944000000604482015260640161079f565b8961109481611d96565b6110b05760405162461bcd60e51b815260040161079f90614ec5565b60006110f187878080601f016020809104026020016040519081016040528093929190818152602001838380828437600092019190915250610fe892505050565b6101208101519091506001600160a01b031633146111695760405162461bcd60e51b815260206004820152602f60248201527f53463a2063616c6c41677265656d656e7457697468436f6e746578742066726f60448201526e6d2077726f6e67206164647265737360881b606482015260840161079f565b60608101805133909152604080516020601f8c018190048102820181019092528a8152908b908b908190840183828082843760009201919091525050505060a08301526111b582612b41565b955060006111fb8e8e8e8080601f0160208091040260200160405190810160405280939291908181526020018383808284376000920191909152508c9250613457915050565b96509050801561125a57858060200190518101906112199190614e5a565b965061122487612b21565b61123057611230614da6565b61123987610fe8565b6001600160a01b0383166060820152925061125383612b41565b9650611263565b6112638661353c565b505050505097509795505050505050565b6000546201000090046001600160a01b031633146112a45760405162461bcd60e51b815260040161079f90614c62565b7f0000000000000000000000000000000000000000000000000000000000000000156112e25760405162461bcd60e51b815260040161079f90614c99565b806001600160a01b031663cd312ec46040518163ffffffff1660e01b8152600401602060405180830381865afa158015611320573d6000803e3d6000fd5b505050506040513d601f19601f820116820180604052508101906113449190614f07565b156113a05760405162461bcd60e51b815260206004820152602660248201527f53463a2063616e6e6f7420646f776e677261646520746f206e6f6e2075706772604482015265616461626c6560d01b606482015260840161079f565b6113a981613647565b50565b60006113d67f360894a13ba1a3210667c828492db98dca3e2076cc3735a920a3ca505d382bbc5490565b905090565b6000546201000090046001600160a01b0316331461140b5760405162461bcd60e51b815260040161079f90614c62565b6003546001600160a01b031661157a577f00000000000000000000000000000000000000000000000000000000000000006114f157600060405161144e90614256565b604051809103906000f08015801561146a573d6000803e3d6000fd5b50604051634a0687ef60e01b81526001600160a01b03848116600483015291925090821690634a0687ef90602401600060405180830381600087803b1580156114b257600080fd5b505af11580156114c6573d6000803e3d6000fd5b5050600380546001600160a01b0319166001600160a01b0394909416939093179092555061150d9050565b600380546001600160a01b0319166001600160a01b0383161790555b600360009054906101000a90046001600160a01b03166001600160a01b0316638129fc1c6040518163ffffffff1660e01b8152600401600060405180830381600087803b15801561155d57600080fd5b505af1158015611571573d6000803e3d6000fd5b50505050611618565b7f0000000000000000000000000000000000000000000000000000000000000000156115b85760405162461bcd60e51b815260040161079f90614c99565b6003546040516311a5465560e21b81526001600160a01b03838116600483015290911690634695195490602401600060405180830381600087803b1580156115ff57600080fd5b505af1158015611613573d6000803e3d6000fd5b505050505b6003546040516001600160a01b0390911681527fce13a9895a1719ad4493b2ac1a9bfb36070566161abab408e7ecbe586da8d499906020015b60405180910390a150565b3361166681610fcb565b6116b25760405162461bcd60e51b815260206004820152601860248201527f53463a2073656e646572206973206e6f7420616e206170700000000000000000604482015260640161079f565b6116bb82610fcb565b6117075760405162461bcd60e51b815260206004820152601860248201527f53463a20746172676574206973206e6f7420616e206170700000000000000000604482015260640161079f565b61171082610a44565b60ff1661171c82610a44565b60ff16116117805760405162461bcd60e51b815260206004820152602b60248201527f53463a20736f75726365206170702073686f756c64206861766520686967686560448201526a1c88185c1c081b195d995b60aa1b606482015260840161079f565b503360009081526005602090815260408083206001600160a01b0394909416835292905220805460ff19166001179055565b600080546201000090046001600160a01b03166380f70cba30836117d586613881565b6040518463ffffffff1660e01b81526004016117f393929190614f24565b602060405180830381865afa158015611810573d6000803e3d6000fd5b505050506040513d601f19601f820116820180604052508101906118349190614cc5565b151592915050565b6113a9611847613909565b82613971565b6113a93382613971565b6001600160a01b038116600090815260046020526040812054618000161515610a61565b6000546201000090046001600160a01b031633146118ab5760405162461bcd60e51b815260040161079f90614c62565b600054604080516001600160a01b03620100009093048316815291831660208301527f13abda02e63c790d0e2818b251282cfe5cbe0a8abd69c54bf5d2260c0907bd2e910160405180910390a1600080546001600160a01b03909216620100000262010000600160b01b0319909216919091179055565b606061192d33611d96565b6119495760405162461bcd60e51b815260040161079f90614d63565b82828080601f01602080910402602001604051908101604052809392919081815260200183838082843760009201919091525061198b9250839150612b219050565b61199757611997614da6565b600080611a118a6001898c8c8080601f01602080910402602001604051908101604052809392919081815260200183838082843760009201919091525050604080516020601f8f018190048102820181019092528d815292508d91508c9081908401838280828437600092019190915250612ccb92505050565b915091508115610f9457611a2481612e92565b15611a445780806020019051810190611a3d9190614e5a565b9350610f94565b86611a915760405162461bcd60e51b815260206004820152601f60248201527f53463a204150505f52554c455f4354585f49535f4d414c464f524d4154454400604482015260640161079f565b610f948a6016612ee6565b6060611aa733611d96565b611ac35760405162461bcd60e51b815260040161079f90614d63565b86868080601f016020809104026020016040519081016040528093929190818152602001838380828437600092019190915250611b059250839150612b219050565b611b1157611b11614da6565b6000611b5289898080601f016020809104026020016040519081016040528093929190818152602001838380828437600092019190915250610fe892505050565b9050611b618160600151610fcb565b15611bf65760608101516001600160a01b039081166000908152600560209081526040808320938b168352929052205460ff16611bf65760405162461bcd60e51b815260206004820152602d60248201527f53463a204150505f52554c455f434f4d504f534954455f4150505f49535f4e4f60448201526c1517d5d2125511531254d51151609a1b606482015260840161079f565b805181611c0282614f48565b60ff169052506003602082015260c08101869052600060e082015261010081018590526001600160a01b038088166101208301528416610140820152611c4781612b41565b9998505050505050505050565b6000546201000090046001600160a01b03163314611c845760405162461bcd60e51b815260040161079f90614c62565b60035460408051634a3852d960e11b815290516000926001600160a01b031691639470a5b29160048083019260209291908290030181865afa158015611cce573d6000803e3d6000fd5b505050506040513d601f19601f82011682018060405250810190611cf29190614f67565b6040516311a5465560e21b81526001600160a01b03808316600483015291925090831690634695195490602401600060405180830381600087803b158015611d3957600080fd5b505af1158015611d4d573d6000803e3d6000fd5b50506040516001600160a01b038481168252851692507f840acbd291b38534819f47f875839277e502f40e1c7bfea2c5fc2c8017442cd391506020015b60405180910390a25050565b600080826001600160a01b0316637730599e6040518163ffffffff1660e01b8152600401602060405180830381865afa158015611dd7573d6000803e3d6000fd5b505050506040513d601f19601f82011682018060405250810190611dfb9190614cc5565b6000818152600260205260409020549091508015801590610fc357506001600160a01b0384166001611e2d8184614d36565b81548110611e3d57611e3d614d4d565b6000918252602090912001546001600160a01b031614949350505050565b6060611e6633611d96565b611e825760405162461bcd60e51b815260040161079f90614d63565b6000611ec385858080601f016020809104026020016040519081016040528093929190818152602001838380828437600092019190915250610fe892505050565b905082816101000151611ed69190614dd4565b610100820152611ee581612b41565b95945050505050565b600081815260026020526040812054808203611f1c5760405162461bcd60e51b815260040161079f90614cde565b611f27600182614d36565b6001901b19841691505092915050565b7f000000000000000000000000000000000000000000000000000000000000000015611fb65760405162461bcd60e51b815260206004820152602860248201527f53463a2061707020726567697374726174696f6e2072657175697265732070656044820152673936b4b9b9b4b7b760c11b606482015260840161079f565b6113a981336001613db5565b600081815260026020526040812054808203611ff05760405162461bcd60e51b815260040161079f90614cde565b6001611ffc8183614d36565b8154811061200c5761200c614d4d565b6000918252602090912001546001600160a01b03169392505050565b606061203333611d96565b61204f5760405162461bcd60e51b815260040161079f90614d63565b84848080601f0160208091040260200160405190810160405280939291908181526020018383808284376000920191909152506120919250839150612b219050565b61209d5761209d614da6565b6120a78484612ee6565b85858080601f016020809104026020016040519081016040528093929190818152602001838380828437600092019190915250929998505050505050505050565b606082828080601f01602080910402602001604051908101604052809392919081815260200183838082843760009201919091525061212c9250839150612b219050565b6121785760405162461bcd60e51b815260206004820152601d60248201527f53463a204150505f52554c455f4354585f49535f4e4f545f56414c4944000000604482015260640161079f565b6001600160a01b0387166000908152600460205260409020548790806121d65760405162461bcd60e51b8152602060048201526013602482015272053463a206e6f7420612073757065722061707606c1b604482015260640161079f565b61800081161561221c5760405162461bcd60e51b815260206004820152601160248201527014d18e88185c1c081a5cc81a985a5b1959607a1b604482015260640161079f565b87878080601f0160208091040260200160405190810160405280939291908181526020018383808284376000920182905250925061225d9150839050613fac565b90506001600160e01b031981166330d9c91560e01b148061228e57506001600160e01b0319811663d86ed3e560e01b145b806122a957506001600160e01b03198116630221347d60e61b145b806122c457506001600160e01b0319811663230dbd2960e01b145b806122df57506001600160e01b03198116635f9e7d7760e01b145b806122fa57506001600160e01b031981166353c11f9960e01b145b156123175760405162461bcd60e51b815260040161079f90614f84565b600061235889898080601f016020809104026020016040519081016040528093929190818152602001838380828437600092019190915250610fe892505050565b6101208101519091506001600160a01b031633146123d05760405162461bcd60e51b815260206004820152602f60248201527f53463a2063616c6c417070416374696f6e57697468436f6e746578742066726f60448201526e6d2077726f6e67206164647265737360881b606482015260840161079f565b606081018051339091526123e382612b41565b975060008061242a8f8f8f8080601f0160208091040260200160405190810160405280939291908181526020018383808284376000920191909152508f9250613457915050565b91509150811561249957808060200190518101906124489190614e5a565b99506124538a612b21565b61246f5760405162461bcd60e51b815260040161079f90614e8e565b6124788a610fe8565b6001600160a01b0384166060820152935061249284612b41565b99506124a2565b6124a28161353c565b50505050505050505095945050505050565b6000818152600260205260408120548082036124e25760405162461bcd60e51b815260040161079f90614cde565b6124ed600182614d36565b6001901b841791505092915050565b600061253e3284848080601f01602080910402602001604051908101604052809392919081815260200183838082843760009201919091525061400892505050565b90507f00000000000000000000000000000000000000000000000000000000000000001561263f576000805460405163407b865d60e11b81524292620100009092046001600160a01b0316916380f70cba916125a09130918790600401614f24565b602060405180830381865afa1580156125bd573d6000803e3d6000fd5b505050506040513d601f19601f820116820180604052508101906125e19190614cc5565b101561263f5760405162461bcd60e51b815260206004820152602760248201527f53463a20696e76616c6964206f72206578706972656420726567697374726174604482015266696f6e206b657960c81b606482015260840161079f565b61264b84336001613db5565b50505050565b6000610fae83838080601f016020809104026020016040519081016040528093929190818152602001838380828437600092019190915250612b2192505050565b600054610100900460ff16158080156126b25750600054600160ff909116105b806126cc5750303b1580156126cc575060005460ff166001145b61272f5760405162461bcd60e51b815260206004820152602e60248201527f496e697469616c697a61626c653a20636f6e747261637420697320616c72656160448201526d191e481a5b9a5d1a585b1a5e995960921b606482015260840161079f565b6000805460ff191660011790558015612752576000805461ff0019166101001790555b6000805462010000600160b01b031916620100006001600160a01b0385160217905580156127ba576000805461ff0019169055604051600181527f7f26b83ff96e1f2b6a682f133852f6798a09c465da95921460cefb38474024989060200160405180910390a15b5050565b60606000806001805490506001600160401b038111156127e0576127e0614497565b604051908082528060200260200182016040528015612809578160200160208202803683370190505b50925060009050600091505b6001548210156128a0576001821b841615612890576001828154811061283d5761283d614d4d565b6000918252602090912001546001600160a01b0316838261285d81614fc8565b93508151811061286f5761286f614d4d565b60200260200101906001600160a01b031690816001600160a01b0316815250505b61289982614fc8565b9150612815565b825250919050565b6003546000906001600160a01b03166128c3576128c3614da6565b7f0000000000000000000000000000000000000000000000000000000000000000156128f957506003546001600160a01b031690565b600360009054906101000a90046001600160a01b03166001600160a01b03166350d75d256040518163ffffffff1660e01b8152600401602060405180830381865afa15801561294c573d6000803e3d6000fd5b505050506040513d601f19601f820116820180604052508101906113d69190614f67565b333b806129bf5760405162461bcd60e51b815260206004820152601e60248201527f53463a20666163746f7279206d757374206265206120636f6e74726163740000604482015260640161079f565b507f000000000000000000000000000000000000000000000000000000000000000015612ac65760006129f13361403b565b6000805460405163407b865d60e11b81529293509091620100009091046001600160a01b0316906380f70cba90612a3090309085908790600401614f24565b602060405180830381865afa158015612a4d573d6000803e3d6000fd5b505050506040513d601f19601f82011682018060405250810190612a719190614cc5565b600114905080612ac35760405162461bcd60e51b815260206004820152601f60248201527f53463a20617574686f72697a656420666163746f727920726571756972656400604482015260640161079f565b50505b6127ba81836000613db5565b6001600160a01b038116600090815260046020908152604080832081519283019091525480825215801592918291612b1957805161800081161515935064ff000000001691505b509193909250565b60008151600014158015610a615750600654825160208401201492915050565b60607f0000000000000000000000000000000000000000000000000000000000000000826000015160ff161115612bc55760405162461bcd60e51b815260206004820152602260248201527f53463a204150505f52554c455f4d41585f4150505f4c4556454c5f5245414348604482015261115160f21b606482015260840161079f565b815160208084015160009260ff1664ff000000009190921b1617905060006080612bf28560e001516140b5565b6001600160801b0316901b612c0a8560c001516140b5565b6001600160801b0316179050818460400151856060015186608001518760a00151604051602001612c3f959493929190614fe1565b60408051601f1981840301815282825261010087015161012088015161014089015160208601879052938501919091526001600160a01b03908116606085015290911660808301529060a00160408051601f1981840301815290829052612ca99291602001614807565b60408051601f1981840301815291905280516020820120600655949350505050565b600060606001600160a01b038716612ce557612ce5614da6565b612cef8484614122565b935060005a90508615612d8a57876001600160a01b03167f00000000000000000000000000000000000000000000000000000000000000006001600160401b031686604051612d3e9190615022565b6000604051808303818686fa925050503d8060008114612d7a576040519150601f19603f3d011682016040523d82523d6000602084013e612d7f565b606091505b509093509150612e16565b876001600160a01b03167f00000000000000000000000000000000000000000000000000000000000000006001600160401b031686604051612dcc9190615022565b60006040518083038160008787f1925050503d8060008114612e0a576040519150601f19603f3d011682016040523d82523d6000602084013e612e0f565b606091505b5090935091505b82612e8757612e26603f8261503e565b5a1115612e4b5785612e4057612e3b8261353c565b612e87565b612e3b88600a612ee6565b60405162461bcd60e51b815260206004820152601160248201527053463a206e656564206d6f72652067617360781b604482015260640161079f565b509550959350505050565b6000604082511015612ea657506000919050565b602082810151906000908214612ec0575060009392505050565b506040830151612ecf8161421d565b612eda906040614dbc565b84511492505050919050565b6001600160a01b0382166000908152600460205260408120546180001690036127ba576001600160a01b038216600081815260046020526040908190208054618000179055517fbe3aa33bd245135e4e26b223d79d14ea479a47bff09f2b03c53838af1edbb14b90611d8a9084815260200190565b60065460609015612fae5760405162461bcd60e51b815260206004820152601d60248201527f53463a204150505f52554c455f4354585f49535f4e4f545f434c45414e000000604482015260640161079f565b6001600160a01b03831660009081526004602052604090205483908061300c5760405162461bcd60e51b8152602060048201526013602482015272053463a206e6f7420612073757065722061707606c1b604482015260640161079f565b6180008116156130525760405162461bcd60e51b815260206004820152601160248201527014d18e88185c1c081a5cc81a985a5b1959607a1b604482015260640161079f565b83600061305e82613fac565b90506001600160e01b031981166330d9c91560e01b148061308f57506001600160e01b0319811663d86ed3e560e01b145b806130aa57506001600160e01b03198116630221347d60e61b145b806130c557506001600160e01b0319811663230dbd2960e01b145b806130e057506001600160e01b03198116635f9e7d7760e01b145b806130fb57506001600160e01b031981166353c11f9960e01b145b156131185760405162461bcd60e51b815260040161079f90614f84565b60006131c46040518061016001604052806131328c610fcb565b61313d576000613140565b60015b60ff168152600260208201526040014281526020018b6001600160a01b03168152602001600060e01b6001600160e01b03191681526020016040518060200160405280600081525081526020016000815260200160008152602001600081526020018a6001600160a01b0316815260200160006001600160a01b0316815250612b41565b905060006131d3898984613457565b97509050801561321d57868060200190518101906131f19190614e5a565b91506131fc82612b21565b6132185760405162461bcd60e51b815260040161079f90614e8e565b613226565b6132268761353c565b5050600060065550929695505050505050565b6006546060901561328c5760405162461bcd60e51b815260206004820152601d60248201527f53463a204150505f52554c455f4354585f49535f4e4f545f434c45414e000000604482015260640161079f565b8361329681611d96565b6132b25760405162461bcd60e51b815260040161079f90614ec5565b60006132bd85613fac565b905060006133596040518061016001604052806132d98b610fcb565b6132e45760006132e7565b60015b60ff168152600160208201526040014281526020018a6001600160a01b03168152602001846001600160e01b031916815260200187815260200160008152602001600081526020016000815260200160006001600160a01b0316815260200160006001600160a01b0316815250612b41565b90506000613368888884613457565b955090508061337a5761337a8561353c565b50506000600655509095945050505050565b613394614263565b606080838060200190518101906133ab9190615060565b815191935091506000906133c890840160209081019085016150b9565b60a08901526001600160e01b03191660808801526001600160a01b031660608701526040860152602081811c600f168187015260ff909116855282516000925061341991908401810190840161513d565b6001600160a01b03908116610140890152166101208701526101008601526001600160801b03811660c086015260801c60e085015250919392505050565b600060606001600160a01b03851661347157613471614da6565b61347b8484614122565b9350846001600160a01b0316846040516134959190615022565b6000604051808303816000865af19150503d80600081146134d2576040519150601f19603f3d011682016040523d82523d6000602084013e6134d7565b606091505b50909250905081156135345760008151116135345760405162461bcd60e51b815260206004820152601960248201527f53463a204150505f52554c455f4354585f49535f454d50545900000000000000604482015260640161079f565b935093915050565b60048151101561358e5760405162461bcd60e51b815260206004820152601a60248201527f43616c6c5574696c733a20746172676574207265766572742829000000000000604482015260640161079f565b602081015163b1b7848f60e01b6001600160e01b031982160161363e5760408051808201825260208082527f43616c6c5574696c733a207461726765742070616e69636b65643a2030785f5f90820190815260248501517f43616c6c5574696c733a207461726765742070616e69636b65643a2030780000600482811c600f908116603090810160081b918516011791909117909252925162461bcd60e51b815291929161079f918491016143e0565b81518060208401fd5b60006136717f360894a13ba1a3210667c828492db98dca3e2076cc3735a920a3ca505d382bbc5490565b6001600160a01b0316036136c75760405162461bcd60e51b815260206004820152601d60248201527f5555505350726f786961626c653a206e6f742075706772616461626c65000000604482015260640161079f565b806001600160a01b03166352d1902d6040518163ffffffff1660e01b8152600401602060405180830381865afa158015613705573d6000803e3d6000fd5b505050506040513d601f19601f820116820180604052508101906137299190614cc5565b7fcd355cae2c435f8c5e0c626c4691d22fd85aa7422a424c6f0bced6e64c7aba74146137a35760405162461bcd60e51b815260206004820152602360248201527f5555505350726f786961626c653a206e6f7420636f6d70617469626c65206c6f60448201526267696360e81b606482015260840161079f565b6001600160a01b03811630036137fb5760405162461bcd60e51b815260206004820152601960248201527f5555505350726f786961626c653a2070726f7879206c6f6f7000000000000000604482015260640161079f565b613823817f360894a13ba1a3210667c828492db98dca3e2076cc3735a920a3ca505d382bbc55565b7fe011bc04c286c344a8fcbb8de77f953da762c3e25d8cdea984147fc4168a5dcc7fcd355cae2c435f8c5e0c626c4691d22fd85aa7422a424c6f0bced6e64c7aba74604080519182526001600160a01b038416602083015201611651565b6040805160208101829052603260608201527f6f72672e7375706572666c7569642d66696e616e63652e7375706572666c756960808201527132173a393ab9ba32b22337b93bb0b93232b960711b60a08201526001600160a01b0383169181019190915260009060c0015b604051602081830303815290604052805190602001209050919050565b6000601836108015906139205750613920336117b2565b6139645760405162461bcd60e51b81526020600482015260156024820152742737ba103a393ab9ba32b2103337b93bb0b93232b960591b604482015260640161079f565b5060131936013560601c90565b60005b8151811015613db057600082828151811061399157613991614d4d565b6020026020010151600001519050600163ffffffff168163ffffffff1603613a71576000808484815181106139c8576139c8614d4d565b6020026020010151604001518060200190518101906139e79190615188565b915091508484815181106139fd576139fd614d4d565b6020026020010151602001516001600160a01b03166362aa52878784846040518463ffffffff1660e01b8152600401613a3893929190614f24565b600060405180830381600087803b158015613a5257600080fd5b505af1158015613a66573d6000803e3d6000fd5b505050505050613d9d565b60011963ffffffff821601613b57576000806000858581518110613a9757613a97614d4d565b602002602001015160400151806020019051810190613ab691906151b6565b925092509250858581518110613ace57613ace614d4d565b6020908102919091018101510151604051630b682aeb60e11b81526001600160a01b0389811660048301528581166024830152848116604483015260648201849052909116906316d055d690608401600060405180830381600087803b158015613b3757600080fd5b505af1158015613b4b573d6000803e3d6000fd5b50505050505050613d9d565b60641963ffffffff821601613c2757828281518110613b7857613b78614d4d565b6020026020010151602001516001600160a01b031663ca78946485858581518110613ba557613ba5614d4d565b602002602001015160400151806020019051810190613bc49190614cc5565b6040516001600160e01b031960e085901b1681526001600160a01b0390921660048301526024820152604401600060405180830381600087803b158015613c0a57600080fd5b505af1158015613c1e573d6000803e3d6000fd5b50505050613d9d565b60651963ffffffff821601613c7557828281518110613c4857613c48614d4d565b6020026020010151602001516001600160a01b031663245887fc85858581518110613ba557613ba5614d4d565b60c81963ffffffff821601613ced57600080848481518110613c9957613c99614d4d565b602002602001015160400151806020019051810190613cb89190615060565b91509150613ce586868681518110613cd257613cd2614d4d565b6020026020010151602001518484613239565b505050613d9d565b60c91963ffffffff821601613d4757613d4184848481518110613d1257613d12614d4d565b602002602001015160200151858581518110613d3057613d30614d4d565b602002602001015160400151612f5b565b50613d9d565b60405162461bcd60e51b815260206004820152602560248201527f53463a20756e6b6e6f776e2062617463682063616c6c206f7065726174696f6e604482015264207479706560d81b606482015260840161079f565b5080613da881614fc8565b915050613974565b505050565b323303613e105760405162461bcd60e51b8152602060048201526024808201527f53463a204150505f52554c455f4e4f5f524547495354524154494f4e5f464f526044820152635f454f4160e01b606482015260840161079f565b8015613e7e57813b8015613e7c5760405162461bcd60e51b815260206004820152602d60248201527f53463a204150505f52554c455f524547495354524154494f4e5f4f4e4c595f4960448201526c272fa1a7a729aa292aa1aa27a960991b606482015260840161079f565b505b64ff000080ff198316158015613e96575060ff831615155b8015613ea457506180008316155b613ef05760405162461bcd60e51b815260206004820152601760248201527f53463a20696e76616c696420636f6e66696720776f7264000000000000000000604482015260640161079f565b6001600160a01b03821660009081526004602052604090205415613f565760405162461bcd60e51b815260206004820152601a60248201527f53463a2061707020616c72656164792072656769737465726564000000000000604482015260640161079f565b60408051602080820183528582526001600160a01b038516600081815260049092528382209251909255915190917f0d540ad8f39e07d19909687352b9fa017405d93c91a6760981fbae9cf28bfef791a2505050565b60006004825110156140005760405162461bcd60e51b815260206004820152601b60248201527f43616c6c5574696c733a20696e76616c69642063616c6c446174610000000000604482015260640161079f565b506020015190565b6000828260405160200161401d9291906151f9565b60405160208183030381529060405280519060200120905092915050565b6040805160208101829052603960608201527f6f72672e7375706572666c7569642d66696e616e63652e7375706572666c756960808201527f642e61707057686974654c697374696e672e666163746f72790000000000000060a08201526001600160a01b0383169181019190915260009060c0016138ec565b60006001600160801b0382111561411e5760405162461bcd60e51b815260206004820152602760248201527f53616665436173743a2076616c756520646f65736e27742066697420696e20316044820152663238206269747360c81b606482015260840161079f565b5090565b81518083015160609190801561418f5760405162461bcd60e51b815260206004820152602c60248201527f53463a20706c61636572686f6c646572206374782073686f756c64206861766560448201526b040f4cae4de40d8cadccee8d60a31b606482015260840161079f565b50601f19810184528251849084816141a68161421d565b6141b09190614d36565b6001600160401b038111156141c7576141c7614497565b6040519080825280601f01601f1916602001820160405280156141f1576020820181803683370190505b50604051602001614205949392919061527e565b60405160208183030381529060405291505092915050565b60008082601f1611614230576000614233565b60015b60ff1661424160208461503e565b61424b9190614dbc565b610a619060206152cd565b61024a806152ed83390190565b604080516101608101825260008082526020820181905291810182905260608082018390526080820183905260a082015260c0810182905260e081018290526101008101829052610120810182905261014081019190915290565b6001600160a01b03811681146113a957600080fd5b6000602082840312156142e557600080fd5b8135610fae816142be565b60008083601f84011261430257600080fd5b5081356001600160401b0381111561431957600080fd5b60208301915083602082850101111561433157600080fd5b9250929050565b6000806000806060858703121561434e57600080fd5b84356001600160401b0381111561436457600080fd5b614370878288016142f0565b90989097506020870135966040013595509350505050565b60005b838110156143a357818101518382015260200161438b565b8381111561264b5750506000910152565b600081518084526143cc816020860160208601614388565b601f01601f19169290920160200192915050565b602081526000610fae60208301846143b4565b80151581146113a957600080fd5b6000806000806000806080878903121561441a57600080fd5b8635614425816142be565b955060208701356001600160401b038082111561444157600080fd5b61444d8a838b016142f0565b909750955060408901359150614462826143f3565b9093506060880135908082111561447857600080fd5b5061448589828a016142f0565b979a9699509497509295939492505050565b634e487b7160e01b600052604160045260246000fd5b604051606081016001600160401b03811182821017156144cf576144cf614497565b60405290565b604051601f8201601f191681016001600160401b03811182821017156144fd576144fd614497565b604052919050565b60006001600160401b0382111561451e5761451e614497565b50601f01601f191660200190565b600082601f83011261453d57600080fd5b813561455061454b82614505565b6144d5565b81815284602083860101111561456557600080fd5b816020850160208301376000918101602001919091529392505050565b6000806040838503121561459557600080fd5b82356145a0816142be565b915060208301356001600160401b038111156145bb57600080fd5b6145c78582860161452c565b9150509250929050565b6000806000606084860312156145e657600080fd5b83356145f1816142be565b925060208401356001600160401b038082111561460d57600080fd5b6146198783880161452c565b9350604086013591508082111561462f57600080fd5b5061463c8682870161452c565b9150509250925092565b60006020828403121561465857600080fd5b81356001600160401b0381111561466e57600080fd5b610fc38482850161452c565b6020815261468e60208201835160ff169052565b600060208301516146a4604084018260ff169052565b506040830151606083015260608301516146c960808401826001600160a01b03169052565b5060808301516001600160e01b0319811660a08401525060a08301516101608060c08501526146fc6101808501836143b4565b915060c085015160e085015260e0850151610100818187015280870151915050610120818187015280870151915050610140614742818701836001600160a01b03169052565b909501516001600160a01b031693019290925250919050565b60008060008060008060006080888a03121561477657600080fd5b8735614781816142be565b965060208801356001600160401b038082111561479d57600080fd5b6147a98b838c016142f0565b909850965060408a01359150808211156147c257600080fd5b6147ce8b838c016142f0565b909650945060608a01359150808211156147e757600080fd5b506147f48a828b016142f0565b989b979a50959850939692959293505050565b60408152600061481a60408301856143b4565b8281036020840152611ee581856143b4565b6000602080838503121561483f57600080fd5b82356001600160401b038082111561485657600080fd5b818501915085601f83011261486a57600080fd5b81358181111561487c5761487c614497565b8060051b61488b8582016144d5565b91825283810185019185810190898411156148a557600080fd5b86860192505b83831015611c47578235858111156148c35760008081fd5b86016060818c03601f19018113156148db5760008081fd5b6148e36144ad565b8983013563ffffffff811681146148fa5760008081fd5b815260408381013561490b816142be565b828c01529183013591888311156149225760008081fd5b6149308e8c8587010161452c565b908201528452505091860191908601906148ab565b60008060008060008060a0878903121561495e57600080fd5b86356001600160401b0381111561497457600080fd5b61498089828a016142f0565b9097509550506020870135614994816142be565b9350604087013592506060870135915060808701356149b2816142be565b809150509295509295509295565b6000806000604084860312156149d557600080fd5b83356001600160401b038111156149eb57600080fd5b6149f7868287016142f0565b909790965060209590950135949350505050565b60008060408385031215614a1e57600080fd5b50508035926020909101359150565b600060208284031215614a3f57600080fd5b5035919050565b60008060008060608587031215614a5c57600080fd5b84356001600160401b03811115614a7257600080fd5b614a7e878288016142f0565b9095509350506020850135614a92816142be565b9396929550929360400135925050565b600080600080600060608688031215614aba57600080fd5b8535614ac5816142be565b945060208601356001600160401b0380821115614ae157600080fd5b614aed89838a016142f0565b90965094506040880135915080821115614b0657600080fd5b50614b13888289016142f0565b969995985093965092949392505050565b60008060408385031215614b3757600080fd5b8235614b42816142be565b91506020830135614b52816142be565b809150509250929050565b600080600060408486031215614b7257600080fd5b8335925060208401356001600160401b03811115614b8f57600080fd5b614b9b868287016142f0565b9497909650939450505050565b60008060208385031215614bbb57600080fd5b82356001600160401b03811115614bd157600080fd5b614bdd858286016142f0565b90969095509350505050565b6020808252825182820181905260009190848201906040850190845b81811015614c2a5783516001600160a01b031683529284019291840191600101614c05565b50909695505050505050565b60008060408385031215614c4957600080fd5b8235614c54816142be565b946020939093013593505050565b6020808252601b908201527f53463a206f6e6c7920676f7665726e616e636520616c6c6f7765640000000000604082015260600190565b60208082526012908201527153463a206e6f6e2075706772616461626c6560701b604082015260600190565b600060208284031215614cd757600080fd5b5051919050565b60208082526022908201527f53463a2061677265656d656e7420636c617373206e6f74207265676973746572604082015261195960f21b606082015260800190565b634e487b7160e01b600052601160045260246000fd5b600082821015614d4857614d48614d20565b500390565b634e487b7160e01b600052603260045260246000fd5b60208082526023908201527f53463a2073656e646572206973206e6f74206c6973746564206167726565656d604082015262195b9d60ea1b606082015260800190565b634e487b7160e01b600052600160045260246000fd5b60008219821115614dcf57614dcf614d20565b500190565b600080821280156001600160ff1b0384900385131615614df657614df6614d20565b600160ff1b8390038412811615614e0f57614e0f614d20565b50500190565b600082601f830112614e2657600080fd5b8151614e3461454b82614505565b818152846020838601011115614e4957600080fd5b610fc3826020830160208701614388565b600060208284031215614e6c57600080fd5b81516001600160401b03811115614e8257600080fd5b610fc384828501614e15565b6020808252601c908201527f53463a204150505f52554c455f4354585f49535f524541444f4e4c5900000000604082015260600190565b60208082526022908201527f53463a206f6e6c79206c6973746564206167726565656d656e7420616c6c6f77604082015261195960f21b606082015260800190565b600060208284031215614f1957600080fd5b8151610fae816143f3565b6001600160a01b039384168152919092166020820152604081019190915260600190565b600060ff821660ff8103614f5e57614f5e614d20565b60010192915050565b600060208284031215614f7957600080fd5b8151610fae816142be565b60208082526024908201527f53463a2061677265656d656e742063616c6c6261636b206973206e6f742061636040820152633a34b7b760e11b606082015260800190565b600060018201614fda57614fda614d20565b5060010190565b858152602081018590526001600160a01b03841660408201526001600160e01b03198316606082015260a060808201819052600090610a39908301846143b4565b60008251615034818460208701614388565b9190910192915050565b60008261505b57634e487b7160e01b600052601260045260246000fd5b500490565b6000806040838503121561507357600080fd5b82516001600160401b038082111561508a57600080fd5b61509686838701614e15565b935060208501519150808211156150ac57600080fd5b506145c785828601614e15565b600080600080600060a086880312156150d157600080fd5b855194506020860151935060408601516150ea816142be565b60608701519093506001600160e01b03198116811461510857600080fd5b60808701519092506001600160401b0381111561512457600080fd5b61513088828901614e15565b9150509295509295909350565b6000806000806080858703121561515357600080fd5b8451935060208501519250604085015161516c816142be565b606086015190925061517d816142be565b939692955090935050565b6000806040838503121561519b57600080fd5b82516151a6816142be565b6020939093015192949293505050565b6000806000606084860312156151cb57600080fd5b83516151d6816142be565b60208501519093506151e7816142be565b80925050604084015190509250925092565b60608152604160608201527f6f72672e7375706572666c7569642d66696e616e63652e7375706572666c756960808201527f642e61707057686974654c697374696e672e726567697374726174696f6e4b6560a0820152607960f81b60c082015260018060a01b038316602082015260e060408201526000610fc360e08301846143b4565b6000855160206152918285838b01614388565b818401915086825285516152aa81838501848a01614388565b85519201916152be81838501848901614388565b91909101019695505050505050565b60008160001904831182151516156152e7576152e7614d20565b50029056fe608060405234801561001057600080fd5b5061022a806100206000396000f3fe6080604052600436106100225760003560e01c80634a0687ef1461003957610031565b366100315761002f610059565b005b61002f610059565b34801561004557600080fd5b5061002f6100543660046101c4565b61006b565b610069610064610171565b6101a0565b565b6001600160a01b0381166100c65760405162461bcd60e51b815260206004820152601760248201527f5555505350726f78793a207a65726f206164647265737300000000000000000060448201526064015b60405180910390fd5b60006100f07f360894a13ba1a3210667c828492db98dca3e2076cc3735a920a3ca505d382bbc5490565b6001600160a01b0316146101465760405162461bcd60e51b815260206004820152601e60248201527f5555505350726f78793a20616c726561647920696e697469616c697a6564000060448201526064016100bd565b61016e817f360894a13ba1a3210667c828492db98dca3e2076cc3735a920a3ca505d382bbc55565b50565b600061019b7f360894a13ba1a3210667c828492db98dca3e2076cc3735a920a3ca505d382bbc5490565b905090565b3660008037600080366000845af43d6000803e8080156101bf573d6000f35b3d6000fd5b6000602082840312156101d657600080fd5b81356001600160a01b03811681146101ed57600080fd5b939250505056fea2646970667358221220a1e972ca4b71b3da292febdd0198df1567eb4dca84bc4721dd8d4f37bdeae9a664736f6c634300080e0033a264697066735822122030daec7d7a59e8a27c38dffebeed717be725bd203567f4855c4f6f8df39c3f5d64736f6c634300080e003360a06040523480156200001157600080fd5b506040516200538b3803806200538b833981016040819052620000349162000046565b6001600160a01b031660805262000078565b6000602082840312156200005957600080fd5b81516001600160a01b03811681146200007157600080fd5b9392505050565b6080516152f762000094600039600061077701526152f76000f3fe608060405234801561001057600080fd5b50600436106101a85760003560e01c806350d75d25116100f957806394229ecb11610097578063aabd266811610071578063aabd26681461042e578063b4b333c614610441578063e6a1e88814610454578063e8e7e2d11461046757600080fd5b806394229ecb146103ed5780639b2e48bc146104005780639cb28b72146102aa57600080fd5b806362fc305e116100d357806362fc305e1461038e5780637730599e146103a1578063811b3d40146103c75780638d997f6e146103da57600080fd5b806350d75d251461035357806352d1902d1461037357806354b770e31461037b57600080fd5b806326b0f536116101665780634b839e0b116101405780634b839e0b146102e05780634c8b181f146103035780634fe9c2911461031657806350209a621461034057600080fd5b806326b0f536146102aa578063354b9590146102b857806346951954146102cb57600080fd5b8062422bbe146101ad57806304aafa49146101e55780630602f7db146101ff578063062e56ec1461022557806309d256ef146102455780630f1ac49514610274575b600080fd5b6101c06101bb366004614493565b61047a565b6040805193845260ff9092166020840152600b0b908201526060015b60405180910390f35b6101f164010000000081565b6040519081526020016101dc565b61021261020d3660046144de565b6104b0565b604051600b9190910b81526020016101dc565b61023861023336600461454c565b6104d1565b6040516101dc919061460d565b6102586102533660046144de565b6104eb565b6040805160ff9093168352600b9190910b6020830152016101dc565b610287610282366004614620565b61050f565b60408051948552600b9390930b60208501529183015260608201526080016101dc565b6101f160016001605f1b0381565b6102386102c636600461466b565b610545565b6102de6102d93660046146f7565b61076c565b005b6102f36102ee366004614714565b6107f0565b60405190151581526020016101dc565b610238610311366004614755565b6108c7565b610329610324366004614620565b6109e1565b6040805192151583526020830191909152016101dc565b61023861034e3660046147d1565b610ac3565b61035b610b96565b6040516001600160a01b0390911681526020016101dc565b6101f1610bc5565b61023861038936600461454c565b610c29565b61023861039c3660046147d1565b610c41565b7fa9214cc96615e0085d3bb077758db69497dc2dce3b2b1e97bc93c3d18d83efd36101f1565b6102386103d5366004614821565b610cf4565b6101f16103e8366004614865565b610f7e565b6102386103fb36600461466b565b611199565b61041361040e366004614714565b611379565b604080519384526020840192909252908201526060016101dc565b61028761043c3660046144de565b6113d3565b61023861044f366004614755565b6113e5565b610287610462366004614493565b611479565b610212610475366004614620565b6114b4565b600080600061048985856114ce565b925060006104978785611539565b8051602090910151959990985094965093945050505050565b6000806104bc846115fe565b5090506104c98184611779565b949350505050565b60606104e285856000808787610cf4565b95945050505050565b60008060006104fa8585611539565b80516020909101519097909650945050505050565b600080600080600061052187876117e8565b805160208201516040830151606090930151919b909a509198509650945050505050565b606060006105898885858080601f0160208091040260200160405190810160405280939291908181526020018383808284376000920191909152506118a192505050565b9050866001600160a01b031681606001516001600160a01b0316036105f55760405162461bcd60e51b815260206004820152601760248201527f4346413a20455f4e4f5f53454e4445525f55504441544500000000000000000060448201526064015b60405180910390fd5b60008061060b8a6106068b8b611a65565b611a8d565b9150915060008060006106238d8d886060015161047a565b925092509250610634826001611ad4565b6106805760405162461bcd60e51b815260206004820152601960248201527f455f4e4f5f4f50455241544f525f5550444154455f464c4f570000000000000060448201526064016105ec565b6000600b82900b60016001605f1b0314806106a557508a600b0b8560200151600b0b12155b6106c75760208501516106b8908c6148b0565b6106c290836148b0565b6106c9565b815b9050600081600b0b12156106ef5760405162461bcd60e51b81526004016105ec90614900565b6106fb8e858584611b2f565b5050505061072960408051608081018252600080825260208201819052918101829052606081019190915290565b6001600160a01b03808c1682528a8116602083015289166040820152600b88900b606082015261075d8183858a8a89611bb8565b9b9a5050505050505050505050565b336001600160a01b037f000000000000000000000000000000000000000000000000000000000000000016146107e45760405162461bcd60e51b815260206004820152601960248201527f6f6e6c7920686f73742063616e2075706461746520636f64650000000000000060448201526064016105ec565b6107ed81611d3d565b50565b604051633acd4df360e21b81526001600160a01b03838116600483015260248201839052600091829186169063eb3537cc90604401606060405180830381865afa158015610842573d6000803e3d6000fd5b505050506040513d601f19601f820116820180604052508101906108669190614941565b505090506000811261087c5760019150506108c0565b600080610888876115fe565b91509150600061089888886117e8565b91505060006108aa8260400151611f4b565b90506108b885828686611fb9565b955050505050505b9392505050565b6060600061090b8785858080601f0160208091040260200160405190810160405280939291908181526020018383808284376000920191909152506118a192505050565b9050600061091e8888846060015161047a565b50915050600061092f826002611ad4565b90508061097e5760405162461bcd60e51b815260206004820152601960248201527f455f4e4f5f4f50455241544f525f44454c4554455f464c4f570000000000000060448201526064016105ec565b6040805160808101825260008082526020820181905291810182905260608101919091525b6001600160a01b03808b168252898116602083015288166040820152600060608201526109d38183898988611ff6565b9a9950505050505050505050565b6000806000846001600160a01b03166320bc44256040518163ffffffff1660e01b8152600401602060405180830381865afa158015610a24573d6000803e3d6000fd5b505050506040513d601f19601f82011682018060405250810190610a48919061497a565b9050806001600160a01b031663bbe4fd506040518163ffffffff1660e01b8152600401602060405180830381865afa158015610a88573d6000803e3d6000fd5b505050506040513d601f19601f82011682018060405250810190610aac9190614997565b9150610ab98585846107f0565b9250509250929050565b60606000610b078785858080601f0160208091040260200160405190810160405280939291908181526020018383808284376000920191909152506118a192505050565b9050610b3360408051608081018252600080825260208201819052918101829052606081019190915290565b6001600160a01b03808916825260608084015182166020840181905291891660408401819052600b89900b91840191909152600091610b7191611a65565b9050600080610b84846000015184611a8d565b9150915061075d8482848b8b8a611bb8565b6000610bc07f360894a13ba1a3210667c828492db98dca3e2076cc3735a920a3ca505d382bbc5490565b905090565b6000306001600160a01b0316637730599e6040518163ffffffff1660e01b8152600401602060405180830381865afa158015610c05573d6000803e3d6000fd5b505050506040513d601f19601f82011682018060405250810190610bc09190614997565b60606104e28585600760016001605f1b038787610cf4565b60606000610c858785858080601f0160208091040260200160405190810160405280939291908181526020018383808284376000920191909152506118a192505050565b9050610cb160408051608081018252600080825260208201819052918101829052606081019190915290565b6001600160a01b038089168252606080840151821660208401529088166040830152600b87900b90820152610ce88186868561278d565b98975050505050505050565b606082828080601f016020809104026020016040519081016040528093929190818152602001838380828437600092019190915250929350610d3b925087915061292d9050565b610d875760405162461bcd60e51b815260206004820152601860248201527f4346413a20556e636c65616e207065726d697373696f6e73000000000000000060448201526064016105ec565b6000610dc98885858080601f0160208091040260200160405190810160405280939291908181526020018383808284376000920191909152506118a192505050565b9050866001600160a01b031681606001516001600160a01b031603610e305760405162461bcd60e51b815260206004820152601e60248201527f4346413a20455f4e4f5f53454e4445525f464c4f575f4f50455241544f52000060448201526064016105ec565b600085600b0b1215610e845760405162461bcd60e51b815260206004820152601c60248201527f4346413a20455f4e4f5f4e454741544956455f414c4c4f57414e43450000000060448201526064016105ec565b6040805180820190915260ff87168152600b86900b60208201526060820151600090610eb0908a6114ce565b9050896001600160a01b031663a1b2bf8b82610ecb85612934565b6040518363ffffffff1660e01b8152600401610ee89291906149eb565b600060405180830381600087803b158015610f0257600080fd5b505af1158015610f16573d6000803e3d6000fd5b50505060608401516040805160ff8c168152600b8b900b60208201526001600160a01b03808e169450928316928e16917fc0d5d3a6ac18cc1769788c925e6e7fc89cd47e4270a42884736fa9b3ec09f3a8910160405180910390a45050509695505050505050565b600080836001600160a01b03166320bc44256040518163ffffffff1660e01b8152600401602060405180830381865afa158015610fbf573d6000803e3d6000fd5b505050506040513d601f19601f82011682018060405250810190610fe3919061497a565b90506000816001600160a01b031663289b3c0d6040518163ffffffff1660e01b8152600401602060405180830381865afa158015611025573d6000803e3d6000fd5b505050506040513d601f19601f82011682018060405250810190611049919061497a565b90506000816001600160a01b03166380f70cba84887feae305fa863b373417e615b1044222e2806cefc7788d169ce6748a443c3f6cc46040518463ffffffff1660e01b815260040161109d93929190614a04565b602060405180830381865afa1580156110ba573d6000803e3d6000fd5b505050506040513d601f19601f820116820180604052508101906110de9190614997565b90506000826001600160a01b03166380f70cba85897fe420d96e81cb4a6b2abb2366c4f93312d4e2ae878a7d4b22e73472fdad891f786040518463ffffffff1660e01b815260040161113293929190614a04565b602060405180830381865afa15801561114f573d6000803e3d6000fd5b505050506040513d601f19601f820116820180604052508101906111739190614997565b9050602081901c63ffffffff1661118b8382896129aa565b955050505050505b92915050565b606060006111dd8885858080601f0160208091040260200160405190810160405280939291908181526020018383808284376000920191909152506118a192505050565b9050866001600160a01b031681606001516001600160a01b0316036112445760405162461bcd60e51b815260206004820152601760248201527f4346413a20455f4e4f5f53454e4445525f43524541544500000000000000000060448201526064016105ec565b60008060006112588b8b866060015161047a565b925092509250611269826000611ad4565b6112b55760405162461bcd60e51b815260206004820152601e60248201527f4346413a20455f4e4f5f4f50455241544f525f4352454154455f464c4f57000060448201526064016105ec565b6000600b82900b60016001605f1b03146112d8576112d389836148b0565b6112da565b815b9050600081600b0b12156113005760405162461bcd60e51b81526004016105ec90614900565b61130c8c858584611b2f565b5050505061133a60408051608081018252600080825260208201819052918101829052606081019190915290565b6001600160a01b03808a168252888116602083015287166040820152600b86900b606082015261136c8186868561278d565b9998505050505050505050565b600080600080600061138b88886117e8565b9150915081156113c8578060200151600b0b8160000151876113ad9190614a28565b6113b79190614a67565b945080604001519350806060015192505b505093509350939050565b60008060008060006105218787611a8d565b606060006114298785858080601f0160208091040260200160405190810160405280939291908181526020018383808284376000920191909152506118a192505050565b9050600061143c8888846060015161047a565b50915050600061144d826002611ad4565b90506109a360408051608081018252600080825260208201819052918101829052606081019190915290565b600080600080600061148f886106068989611a65565b805160208201516040830151606090930151919c909b50919950975095505050505050565b6000806114c184846117e8565b6020015195945050505050565b6000828260405160200161151b9291906060808252600c908201526b333637bba7b832b930ba37b960a11b60808201526001600160a01b0392831660208201529116604082015260a00190565b60405160208183030381529060405280519060200120905092915050565b6040805180820182526000808252602082018190529151636c2d9f2f60e01b8152306004820152602481018490526001604482015282906001600160a01b03861690636c2d9f2f90606401600060405180830381865afa1580156115a1573d6000803e3d6000fd5b505050506040513d6000823e601f3d908101601f191682016040526115c99190810190614b5d565b90506115f1816000815181106115e1576115e1614bf7565b602002602001015160001c612a7f565b92509250505b9250929050565b6000806000836001600160a01b03166320bc44256040518163ffffffff1660e01b8152600401602060405180830381865afa158015611641573d6000803e3d6000fd5b505050506040513d601f19601f82011682018060405250810190611665919061497a565b90506000816001600160a01b031663289b3c0d6040518163ffffffff1660e01b8152600401602060405180830381865afa1580156116a7573d6000803e3d6000fd5b505050506040513d601f19601f820116820180604052508101906116cb919061497a565b90506000816001600160a01b03166380f70cba84887fe420d96e81cb4a6b2abb2366c4f93312d4e2ae878a7d4b22e73472fdad891f786040518463ffffffff1660e01b815260040161171f93929190614a04565b602060405180830381865afa15801561173c573d6000803e3d6000fd5b505050506040513d601f19601f820116820180604052508101906117609190614997565b63ffffffff602082901c81169891169650945050505050565b600060016001605f1b038211156117d25760405162461bcd60e51b815260206004820152601b60248201527f4346413a206465706f736974206e756d62657220746f6f20626967000000000060448201526064016105ec565b63ffffffff198216915060006104c98484614c23565b60006117f26143cc565b604051634b61cc3360e01b81523060048201526001600160a01b038481166024830152600060448301819052600160648401529190861690634b61cc33906084015b600060405180830381865afa158015611851573d6000803e3d6000fd5b505050506040513d6000823e601f3d908101601f191682016040526118799190810190614b5d565b90506115f18160008151811061189157611891614bf7565b602002602001015160001c612abf565b6118a96143f7565b336001600160a01b0316836001600160a01b03166320bc44256040518163ffffffff1660e01b8152600401602060405180830381865afa1580156118f1573d6000803e3d6000fd5b505050506040513d601f19601f82011682018060405250810190611915919061497a565b6001600160a01b03161461195f5760405162461bcd60e51b81526020600482015260116024820152701d5b985d5d1a1bdc9a5e9959081a1bdcdd607a1b60448201526064016105ec565b604051632fd0a1cd60e21b8152339063bf4287349061198290859060040161460d565b602060405180830381865afa15801561199f573d6000803e3d6000fd5b505050506040513d601f19601f820116820180604052508101906119c39190614c47565b6119fd5760405162461bcd60e51b815260206004820152600b60248201526a0d2dcecc2d8d2c840c6e8f60ab1b60448201526064016105ec565b604051631fb6491d60e11b81523390633f6c923a90611a2090859060040161460d565b600060405180830381865afa158015611a3d573d6000803e3d6000fd5b505050506040513d6000823e601f3d908101601f191682016040526108c09190810190614ce9565b604080516001600160a01b03808516602083015283169181019190915260009060600161151b565b6000611a976143cc565b604051636c2d9f2f60e01b815230600482015260248101849052600160448201526000906001600160a01b03861690636c2d9f2f90606401611834565b600080826002811115611ae957611ae9614df0565b03611afa5750600182811614611193565b6001826002811115611b0e57611b0e614df0565b03611b215750600182811c811614611193565b505060021c60019081161490565b6040805180820190915260ff83168152600b82900b60208201526001600160a01b03851663a1b2bf8b85611b6284612934565b6040518363ffffffff1660e01b8152600401611b7f9291906149eb565b600060405180830381600087803b158015611b9957600080fd5b505af1158015611bad573d6000803e3d6000fd5b505050505050505050565b60606000611bc68884612b1f565b91505085611c115760405162461bcd60e51b815260206004820152601860248201527710d1904e88199b1bddc8191bd95cc81b9bdd08195e1a5cdd60421b60448201526064016105ec565b6040888101519051631e51d6a760e11b81526001600160a01b0390911660048201523390633ca3ad4e90602401602060405180830381865afa158015611c5b573d6000803e3d6000fd5b505050506040513d601f19601f82011682018060405250810190611c7f9190614c47565b15611cdb57611cd488604001518960000151838a89898080601f0160208091040260200160405190810160405280939291908181526020018383808284376000920191909152508b925060019150612c929050565b9150611d26565b611d238860000151828988888080601f0160208091040260200160405190810160405280939291908181526020018383808284376000920191909152508a92506133af915050565b91505b8751611d329084613487565b509695505050505050565b6000611d677f360894a13ba1a3210667c828492db98dca3e2076cc3735a920a3ca505d382bbc5490565b6001600160a01b031603611dbd5760405162461bcd60e51b815260206004820152601d60248201527f5555505350726f786961626c653a206e6f742075706772616461626c6500000060448201526064016105ec565b806001600160a01b03166352d1902d6040518163ffffffff1660e01b8152600401602060405180830381865afa158015611dfb573d6000803e3d6000fd5b505050506040513d601f19601f82011682018060405250810190611e1f9190614997565b611e27610bc5565b14611e805760405162461bcd60e51b815260206004820152602360248201527f5555505350726f786961626c653a206e6f7420636f6d70617469626c65206c6f60448201526267696360e81b60648201526084016105ec565b6001600160a01b0381163003611ed85760405162461bcd60e51b815260206004820152601960248201527f5555505350726f786961626c653a2070726f7879206c6f6f700000000000000060448201526064016105ec565b611f00817f360894a13ba1a3210667c828492db98dca3e2076cc3735a920a3ca505d382bbc55565b7fe011bc04c286c344a8fcbb8de77f953da762c3e25d8cdea984147fc4168a5dcc611f29610bc5565b604080519182526001600160a01b03841660208301520160405180910390a150565b60006001600160ff1b03821115611fb55760405162461bcd60e51b815260206004820152602860248201527f53616665436173743a2076616c756520646f65736e27742066697420696e2061604482015267371034b73a191a9b60c11b60648201526084016105ec565b5090565b600080611fc68587614e06565b90506000611fd48587614e47565b9050611fe08486614e75565b611fea8284614e47565b13979650505050505050565b6040805160c0810182526000808252602082018190529181018290526060818101839052608082019290925260a0810182905260208701516001600160a01b03166120795760405162461bcd60e51b81526020600482015260136024820152724346413a2073656e646572206973207a65726f60681b60448201526064016105ec565b60408701516001600160a01b03166120cb5760405162461bcd60e51b81526020600482015260156024820152744346413a207265636569766572206973207a65726f60581b60448201526064016105ec565b6120dd87602001518860400151611a65565b8082526020808901516001600160a01b03908116918401919091526040808a01518216908401526060808601519091169083015260006080830181905260a0808601519084015288519091829161213391611a8d565b915091508161217f5760405162461bcd60e51b815260206004820152601860248201527710d1904e88199b1bddc8191bd95cc81b9bdd08195e1a5cdd60421b60448201526064016105ec565b885160208a01516040808801519051633acd4df360e21b81526000936001600160a01b03169263eb3537cc926121cb926004016001600160a01b03929092168252602082015260400190565b606060405180830381865afa1580156121e8573d6000803e3d6000fd5b505050506040513d601f19601f8201168201806040525081019061220c9190614941565b5050905089602001516001600160a01b031686606001516001600160a01b031614158015612254575089604001516001600160a01b031686606001516001600160a01b031614155b801561225e575088155b156123aa5760208a0151604051636b4f333560e01b81526001600160a01b0390911660048201523390636b4f333590602401602060405180830381865afa1580156122ad573d6000803e3d6000fd5b505050506040513d601f19601f820116820180604052508101906122d19190614c47565b158015612349575060408a8101519051636b4f333560e01b81526001600160a01b0390911660048201523390636b4f333590602401602060405180830381865afa158015612323573d6000803e3d6000fd5b505050506040513d601f19601f820116820180604052508101906123479190614c47565b155b156123aa57600081126123aa5760405162461bcd60e51b815260206004820152602360248201527f4346413a2073656e646572206163636f756e74206973206e6f7420637269746960448201526218d85b60ea1b60648201526084016105ec565b60008112156123c8576123c88a600001518286858a6060015161359e565b87878080601f01602080910402602001604051908101604052809392919081815260200183838082843760009201919091525050505060208b015160608801519196506001600160a01b039081169116036124be5760408a8101519051631e51d6a760e11b81526001600160a01b0390911660048201523390633ca3ad4e90602401602060405180830381865afa158015612467573d6000803e3d6000fd5b505050506040513d601f19601f8201168201806040525081019061248b9190614c47565b156124af576124a88a604001518b600001518685898b6002612c92565b9450612780565b89516124a8908584888a6133af565b89604001516001600160a01b031686606001516001600160a01b0316036125f25760208a0151604051631e51d6a760e11b81526001600160a01b0390911660048201523390633ca3ad4e90602401602060405180830381865afa158015612529573d6000803e3d6000fd5b505050506040513d601f19601f8201168201806040525081019061254d9190614c47565b1561256a576124a88a602001518b600001518685898b6002612c92565b60408a8101519051631e51d6a760e11b81526001600160a01b0390911660048201523390633ca3ad4e90602401602060405180830381865afa1580156125b4573d6000803e3d6000fd5b505050506040513d601f19601f820116820180604052508101906125d89190614c47565b156124af576124a860008b600001518685898b6002612c92565b60208a0151604051631e51d6a760e11b81526001600160a01b0390911660048201523390633ca3ad4e90602401602060405180830381865afa15801561263c573d6000803e3d6000fd5b505050506040513d601f19601f820116820180604052508101906126609190614c47565b801561266c5750600081125b156126e65760208a0151604051635b92108f60e11b8152339163b724211e9161269c918991600b90600401614e8c565b6000604051808303816000875af11580156126bb573d6000803e3d6000fd5b505050506040513d6000823e601f3d908101601f191682016040526126e39190810190614eba565b94505b60408a8101519051631e51d6a760e11b81526001600160a01b0390911660048201523390633ca3ad4e90602401602060405180830381865afa158015612730573d6000803e3d6000fd5b505050506040513d601f19601f820116820180604052508101906127549190614c47565b15612771576124a88a604001518b600001518685898b6002612c92565b89516109d3908584888a6133af565b5050505095945050505050565b606060008061279c8785612b1f565b915091506000806127b1896000015185611a8d565b9150915081156128035760405162461bcd60e51b815260206004820152601760248201527f4346413a20666c6f7720616c726561647920657869737400000000000000000060448201526064016105ec565b6040898101519051631e51d6a760e11b81526001600160a01b0390911660048201523390633ca3ad4e90602401602060405180830381865afa15801561284d573d6000803e3d6000fd5b505050506040513d601f19601f820116820180604052508101906128719190614c47565b156128ca576128c389604001518a6000015185848c8c8080601f01602080910402602001604051908101604052809392919081815260200183838082843760009201829052508f93509150612c929050565b9450612915565b612912896000015184838b8b8080601f0160208091040260200160405190810160405280939291908181526020018383808284376000920191909152508d92506133af915050565b94505b88516129219087613487565b50505050949350505050565b60f8161590565b606060008260200151600b0b121561294e5761294e614eef565b60408051600180825281830190925290602080830190803683370190505090508160200151600b0b6080836000015160ff16901b1760001b8160008151811061299957612999614bf7565b602002602001018181525050919050565b60008082600b0b13612a0a5760405162461bcd60e51b815260206004820152602360248201527f4346413a206e6f7420666f72206e6f6e2d706f73697469766520666c6f77207260448201526261746560e81b60648201526084016105ec565b60016001605f1b03612a2084600b85900b614f05565b1115612a675760405162461bcd60e51b81526020600482015260166024820152754346413a20666c6f77207261746520746f6f2062696760501b60448201526064016105ec565b6000612a7383856137aa565b90506104e285826137ee565b6040805180820190915260008082526020820152811580159190612aba5760016001605f1b038316600b0b6020820152608083901c60ff1681525b915091565b6000612ac96143cc565b821580159250612aba5760e083901c8152608083901c6bffffffffffffffffffffffff16600b0b6020808301919091526bffffffffffffffff0000000084821c811660408401529084901b166060820152915091565b6040805160c08101825260008082526020820181905291810182905260608082018390526080820183905260a082015260408401516001600160a01b0316612ba15760405162461bcd60e51b81526020600482015260156024820152744346413a207265636569766572206973207a65726f60581b60448201526064016105ec565b612bb384602001518560400151611a65565b8082526020808601516001600160a01b0390811691840182905260408088015182169085018190526060808801519092168286015290870151600b0b608085015260a0808701519085015291935003612c425760405162461bcd60e51b81526020600482015260116024820152704346413a206e6f2073656c6620666c6f7760781b60448201526064016105ec565b60008160800151600b0b136115f75760405162461bcd60e51b81526020600482015260166024820152754346413a20696e76616c696420666c6f77207261746560501b60448201526064016105ec565b82612c9b614452565b6001600160a01b03891615612e84576000612d30898b8a600001518b602001518c60400151604051602001612ce69291906001600160a01b0392831681529116602082015260400190565b60408051601f1981840301815260e08301825260006080840181905260a0840181905260c08401526001600160a01b03958616835293909416602082015292830152606082015290565b90506000846002811115612d4657612d46614df0565b03612d5b5764010000000060c0820152612d90565b6001846002811115612d6f57612d6f614df0565b03612d845764040000000060c0820152612d90565b64100000000060c08201525b612d9a8187613804565b82526040850151610140860151612db491908b8b8b6139bb565b506080830152508451612dc8906001614f24565b60ff168160800151612dda9190614f05565b60808201526060870151612ded90611f4b565b60a08201526000846002811115612e0657612e06614df0565b03612e1b5764020000000060c0820152612e50565b6001846002811115612e2f57612e2f614df0565b03612e445764080000000060c0820152612e50565b64200000000060c08201525b612e5f81836000015185613d9f565b60408401919091528851909350612e77908a90611a8d565b602084015250612ea29050565b612e9a84604001518561014001518a8a8a6139bb565b602084015250505b6000816040015161010001511315612ee157612ed6612ed1612ecc83604001516101000151614008565b61405a565b611f4b565b604082015161010001525b6000612ef08760600151611f4b565b82604001516101000151612f049190614a28565b9050612f2a81612f1b846020015160400151611f4b565b612f259190614e06565b614008565b82602001516040018181525050612f4c81612f1b846020015160600151611f4b565b60208301805160600191909152885190516001600160a01b038b169163a1b2bf8b91612f779061408e565b6040518363ffffffff1660e01b8152600401612f949291906149eb565b600060405180830381600087803b158015612fae57600080fd5b505af1158015612fc2573d6000803e3d6000fd5b50505050612fde89896020015160008460008a604001516140ff565b50612ff6898960400151600080858a604001516140ff565b506101408501516001600160a01b031615806130285750886001600160a01b03168561014001516001600160a01b0316145b156130a657602082015160409081015190516303c9790560e11b81523391630792f20a9161305c9187918690600401614f49565b6000604051808303816000875af115801561307b573d6000803e3d6000fd5b505050506040513d6000823e601f3d908101601f191682016040526130a39190810190614eba565b92505b6040888101519051631e51d6a760e11b81526001600160a01b0390911660048201523390633ca3ad4e90602401602060405180830381865afa1580156130f0573d6000803e3d6000fd5b505050506040513d601f19601f820116820180604052508101906131149190614c47565b156133a257604088810151868201519151633acd4df360e21b81526001600160a01b0391821660048201526024810192909252600091908b169063eb3537cc90604401606060405180830381865afa158015613174573d6000803e3d6000fd5b505050506040513d601f19601f820116820180604052508101906131989190614941565b509091505060008112156133a05760028560028111156131ba576131ba614df0565b03613345576040808a01519051635b92108f60e11b8152339163b724211e916131ea918891600c90600401614e8c565b6000604051808303816000875af1158015613209573d6000803e3d6000fd5b505050506040513d6000823e601f3d908101601f191682016040526132319190810190614eba565b9350600061325961324183614f6e565b613254600061324f87614f6e565b61426b565b61427a565b90508a6001600160a01b031663cf97256d8b602001518361327990614f6e565b6040516001600160e01b031960e085901b1681526001600160a01b0390921660048301526024820152604401600060405180830381600087803b1580156132bf57600080fd5b505af11580156132d3573d6000803e3d6000fd5b5050505060408a810151905163cf97256d60e01b81526001600160a01b03918216600482015260248101839052908c169063cf97256d90604401600060405180830381600087803b15801561332757600080fd5b505af115801561333b573d6000803e3d6000fd5b50505050506133a0565b60405162461bcd60e51b815260206004820152602a60248201527f4346413a204150505f52554c455f4e4f5f435249544943414c5f524543454956604482015269115497d050d0d3d5539560b21b60648201526084016105ec565b505b5050979650505050505050565b606083810151156133c2576133c2614eef565b60006133cc6143cc565b6133e284604001518561014001518a8a8a6139bb565b6101408701519294509250506001600160a01b03808a169116036134785760408082015190516303c9790560e11b81523391630792f20a9161342a9189918790600401614f49565b6000604051808303816000875af1158015613449573d6000803e3d6000fd5b505050506040513d6000823e601f3d908101601f191682016040526134719190810190614eba565b925061347c565b8492505b505095945050505050565b602081015160ff1660031415806134b55750816001600160a01b03168161014001516001600160a01b031614155b1561359a5760608101516040808301519051633acd4df360e21b81526001600160a01b039283166004820152602481019190915260009184169063eb3537cc90604401606060405180830381865afa158015613515573d6000803e3d6000fd5b505050506040513d601f19601f820116820180604052508101906135399190614941565b5050905060008112156135985760405162461bcd60e51b815260206004820152602160248201527f4346413a206e6f7420656e6f75676820617661696c61626c652062616c616e636044820152606560f81b60648201526084016105ec565b505b5050565b60006135ae8685602001516117e8565b91505060006135c08460400151611f4b565b905060006135d18360400151611f4b565b905060606000806135e2848b614e06565b90506000806135f08d6115fe565b915091506136008c878484611fb9565b93505050600081126136eb576000846136198388614a67565b6136239190614e47565b9050600183613633576001613636565b60005b6040805160ff9384166020820152929091169082015260600160405160208183030381529060405293508b6001600160a01b0316631863e8098b60000151868b878f6020015161368588614008565b61369189600019614a67565b6040518863ffffffff1660e01b81526004016136b39796959493929190614f8a565b600060405180830381600087803b1580156136cd57600080fd5b505af11580156136e1573d6000803e3d6000fd5b505050505061379d565b6040805160016020820152600291810191909152859060600160405160208183030381529060405293508b6001600160a01b0316631863e8098b60000151868b60008f6020015161373b88614008565b6137478a600019614a67565b6040518863ffffffff1660e01b81526004016137699796959493929190614f8a565b600060405180830381600087803b15801561378357600080fd5b505af1158015613797573d6000803e3d6000fd5b50505050505b5050505050505050505050565b600082600b0b6000036137bf57506000611193565b60016001605f1b038211156137d6576137d6614eef565b6137e08284614fd7565b600b0b90506108c08161405a565b60008183116137fd57816108c0565b5090919050565b6020820151604051633e7d48bd60e21b81526001600160a01b03909116600482015260609060009081908190339063f9f522f490602401606060405180830381865afa158015613858573d6000803e3d6000fd5b505050506040513d601f19601f8201168201806040525081019061387c9190615071565b9194509250905082801561388e575081155b156139b257600061389f868861428f565b90508660c0015182166000036139a45760006138be8860c0015161430d565b88516040808b015160608c0151825160008152602081019093526138ea939230929190604481016150ad565b60408051601f19818403018152918152602080830180516001600160e01b03166001600160e01b031990951694909417909352918a015160c08b01519251633a020f0160e11b815291935033926374041e029261395992918691641000000000919091149088906004016150f2565b6000604051808303816000875af1158015613978573d6000803e3d6000fd5b505050506040513d6000823e601f3d908101601f191682016040526139a09190810190614eba565b9550505b6139af8660006143a4565b50505b50505092915050565b6000806139c66143cc565b60008060006139d4896115fe565b5090506000336001600160a01b031663289b3c0d6040518163ffffffff1660e01b8152600401602060405180830381865afa158015613a17573d6000803e3d6000fd5b505050506040513d601f19601f82011682018060405250810190613a3b919061497a565b60405163407b865d60e11b81529091506001600160a01b038216906380f70cba90613a8e9033908e907feae305fa863b373417e615b1044222e2806cefc7788d169ce6748a443c3f6cc490600401614a04565b602060405180830381865afa158015613aab573d6000803e3d6000fd5b505050506040513d601f19601f82011682018060405250810190613acf9190614997565b9250613adf8960800151836137aa565b95505050613af08660600151611f4b565b613afd8760400151611f4b565b613b0686611f4b565b613b109190614a28565b613b1a9190614e06565b9450613b2d85612f1b8860400151611f4b565b91508082108015613b45575060008760800151600b0b135b15613b8757613b578660600151611f4b565b613b648760400151611f4b565b613b6d83611f4b565b613b779190614a28565b613b819190614e06565b94508091505b6001600160a01b03891615801590613bb15750876001600160a01b0316896001600160a01b031614155b15613bbb57600093505b604051806080016040528060008960800151600b0b13613bdc576000613bde565b8b5b81526020018860800151600b0b815260200183815260200187606001518152509250876001600160a01b031663a1b2bf8b8860000151613c1d8661408e565b6040518363ffffffff1660e01b8152600401613c3a9291906149eb565b600060405180830381600087803b158015613c5457600080fd5b505af1158015613c68573d6000803e3d6000fd5b505060408051808201909152600080825260208201529250613c88915050565b613cae88886020015189608001518960200151613ca591906148b0565b8860008f6140ff565b600b0b8152604087015160208701516080890151613cdd928b929091613cd491906148b0565b6000808f6140ff565b600b0b60208083018290526040808a0151918a015160808b0151855160a08d015193516001600160a01b0395861696938616958f16947f57269d2ebcccecdcc0d9d2c0a0b80ead95f344e28ec20f50f709811f209d4e0e94613d4394939290919061513b565b60405180910390a486606001516001600160a01b03167f71e0c98e270fc3084227b473f176924d5303ece8c639e679998a2d7dc8e70f7483604051613d8a91815260200190565b60405180910390a25050955095509592505050565b613da76143f7565b6020840151604051633e7d48bd60e21b81526001600160a01b03909116600482015260609060009081908190339063f9f522f490602401606060405180830381865afa158015613dfb573d6000803e3d6000fd5b505050506040513d601f19601f82011682018060405250810190613e1f9190615071565b88965091945092509050828015613e34575081155b15613ffd57613e43848961428f565b93508760c001518116600003613feb576000613e628960c0015161430d565b89516040808c015160608d015182516000815260208101909352613e909392309291908e9060448101615173565b60408051601f19818403018152918152602080830180516001600160e01b03166001600160e01b031990951694909417909352918b015160c08c0151925163079b42a160e21b81529193503392631e6d0a8492613eff9291869164200000000091909114908b906004016150f2565b6000604051808303816000875af1158015613f1e573d6000803e3d6000fd5b505050506040513d6000823e601f3d908101601f19168201604052613f469190810190614eba565b604051631fb6491d60e11b81529095503390633f6c923a90613f6c90889060040161460d565b600060405180830381865afa158015613f89573d6000803e3d6000fd5b505050506040513d6000823e601f3d908101601f19168201604052613fb19190810190614ce9565b9550613fe3600061324f613fc88c60800151611f4b565b613254613fd88b60e00151611f4b565b8b610100015161426b565b610100870152505b613ffa868661010001516143a4565b93505b505050935093915050565b600080821215611fb55760405162461bcd60e51b815260206004820181905260248201527f53616665436173743a2076616c7565206d75737420626520706f73697469766560448201526064016105ec565b60008063ffffffff831661406f576000614072565b60015b60ff16905060206140858285831c6151cc565b901b9392505050565b6040805160018082528183019092526060916020808301908036833701905050905060208260600151901c604060208460400151901c901b608084602001516bffffffffffffffffffffffff16901b60e08560000151901b17171760001b8160008151811061299957612999614bf7565b60008061410c88886117e8565b91505060008160200151600b0b61412c836000015186612ed19190614e75565b6141369190614a67565b905080156141a15760405163cf97256d60e01b81526001600160a01b038981166004830152602482018390528a169063cf97256d90604401600060405180830381600087803b15801561418857600080fd5b505af115801561419c573d6000803e3d6000fd5b505050505b8682602001516141b191906151e4565b600b0b602083015283825260408201516141d0908790612f1b90611f4b565b604083015260608201516141e9908690612f1b90611f4b565b60608301526001600160a01b03891663090c415e8960006142098661408e565b6040518463ffffffff1660e01b815260040161422793929190615233565b600060405180830381600087803b15801561424157600080fd5b505af1158015614255573d6000803e3d6000fd5b5050506020909201519998505050505050505050565b60008183136137fd57816108c0565b600081831361428957826108c0565b50919050565b6020810151608082015160a08301518351604051630768fabb60e41b8152606094339463768fabb0946142c6948a9460040161525a565b6000604051808303816000875af11580156142e5573d6000803e3d6000fd5b505050506040513d6000823e601f3d908101601f191682016040526108c09190810190614eba565b6000640100000000820361432957506330d9c91560e01b919050565b64040000000082036143435750630221347d60e61b919050565b641000000000820361435d5750635f9e7d7760e01b919050565b6402000000008203614377575063d86ed3e560e01b919050565b6408000000008203614391575063230dbd2960e01b919050565b506353c11f9960e01b919050565b919050565b604051634c4d861f60e11b8152606090339063989b0c3e906142c6908690869060040161529f565b6040518060800160405280600081526020016000600b0b815260200160008152602001600081525090565b604080516101608101825260008082526020820181905291810182905260608082018390526080820183905260a082015260c0810182905260e081018290526101008101829052610120810182905261014081019190915290565b60405180606001604052806060815260200161446c6143cc565b81526020016144796143f7565b905290565b6001600160a01b03811681146107ed57600080fd5b6000806000606084860312156144a857600080fd5b83356144b38161447e565b925060208401356144c38161447e565b915060408401356144d38161447e565b809150509250925092565b600080604083850312156144f157600080fd5b82356144fc8161447e565b946020939093013593505050565b60008083601f84011261451c57600080fd5b50813567ffffffffffffffff81111561453457600080fd5b6020830191508360208285010111156115f757600080fd5b6000806000806060858703121561456257600080fd5b843561456d8161447e565b9350602085013561457d8161447e565b9250604085013567ffffffffffffffff81111561459957600080fd5b6145a58782880161450a565b95989497509550505050565b60005b838110156145cc5781810151838201526020016145b4565b838111156145db576000848401525b50505050565b600081518084526145f98160208601602086016145b1565b601f01601f19169290920160200192915050565b6020815260006108c060208301846145e1565b6000806040838503121561463357600080fd5b823561463e8161447e565b9150602083013561464e8161447e565b809150509250929050565b8035600b81900b811461439f57600080fd5b60008060008060008060a0878903121561468457600080fd5b863561468f8161447e565b9550602087013561469f8161447e565b945060408701356146af8161447e565b93506146bd60608801614659565b9250608087013567ffffffffffffffff8111156146d957600080fd5b6146e589828a0161450a565b979a9699509497509295939492505050565b60006020828403121561470957600080fd5b81356108c08161447e565b60008060006060848603121561472957600080fd5b83356147348161447e565b925060208401356147448161447e565b929592945050506040919091013590565b60008060008060006080868803121561476d57600080fd5b85356147788161447e565b945060208601356147888161447e565b935060408601356147988161447e565b9250606086013567ffffffffffffffff8111156147b457600080fd5b6147c08882890161450a565b969995985093965092949392505050565b6000806000806000608086880312156147e957600080fd5b85356147f48161447e565b945060208601356148048161447e565b935061479860408701614659565b60ff811681146107ed57600080fd5b60008060008060008060a0878903121561483a57600080fd5b86356148458161447e565b955060208701356148558161447e565b945060408701356146af81614812565b6000806040838503121561487857600080fd5b82356148838161447e565b915061489160208401614659565b90509250929050565b634e487b7160e01b600052601160045260246000fd5b600081600b0b83600b0b600081128160016001605f1b0319018312811516156148db576148db61489a565b8160016001605f1b030183138116156148f6576148f661489a565b5090039392505050565b60208082526021908201527f4346413a20455f4558434545445f464c4f575f524154455f414c4c4f57414e436040820152604560f81b606082015260800190565b60008060006060848603121561495657600080fd5b8351925060208401519150604084015190509250925092565b805161439f8161447e565b60006020828403121561498c57600080fd5b81516108c08161447e565b6000602082840312156149a957600080fd5b5051919050565b600081518084526020808501945080840160005b838110156149e0578151875295820195908201906001016149c4565b509495945050505050565b8281526040602082015260006104c960408301846149b0565b6001600160a01b039384168152919092166020820152604081019190915260600190565b60008083128015600160ff1b850184121615614a4657614a4661489a565b6001600160ff1b0384018313811615614a6157614a6161489a565b50500390565b60006001600160ff1b0381841382841380821686840486111615614a8d57614a8d61489a565b600160ff1b6000871282811687830589121615614aac57614aac61489a565b60008712925087820587128484161615614ac857614ac861489a565b87850587128184161615614ade57614ade61489a565b505050929093029392505050565b634e487b7160e01b600052604160045260246000fd5b604051610160810167ffffffffffffffff81118282101715614b2657614b26614aec565b60405290565b604051601f8201601f1916810167ffffffffffffffff81118282101715614b5557614b55614aec565b604052919050565b60006020808385031215614b7057600080fd5b825167ffffffffffffffff80821115614b8857600080fd5b818501915085601f830112614b9c57600080fd5b815181811115614bae57614bae614aec565b8060051b9150614bbf848301614b2c565b8181529183018401918481019088841115614bd957600080fd5b938501935b83851015610ce857845182529385019390850190614bde565b634e487b7160e01b600052603260045260246000fd5b634e487b7160e01b600052601260045260246000fd5b600082614c3257614c32614c0d565b500490565b8051801515811461439f57600080fd5b600060208284031215614c5957600080fd5b6108c082614c37565b805161439f81614812565b80516001600160e01b03198116811461439f57600080fd5b600082601f830112614c9657600080fd5b815167ffffffffffffffff811115614cb057614cb0614aec565b614cc3601f8201601f1916602001614b2c565b818152846020838601011115614cd857600080fd5b6104c98260208301602087016145b1565b600060208284031215614cfb57600080fd5b815167ffffffffffffffff80821115614d1357600080fd5b908301906101608286031215614d2857600080fd5b614d30614b02565b614d3983614c62565b8152614d4760208401614c62565b602082015260408301516040820152614d626060840161496f565b6060820152614d7360808401614c6d565b608082015260a083015182811115614d8a57600080fd5b614d9687828601614c85565b60a08301525060c083015160c082015260e083015160e0820152610100915081830151828201526101209150614dcd82840161496f565b828201526101409150614de182840161496f565b91810191909152949350505050565b634e487b7160e01b600052602160045260246000fd5b600080821280156001600160ff1b0384900385131615614e2857614e2861489a565b600160ff1b8390038412811615614e4157614e4161489a565b50500190565b600082614e5657614e56614c0d565b600160ff1b821460001984141615614e7057614e7061489a565b500590565b600082821015614e8757614e8761489a565b500390565b606081526000614e9f60608301866145e1565b6001600160a01b039490941660208301525060400152919050565b600060208284031215614ecc57600080fd5b815167ffffffffffffffff811115614ee357600080fd5b6104c984828501614c85565b634e487b7160e01b600052600160045260246000fd5b6000816000190483118215151615614f1f57614f1f61489a565b500290565b600060ff821660ff84168060ff03821115614f4157614f4161489a565b019392505050565b606081526000614f5c60608301866145e1565b60208301949094525060400152919050565b6000600160ff1b8201614f8357614f8361489a565b5060000390565b87815260e060208201526000614fa360e08301896145e1565b6001600160a01b03978816604084015295151560608301525092909416608083015260a082015260c0019190915292915050565b600081600b0b83600b0b60016001605f1b036000821360008413838304851182821616156150075761500761489a565b6b7fffffffffffffffffffffff19600085128281168783058712161561502f5761502f61489a565b6000871292508582058712848416161561504b5761504b61489a565b858505871281841616156150615761506161489a565b5050509290910295945050505050565b60008060006060848603121561508657600080fd5b61508f84614c37565b925061509d60208501614c37565b9150604084015190509250925092565b6001600160a01b038681168252851660208201526040810184905260a0606082018190526000906150e0908301856145e1565b8281036080840152610ce881856145e1565b6001600160a01b0385168152608060208201819052600090615116908301866145e1565b8415156040840152828103606084015261513081856145e1565b979650505050505050565b84600b0b815283600b0b602082015282600b0b604082015260806060820152600061516960808301846145e1565b9695505050505050565b6001600160a01b038781168252861660208201526040810185905260c0606082018190526000906151a6908301866145e1565b82810360808401526151b881866145e1565b905082810360a084015261136c81856145e1565b600082198211156151df576151df61489a565b500190565b600081600b0b83600b0b600082128260016001605f1b030382138115161561520e5761520e61489a565b8260016001605f1b031903821281161561522a5761522a61489a565b50019392505050565b60018060a01b03841681528260208201526060604082015260006104e260608301846149b0565b60a08152600061526d60a08301886145e1565b6001600160a01b0396871660208401526040830195909552506060810192909252909216608090920191909152919050565b6040815260006152b260408301856145e1565b9050826020830152939250505056fea2646970667358221220821e5fd89d6f680039e761dc95c041dd8524708172bd7903ba49ff24a7953df464736f6c634300080e003360a06040523480156200001157600080fd5b506040516200543c3803806200543c833981016040819052620000349162000046565b6001600160a01b031660805262000078565b6000602082840312156200005957600080fd5b81516001600160a01b03811681146200007157600080fd5b9392505050565b6080516153a86200009460003960006110e201526153a86000f3fe608060405234801561001057600080fd5b50600436106101215760003560e01c80637730599e116100ad578063acf4a6c211610071578063acf4a6c21461030d578063b6dacdb814610320578063b96731c214610342578063cd7245c514610355578063d787840a146103ad57600080fd5b80637730599e146102635780637fbc763914610289578063899baaec1461029c5780639b2e48bc146102cc578063acafa1b8146102fa57600080fd5b806346951954116100f457806346951954146101d957806350d75d25146101ee57806352d1902d146101f65780635b5340511461020c5780636041ae961461025057600080fd5b8063232d2b581461012657806323fc23f31461014f5780632e5e74c6146101935780633fd4176a146101a6575b600080fd5b6101396101343660046143f8565b6103c0565b60405161014691906144df565b60405180910390f35b61016261015d3660046144f2565b610ae2565b6040805194151585526001600160801b03938416602086015291831691840191909152166060820152608001610146565b6101396101a136600461453d565b610b4d565b6101c173__$3c6eb92c7cccddf84f4a4201d0479214da$__81565b6040516001600160a01b039091168152602001610146565b6101ec6101e7366004614591565b6110d7565b005b6101c161115b565b6101fe61118a565b604051908152602001610146565b61021f61021a3660046145ae565b6111ee565b6040516101469493929190931515845291151560208401526001600160801b03166040830152606082015260800190565b61013961025e36600461460a565b6112c4565b7f8aedc3b5d4bf031e11a7e2940f7251c005698405d58e02e1c247fed3b1b3a6746101fe565b610139610297366004614685565b611718565b6102af6102aa3660046146c6565b611828565b604080519283526001600160801b03909116602083015201610146565b6102df6102da366004614717565b6118cc565b60408051938452602084019290925290820152606001610146565b61013961030836600461453d565b611ad7565b61013961031b36600461460a565b611f01565b61033361032e366004614758565b6124e1565b604051610146939291906147d5565b610139610350366004614872565b612736565b6103686103633660046148c7565b612836565b604080516001600160a01b03909616865263ffffffff9094166020860152911515928401929092526001600160801b039091166060830152608082015260a001610146565b6101396103bb3660046148f3565b612958565b60606001600160a01b0385166103f15760405162461bcd60e51b81526004016103e890614957565b60405180910390fd5b6103f9614250565b6104016142ae565b60606000806104468c89898080601f016020809104026020016040519081016040528093929190818152602001838380828437600092019190915250612b3892505050565b90508060a00151925080606001519150506104658b828b8d6000612d03565b60808901521515602080890191909152606088019190915260408088018390529287528251908101909252600082526104a1918d918c91612e15565b925086868080601f0160208091040260200160405190810160405280939291908181526020018383808284376000920191909152505050602086015191965050156105055764040000000060c08401526104fb8386612e43565b60a0850152610520565b64010000000060c084015261051a8386612e43565b60a08501525b8360200151801561053d575060808401515163ffffffff90811614155b156106185761058c8460800151608001516001600160801b0316896001600160801b03168660600151602001516001600160801b031661057d919061499a565b61058791906149b2565b612ffa565b6060850180516001600160801b03909216602090920191909152845190516001600160a01b038d169163a1b2bf8b916105c490613067565b6040518363ffffffff1660e01b81526004016105e19291906149f9565b600060405180830381600087803b1580156105fb57600080fd5b505af115801561060f573d6000803e3d6000fd5b505050506107ff565b8360200151156106955761065d8460800151608001516001600160801b0316896001600160801b03168660600151604001516001600160801b031661057d919061499a565b6060850180516001600160801b03909216604090920191909152845190516001600160a01b038d169163a1b2bf8b916105c490613067565b6040518060a0016040528063ffffffff80168152602001826001600160a01b031681526020018b63ffffffff1681526020018560600151600001516001600160801b03168152602001896001600160801b031681525084608001819052508a6001600160a01b03166312a6a3f885604001516107148760800151613105565b6040518363ffffffff1660e01b81526004016107319291906149f9565b600060405180830381600087803b15801561074b57600080fd5b505af115801561075f573d6000803e3d6000fd5b50505050878460600151604001516107779190614a12565b6060850180516001600160801b03909216604090920191909152845190516001600160a01b038d169163a1b2bf8b916107af90613067565b6040518363ffffffff1660e01b81526004016107cc9291906149f9565b600060405180830381600087803b1580156107e657600080fd5b505af11580156107fa573d6000803e3d6000fd5b505050505b60008460800151608001516001600160801b031685608001516060015186606001516000015161082f9190614a3d565b6001600160801b03166108429190614a65565b905063ffffffff801685608001516000015163ffffffff16036108db576108728c8361086d84614aea565b6131ac565b6001600160a01b038c1663cf97256d8361088b84614aea565b6040518363ffffffff1660e01b81526004016108a8929190614b06565b600060405180830381600087803b1580156108c257600080fd5b505af11580156108d6573d6000803e3d6000fd5b505050505b60405163cf97256d60e01b81526001600160a01b038d169063cf97256d90610909908d908590600401614b06565b600060405180830381600087803b15801561092357600080fd5b505af1158015610937573d6000803e3d6000fd5b505050508460200151156109dd5760608086015151608080880180516001600160801b039384169401939093528251918c16910152604086015190516001600160a01b038e169163a1b2bf8b9161098d90613105565b6040518363ffffffff1660e01b81526004016109aa9291906149f9565b600060405180830381600087803b1580156109c457600080fd5b505af11580156109d8573d6000803e3d6000fd5b505050505b846020015115610a0c5764080000000060c085015260a0850151610a03908590886132fa565b9650610a2c9050565b64020000000060c085015260a0850151610a28908590886132fa565b9650505b8a63ffffffff16826001600160a01b03168d6001600160a01b03167f0115987243fd19d615b5ea62a80372a06a2b37fec378b148ee7a507c5c4c0a398d8d88604051610a7a93929190614b1f565b60405180910390a4896001600160a01b03168c6001600160a01b03167fe0707ac7efb8b59c22189af8d004ed17dc9e4379e71b9066119b62c182524977848e8d88604051610acb9493929190614b5b565b60405180910390a350505050509695505050505050565b600080600080610b0b604080516060810182526000808252602082018190529181019190915290565b6000610b17888861356d565b9050610b2389826135d4565b90965091508515610b4257815160208301516040840151919650945092505b505093509350935093565b6060610b57614250565b610b5f6142ae565b600060606000610ba58c89898080601f016020809104026020016040519081016040528093929190818152602001838380828437600092019190915250612b3892505050565b606081015160a0909101519093509150506001600160a01b038816610bdc5760405162461bcd60e51b81526004016103e890614957565b896001600160a01b0316826001600160a01b031614610c325760405162461bcd60e51b81526020600482015260126024820152711251104e881157d393d517d0531313d5d15160721b60448201526064016103e8565b610c408b8b8a8c6001612d03565b6080890152506060870152604080870182905291865281516020810190925260008252610c70918d918b91612e15565b925086868080601f0160208091040260200160405190810160405280939291908181526020018383808284376000920191909152505064100000000060c087015250909550610cc190508386612e43565b60a08501526080808501519081015160609182015191860151516000926001600160801b0390921691610cf391614a3d565b6001600160801b0316610d069190614a65565b60808601515190915063ffffffff90811614610d5357846080015160800151856060015160200151610d389190614a3d565b60608601516001600160801b03909116602090910152610d86565b846080015160800151856060015160400151610d6f9190614a3d565b60608601516001600160801b039091166040909101525b8b6001600160a01b031663a1b2bf8b8660000151610da78860600151613067565b6040518363ffffffff1660e01b8152600401610dc49291906149f9565b600060405180830381600087803b158015610dde57600080fd5b505af1158015610df2573d6000803e3d6000fd5b5050505060808501515163ffffffff90811614610e1c57610e1c8c8a8760800151600001516136e8565b60808501515163ffffffff1663fffffffe1901610eaa57610e418c8c61086d84614aea565b6001600160a01b038c1663cf97256d8c610e5a84614aea565b6040518363ffffffff1660e01b8152600401610e77929190614b06565b600060405180830381600087803b158015610e9157600080fd5b505af1158015610ea5573d6000803e3d6000fd5b505050505b6040858101519051632704839760e01b81526004810191909152600260248201526001600160a01b038d1690632704839790604401600060405180830381600087803b158015610ef957600080fd5b505af1158015610f0d573d6000803e3d6000fd5b505060405163cf97256d60e01b81526001600160a01b038f16925063cf97256d9150610f3f908c908590600401614b06565b600060405180830381600087803b158015610f5957600080fd5b505af1158015610f6d573d6000803e3d6000fd5b505064200000000060c0870152505060a0850151610f8d908590886132fa565b9050809650508963ffffffff168b6001600160a01b03168d6001600160a01b03167fe1f8e9cd8061e5b251769965bda6ca9ef1674bc6541fb9131039fa53f024d1428c86604051610fdf929190614ba4565b60405180910390a4886001600160a01b03168c6001600160a01b03167f9e02127550b99adc8cc6ee332a36f31338facdbc396cebefce9a047247cd04558d8d8660405161102e93929190614bc8565b60405180910390a38963ffffffff168b6001600160a01b03168d6001600160a01b03167f0115987243fd19d615b5ea62a80372a06a2b37fec378b148ee7a507c5c4c0a398c60008760405161108593929190614b1f565b60405180910390a4886001600160a01b03168c6001600160a01b03167fe0707ac7efb8b59c22189af8d004ed17dc9e4379e71b9066119b62c1825249778d8d600087604051610acb9493929190614b5b565b336001600160a01b037f0000000000000000000000000000000000000000000000000000000000000000161461114f5760405162461bcd60e51b815260206004820152601960248201527f6f6e6c7920686f73742063616e2075706461746520636f64650000000000000060448201526064016103e8565b61115881613773565b50565b60006111857f360894a13ba1a3210667c828492db98dca3e2076cc3735a920a3ca505d382bbc5490565b905090565b6000306001600160a01b0316637730599e6040518163ffffffff1660e01b8152600401602060405180830381865afa1580156111ca573d6000803e3d6000fd5b505050506040513d601f19601f820116820180604052508101906111859190614bf8565b60008060008060008061121a604080516060810182526000808252602082018190529181019190915290565b6112226142e9565b6112308c8c8b8d6000612d03565b909b509296509094509250905087611259576000806000809750975097509750505050506112b9565b8051608082015163ffffffff9182169091141597509550866112af5780608001516001600160801b0316816060015183600001516112979190614a3d565b6001600160801b03166112aa9190614c11565b6112b2565b60005b9450505050505b945094509450949050565b60606112ce614250565b6112d66142ae565b60006060600061131c8b89898080601f016020809104026020016040519081016040528093929190818152602001838380828437600092019190915250612b3892505050565b9050806060015192508060a0015191505061133b8a8a848b6001612d03565b6080890181905260608901929092525060408701919091529085525163ffffffff1663fffffffe19016113b05760405162461bcd60e51b815260206004820152601860248201527f4944413a20455f535542535f4e4f545f415050524f564544000000000000000060448201526064016103e8565b6113cf8a8a866040015160405180602001604052806000815250612e15565b925086868080601f0160208091040260200160405190810160405280939291908181526020018383808284376000920191909152505064100000000060c08701525090955061142090508386612e43565b60a08501526080808501519081015160609182015191860151516000926001600160801b039092169161145291614a3d565b6001600160801b03166114659190614a65565b90508460800151608001518560600151602001516114839190614a3d565b6060860180516001600160801b0390921660209092019190915260808087015101519051604001516114b59190614a12565b6060860180516001600160801b03909216604090920191909152855190516001600160a01b038d169163a1b2bf8b916114ed90613067565b6040518363ffffffff1660e01b815260040161150a9291906149f9565b600060405180830381600087803b15801561152457600080fd5b505af1158015611538573d6000803e3d6000fd5b5050505061154f8b848760800151600001516136e8565b606080860151516080870180516001600160801b039092169190920152805163ffffffff9052604086015190516001600160a01b038d169163a1b2bf8b9161159690613105565b6040518363ffffffff1660e01b81526004016115b39291906149f9565b600060405180830381600087803b1580156115cd57600080fd5b505af11580156115e1573d6000803e3d6000fd5b505060405163cf97256d60e01b81526001600160a01b038e16925063cf97256d91506116139086908590600401614b06565b600060405180830381600087803b15801561162d57600080fd5b505af1158015611641573d6000803e3d6000fd5b505064200000000060c0870152505060a0850151611661908590886132fa565b9050809650508863ffffffff168a6001600160a01b03168c6001600160a01b03167fe1f8e9cd8061e5b251769965bda6ca9ef1674bc6541fb9131039fa53f024d14286866040516116b3929190614ba4565b60405180910390a4826001600160a01b03168b6001600160a01b03167f9e02127550b99adc8cc6ee332a36f31338facdbc396cebefce9a047247cd04558c8c8660405161170293929190614bc8565b60405180910390a3505050505095945050505050565b6060600061175c8785858080601f016020809104026020016040519081016040528093929190818152602001838380828437600092019190915250612b3892505050565b60608101519091506000806117728a848b613981565b9150915080600001516001600160801b0316886001600160801b031610156117d05760405162461bcd60e51b81526020600482015260116024820152704944413a20455f494e4445585f47524f5760781b60448201526064016103e8565b6117e38a848b85858d8a60a001516139df565b86868080601f016020809104026020016040519081016040528093929190818152602001838380828437600092019190915250929d9c50505050505050505050505050565b6000806000611837868661356d565b905060008061184689846135d4565b91509150816118675760405162461bcd60e51b81526004016103e890614c30565b60008160400151826020015161187d9190614a12565b6001600160801b031690506000611897610587838a614c59565b83519091506118a7908290614a12565b95506118bc826001600160801b038316614c11565b9650505050505094509492505050565b60008060006060806118de8888613c32565b909250905060005b81518163ffffffff161015611abb5760006118ff6142e9565b600080868563ffffffff168151811061191a5761191a614c7b565b6020026020010151905061194d8d878763ffffffff168151811061194057611940614c7b565b6020026020010151613d25565b90945092508361195f5761195f614c91565b8063ffffffff16836000015163ffffffff161461197e5761197e614c91565b6001600160a01b038d16634b61cc33308e6119a363ffffffff8616600160801b61499a565b60016040518563ffffffff1660e01b81526004016119c49493929190614ca7565b600060405180830381865afa1580156119e1573d6000803e3d6000fd5b505050506040513d6000823e601f3d908101601f19168201604052611a099190810190614dcd565b600081518110611a1b57611a1b614c7b565b6020026020010151915050611a49604080516060810182526000808252602082018190529181019190915290565b611a538d836135d4565b909450905083611a6557611a65614c91565b82608001516001600160801b031683606001518260000151611a879190614a3d565b6001600160801b0316611a9a9190614a65565b611aa4908b614e01565b99505050505080611ab490614e42565b90506118e6565b50611ac68888613e41565b935060009250505093509350939050565b6060611b198784848080601f016020809104026020016040519081016040528093929190818152602001838380828437600092019190915250612b3892505050565b506001600160a01b038416611b405760405162461bcd60e51b81526004016103e890614957565b611b48614250565b611b506142ae565b611b5e8989888a6001612d03565b6080870181905260608701929092525060408501919091529083525163ffffffff90811614611bc65760405162461bcd60e51b81526020600482015260146024820152731251104e881157d4d55094d7d054141493d5915160621b60448201526064016103e8565b60008260800151608001516001600160801b0316836080015160600151846060015160000151611bf69190614a3d565b6001600160801b0316611c099190614c11565b9050611c2a8a8a856040015160405180602001604052806000815250612e15565b915085858080601f0160208091040260200160405190810160405280939291908181526020018383808284376000920191909152509296505082159150611eba90505764040000000060c0830152611c828285612e43565b60a0840152611c958a8a61086d84614aea565b6001600160a01b038a1663cf97256d8a611cae84614aea565b6040518363ffffffff1660e01b8152600401611ccb929190614b06565b600060405180830381600087803b158015611ce557600080fd5b505af1158015611cf9573d6000803e3d6000fd5b50505050606083810151516080850180516001600160801b039092169190920152604084015190516001600160a01b038c169163a1b2bf8b91611d3b90613105565b6040518363ffffffff1660e01b8152600401611d589291906149f9565b600060405180830381600087803b158015611d7257600080fd5b505af1158015611d86573d6000803e3d6000fd5b505060405163cf97256d60e01b81526001600160a01b038d16925063cf97256d9150611db8908a908590600401614b06565b600060405180830381600087803b158015611dd257600080fd5b505af1158015611de6573d6000803e3d6000fd5b505050508763ffffffff16896001600160a01b03168b6001600160a01b03167f467eccd248ef31c8bcef16d94856855799a8783aeef10f3759e43614059a6bb18a85604051611e36929190614b06565b60405180910390a4604080516001600160a01b038b8116825263ffffffff8b166020830152918101839052818916918c16907f48a3d91d4a07e4982b081260e24f922bd33bb965882772d6de19c922c3eabdea9060600160405180910390a364080000000060c083015260a0830151611eb1908390866132fa565b9450611ef49050565b85858080601f0160208091040260200160405190810160405280939291908181526020018383808284376000920191909152509296505050505b5050509695505050505050565b6060611f0b614250565b611f136142ae565b600060606000611f598b89898080601f016020809104026020016040519081016040528093929190818152602001838380828437600092019190915250612b3892505050565b9050806060015192508060a00151915050611f788a8a848b6000612d03565b6080890152158015602089015260608801919091526040870191909152908552611fee5760808401515163ffffffff90811614611fee5760405162461bcd60e51b81526020600482015260146024820152731251104e881157d4d55094d7d054141493d5915160621b60448201526064016103e8565b86868080601f01602080910402602001604051908101604052809392919081815260200183838082843760009201829052506040808a0151815160208101909252918152949950612047948f94508e9350909150612e15565b925083602001516121705764010000000060c08401526120678386612e43565b60a08086019190915260408051918201815260008083526001600160a01b038c16602084015263ffffffff8b1691830191909152606080870151516001600160801b03169083015260808083019190915285015283516120ca908b908490613eea565b60808501805163ffffffff909216909152604085015190516001600160a01b038c16916312a6a3f8916120fc90613105565b6040518363ffffffff1660e01b81526004016121199291906149f9565b600060405180830381600087803b15801561213357600080fd5b505af1158015612147573d6000803e3d6000fd5b505064020000000060c0860152505060a0840151612167908490876132fa565b95506124319050565b64040000000060c08401526121858386612e43565b60a08501526080808501519081015160609182015191860151516000926001600160801b03909216916121b791614a3d565b6001600160801b03166121ca9190614a65565b905084608001516080015185606001516020018181516121ea9190614a12565b6001600160801b0316905250608080860151015160608601516040018051612213908390614a3d565b6001600160801b0316905250845160608601516001600160a01b038d169163a1b2bf8b9161224090613067565b6040518363ffffffff1660e01b815260040161225d9291906149f9565b600060405180830381600087803b15801561227757600080fd5b505af115801561228b573d6000803e3d6000fd5b5050505061229e8b8b8361086d90614aea565b6001600160a01b038b1663cf97256d8b6122b784614aea565b6040518363ffffffff1660e01b81526004016122d4929190614b06565b600060405180830381600087803b1580156122ee57600080fd5b505af1158015612302573d6000803e3d6000fd5b505060405163cf97256d60e01b81526001600160a01b038e16925063cf97256d91506123349086908590600401614b06565b600060405180830381600087803b15801561234e57600080fd5b505af1158015612362573d6000803e3d6000fd5b5050506060808701515160808801516001600160801b0390911691015250845161238f908c908590613eea565b60808601805163ffffffff909216909152604086015190516001600160a01b038d169163a1b2bf8b916123c190613105565b6040518363ffffffff1660e01b81526004016123de9291906149f9565b600060405180830381600087803b1580156123f857600080fd5b505af115801561240c573d6000803e3d6000fd5b505064080000000060c0870152505060a085015161242c908590886132fa565b965050505b8763ffffffff16896001600160a01b03168b6001600160a01b03167f492d2641617cfaf24ac7328f85bc5bdf5113537d78dc7671afa4f49a73f053c2858560405161247d929190614ba4565b60405180910390a4816001600160a01b03168a6001600160a01b03167fc0b8396b655615cdb85fe462a9a1792480816f909cd46d9517a940b386dfbf6b8b8b856040516124cc93929190614bc8565b60405180910390a35050505095945050505050565b60608060608060606124f38787613c32565b909250905060006125026142e9565b82516001600160401b0381111561251b5761251b614cd0565b604051908082528060200260200182016040528015612544578160200160208202803683370190505b50965082516001600160401b0381111561256057612560614cd0565b604051908082528060200260200182016040528015612589578160200160208202803683370190505b50955082516001600160401b038111156125a5576125a5614cd0565b6040519080825280602002602001820160405280156125ce578160200160208202803683370190505b50945060005b83518163ffffffff16101561272a576000858263ffffffff16815181106125fd576125fd614c7b565b602002602001015190506000858363ffffffff168151811061262157612621614c7b565b602002602001015190506126358c82613d25565b90955093508461264757612647614c91565b8163ffffffff16846000015163ffffffff161461266657612666614c91565b83602001518a8463ffffffff168151811061268357612683614c7b565b60200260200101906001600160a01b031690816001600160a01b0316815250508360400151898463ffffffff16815181106126c0576126c0614c7b565b602002602001019063ffffffff16908163ffffffff16815250508360800151888463ffffffff16815181106126f7576126f7614c7b565b60200260200101906001600160801b031690816001600160801b03168152505050508061272390614e42565b90506125d4565b50505050509250925092565b6060600061277a8785858080601f016020809104026020016040519081016040528093929190818152602001838380828437600092019190915250612b3892505050565b60608101519091506000806127908a848b613981565b915091506000816040015182602001516127aa9190614a12565b6001600160801b0316905080156127f05760006127ca610587838c614c59565b90506127ee8c868d87878689600001516127e49190614a12565b8c60a001516139df565b505b87878080601f016020809104026020016040519081016040528093929190818152602001838380828437600092019190915250929e9d5050505050505050505050505050565b6000806000806000806000612864604080516060810182526000808252602082018190529181019190915290565b61286c6142e9565b6128768b8b613d25565b9094509050836128b95760405162461bcd60e51b815260206004820152600e60248201526d4944413a20455f4e4f5f5355425360901b60448201526064016103e8565b80602001519850806040015197506128d1898961356d565b92506128dd8b846135d4565b9094509150836128ef576128ef614c91565b8051608082015163ffffffff9182169091141597509550866129455780608001516001600160801b03168160600151836000015161292d9190614a3d565b6001600160801b03166129409190614c11565b612948565b60005b9450505050509295509295909350565b6060600061299c8685858080601f016020809104026020016040519081016040528093929190818152602001838380828437600092019190915250612b3892505050565b606081015190915060006129b0828861356d565b90506129bc8882613f91565b156129ff5760405162461bcd60e51b81526020600482015260136024820152724944413a20455f494e4445585f45584953545360681b60448201526064016103e8565b876001600160a01b03166312a6a3f882612a50604051806060016040528060006001600160801b0316815260200160006001600160801b0316815260200160006001600160801b0316815250613067565b6040518363ffffffff1660e01b8152600401612a6d9291906149f9565b600060405180830381600087803b158015612a8757600080fd5b505af1158015612a9b573d6000803e3d6000fd5b505050508663ffffffff16826001600160a01b0316896001600160a01b03167f01ab8663165edfb7390d9e5f75d960a66dacf4f01fa9787e3a731c870d0da9218660a00151604051612aed91906144df565b60405180910390a485858080601f016020809104026020016040519081016040528093929190818152602001838380828437600092019190915250929b9a5050505050505050505050565b612b40614317565b336001600160a01b0316836001600160a01b03166320bc44256040518163ffffffff1660e01b8152600401602060405180830381865afa158015612b88573d6000803e3d6000fd5b505050506040513d601f19601f82011682018060405250810190612bac9190614e70565b6001600160a01b031614612bf65760405162461bcd60e51b81526020600482015260116024820152701d5b985d5d1a1bdc9a5e9959081a1bdcdd607a1b60448201526064016103e8565b604051632fd0a1cd60e21b8152339063bf42873490612c199085906004016144df565b602060405180830381865afa158015612c36573d6000803e3d6000fd5b505050506040513d601f19601f82011682018060405250810190612c5a9190614e9d565b612c945760405162461bcd60e51b815260206004820152600b60248201526a0d2dcecc2d8d2c840c6e8f60ab1b60448201526064016103e8565b604051631fb6491d60e11b81523390633f6c923a90612cb79085906004016144df565b600060405180830381865afa158015612cd4573d6000803e3d6000fd5b505050506040513d6000823e601f3d908101601f19168201604052612cfc9190810190614f44565b9392505050565b6040805160608101825260008082526020820181905291810182905281906000612d2b6142e9565b6000612d378a8961356d565b9550612d43898761403d565b9450612d4f8b876135d4565b9450905080612d705760405162461bcd60e51b81526004016103e890614c30565b612d7a8b86613d25565b90935091508615612e075782612dc35760405162461bcd60e51b815260206004820152600e60248201526d4944413a20455f4e4f5f5355425360901b60448201526064016103e8565b896001600160a01b031682602001516001600160a01b031614612de857612de8614c91565b8763ffffffff16826040015163ffffffff1614612e0757612e07614c91565b509550955095509550959050565b612e1d6142ae565b6001600160a01b0394851681529290931660208301526040820152606081019190915290565b6020820151604051633e7d48bd60e21b81526001600160a01b03909116600482015260609060009081908190339063f9f522f490602401606060405180830381865afa158015612e97573d6000803e3d6000fd5b505050506040513d601f19601f82011682018060405250810190612ebb919061504a565b91945092509050828015612ecd575081155b15612ff1576000612ede868861407e565b90508660c001518216600003612fe3576000612efd8860c001516140fc565b88516040808b015160608c015182516000815260208101909352612f2993923092919060448101615086565b60408051601f19818403018152918152602080830180516001600160e01b03166001600160e01b031990951694909417909352918a015160c08b01519251633a020f0160e11b815291935033926374041e0292612f9892918691641000000000919091149088906004016150cb565b6000604051808303816000875af1158015612fb7573d6000803e3d6000fd5b505050506040513d6000823e601f3d908101601f19168201604052612fdf9190810190615114565b9550505b612fee866000614193565b50505b50505092915050565b60006001600160801b038211156130635760405162461bcd60e51b815260206004820152602760248201527f53616665436173743a2076616c756520646f65736e27742066697420696e20316044820152663238206269747360c81b60648201526084016103e8565b5090565b604080516002808252606080830184529260208301908036833701905050905081600001516001600160801b0316600160801b1760001b816000815181106130b1576130b1614c7b565b602002602001018181525050608082604001516001600160801b0316901b82602001516001600160801b03161760001b816001815181106130f4576130f4614c7b565b602002602001018181525050919050565b6040805160028082526060808301845292602083019080368337019050509050816000015163ffffffff166020836040015163ffffffff16901b606084602001516001600160a01b0316901b171760001b8160008151811061316957613169614c7b565b602002602001018181525050608082608001516001600160801b0316901b82606001516001600160801b03161760001b816001815181106130f4576130f4614c7b565b806000036131b957505050565b604051634b61cc3360e01b81526000906001600160a01b03851690634b61cc33906131f4903090879064010000000090600190600401614ca7565b600060405180830381865afa158015613211573d6000803e3d6000fd5b505050506040513d6000823e601f3d908101601f191682016040526132399190810190614dcd565b9050816132628260008151811061325257613252614c7b565b602002602001015160001c6141bb565b61326c9190614e01565b60001b8160008151811061328257613282614c7b565b602090810291909101015260405163048620af60e11b81526001600160a01b0385169063090c415e906132c2908690640100000000908690600401615148565b600060405180830381600087803b1580156132dc57600080fd5b505af11580156132f0573d6000803e3d6000fd5b5050505050505050565b613302614317565b6020840151604051633e7d48bd60e21b81526001600160a01b03909116600482015260609060009081908190339063f9f522f490602401606060405180830381865afa158015613356573d6000803e3d6000fd5b505050506040513d601f19601f8201168201806040525081019061337a919061504a565b8896509194509250905082801561338f575081155b156135625761339e848961407e565b93508760c0015181166000036135505760006133bd8960c001516140fc565b89516040808c015160608d0151825160008152602081019093526133eb9392309291908e906044810161516f565b60408051601f19818403018152918152602080830180516001600160e01b03166001600160e01b031990951694909417909352918b015160c08c0151925163079b42a160e21b81529193503392631e6d0a849261345a9291869164200000000091909114908b906004016150cb565b6000604051808303816000875af1158015613479573d6000803e3d6000fd5b505050506040513d6000823e601f3d908101601f191682016040526134a19190810190615114565b604051631fb6491d60e11b81529095503390633f6c923a906134c79088906004016144df565b600060405180830381865afa1580156134e4573d6000803e3d6000fd5b505050506040513d6000823e601f3d908101601f1916820160405261350c9190810190614f44565b955061354860006135436135238c608001516141bb565b61353e6135338b60e001516141bb565b8b6101000151614225565b61423b565b614225565b610100870152505b61355f86866101000151614193565b93505b505050935093915050565b60405168383ab13634b9b432b960b91b60208201526bffffffffffffffffffffffff19606084901b1660298201526001600160e01b031960e083901b16603d8201526000906041015b60405160208183030381529060405280519060200120905092915050565b60408051606081018252600080825260208201819052918101829052604051636c2d9f2f60e01b815230600482015260248101849052600260448201526000906001600160a01b03861690636c2d9f2f90606401600060405180830381865afa158015613645573d6000803e3d6000fd5b505050506040513d6000823e601f3d908101601f1916820160405261366d9190810190614dcd565b905060008160008151811061368457613684614c7b565b602002602001015160001c90506000826001815181106136a6576136a6614c7b565b602002602001015160001c905060008211945084156136de576001600160801b03808316855281166020850152608081901c60408501525b5050509250929050565b604051631528e57f60e31b81526001600160a01b038085166004830152831660248201526000604482015263ffffffff8216606482015273__$3c6eb92c7cccddf84f4a4201d0479214da$__9063a9472bf89060840160006040518083038186803b15801561375657600080fd5b505af415801561376a573d6000803e3d6000fd5b50505050505050565b600061379d7f360894a13ba1a3210667c828492db98dca3e2076cc3735a920a3ca505d382bbc5490565b6001600160a01b0316036137f35760405162461bcd60e51b815260206004820152601d60248201527f5555505350726f786961626c653a206e6f742075706772616461626c6500000060448201526064016103e8565b806001600160a01b03166352d1902d6040518163ffffffff1660e01b8152600401602060405180830381865afa158015613831573d6000803e3d6000fd5b505050506040513d601f19601f820116820180604052508101906138559190614bf8565b61385d61118a565b146138b65760405162461bcd60e51b815260206004820152602360248201527f5555505350726f786961626c653a206e6f7420636f6d70617469626c65206c6f60448201526267696360e81b60648201526084016103e8565b6001600160a01b038116300361390e5760405162461bcd60e51b815260206004820152601960248201527f5555505350726f786961626c653a2070726f7879206c6f6f700000000000000060448201526064016103e8565b613936817f360894a13ba1a3210667c828492db98dca3e2076cc3735a920a3ca505d382bbc55565b7fe011bc04c286c344a8fcbb8de77f953da762c3e25d8cdea984147fc4168a5dcc61395f61118a565b604080519182526001600160a01b03841660208301520160405180910390a150565b6040805160608101825260008082526020820181905291810182905260006139a9858561356d565b92506139b586846135d4565b92509050806139d65760405162461bcd60e51b81526004016103e890614c30565b50935093915050565b866001600160a01b031663cf97256d8785602001516001600160801b0316866000015186613a0d9190614a3d565b6001600160801b0316613a1f90614aea565b613a299190614a65565b6040518363ffffffff1660e01b8152600401613a46929190614b06565b600060405180830381600087803b158015613a6057600080fd5b505af1158015613a74573d6000803e3d6000fd5b50505050613aae878785604001516001600160801b0316866000015186613a9b9190614a3d565b6001600160801b031661086d9190614a65565b82516001600160801b03831684526001600160a01b03881663a1b2bf8b86613ad587613067565b6040518363ffffffff1660e01b8152600401613af29291906149f9565b600060405180830381600087803b158015613b0c57600080fd5b505af1158015613b20573d6000803e3d6000fd5b505050508563ffffffff16876001600160a01b0316896001600160a01b03167f81e37f3d9f16cbf29a62d6a1c21d79b23ef29b54124ec44af43a50fffb9304f3848789604001518a6020015189604051613b7e9594939291906151d5565b60405180910390a46040516379359f6f60e01b81526001600160a01b0388811660048301528916906379359f6f90602401602060405180830381865afa158015613bcc573d6000803e3d6000fd5b505050506040513d601f19601f82011682018060405250810190613bf09190614e9d565b156132f05760405162461bcd60e51b81526020600482015260126024820152714944413a20455f4c4f575f42414c414e434560701b60448201526064016103e8565b60608073__$3c6eb92c7cccddf84f4a4201d0479214da$__6306967a8c85856000600160801b6040518563ffffffff1660e01b8152600401613c779493929190614ca7565b600060405180830381865af4158015613c94573d6000803e3d6000fd5b505050506040513d6000823e601f3d908101601f19168201604052613cbc9190810190615211565b909250905060005b8151811015613d1d57613cf084838381518110613ce357613ce3614c7b565b602002602001015161403d565b828281518110613d0257613d02614c7b565b6020908102919091010152613d16816152d5565b9050613cc4565b509250929050565b6000613d2f6142e9565b604051636c2d9f2f60e01b815230600482015260248101849052600260448201526000906001600160a01b03861690636c2d9f2f90606401600060405180830381865afa158015613d84573d6000803e3d6000fd5b505050506040513d6000823e601f3d908101601f19168201604052613dac9190810190614dcd565b9050600081600081518110613dc357613dc3614c7b565b602002602001015160001c9050600082600181518110613de557613de5614c7b565b602002602001015160001c905060008211945084156136de57606082811c60208087019190915283901c63ffffffff9081166040870152831685526001600160801b03821690850152608081811c908501525050509250929050565b600080836001600160a01b0316634b61cc33308564010000000060016040518563ffffffff1660e01b8152600401613e7c9493929190614ca7565b600060405180830381865afa158015613e99573d6000803e3d6000fd5b505050506040513d6000823e601f3d908101601f19168201604052613ec19190810190614dcd565b905080600081518110613ed657613ed6614c7b565b602002602001015160001c91505092915050565b604051630a32470160e41b81526001600160a01b03808516600483015283166024820152600060448201819052600160801b6064830152608482018390529073__$3c6eb92c7cccddf84f4a4201d0479214da$__9063a32470109060a401602060405180830381865af4158015613f65573d6000803e3d6000fd5b505050506040513d601f19601f82011682018060405250810190613f8991906152ee565b949350505050565b604051636c2d9f2f60e01b8152306004820152602481018290526002604482015260009081906001600160a01b03851690636c2d9f2f90606401600060405180830381865afa158015613fe8573d6000803e3d6000fd5b505050506040513d6000823e601f3d908101601f191682016040526140109190810190614dcd565b905060008160008151811061402757614027614c7b565b6020908102919091010151151595945050505050565b604080516b39bab139b1b934b83a34b7b760a11b6020820152606084811b6bffffffffffffffffffffffff1916602c830152918101839052600091016135b6565b6020810151608082015160a08301518351604051630768fabb60e41b8152606094339463768fabb0946140b5948a9460040161530b565b6000604051808303816000875af11580156140d4573d6000803e3d6000fd5b505050506040513d6000823e601f3d908101601f19168201604052612cfc9190810190615114565b6000640100000000820361411857506330d9c91560e01b919050565b64040000000082036141325750630221347d60e61b919050565b641000000000820361414c5750635f9e7d7760e01b919050565b6402000000008203614166575063d86ed3e560e01b919050565b6408000000008203614180575063230dbd2960e01b919050565b506353c11f9960e01b919050565b919050565b604051634c4d861f60e11b8152606090339063989b0c3e906140b59086908690600401615350565b60006001600160ff1b038211156130635760405162461bcd60e51b815260206004820152602860248201527f53616665436173743a2076616c756520646f65736e27742066697420696e2061604482015267371034b73a191a9b60c11b60648201526084016103e8565b60008183136142345781612cfc565b5090919050565b600081831361424a5782612cfc565b50919050565b6040805160c0810182526000808252602082018190529181019190915260608101614294604080516060810182526000808252602082018190529181019190915290565b81526020016142a16142e9565b8152602001606081525090565b6040805160e0810182526000808252602082018190529181018290526060808201526080810182905260a0810182905260c081019190915290565b6040805160a08101825260008082526020820181905291810182905260608101829052608081019190915290565b604080516101608101825260008082526020820181905291810182905260608082018390526080820183905260a082015260c0810182905260e081018290526101008101829052610120810182905261014081019190915290565b6001600160a01b038116811461115857600080fd5b63ffffffff8116811461115857600080fd5b80356001600160801b038116811461418e57600080fd5b60008083601f8401126143c257600080fd5b5081356001600160401b038111156143d957600080fd5b6020830191508360208285010111156143f157600080fd5b9250929050565b60008060008060008060a0878903121561441157600080fd5b863561441c81614372565b9550602087013561442c81614387565b9450604087013561443c81614372565b935061444a60608801614399565b925060808701356001600160401b0381111561446557600080fd5b61447189828a016143b0565b979a9699509497509295939492505050565b60005b8381101561449e578181015183820152602001614486565b838111156144ad576000848401525b50505050565b600081518084526144cb816020860160208601614483565b601f01601f19169290920160200192915050565b602081526000612cfc60208301846144b3565b60008060006060848603121561450757600080fd5b833561451281614372565b9250602084013561452281614372565b9150604084013561453281614387565b809150509250925092565b60008060008060008060a0878903121561455657600080fd5b863561456181614372565b9550602087013561457181614372565b9450604087013561458181614387565b9350606087013561444a81614372565b6000602082840312156145a357600080fd5b8135612cfc81614372565b600080600080608085870312156145c457600080fd5b84356145cf81614372565b935060208501356145df81614372565b925060408501356145ef81614387565b915060608501356145ff81614372565b939692955090935050565b60008060008060006080868803121561462257600080fd5b853561462d81614372565b9450602086013561463d81614372565b9350604086013561464d81614387565b925060608601356001600160401b0381111561466857600080fd5b614674888289016143b0565b969995985093965092949392505050565b60008060008060006080868803121561469d57600080fd5b85356146a881614372565b945060208601356146b881614387565b935061464d60408701614399565b600080600080608085870312156146dc57600080fd5b84356146e781614372565b935060208501356146f781614372565b9250604085013561470781614387565b9396929550929360600135925050565b60008060006060848603121561472c57600080fd5b833561473781614372565b9250602084013561474781614372565b929592945050506040919091013590565b6000806040838503121561476b57600080fd5b823561477681614372565b9150602083013561478681614372565b809150509250929050565b600081518084526020808501945080840160005b838110156147ca5781516001600160801b0316875295820195908201906001016147a5565b509495945050505050565b606080825284519082018190526000906020906080840190828801845b828110156148175781516001600160a01b0316845292840192908401906001016147f2565b5050508381038285015285518082528683019183019060005b8181101561485257835163ffffffff1683529284019291840191600101614830565b505084810360408601526148668187614791565b98975050505050505050565b60008060008060006080868803121561488a57600080fd5b853561489581614372565b945060208601356148a581614387565b93506040860135925060608601356001600160401b0381111561466857600080fd5b600080604083850312156148da57600080fd5b82356148e581614372565b946020939093013593505050565b6000806000806060858703121561490957600080fd5b843561491481614372565b9350602085013561492481614387565b925060408501356001600160401b0381111561493f57600080fd5b61494b878288016143b0565b95989497509550505050565b6020808252601390820152724944413a20455f4e4f5f5a45524f5f5355425360681b604082015260600190565b634e487b7160e01b600052601160045260246000fd5b600082198211156149ad576149ad614984565b500190565b6000828210156149c4576149c4614984565b500390565b600081518084526020808501945080840160005b838110156147ca578151875295820195908201906001016149dd565b828152604060208201526000613f8960408301846149c9565b60006001600160801b03808316818516808303821115614a3457614a34614984565b01949350505050565b60006001600160801b0383811690831681811015614a5d57614a5d614984565b039392505050565b60006001600160ff1b0381841382841380821686840486111615614a8b57614a8b614984565b600160ff1b6000871282811687830589121615614aaa57614aaa614984565b60008712925087820587128484161615614ac657614ac6614984565b87850587128184161615614adc57614adc614984565b505050929093029392505050565b6000600160ff1b8201614aff57614aff614984565b5060000390565b6001600160a01b03929092168252602082015260400190565b6001600160a01b03841681526001600160801b0383166020820152606060408201819052600090614b52908301846144b3565b95945050505050565b6001600160a01b038516815263ffffffff841660208201526001600160801b0383166040820152608060608201819052600090614b9a908301846144b3565b9695505050505050565b6001600160a01b0383168152604060208201819052600090613f89908301846144b3565b6001600160a01b038416815263ffffffff83166020820152606060408201819052600090614b52908301846144b3565b600060208284031215614c0a57600080fd5b5051919050565b6000816000190483118215151615614c2b57614c2b614984565b500290565b6020808252600f908201526e092888274408abe9c9ebe929c888ab608b1b604082015260600190565b600082614c7657634e487b7160e01b600052601260045260246000fd5b500490565b634e487b7160e01b600052603260045260246000fd5b634e487b7160e01b600052600160045260246000fd5b6001600160a01b0394851681529290931660208301526040820152606081019190915260800190565b634e487b7160e01b600052604160045260246000fd5b60405161016081016001600160401b0381118282101715614d0957614d09614cd0565b60405290565b604051601f8201601f191681016001600160401b0381118282101715614d3757614d37614cd0565b604052919050565b60006001600160401b03821115614d5857614d58614cd0565b5060051b60200190565b600082601f830112614d7357600080fd5b81516020614d88614d8383614d3f565b614d0f565b82815260059290921b84018101918181019086841115614da757600080fd5b8286015b84811015614dc25780518352918301918301614dab565b509695505050505050565b600060208284031215614ddf57600080fd5b81516001600160401b03811115614df557600080fd5b613f8984828501614d62565b600080821280156001600160ff1b0384900385131615614e2357614e23614984565b600160ff1b8390038412811615614e3c57614e3c614984565b50500190565b600063ffffffff808316818103614e5b57614e5b614984565b6001019392505050565b805161418e81614372565b600060208284031215614e8257600080fd5b8151612cfc81614372565b8051801515811461418e57600080fd5b600060208284031215614eaf57600080fd5b612cfc82614e8d565b805160ff8116811461418e57600080fd5b80516001600160e01b03198116811461418e57600080fd5b600082601f830112614ef257600080fd5b81516001600160401b03811115614f0b57614f0b614cd0565b614f1e601f8201601f1916602001614d0f565b818152846020838601011115614f3357600080fd5b613f89826020830160208701614483565b600060208284031215614f5657600080fd5b81516001600160401b0380821115614f6d57600080fd5b908301906101608286031215614f8257600080fd5b614f8a614ce6565b614f9383614eb8565b8152614fa160208401614eb8565b602082015260408301516040820152614fbc60608401614e65565b6060820152614fcd60808401614ec9565b608082015260a083015182811115614fe457600080fd5b614ff087828601614ee1565b60a08301525060c083015160c082015260e083015160e0820152610100915081830151828201526101209150615027828401614e65565b82820152610140915061503b828401614e65565b91810191909152949350505050565b60008060006060848603121561505f57600080fd5b61506884614e8d565b925061507660208501614e8d565b9150604084015190509250925092565b6001600160a01b038681168252851660208201526040810184905260a0606082018190526000906150b9908301856144b3565b828103608084015261486681856144b3565b6001600160a01b03851681526080602082018190526000906150ef908301866144b3565b8415156040840152828103606084015261510981856144b3565b979650505050505050565b60006020828403121561512657600080fd5b81516001600160401b0381111561513c57600080fd5b613f8984828501614ee1565b60018060a01b0384168152826020820152606060408201526000614b5260608301846149c9565b6001600160a01b038781168252861660208201526040810185905260c0606082018190526000906151a2908301866144b3565b82810360808401526151b481866144b3565b905082810360a08401526151c881856144b3565b9998505050505050505050565b60006001600160801b0380881683528087166020840152808616604084015280851660608401525060a0608083015261510960a08301846144b3565b6000806040838503121561522457600080fd5b82516001600160401b038082111561523b57600080fd5b818501915085601f83011261524f57600080fd5b8151602061525f614d8383614d3f565b82815260059290921b8401810191818101908984111561527e57600080fd5b948201945b838610156152a557855161529681614387565b82529482019490820190615283565b918801519196509093505050808211156152be57600080fd5b506152cb85828601614d62565b9150509250929050565b6000600182016152e7576152e7614984565b5060010190565b60006020828403121561530057600080fd5b8151612cfc81614387565b60a08152600061531e60a08301886144b3565b6001600160a01b0396871660208401526040830195909552506060810192909252909216608090920191909152919050565b60408152600061536360408301856144b3565b9050826020830152939250505056fea26469706673582212203d991e7b6a60014ae1a3470c79fed6845589108bed4a706cbd3e287f66682ed364736f6c634300080e0033608060405234801561001057600080fd5b50614b0a806100206000396000f3fe608060405234801561001057600080fd5b506004361061002b5760003560e01c80639ed9331814610030575b600080fd5b61004361003e3660046100ae565b61005f565b6040516001600160a01b03909116815260200160405180910390f35b60008160405161006e906100a1565b6001600160a01b039091168152602001604051809103906000f08015801561009a573d6000803e3d6000fd5b5092915050565b6149f6806100df83390190565b6000602082840312156100c057600080fd5b81356001600160a01b03811681146100d757600080fd5b939250505056fe60a06040523480156200001157600080fd5b50604051620049f6380380620049f6833981016040819052620000349162000046565b6001600160a01b031660805262000078565b6000602082840312156200005957600080fd5b81516001600160a01b03811681146200007157600080fd5b9392505050565b6080516148f9620000fd600039600081816103f701528181610a8101528181610aef01528181610d9301528181610eed01528181610fbc015281816112230152818161137101528181611505015281816117ec015281816118ae01528181611935015281816121c101528181612258015281816133ac015261362c01526148f96000f3fe608060405234801561001057600080fd5b50600436106103275760003560e01c806362aa5287116101b8578063a9059cbb11610104578063d9d078d6116100a2578063ee719bc81161007c578063ee719bc81461076f578063fad8b32a14610780578063fc673c4f14610793578063fe9d9303146107a657600080fd5b8063d9d078d6146106f5578063dd62ed3e14610708578063eb3537cc1461074157600080fd5b8063c68d4283116100de578063c68d4283146106a9578063ca789464146106bc578063cf97256d146106cf578063d95b6371146106e257600080fd5b8063a9059cbb14610670578063b84cdd4a14610683578063bb0d196e1461069657600080fd5b8063959b8c3f116101715780639d8767411161014b5780639d87674114610624578063a1b2bf8b14610637578063a3a7e7f31461064a578063a457c2d71461065d57600080fd5b8063959b8c3f146105f657806395d89b41146106095780639bd9bbc61461061157600080fd5b806362aa52871461058457806362ad1b831461059757806366a12fb6146105aa5780636c2d9f2f146105bd57806370a08231146105d057806379359f6f146105e357600080fd5b80632ec8eec71161027757806345977d031161023057806350d75d251161020a57806350d75d251461053c57806352d1902d14610544578063556f0dc71461056a5780635b9d09cc1461057157600080fd5b806345977d03146104f657806346951954146105095780634b61cc331461051c57600080fd5b80632ec8eec714610468578063313ce5671461049b578063386fa221146104aa57806339509351146104bd57806341b706be146104d057806342fe0980146104e357600080fd5b806316d055d6116102e457806320bc4425116102be57806320bc4425146103f557806323b872dd1461042f578063245887fc14610442578063270483971461045557600080fd5b806316d055d6146103bd57806318160ddd146103d05780631863e809146103e257600080fd5b806306e485381461032c57806306fdde031461034a578063090c415e1461035f578063095ea7b31461037457806311bcc81e1461039757806312a6a3f8146103aa575b600080fd5b6103346107b9565b604051610341919061390b565b60405180910390f35b6103526107ca565b60405161034191906139b0565b61037261036d366004613a23565b61085c565b005b610387610382366004613a7e565b610910565b6040519015158152602001610341565b6103726103a5366004613aaa565b610927565b6103726103b8366004613ac3565b610955565b6103726103cb366004613b0e565b610a7f565b6003545b604051908152602001610341565b6103726103f0366004613c22565b610ada565b7f00000000000000000000000000000000000000000000000000000000000000005b6040516001600160a01b039091168152602001610341565b61038761043d366004613cb4565b610d79565b610372610450366004613a7e565b610d91565b610372610463366004613cf5565b610e08565b61047b610476366004613d17565b610ee5565b604080519485526020850193909352918301526060820152608001610341565b60405160128152602001610341565b6103346104b8366004613d17565b610f88565b6103876104cb366004613a7e565b61102b565b6103726104de366004613b0e565b611067565b6103726104f1366004613d75565b611092565b610372610504366004613aaa565b6111ec565b610372610517366004613d17565b611218565b61052f61052a366004613e0f565b6112a7565b6040516103419190613e55565b6104176112ec565b7f6bfbb132610e56cb96575dba244667b9d6dbfeffe22b68a79fa16f2d18eb00196103d4565b60016103d4565b61037261057f366004613e8d565b611316565b610372610592366004613cb4565b61136f565b6103726105a5366004613edc565b6113c7565b6103726105b8366004613cb4565b611474565b61052f6105cb366004613f7a565b611493565b6103d46105de366004613d17565b6114d5565b6103876105f1366004613d17565b6114fd565b610372610604366004613d17565b611585565b6103526115d6565b61037261061f366004613e8d565b6115e5565b610372610632366004613faf565b611639565b610372610645366004613ac3565b611678565b610372610658366004613d17565b611722565b61038761066b366004613a7e565b611736565b61038761067e366004613a7e565b611785565b610387610691366004613a7e565b611793565b6103876106a4366004613d17565b6117e4565b6103726106b7366004613faf565b61186c565b6103726106ca366004613a7e565b6118ac565b6103726106dd366004613a7e565b611920565b6103876106f0366004614007565b611a08565b610387610703366004613a7e565b611a16565b6103d4610716366004614007565b6001600160a01b03918216600090815260116020908152604080832093909416825291909152205490565b61075461074f366004613a7e565b611a30565b60408051938452602084019290925290820152606001610341565b600e546001600160a01b0316610417565b61037261078e366004613d17565b611b6c565b6103726107a1366004614040565b611bbd565b6103726107b4366004614087565b611c5c565b60606107c56012611cac565b905090565b6060600f80546107d9906140c5565b80601f0160208091040260200160405190810160405280929190818152602001828054610805906140c5565b80156108525780601f1061082757610100808354040283529160200191610852565b820191906000526020600020905b81548152906001019060200180831161083557829003601f168201915b5050505050905090565b6000338585604051602001610873939291906140ff565b6040516020818303038152906040528051906020012090506108c881848480806020026020016040519081016040528093929190818152602001838360200280828437600092019190915250611d1292505050565b6040518481526001600160a01b0386169033907f30f416fa68fca014a0f334464c64b000ba53e99b6d2afdea9d5ca756372d5985906020015b60405180910390a35050505050565b600061091d338484611d53565b5060015b92915050565b6109523333836040518060200160405280600081525060405180602001604052806000815250611e7b565b50565b604051339060009061096d9083908790602001614148565b60408051601f19818403018152919052805160209091012090506109918184612062565b156109f65760405162461bcd60e51b815260206004820152602a60248201527f5375706572666c756964546f6b656e3a2061677265656d656e7420616c726561604482015269191e4818dc99585d195960b21b60648201526084015b60405180910390fd5b610a3381858580806020026020016040519081016040528093929190818152602001838360200280828437600092019190915250611d1292505050565b816001600160a01b03167f770ea40a13a4644573ed785e5c7116890709947918747febc5add46feb531e2d868686604051610a7093929190614185565b60405180910390a25050505050565b7f00000000000000000000000000000000000000000000000000000000000000006001600160a01b03163314610ac75760405162461bcd60e51b81526004016109ed906141c9565b610ad38484848461209e565b5050505050565b604051632329212160e21b81523360048201527f00000000000000000000000000000000000000000000000000000000000000006001600160a01b031690638ca4848490602401602060405180830381865afa158015610b3e573d6000803e3d6000fd5b505050506040513d601f19601f82011682018060405250810190610b629190614214565b610b7e5760405162461bcd60e51b81526004016109ed90614231565b6000610b886121bc565b90506001600160a01b038116610b9b5750845b600085610ba85786610baa565b815b905060008313610c4757610bbd8361428e565b610bc685612301565b14610bd357610bd36142aa565b610bdc84612301565b6001600160a01b03821660009081526002602052604081208054909190610c049084906142c0565b90915550506001600160a01b03851660009081526002602052604081208054859290610c319084906142c0565b90915550610c42905085828661236f565b610d11565b8515610c5557610c556142aa565b82610c5f85612301565b610c6991906142c0565b6001600160a01b03831660009081526002602052604081208054909190610c91908490614301565b90915550610ca0905084612301565b6001600160a01b03881660009081526002602052604081208054909190610cc89084906142c0565b90915550506001600160a01b03851660009081526002602052604081208054859290610cf59084906142c0565b90915550610d06905082888661236f565b610d1182868561236f565b846001600160a01b0316876001600160a01b0316336001600160a01b03167fb8381a3ce157650e06186e3e8f4dd4dc29236f2688b6eed1893d0a60d7c6386f8c8589898f604051610d66959493929190614340565b60405180910390a4505050505050505050565b6000610d873385858561209e565b90505b9392505050565b7f00000000000000000000000000000000000000000000000000000000000000006001600160a01b03163314610dd95760405162461bcd60e51b81526004016109ed906141c9565b610e043383836040518060200160405280600081525060405180602001604052806000815250611e7b565b5050565b6040513390600090610e209083908690602001614148565b604051602081830303815290604052805190602001209050610e428184612062565b610ea05760405162461bcd60e51b815260206004820152602960248201527f5375706572666c756964546f6b656e3a2061677265656d656e7420646f6573206044820152681b9bdd08195e1a5cdd60ba1b60648201526084016109ed565b610eaa81846123a2565b60405184815233907f71a63dc095de07aa5512ad57a7596a39516317e316981a1cd71000057be1537b9060200160405180910390a250505050565b6000806000807f00000000000000000000000000000000000000000000000000000000000000006001600160a01b031663bbe4fd506040518163ffffffff1660e01b8152600401602060405180830381865afa158015610f49573d6000803e3d6000fd5b505050506040513d601f19601f82011682018060405250810190610f6d9190614373565b9050610f798582611a30565b91979096509094509092509050565b6001600160a01b038181166000908152600160205260409081902054905163c56a069d60e01b8152901960048201526060917f0000000000000000000000000000000000000000000000000000000000000000169063c56a069d90602401600060405180830381865afa158015611003573d6000803e3d6000fd5b505050506040513d6000823e601f3d908101601f19168201604052610921919081019061438c565b3360008181526011602090815260408083206001600160a01b0387168452909152812054909161091d91859061106290869061443d565b611d53565b3330146110865760405162461bcd60e51b81526004016109ed90614455565b610ad38385848461209e565b600054610100900460ff16158080156110b25750600054600160ff909116105b806110cc5750303b1580156110cc575060005460ff166001145b61112f5760405162461bcd60e51b815260206004820152602e60248201527f496e697469616c697a61626c653a20636f6e747261637420697320616c72656160448201526d191e481a5b9a5d1a585b1a5e995960921b60648201526084016109ed565b6000805460ff191660011790558015611152576000805461ff0019166101001790555b600e805460ff8816600160a01b026001600160a81b03199091166001600160a01b038a1617179055611186600f868661387b565b506111936010848461387b565b5061119d306123c3565b80156111e3576000805461ff0019169055604051600181527f7f26b83ff96e1f2b6a682f133852f6798a09c465da95921460cefb38474024989060200160405180910390a15b50505050505050565b6109523333338460405180602001604052806000815250604051806020016040528060008152506124f1565b336001600160a01b037f0000000000000000000000000000000000000000000000000000000000000000161461129e5760405162461bcd60e51b815260206004820152602560248201527f5375706572546f6b656e3a206f6e6c7920686f73742063616e2075706461746560448201526420636f646560d81b60648201526084016109ed565b610952816126f4565b606060008585856040516020016112c0939291906140ff565b6040516020818303038152906040528051906020012090506112e28184612934565b9695505050505050565b60006107c57f360894a13ba1a3210667c828492db98dca3e2076cc3735a920a3ca505d382bbc5490565b611369333386866040518060200160405280600081525087878080601f0160208091040260200160405190810160405280939291908181526020018383808284376000920191909152506124f192505050565b50505050565b7f00000000000000000000000000000000000000000000000000000000000000006001600160a01b031633146113b75760405162461bcd60e51b81526004016109ed906141c9565b6113c2838383611d53565b505050565b336113d46012828a6129c3565b6113f05760405162461bcd60e51b81526004016109ed9061448c565b61146a8189898989898080601f01602080910402602001604051908101604052809392919081815260200183838082843760009201919091525050604080516020601f8d018190048102820181019092528b815292508b91508a908190840183828082843760009201919091525060019250612a6c915050565b5050505050505050565b3330146113b75760405162461bcd60e51b81526004016109ed90614455565b6060600084846040516020016114aa929190614148565b6040516020818303038152906040528051906020012090506114cc8184612934565b95945050505050565b6000806114e183610ee5565b5050509050600081126114f45780610d8a565b60009392505050565b6000610921827f00000000000000000000000000000000000000000000000000000000000000006001600160a01b031663bbe4fd506040518163ffffffff1660e01b8152600401602060405180830381865afa158015611561573d6000803e3d6000fd5b505050506040513d601f19601f820116820180604052508101906107039190614373565b3361159260128284612ae3565b806001600160a01b0316826001600160a01b03167ff4caeb2d6ca8932a215a353d0703c326ec2d81fc68170f320eb2ab49e9df61f960405160405180910390a35050565b6060601080546107d9906140c5565b6113693333868686868080601f01602080910402602001604051908101604052809392919081815260200183838082843760009201829052506040805160208101909152908152925060019150612a6c9050565b3330146116585760405162461bcd60e51b81526004016109ed90614455565b6040805160008152602081019091526113c2903390859085908590612be7565b60405133906000906116909083908790602001614148565b6040516020818303038152906040528051906020012090506116e581858580806020026020016040519081016040528093929190818152602001838360200280828437600092019190915250611d1292505050565b336001600160a01b03167f0c4c547b3a4fcaa5be8353b3111472b124155bccc86de811d4a481c9e6e9faca868686604051610a7093929190614185565b610e04333383611731336114d5565b61209e565b600061091d3384611062856040518060600160405280602a815260200161484d602a91393360009081526011602090815260408083206001600160a01b038d1684529091529020549190612cdc565b6000610d8a3333858561209e565b6000806000806117a38686611a30565b92509250925060006117cb8284116117bc576000612301565b6117c683856144dc565b612301565b6117d590856142c0565b60001315979650505050505050565b6000610921827f00000000000000000000000000000000000000000000000000000000000000006001600160a01b031663bbe4fd506040518163ffffffff1660e01b8152600401602060405180830381865afa158015611848573d6000803e3d6000fd5b505050506040513d601f19601f820116820180604052508101906106919190614373565b33301461188b5760405162461bcd60e51b81526004016109ed90614455565b604080516000808252602082019092526113c2913391869186918690612d08565b7f00000000000000000000000000000000000000000000000000000000000000006001600160a01b031633146118f45760405162461bcd60e51b81526004016109ed906141c9565b610e043383848460405180602001604052806000815250604051806020016040528060008152506124f1565b604051632329212160e21b81523360048201527f00000000000000000000000000000000000000000000000000000000000000006001600160a01b031690638ca4848490602401602060405180830381865afa158015611984573d6000803e3d6000fd5b505050506040513d601f19601f820116820180604052508101906119a89190614214565b6119c45760405162461bcd60e51b81526004016109ed90614231565b6001600160a01b0382166000908152600260205260409020546119e89082906142c0565b6001600160a01b0390921660009081526002602052604090209190915550565b6000610d8a601284846129c3565b600080611a238484611a30565b5050600013949350505050565b6001600160a01b038216600090815260026020526040812054908080611a5586610f88565b905060005b8151811015611b63576000806000848481518110611a7a57611a7a6144f3565b60209081029190910101516040516326cb922f60e21b81523060048201526001600160a01b038c81166024830152604482018c905290911690639b2e48bc90606401606060405180830381865afa158015611ad9573d6000803e3d6000fd5b505050506040513d601f19601f82011682018060405250810190611afd9190614509565b91945092509050611b0e828861443d565b9650611b1a818761443d565b9550611b37818311611b2d576000612301565b6117c682846144dc565b611b41848a6142c0565b611b4b9190614301565b97505050508080611b5b90614537565b915050611a5a565b50509250925092565b33611b7960128284612dff565b806001600160a01b0316826001600160a01b03167f50546e66e5f44d728365dc3908c63bc5cfeeab470722c1677e3073a6ac294aa160405160405180910390a35050565b33611bca601282896129c3565b611be65760405162461bcd60e51b81526004016109ed9061448c565b6111e381888888888080601f01602080910402602001604051908101604052809392919081815260200183838082843760009201919091525050604080516020601f8c018190048102820181019092528a815292508a9150899081908401838280828437600092019190915250611e7b92505050565b6113c233338585858080601f016020809104026020016040519081016040528093929190818152602001838380828437600092018290525060408051602081019091529081529250611e7b915050565b606081600001805480602002602001604051908101604052809291908181526020018280548015611d0657602002820191906000526020600020905b81546001600160a01b03168152600190910190602001808311611ce8575b50505050509050919050565b60005b81518110156113c2576000828281518110611d3257611d326144f3565b6020026020010151905080828501555080611d4c90614537565b9050611d15565b6001600160a01b038316611db75760405162461bcd60e51b815260206004820152602560248201527f5375706572546f6b656e3a20617070726f76652066726f6d207a65726f206164604482015264647265737360d81b60648201526084016109ed565b6001600160a01b038216611e195760405162461bcd60e51b815260206004820152602360248201527f5375706572546f6b656e3a20617070726f766520746f207a65726f206164647260448201526265737360e81b60648201526084016109ed565b6001600160a01b0383811660008181526011602090815260408083209487168084529482529182902085905590518481527f8c5be1e5ebec7d5bd14f71427d1e84f3dd0314c0f7b2291e5b200ac8c7c3b92591015b60405180910390a3505050565b600e546001600160a01b0316611ed35760405162461bcd60e51b815260206004820152601f60248201527f5375706572546f6b656e3a206e6f20756e6465726c79696e6720746f6b656e0060448201526064016109ed565b600080611edf85612ef7565b91509150611ef08787838787612be7565b600e546040516370a0823160e01b81523060048201526000916001600160a01b0316906370a0823190602401602060405180830381865afa158015611f39573d6000803e3d6000fd5b505050506040513d601f19601f82011682018060405250810190611f5d9190614373565b600e54909150611f77906001600160a01b03168885612fb3565b600e546040516370a0823160e01b81523060048201526000916001600160a01b0316906370a0823190602401602060405180830381865afa158015611fc0573d6000803e3d6000fd5b505050506040513d601f19601f82011682018060405250810190611fe49190614373565b90506000611ff282846144dc565b90508085146120135760405162461bcd60e51b81526004016109ed90614550565b886001600160a01b03167f3bc27981aebbb57f9247dc00fde9d6cd91e4b230083fec3238fedbcba1f9ab3d8560405161204e91815260200190565b60405180910390a250505050505050505050565b6000805b828110156120945783810154801561208357600192505050610921565b5061208d81614537565b9050612066565b5060009392505050565b60006001600160a01b0384166120c65760405162461bcd60e51b81526004016109ed906145ad565b6001600160a01b0383166120ec5760405162461bcd60e51b81526004016109ed906145f3565b600033905061211d818686866040518060200160405280600081525060405180602001604052806000815250613016565b846001600160a01b0316866001600160a01b0316146121b0576121b08587611062866040518060600160405280602d8152602001614897602d9139601160008c6001600160a01b03166001600160a01b0316815260200190815260200160002060008d6001600160a01b03166001600160a01b0316815260200190815260200160002054612cdc9092919063ffffffff16565b50600195945050505050565b6000807f00000000000000000000000000000000000000000000000000000000000000006001600160a01b031663289b3c0d6040518163ffffffff1660e01b8152600401602060405180830381865afa15801561221d573d6000803e3d6000fd5b505050506040513d601f19601f820116820180604052508101906122419190614637565b604051638369a0f160e01b81526001600160a01b037f0000000000000000000000000000000000000000000000000000000000000000811660048301523060248301527f9f60ae461adf056670e03ae602566409933242392cb06744f5747c9f38b05d09604483015291925090821690638369a0f190606401602060405180830381865afa1580156122d7573d6000803e3d6000fd5b505050506040513d601f19601f820116820180604052508101906122fb9190614637565b91505090565b60006001600160ff1b0382111561236b5760405162461bcd60e51b815260206004820152602860248201527f53616665436173743a2076616c756520646f65736e27742066697420696e2061604482015267371034b73a191a9b60c11b60648201526084016109ed565b5090565b816001600160a01b0316836001600160a01b031660008051602061487783398151915283604051611e6e91815260200190565b60005b818110156113c2576000838201556123bc81614537565b90506123a5565b6040516329965a1d60e01b81526001600160a01b03821660048201527fac7fbab5f54a3ca8194167523c6753bfeb96a445279294b6125b68cce21770546024820152306044820152731820a4b7618bde71dce8cdc73aab6c95905fad24906329965a1d90606401600060405180830381600087803b15801561244457600080fd5b505af1158015612458573d6000803e3d6000fd5b50506040516329965a1d60e01b81526001600160a01b03841660048201527faea199e31a596269b42cdafd93407f14436db6e4cad65417994c2eb37381e05a6024820152306044820152731820a4b7618bde71dce8cdc73aab6c95905fad2492506329965a1d9150606401600060405180830381600087803b1580156124dd57600080fd5b505af1158015610ad3573d6000803e3d6000fd5b600e546001600160a01b03166125495760405162461bcd60e51b815260206004820152601f60248201527f5375706572546f6b656e3a206e6f20756e6465726c79696e6720746f6b656e0060448201526064016109ed565b60008061255585612ef7565b600e546040516370a0823160e01b81523060048201529294509092506000916001600160a01b03909116906370a0823190602401602060405180830381865afa1580156125a6573d6000803e3d6000fd5b505050506040513d601f19601f820116820180604052508101906125ca9190614373565b600e549091506125e5906001600160a01b03168930866130b5565b600e546040516370a0823160e01b81523060048201526000916001600160a01b0316906370a0823190602401602060405180830381865afa15801561262e573d6000803e3d6000fd5b505050506040513d601f19601f820116820180604052508101906126529190614373565b9050600061266083836144dc565b90508085146126815760405162461bcd60e51b81526004016109ed90614550565b6126a48b8a868c6001600160a01b03168e6001600160a01b031614158b8b612d08565b886001600160a01b03167f25ca84076773b0455db53621c459ddc84fe40840e4932a62706a032566f399df856040516126df91815260200190565b60405180910390a25050505050505050505050565b600061271e7f360894a13ba1a3210667c828492db98dca3e2076cc3735a920a3ca505d382bbc5490565b6001600160a01b0316036127745760405162461bcd60e51b815260206004820152601d60248201527f5555505350726f786961626c653a206e6f742075706772616461626c6500000060448201526064016109ed565b806001600160a01b03166352d1902d6040518163ffffffff1660e01b8152600401602060405180830381865afa1580156127b2573d6000803e3d6000fd5b505050506040513d601f19601f820116820180604052508101906127d69190614373565b7f6bfbb132610e56cb96575dba244667b9d6dbfeffe22b68a79fa16f2d18eb0019146128505760405162461bcd60e51b815260206004820152602360248201527f5555505350726f786961626c653a206e6f7420636f6d70617469626c65206c6f60448201526267696360e81b60648201526084016109ed565b6001600160a01b03811630036128a85760405162461bcd60e51b815260206004820152601960248201527f5555505350726f786961626c653a2070726f7879206c6f6f700000000000000060448201526064016109ed565b6128d0817f360894a13ba1a3210667c828492db98dca3e2076cc3735a920a3ca505d382bbc55565b7fe011bc04c286c344a8fcbb8de77f953da762c3e25d8cdea984147fc4168a5dcc7f6bfbb132610e56cb96575dba244667b9d6dbfeffe22b68a79fa16f2d18eb0019604080519182526001600160a01b03841660208301520160405180910390a150565b6060816001600160401b0381111561294e5761294e613b5f565b604051908082528060200260200182016040528015612977578160200160208202803683370190505b50905060005b828110156129bc576000818501549050808383815181106129a0576129a06144f3565b6020908102919091010152506129b581614537565b905061297d565b5092915050565b6000816001600160a01b0316836001600160a01b03161480612a3257506001600160a01b038316600090815260018501602052604090205460ff168015612a3257506001600160a01b03808316600090815260038601602090815260408083209387168352929052205460ff16155b80610d8757506001600160a01b03808316600090815260028601602090815260408083209387168352929052205460ff1690509392505050565b6001600160a01b038616612a925760405162461bcd60e51b81526004016109ed906145ad565b6001600160a01b038516612ab85760405162461bcd60e51b81526004016109ed906145f3565b612ac68787878787876130ed565b612ad4878787878787613016565b6111e387878787878787613214565b806001600160a01b0316826001600160a01b031603612b5a5760405162461bcd60e51b815260206004820152602d60248201527f4552433737374f70657261746f72733a20617574686f72697a696e672073656c60448201526c331030b99037b832b930ba37b960991b60648201526084016109ed565b6001600160a01b038116600090815260018401602052604090205460ff1615612bb0576001600160a01b03918216600090815260039390930160209081526040808520929093168452529020805460ff19169055565b6001600160a01b0380831660009081526002850160209081526040808320938516835292905220805460ff19166001179055505050565b6001600160a01b038416612c485760405162461bcd60e51b815260206004820152602260248201527f5375706572546f6b656e3a206275726e2066726f6d207a65726f206164647265604482015261737360f01b60648201526084016109ed565b612c57858560008686866130ed565b612c6184846133a4565b836001600160a01b0316856001600160a01b03167fa78a9be3a7b862d26933ad85fb11d80ef66b8f972d7cbba06621d583943a4098858585604051612ca893929190614654565b60405180910390a36040518381526000906001600160a01b0386169060008051602061487783398151915290602001610901565b60008184841115612d005760405162461bcd60e51b81526004016109ed91906139b0565b505050900390565b6001600160a01b038516612d5e5760405162461bcd60e51b815260206004820181905260248201527f5375706572546f6b656e3a206d696e7420746f207a65726f206164647265737360448201526064016109ed565b612d6885856134f8565b612d788660008787868689613214565b846001600160a01b0316866001600160a01b03167f2fe5be0146f74c5bce36c0b80911af6c7d86ff27e89d5cfa61fc681327954e5d868585604051612dbf93929190614654565b60405180910390a36040518481526001600160a01b03861690600090600080516020614877833981519152906020015b60405180910390a3505050505050565b336001600160a01b03821603612e6a5760405162461bcd60e51b815260206004820152602a60248201527f4552433737374f70657261746f72733a207265766f6b696e672073656c662061604482015269399037b832b930ba37b960b11b60648201526084016109ed565b6001600160a01b038116600090815260018401602052604090205460ff1615612ec4576001600160a01b0380831660009081526003850160209081526040808320938516835292905220805460ff19166001179055505050565b6001600160a01b03918216600090815260029390930160209081526040808520929093168452529020805460ff19169055565b600e54600090819081906012600160a01b90910460ff161015612f5657600e54612f2c90600160a01b900460ff16601261467f565b612f3790600a614786565b9050612f438185614795565b9250612f4f81846147b7565b9150612fad565b600e546012600160a01b90910460ff161115612fa657600e54612f8590601290600160a01b900460ff1661467f565b612f9090600a614786565b9050612f9c81856147b7565b9250839150612fad565b8391508192505b50915091565b6040516001600160a01b0383166024820152604481018290526113c290849063a9059cbb60e01b906064015b60408051601f198184030181529190526020810180516001600160e01b03166001600160e01b031990931692909217909152613552565b613029858561302486612301565b613624565b836001600160a01b0316856001600160a01b0316876001600160a01b03167f06b541ddaa720db2b10a4d0cdac39b8d360425fc073085fac19bc8261467798786868660405161307a93929190614654565b60405180910390a4836001600160a01b0316856001600160a01b031660008051602061487783398151915285604051612def91815260200190565b6040516001600160a01b03808516602483015283166044820152606481018290526113699085906323b872dd60e01b90608401612fdf565b60405163555ddc6560e11b81526001600160a01b03861660048201527f29ddb589b1fb5fc7cf394961c1adf5f8c6454761adf795e67fe149f658abe8956024820152600090731820a4b7618bde71dce8cdc73aab6c95905fad249063aabbb8ca90604401602060405180830381865afa15801561316e573d6000803e3d6000fd5b505050506040513d601f19601f820116820180604052508101906131929190614637565b90506001600160a01b038116156111e357604051633ad5cbc160e11b81526001600160a01b038216906375ab9782906131d9908a908a908a908a908a908a906004016147d6565b600060405180830381600087803b1580156131f357600080fd5b505af1158015613207573d6000803e3d6000fd5b5050505050505050505050565b60405163555ddc6560e11b81526001600160a01b03861660048201527fb281fc8c12954d22544db45de3159a39272895b169a852b314f9cc762e44c53b6024820152600090731820a4b7618bde71dce8cdc73aab6c95905fad249063aabbb8ca90604401602060405180830381865afa158015613295573d6000803e3d6000fd5b505050506040513d601f19601f820116820180604052508101906132b99190614637565b90506001600160a01b03811615613335576040516223de2960e01b81526001600160a01b038216906223de29906132fe908b908b908b908b908b908b906004016147d6565b600060405180830381600087803b15801561331857600080fd5b505af115801561332c573d6000803e3d6000fd5b5050505061146a565b811561146a576001600160a01b0386163b1561146a5760405162461bcd60e51b815260206004820152602860248201527f5375706572546f6b656e3a206e6f7420616e20455243373737546f6b656e73526044820152671958da5c1a595b9d60c21b60648201526084016109ed565b600061342c837f00000000000000000000000000000000000000000000000000000000000000006001600160a01b031663bbe4fd506040518163ffffffff1660e01b8152600401602060405180830381865afa158015613408573d6000803e3d6000fd5b505050506040513d601f19601f8201168201806040525081019061074f9190614373565b5050905061343982612301565b81121561349d5760405162461bcd60e51b815260206004820152602c60248201527f5375706572666c756964546f6b656e3a206275726e20616d6f756e742065786360448201526b656564732062616c616e636560a01b60648201526084016109ed565b6134a682612301565b6001600160a01b0384166000908152600260205260409020546134c99190614301565b6001600160a01b0384166000908152600260205260409020556003546134f09083906144dc565b600355505050565b61350181612301565b6001600160a01b03831660009081526002602052604090205461352491906142c0565b6001600160a01b03831660009081526002602052604090205560035461354b90829061443d565b6003555050565b60006135a7826040518060400160405280602081526020017f5361666545524332303a206c6f772d6c6576656c2063616c6c206661696c6564815250856001600160a01b03166137679092919063ffffffff16565b8051909150156113c257808060200190518101906135c59190614214565b6113c25760405162461bcd60e51b815260206004820152602a60248201527f5361666545524332303a204552433230206f7065726174696f6e20646964206e6044820152691bdd081cdd58d8d9595960b21b60648201526084016109ed565b6000613688847f00000000000000000000000000000000000000000000000000000000000000006001600160a01b031663bbe4fd506040518163ffffffff1660e01b8152600401602060405180830381865afa158015613408573d6000803e3d6000fd5b50509050818112156136f15760405162461bcd60e51b815260206004820152602c60248201527f5375706572666c756964546f6b656e3a206d6f766520616d6f756e742065786360448201526b656564732062616c616e636560a01b60648201526084016109ed565b6001600160a01b038416600090815260026020526040902054613715908390614301565b6001600160a01b0380861660009081526002602052604080822093909355908516815220546137459083906142c0565b6001600160a01b03909316600090815260026020526040902092909255505050565b6060610d878484600085856001600160a01b0385163b6137c95760405162461bcd60e51b815260206004820152601d60248201527f416464726573733a2063616c6c20746f206e6f6e2d636f6e747261637400000060448201526064016109ed565b600080866001600160a01b031685876040516137e59190614830565b60006040518083038185875af1925050503d8060008114613822576040519150601f19603f3d011682016040523d82523d6000602084013e613827565b606091505b5091509150613837828286613842565b979650505050505050565b60608315613851575081610d8a565b8251156138615782518084602001fd5b8160405162461bcd60e51b81526004016109ed91906139b0565b828054613887906140c5565b90600052602060002090601f0160209004810192826138a957600085556138ef565b82601f106138c25782800160ff198235161785556138ef565b828001600101855582156138ef579182015b828111156138ef5782358255916020019190600101906138d4565b5061236b9291505b8082111561236b57600081556001016138f7565b6020808252825182820181905260009190848201906040850190845b8181101561394c5783516001600160a01b031683529284019291840191600101613927565b50909695505050505050565b60005b8381101561397357818101518382015260200161395b565b838111156113695750506000910152565b6000815180845261399c816020860160208601613958565b601f01601f19169290920160200192915050565b602081526000610d8a6020830184613984565b6001600160a01b038116811461095257600080fd5b60008083601f8401126139ea57600080fd5b5081356001600160401b03811115613a0157600080fd5b6020830191508360208260051b8501011115613a1c57600080fd5b9250929050565b60008060008060608587031215613a3957600080fd5b8435613a44816139c3565b93506020850135925060408501356001600160401b03811115613a6657600080fd5b613a72878288016139d8565b95989497509550505050565b60008060408385031215613a9157600080fd5b8235613a9c816139c3565b946020939093013593505050565b600060208284031215613abc57600080fd5b5035919050565b600080600060408486031215613ad857600080fd5b8335925060208401356001600160401b03811115613af557600080fd5b613b01868287016139d8565b9497909650939450505050565b60008060008060808587031215613b2457600080fd5b8435613b2f816139c3565b93506020850135613b3f816139c3565b92506040850135613b4f816139c3565b9396929550929360600135925050565b634e487b7160e01b600052604160045260246000fd5b604051601f8201601f191681016001600160401b0381118282101715613b9d57613b9d613b5f565b604052919050565b600082601f830112613bb657600080fd5b81356001600160401b03811115613bcf57613bcf613b5f565b613be2601f8201601f1916602001613b75565b818152846020838601011115613bf757600080fd5b816020850160208301376000918101602001919091529392505050565b801515811461095257600080fd5b600080600080600080600060e0888a031215613c3d57600080fd5b8735965060208801356001600160401b03811115613c5a57600080fd5b613c668a828b01613ba5565b9650506040880135613c77816139c3565b94506060880135613c8781613c14565b93506080880135613c97816139c3565b9699959850939692959460a0840135945060c09093013592915050565b600080600060608486031215613cc957600080fd5b8335613cd4816139c3565b92506020840135613ce4816139c3565b929592945050506040919091013590565b60008060408385031215613d0857600080fd5b50508035926020909101359150565b600060208284031215613d2957600080fd5b8135610d8a816139c3565b60008083601f840112613d4657600080fd5b5081356001600160401b03811115613d5d57600080fd5b602083019150836020828501011115613a1c57600080fd5b60008060008060008060808789031215613d8e57600080fd5b8635613d99816139c3565b9550602087013560ff81168114613daf57600080fd5b945060408701356001600160401b0380821115613dcb57600080fd5b613dd78a838b01613d34565b90965094506060890135915080821115613df057600080fd5b50613dfd89828a01613d34565b979a9699509497509295939492505050565b60008060008060808587031215613e2557600080fd5b8435613e30816139c3565b93506020850135613e40816139c3565b93969395505050506040820135916060013590565b6020808252825182820181905260009190848201906040850190845b8181101561394c57835183529284019291840191600101613e71565b60008060008060608587031215613ea357600080fd5b8435613eae816139c3565b93506020850135925060408501356001600160401b03811115613ed057600080fd5b613a7287828801613d34565b600080600080600080600060a0888a031215613ef757600080fd5b8735613f02816139c3565b96506020880135613f12816139c3565b95506040880135945060608801356001600160401b0380821115613f3557600080fd5b613f418b838c01613d34565b909650945060808a0135915080821115613f5a57600080fd5b50613f678a828b01613d34565b989b979a50959850939692959293505050565b600080600060608486031215613f8f57600080fd5b8335613f9a816139c3565b95602085013595506040909401359392505050565b600080600060608486031215613fc457600080fd5b8335613fcf816139c3565b92506020840135915060408401356001600160401b03811115613ff157600080fd5b613ffd86828701613ba5565b9150509250925092565b6000806040838503121561401a57600080fd5b8235614025816139c3565b91506020830135614035816139c3565b809150509250929050565b6000806000806000806080878903121561405957600080fd5b8635614064816139c3565b95506020870135945060408701356001600160401b0380821115613dcb57600080fd5b60008060006040848603121561409c57600080fd5b8335925060208401356001600160401b038111156140b957600080fd5b613b0186828701613d34565b600181811c908216806140d957607f821691505b6020821081036140f957634e487b7160e01b600052602260045260246000fd5b50919050565b6080808252600e908201526d41677265656d656e74537461746560901b60a08201526001600160a01b039384166020820152919092166040820152606081019190915260c00190565b6060808252600d908201526c41677265656d656e744461746160981b60808201526001600160a01b03929092166020830152604082015260a00190565b838152604060208201819052810182905260006001600160fb1b038311156141ac57600080fd5b8260051b8085606085013760009201606001918252509392505050565b6020808252602b908201527f5375706572666c756964546f6b656e3a204f6e6c7920686f737420636f6e747260408201526a1858dd08185b1b1bddd95960aa1b606082015260800190565b60006020828403121561422657600080fd5b8151610d8a81613c14565b60208082526027908201527f5375706572666c756964546f6b656e3a206f6e6c79206c6973746564206167726040820152661959595b595b9d60ca1b606082015260800190565b634e487b7160e01b600052601160045260246000fd5b6000600160ff1b82016142a3576142a3614278565b5060000390565b634e487b7160e01b600052600160045260246000fd5b600080821280156001600160ff1b03849003851316156142e2576142e2614278565b600160ff1b83900384128116156142fb576142fb614278565b50500190565b60008083128015600160ff1b85018412161561431f5761431f614278565b6001600160ff1b038401831381161561433a5761433a614278565b50500390565b85815260018060a01b038516602082015283604082015282606082015260a06080820152600061383760a0830184613984565b60006020828403121561438557600080fd5b5051919050565b6000602080838503121561439f57600080fd5b82516001600160401b03808211156143b657600080fd5b818501915085601f8301126143ca57600080fd5b8151818111156143dc576143dc613b5f565b8060051b91506143ed848301613b75565b818152918301840191848101908884111561440757600080fd5b938501935b838510156144315784519250614421836139c3565b828252938501939085019061440c565b98975050505050505050565b6000821982111561445057614450614278565b500190565b6020808252601d908201527f5375706572546f6b656e3a206f6e6c792073656c6620616c6c6f776564000000604082015260600190565b60208082526030908201527f5375706572546f6b656e3a2063616c6c6572206973206e6f7420616e206f706560408201526f3930ba37b9103337b9103437b63232b960811b606082015260800190565b6000828210156144ee576144ee614278565b500390565b634e487b7160e01b600052603260045260246000fd5b60008060006060848603121561451e57600080fd5b8351925060208401519150604084015190509250925092565b60006001820161454957614549614278565b5060010190565b6020808252603a908201527f5375706572546f6b656e3a20696e666c6174696f6e6172792f6465666c61746960408201527f6f6e61727920746f6b656e73206e6f7420737570706f72746564000000000000606082015260800190565b60208082526026908201527f5375706572546f6b656e3a207472616e736665722066726f6d207a65726f206160408201526564647265737360d01b606082015260800190565b60208082526024908201527f5375706572546f6b656e3a207472616e7366657220746f207a65726f206164646040820152637265737360e01b606082015260800190565b60006020828403121561464957600080fd5b8151610d8a816139c3565b83815260606020820152600061466d6060830185613984565b82810360408401526112e28185613984565b600060ff821660ff84168082101561469957614699614278565b90039392505050565b600181815b808511156146dd5781600019048211156146c3576146c3614278565b808516156146d057918102915b93841c93908002906146a7565b509250929050565b6000826146f457506001610921565b8161470157506000610921565b816001811461471757600281146147215761473d565b6001915050610921565b60ff84111561473257614732614278565b50506001821b610921565b5060208310610133831016604e8410600b8410161715614760575081810a610921565b61476a83836146a2565b806000190482111561477e5761477e614278565b029392505050565b6000610d8a60ff8416836146e5565b6000826147b257634e487b7160e01b600052601260045260246000fd5b500490565b60008160001904831182151516156147d1576147d1614278565b500290565b6001600160a01b0387811682528681166020830152851660408201526060810184905260c06080820181905260009061481190830185613984565b82810360a08401526148238185613984565b9998505050505050505050565b60008251614842818460208701613958565b919091019291505056fe5375706572546f6b656e3a2064656372656173656420616c6c6f77616e63652062656c6f77207a65726fddf252ad1be2c89b69c2b068fc378daa952ba7f163c4a11628f55a4df523b3ef5375706572546f6b656e3a207472616e7366657220616d6f756e74206578636565647320616c6c6f77616e6365a26469706673582212209218bcb699705b5d32a90a2ec685872d8ebeb1ef5cc646ffedf98f242588749d64736f6c634300080e0033a264697066735822122049c29d5a0cc0069416c63744a5bceb10dd85191d3d27baec7d1374a6742d2e5564736f6c634300080e003360c060405234801561001057600080fd5b506040516113b13803806113b183398101604081905261002f9161005e565b6001600160a01b039182166080521660a052610098565b6001600160a01b038116811461005b57600080fd5b50565b6000806040838503121561007157600080fd5b825161007c81610046565b602084015190925061008d81610046565b809150509250929050565b60805160a0516112e06100d160003960006102dd01526000818160a5015281816102200152818161051a0152610a6101526112e06000f3fe608060405234801561001057600080fd5b506004361061009e5760003560e01c806352d1902d1161006657806352d1902d146101255780638129fc1c146101535780639470a5b21461015b578063a6d0c53414610172578063d412d3441461018557600080fd5b806320bc4425146100a3578063431f1481146100e257806346951954146100f55780634dcc4d791461010a57806350d75d251461011d575b600080fd5b7f00000000000000000000000000000000000000000000000000000000000000005b6040516001600160a01b0390911681526020015b60405180910390f35b6100c56100f0366004610bb8565b610198565b610108610103366004610c4b565b610215565b005b6100c5610118366004610c4b565b6102bb565b6100c5610352565b6040517fb146a22bc9644a3313a7e28592f37d32718a2b618d3d136aa524b0d86b87b62081526020016100d9565b610108610381565b6000546201000090046001600160a01b03166100c5565b6100c5610180366004610c7e565b610492565b610108610193366004610c4b565b610772565b600061020a87886001600160a01b031663313ce5676040518163ffffffff1660e01b8152600401602060405180830381865afa1580156101dc573d6000803e3d6000fd5b505050506040513d601f19601f820116820180604052508101906102009190610d24565b8888888888610492565b979650505050505050565b336001600160a01b037f000000000000000000000000000000000000000000000000000000000000000016146102a75760405162461bcd60e51b815260206004820152602c60248201527f5375706572546f6b656e466163746f72793a206f6e6c7920686f73742063616e60448201526b2075706461746520636f646560a01b60648201526084015b60405180910390fd5b6102b081610810565b6102b8610a4a565b50565b6040516313db266360e31b81526001600160a01b0382811660048301526000917f000000000000000000000000000000000000000000000000000000000000000090911690639ed93318906024016020604051808303816000875af1158015610328573d6000803e3d6000fd5b505050506040513d601f19601f8201168201806040525081019061034c9190610d41565b92915050565b600061037c7f360894a13ba1a3210667c828492db98dca3e2076cc3735a920a3ca505d382bbc5490565b905090565b600054610100900460ff16158080156103a15750600054600160ff909116105b806103bb5750303b1580156103bb575060005460ff166001145b61041e5760405162461bcd60e51b815260206004820152602e60248201527f496e697469616c697a61626c653a20636f6e747261637420697320616c72656160448201526d191e481a5b9a5d1a585b1a5e995960921b606482015260840161029e565b6000805460ff191660011790558015610441576000805461ff0019166101001790555b610449610a4a565b80156102b8576000805461ff0019169055604051600181527f7f26b83ff96e1f2b6a682f133852f6798a09c465da95921460cefb3847402498906020015b60405180910390a150565b60006001600160a01b0388166104ea5760405162461bcd60e51b815260206004820152601f60248201527f5375706572546f6b656e466163746f72793a207a65726f206164647265737300604482015260640161029e565b60008660028111156104fe576104fe610d5e565b0361059457604051634dcc4d7960e01b81526001600160a01b037f00000000000000000000000000000000000000000000000000000000000000001660048201523090634dcc4d79906024016020604051808303816000875af1158015610569573d6000803e3d6000fd5b505050506040513d601f19601f8201168201806040525081019061058d9190610d41565b90506106cc565b60018660028111156105a8576105a8610d5e565b036106485760006040516105bb90610b2c565b604051809103906000f0801580156105d7573d6000803e3d6000fd5b50600054604051634a0687ef60e01b81526001600160a01b036201000090920482166004820152919250821690634a0687ef90602401600060405180830381600087803b15801561062757600080fd5b505af115801561063b573d6000803e3d6000fd5b50505050809150506106cc565b600060405161065690610b39565b604051809103906000f080158015610672573d6000803e3d6000fd5b509050806001600160a01b0316638129fc1c6040518163ffffffff1660e01b8152600401600060405180830381600087803b1580156106b057600080fd5b505af11580156106c4573d6000803e3d6000fd5b509293505050505b6040516285fc1360e71b81526001600160a01b038216906342fe098090610701908b908b908a908a908a908a90600401610d9d565b600060405180830381600087803b15801561071b57600080fd5b505af115801561072f573d6000803e3d6000fd5b50506040516001600160a01b03841692507fb52c6d9d122e8c07769b96d7bb14e66db58ee03fdebaaa2f92547e9c7ef0e65f9150600090a2979650505050505050565b600054604051634a0687ef60e01b81526001600160a01b0362010000909204821660048201528291821690634a0687ef90602401600060405180830381600087803b1580156107c057600080fd5b505af11580156107d4573d6000803e3d6000fd5b50506040516001600160a01b03851692507f437790724a6e97b75d23117f28cdd4b1beeafc34f7a0911ef256e9334f4369a59150600090a25050565b600061083a7f360894a13ba1a3210667c828492db98dca3e2076cc3735a920a3ca505d382bbc5490565b6001600160a01b0316036108905760405162461bcd60e51b815260206004820152601d60248201527f5555505350726f786961626c653a206e6f742075706772616461626c65000000604482015260640161029e565b806001600160a01b03166352d1902d6040518163ffffffff1660e01b8152600401602060405180830381865afa1580156108ce573d6000803e3d6000fd5b505050506040513d601f19601f820116820180604052508101906108f29190610deb565b7fb146a22bc9644a3313a7e28592f37d32718a2b618d3d136aa524b0d86b87b6201461096c5760405162461bcd60e51b815260206004820152602360248201527f5555505350726f786961626c653a206e6f7420636f6d70617469626c65206c6f60448201526267696360e81b606482015260840161029e565b6001600160a01b03811630036109c45760405162461bcd60e51b815260206004820152601960248201527f5555505350726f786961626c653a2070726f7879206c6f6f7000000000000000604482015260640161029e565b6109ec817f360894a13ba1a3210667c828492db98dca3e2076cc3735a920a3ca505d382bbc55565b7fe011bc04c286c344a8fcbb8de77f953da762c3e25d8cdea984147fc4168a5dcc7fb146a22bc9644a3313a7e28592f37d32718a2b618d3d136aa524b0d86b87b620604080519182526001600160a01b038416602083015201610487565b604051634dcc4d7960e01b81526001600160a01b037f00000000000000000000000000000000000000000000000000000000000000001660048201523090634dcc4d79906024016020604051808303816000875af1158015610ab0573d6000803e3d6000fd5b505050506040513d601f19601f82011682018060405250810190610ad49190610d41565b6000805462010000600160b01b031916620100006001600160a01b03938416810291909117808355604051919004909216917fc13fb19d60857980e565bf5dae406b8802d3c1cec50c6156b30b12b8740297839190a2565b61024a80610e0583390190565b61025c8061104f83390190565b6001600160a01b03811681146102b857600080fd5b803560038110610b6a57600080fd5b919050565b60008083601f840112610b8157600080fd5b50813567ffffffffffffffff811115610b9957600080fd5b602083019150836020828501011115610bb157600080fd5b9250929050565b60008060008060008060808789031215610bd157600080fd5b8635610bdc81610b46565b9550610bea60208801610b5b565b9450604087013567ffffffffffffffff80821115610c0757600080fd5b610c138a838b01610b6f565b90965094506060890135915080821115610c2c57600080fd5b50610c3989828a01610b6f565b979a9699509497509295939492505050565b600060208284031215610c5d57600080fd5b8135610c6881610b46565b9392505050565b60ff811681146102b857600080fd5b600080600080600080600060a0888a031215610c9957600080fd5b8735610ca481610b46565b96506020880135610cb481610c6f565b9550610cc260408901610b5b565b9450606088013567ffffffffffffffff80821115610cdf57600080fd5b610ceb8b838c01610b6f565b909650945060808a0135915080821115610d0457600080fd5b50610d118a828b01610b6f565b989b979a50959850939692959293505050565b600060208284031215610d3657600080fd5b8151610c6881610c6f565b600060208284031215610d5357600080fd5b8151610c6881610b46565b634e487b7160e01b600052602160045260246000fd5b81835281816020850137506000828201602090810191909152601f909101601f19169091010190565b6001600160a01b038716815260ff86166020820152608060408201819052600090610dcb9083018688610d74565b8281036060840152610dde818587610d74565b9998505050505050505050565b600060208284031215610dfd57600080fd5b505191905056fe608060405234801561001057600080fd5b5061022a806100206000396000f3fe6080604052600436106100225760003560e01c80634a0687ef1461003957610031565b366100315761002f610059565b005b61002f610059565b34801561004557600080fd5b5061002f6100543660046101c4565b61006b565b610069610064610171565b6101a0565b565b6001600160a01b0381166100c65760405162461bcd60e51b815260206004820152601760248201527f5555505350726f78793a207a65726f206164647265737300000000000000000060448201526064015b60405180910390fd5b60006100f07f360894a13ba1a3210667c828492db98dca3e2076cc3735a920a3ca505d382bbc5490565b6001600160a01b0316146101465760405162461bcd60e51b815260206004820152601e60248201527f5555505350726f78793a20616c726561647920696e697469616c697a6564000060448201526064016100bd565b61016e817f360894a13ba1a3210667c828492db98dca3e2076cc3735a920a3ca505d382bbc55565b50565b600061019b7f360894a13ba1a3210667c828492db98dca3e2076cc3735a920a3ca505d382bbc5490565b905090565b3660008037600080366000845af43d6000803e8080156101bf573d6000f35b3d6000fd5b6000602082840312156101d657600080fd5b81356001600160a01b03811681146101ed57600080fd5b939250505056fea2646970667358221220a1e972ca4b71b3da292febdd0198df1567eb4dca84bc4721dd8d4f37bdeae9a664736f6c634300080e0033608060405234801561001057600080fd5b5061023c806100206000396000f3fe6080604052600436106100225760003560e01c80638129fc1c1461003957610031565b366100315761002f61004e565b005b61002f61004e565b34801561004557600080fd5b5061002f610060565b61005e6100596100f9565b61019c565b565b7fb8fcd5719b3ddf8626f3664705a89b7fc476129a58c1aa5eda57c600cc1821a0546001600160a01b038116156100d35760405162461bcd60e51b8152602060048201526013602482015272105b1c9958591e481a5b9a5d1a585b1a5e9959606a1b604482015260640160405180910390fd5b50337fb8fcd5719b3ddf8626f3664705a89b7fc476129a58c1aa5eda57c600cc1821a055565b7fb8fcd5719b3ddf8626f3664705a89b7fc476129a58c1aa5eda57c600cc1821a0546000906001600160a01b038116610134576101346101c0565b806001600160a01b0316639470a5b26040518163ffffffff1660e01b8152600401602060405180830381865afa158015610172573d6000803e3d6000fd5b505050506040513d601f19601f8201168201806040525081019061019691906101d6565b91505090565b3660008037600080366000845af43d6000803e8080156101bb573d6000f35b3d6000fd5b634e487b7160e01b600052600160045260246000fd5b6000602082840312156101e857600080fd5b81516001600160a01b03811681146101ff57600080fd5b939250505056fea2646970667358221220aa148b4dd7e355b0ffc0ea9bdb9c571489a23c6c0b02d51201de981c133e580564736f6c634300080e0033a26469706673582212209e3ab988a7673ff00d59aebf02b5c3366b247667dd8de81f85fef1b38d7f38a164736f6c634300080e0033",
    "linkReferences": {
      "node_modules/@superfluid-finance/ethereum-contracts/contracts/libs/SlotsBitmapLibrary.sol": {
        "SlotsBitmapLibrary": [
          {
            "start": 61619,
            "length": 20
          },
          {
            "start": 75305,
            "length": 20
          },
          {
            "start": 76607,
            "length": 20
          },
          {
            "start": 77363,
            "length": 20
          }
        ]
      }
    }
  },
  "methodIdentifiers": {
    "deployWrapperSuperToken(string,string)": "845531a4",
    "getFramework()": "dfa98ad5"
  },
  "id": 75
}