{
  "abi": [
    {
      "anonymous": false,
      "inputs": [
        {
          "indexed": true,
          "internalType": "contract ISuperfluid",
          "name": "host",
          "type": "address"
        },
        {
          "indexed": true,
          "internalType": "contract ISuperfluidToken",
          "name": "superToken",
          "type": "address"
        },
        {
          "indexed": false,
          "internalType": "bool",
          "name": "isKeySet",
          "type": "bool"
        },
        {
          "indexed": false,
          "internalType": "uint256",
          "name": "liquidationPeriod",
          "type": "uint256"
        }
      ],
      "name": "CFAv1LiquidationPeriodChanged",
      "type": "event"
    },
    {
      "anonymous": false,
      "inputs": [
        {
          "indexed": true,
          "internalType": "contract ISuperfluid",
          "name": "host",
          "type": "address"
        },
        {
          "indexed": true,
          "internalType": "contract ISuperfluidToken",
          "name": "superToken",
          "type": "address"
        },
        {
          "indexed": false,
          "internalType": "bytes32",
          "name": "key",
          "type": "bytes32"
        },
        {
          "indexed": false,
          "internalType": "bool",
          "name": "isKeySet",
          "type": "bool"
        },
        {
          "indexed": false,
          "internalType": "uint256",
          "name": "value",
          "type": "uint256"
        }
      ],
      "name": "ConfigChanged",
      "type": "event"
    },
    {
      "anonymous": false,
      "inputs": [
        {
          "indexed": true,
          "internalType": "address",
          "name": "previousOwner",
          "type": "address"
        },
        {
          "indexed": true,
          "internalType": "address",
          "name": "newOwner",
          "type": "address"
        }
      ],
      "name": "OwnershipTransferred",
      "type": "event"
    },
    {
      "anonymous": false,
      "inputs": [
        {
          "indexed": true,
          "internalType": "contract ISuperfluid",
          "name": "host",
          "type": "address"
        },
        {
          "indexed": true,
          "internalType": "contract ISuperfluidToken",
          "name": "superToken",
          "type": "address"
        },
        {
          "indexed": false,
          "internalType": "bool",
          "name": "isKeySet",
          "type": "bool"
        },
        {
          "indexed": false,
          "internalType": "uint256",
          "name": "liquidationPeriod",
          "type": "uint256"
        },
        {
          "indexed": false,
          "internalType": "uint256",
          "name": "patricianPeriod",
          "type": "uint256"
        }
      ],
      "name": "PPPConfigurationChanged",
      "type": "event"
    },
    {
      "anonymous": false,
      "inputs": [
        {
          "indexed": true,
          "internalType": "contract ISuperfluid",
          "name": "host",
          "type": "address"
        },
        {
          "indexed": true,
          "internalType": "contract ISuperfluidToken",
          "name": "superToken",
          "type": "address"
        },
        {
          "indexed": false,
          "internalType": "bool",
          "name": "isKeySet",
          "type": "bool"
        },
        {
          "indexed": false,
          "internalType": "address",
          "name": "rewardAddress",
          "type": "address"
        }
      ],
      "name": "RewardAddressChanged",
      "type": "event"
    },
    {
      "anonymous": false,
      "inputs": [
        {
          "indexed": true,
          "internalType": "contract ISuperfluid",
          "name": "host",
          "type": "address"
        },
        {
          "indexed": true,
          "internalType": "contract ISuperfluidToken",
          "name": "superToken",
          "type": "address"
        },
        {
          "indexed": false,
          "internalType": "bool",
          "name": "isKeySet",
          "type": "bool"
        },
        {
          "indexed": false,
          "internalType": "uint256",
          "name": "minimumDeposit",
          "type": "uint256"
        }
      ],
      "name": "SuperTokenMinimumDepositChanged",
      "type": "event"
    },
    {
      "anonymous": false,
      "inputs": [
        {
          "indexed": true,
          "internalType": "contract ISuperfluid",
          "name": "host",
          "type": "address"
        },
        {
          "indexed": true,
          "internalType": "contract ISuperfluidToken",
          "name": "superToken",
          "type": "address"
        },
        {
          "indexed": false,
          "internalType": "bool",
          "name": "isKeySet",
          "type": "bool"
        },
        {
          "indexed": false,
          "internalType": "address",
          "name": "forwarder",
          "type": "address"
        },
        {
          "indexed": false,
          "internalType": "bool",
          "name": "enabled",
          "type": "bool"
        }
      ],
      "name": "TrustedForwarderChanged",
      "type": "event"
    },
    {
      "inputs": [
        {
          "internalType": "contract ISuperfluid",
          "name": "host",
          "type": "address"
        },
        {
          "internalType": "address",
          "name": "factory",
          "type": "address"
        }
      ],
      "name": "authorizeAppFactory",
      "outputs": [],
      "stateMutability": "nonpayable",
      "type": "function"
    },
    {
      "inputs": [
        {
          "internalType": "contract ISuperfluid",
          "name": "host",
          "type": "address"
        },
        {
          "internalType": "contract ISuperToken[]",
          "name": "tokens",
          "type": "address[]"
        }
      ],
      "name": "batchUpdateSuperTokenLogic",
      "outputs": [],
      "stateMutability": "nonpayable",
      "type": "function"
    },
    {
      "inputs": [
        {
          "internalType": "contract ISuperfluid",
          "name": "host",
          "type": "address"
        },
        {
          "internalType": "contract ISuperToken[]",
          "name": "tokens",
          "type": "address[]"
        },
        {
          "internalType": "uint256[]",
          "name": "minimumDeposits",
          "type": "uint256[]"
        }
      ],
      "name": "batchUpdateSuperTokenMinimumDeposit",
      "outputs": [],
      "stateMutability": "nonpayable",
      "type": "function"
    },
    {
      "inputs": [
        {
          "internalType": "contract ISuperfluid",
          "name": "host",
          "type": "address"
        },
        {
          "internalType": "contract ISuperfluidToken",
          "name": "superToken",
          "type": "address"
        },
        {
          "internalType": "bytes32",
          "name": "key",
          "type": "bytes32"
        }
      ],
      "name": "clearConfig",
      "outputs": [],
      "stateMutability": "nonpayable",
      "type": "function"
    },
    {
      "inputs": [
        {
          "internalType": "contract ISuperfluid",
          "name": "host",
          "type": "address"
        },
        {
          "internalType": "contract ISuperfluidToken",
          "name": "superToken",
          "type": "address"
        }
      ],
      "name": "clearPPPConfig",
      "outputs": [],
      "stateMutability": "nonpayable",
      "type": "function"
    },
    {
      "inputs": [
        {
          "internalType": "contract ISuperfluid",
          "name": "host",
          "type": "address"
        },
        {
          "internalType": "contract ISuperfluidToken",
          "name": "superToken",
          "type": "address"
        }
      ],
      "name": "clearRewardAddress",
      "outputs": [],
      "stateMutability": "nonpayable",
      "type": "function"
    },
    {
      "inputs": [
        {
          "internalType": "contract ISuperfluid",
          "name": "host",
          "type": "address"
        },
        {
          "internalType": "contract ISuperToken",
          "name": "superToken",
          "type": "address"
        }
      ],
      "name": "clearSuperTokenMinimumDeposit",
      "outputs": [],
      "stateMutability": "nonpayable",
      "type": "function"
    },
    {
      "inputs": [
        {
          "internalType": "contract ISuperfluid",
          "name": "host",
          "type": "address"
        },
        {
          "internalType": "contract ISuperfluidToken",
          "name": "superToken",
          "type": "address"
        },
        {
          "internalType": "address",
          "name": "forwarder",
          "type": "address"
        }
      ],
      "name": "clearTrustedForwarder",
      "outputs": [],
      "stateMutability": "nonpayable",
      "type": "function"
    },
    {
      "inputs": [
        {
          "internalType": "contract ISuperfluid",
          "name": "host",
          "type": "address"
        },
        {
          "internalType": "contract ISuperfluidToken",
          "name": "superToken",
          "type": "address"
        },
        {
          "internalType": "address",
          "name": "forwarder",
          "type": "address"
        }
      ],
      "name": "disableTrustedForwarder",
      "outputs": [],
      "stateMutability": "nonpayable",
      "type": "function"
    },
    {
      "inputs": [
        {
          "internalType": "contract ISuperfluid",
          "name": "host",
          "type": "address"
        },
        {
          "internalType": "contract ISuperfluidToken",
          "name": "superToken",
          "type": "address"
        },
        {
          "internalType": "address",
          "name": "forwarder",
          "type": "address"
        }
      ],
      "name": "enableTrustedForwarder",
      "outputs": [],
      "stateMutability": "nonpayable",
      "type": "function"
    },
    {
      "inputs": [
        {
          "internalType": "contract ISuperfluid",
          "name": "host",
          "type": "address"
        },
        {
          "internalType": "contract ISuperfluidToken",
          "name": "superToken",
          "type": "address"
        },
        {
          "internalType": "bytes32",
          "name": "key",
          "type": "bytes32"
        }
      ],
      "name": "getConfigAsAddress",
      "outputs": [
        {
          "internalType": "address",
          "name": "value",
          "type": "address"
        }
      ],
      "stateMutability": "view",
      "type": "function"
    },
    {
      "inputs": [
        {
          "internalType": "contract ISuperfluid",
          "name": "host",
          "type": "address"
        },
        {
          "internalType": "contract ISuperfluidToken",
          "name": "superToken",
          "type": "address"
        },
        {
          "internalType": "bytes32",
          "name": "key",
          "type": "bytes32"
        }
      ],
      "name": "getConfigAsUint256",
      "outputs": [
        {
          "internalType": "uint256",
          "name": "period",
          "type": "uint256"
        }
      ],
      "stateMutability": "view",
      "type": "function"
    },
    {
      "inputs": [
        {
          "internalType": "contract ISuperfluid",
          "name": "host",
          "type": "address"
        },
        {
          "internalType": "contract ISuperfluidToken",
          "name": "superToken",
          "type": "address"
        }
      ],
      "name": "getPPPConfig",
      "outputs": [
        {
          "internalType": "uint256",
          "name": "liquidationPeriod",
          "type": "uint256"
        },
        {
          "internalType": "uint256",
          "name": "patricianPeriod",
          "type": "uint256"
        }
      ],
      "stateMutability": "view",
      "type": "function"
    },
    {
      "inputs": [
        {
          "internalType": "contract ISuperfluid",
          "name": "host",
          "type": "address"
        },
        {
          "internalType": "contract ISuperfluidToken",
          "name": "superToken",
          "type": "address"
        }
      ],
      "name": "getRewardAddress",
      "outputs": [
        {
          "internalType": "address",
          "name": "",
          "type": "address"
        }
      ],
      "stateMutability": "view",
      "type": "function"
    },
    {
      "inputs": [
        {
          "internalType": "contract ISuperfluid",
          "name": "host",
          "type": "address"
        },
        {
          "internalType": "contract ISuperfluidToken",
          "name": "superToken",
          "type": "address"
        }
      ],
      "name": "getSuperTokenMinimumDeposit",
      "outputs": [
        {
          "internalType": "uint256",
          "name": "value",
          "type": "uint256"
        }
      ],
      "stateMutability": "view",
      "type": "function"
    },
    {
      "inputs": [
        {
          "internalType": "contract ISuperfluid",
          "name": "host",
          "type": "address"
        },
        {
          "internalType": "address",
          "name": "rewardAddress",
          "type": "address"
        },
        {
          "internalType": "uint256",
          "name": "liquidationPeriod",
          "type": "uint256"
        },
        {
          "internalType": "uint256",
          "name": "patricianPeriod",
          "type": "uint256"
        },
        {
          "internalType": "address[]",
          "name": "trustedForwarders",
          "type": "address[]"
        }
      ],
      "name": "initialize",
      "outputs": [],
      "stateMutability": "nonpayable",
      "type": "function"
    },
    {
      "inputs": [
        {
          "internalType": "contract ISuperfluid",
          "name": "host",
          "type": "address"
        },
        {
          "internalType": "address",
          "name": "factory",
          "type": "address"
        }
      ],
      "name": "isAuthorizedAppFactory",
      "outputs": [
        {
          "internalType": "bool",
          "name": "",
          "type": "bool"
        }
      ],
      "stateMutability": "view",
      "type": "function"
    },
    {
      "inputs": [
        {
          "internalType": "contract ISuperfluid",
          "name": "host",
          "type": "address"
        },
        {
          "internalType": "contract ISuperfluidToken",
          "name": "superToken",
          "type": "address"
        },
        {
          "internalType": "address",
          "name": "forwarder",
          "type": "address"
        }
      ],
      "name": "isTrustedForwarder",
      "outputs": [
        {
          "internalType": "bool",
          "name": "",
          "type": "bool"
        }
      ],
      "stateMutability": "view",
      "type": "function"
    },
    {
      "inputs": [],
      "name": "owner",
      "outputs": [
        {
          "internalType": "address",
          "name": "",
          "type": "address"
        }
      ],
      "stateMutability": "view",
      "type": "function"
    },
    {
      "inputs": [
        {
          "internalType": "contract ISuperfluid",
          "name": "host",
          "type": "address"
        },
        {
          "internalType": "address",
          "name": "agreementClass",
          "type": "address"
        }
      ],
      "name": "registerAgreementClass",
      "outputs": [],
      "stateMutability": "nonpayable",
      "type": "function"
    },
    {
      "inputs": [],
      "name": "renounceOwnership",
      "outputs": [],
      "stateMutability": "nonpayable",
      "type": "function"
    },
    {
      "inputs": [
        {
          "internalType": "contract ISuperfluid",
          "name": "host",
          "type": "address"
        },
        {
          "internalType": "address",
          "name": "newGov",
          "type": "address"
        }
      ],
      "name": "replaceGovernance",
      "outputs": [],
      "stateMutability": "nonpayable",
      "type": "function"
    },
    {
      "inputs": [
        {
          "internalType": "contract ISuperfluid",
          "name": "host",
          "type": "address"
        },
        {
          "internalType": "contract ISuperfluidToken",
          "name": "superToken",
          "type": "address"
        },
        {
          "internalType": "bytes32",
          "name": "key",
          "type": "bytes32"
        },
        {
          "internalType": "address",
          "name": "value",
          "type": "address"
        }
      ],
      "name": "setConfig",
      "outputs": [],
      "stateMutability": "nonpayable",
      "type": "function"
    },
    {
      "inputs": [
        {
          "internalType": "contract ISuperfluid",
          "name": "host",
          "type": "address"
        },
        {
          "internalType": "contract ISuperfluidToken",
          "name": "superToken",
          "type": "address"
        },
        {
          "internalType": "bytes32",
          "name": "key",
          "type": "bytes32"
        },
        {
          "internalType": "uint256",
          "name": "value",
          "type": "uint256"
        }
      ],
      "name": "setConfig",
      "outputs": [],
      "stateMutability": "nonpayable",
      "type": "function"
    },
    {
      "inputs": [
        {
          "internalType": "contract ISuperfluid",
          "name": "host",
          "type": "address"
        },
        {
          "internalType": "contract ISuperfluidToken",
          "name": "superToken",
          "type": "address"
        },
        {
          "internalType": "uint256",
          "name": "liquidationPeriod",
          "type": "uint256"
        },
        {
          "internalType": "uint256",
          "name": "patricianPeriod",
          "type": "uint256"
        }
      ],
      "name": "setPPPConfig",
      "outputs": [],
      "stateMutability": "nonpayable",
      "type": "function"
    },
    {
      "inputs": [
        {
          "internalType": "contract ISuperfluid",
          "name": "host",
          "type": "address"
        },
        {
          "internalType": "contract ISuperfluidToken",
          "name": "superToken",
          "type": "address"
        },
        {
          "internalType": "address",
          "name": "rewardAddress",
          "type": "address"
        }
      ],
      "name": "setRewardAddress",
      "outputs": [],
      "stateMutability": "nonpayable",
      "type": "function"
    },
    {
      "inputs": [
        {
          "internalType": "contract ISuperfluid",
          "name": "host",
          "type": "address"
        },
        {
          "internalType": "contract ISuperfluidToken",
          "name": "superToken",
          "type": "address"
        },
        {
          "internalType": "uint256",
          "name": "value",
          "type": "uint256"
        }
      ],
      "name": "setSuperTokenMinimumDeposit",
      "outputs": [],
      "stateMutability": "nonpayable",
      "type": "function"
    },
    {
      "inputs": [
        {
          "internalType": "address",
          "name": "newOwner",
          "type": "address"
        }
      ],
      "name": "transferOwnership",
      "outputs": [],
      "stateMutability": "nonpayable",
      "type": "function"
    },
    {
      "inputs": [
        {
          "internalType": "contract ISuperfluid",
          "name": "host",
          "type": "address"
        },
        {
          "internalType": "address",
          "name": "factory",
          "type": "address"
        }
      ],
      "name": "unauthorizeAppFactory",
      "outputs": [],
      "stateMutability": "nonpayable",
      "type": "function"
    },
    {
      "inputs": [
        {
          "internalType": "contract ISuperfluid",
          "name": "host",
          "type": "address"
        },
        {
          "internalType": "address",
          "name": "hostNewLogic",
          "type": "address"
        },
        {
          "internalType": "address[]",
          "name": "agreementClassNewLogics",
          "type": "address[]"
        },
        {
          "internalType": "address",
          "name": "superTokenFactoryNewLogic",
          "type": "address"
        }
      ],
      "name": "updateContracts",
      "outputs": [],
      "stateMutability": "nonpayable",
      "type": "function"
    }
  ],
  "bytecode": {
    "object": "0x608060405234801561001057600080fd5b5061001a3361001f565b61006f565b600080546001600160a01b038381166001600160a01b0319831681178455604051919092169283917f8be0079c531659141344cd1fd0a4f28419497f9722a3daafe3b4186f6b6457e09190a35050565b6118ce8061007e6000396000f3fe608060405234801561001057600080fd5b50600436106101d95760003560e01c80637f0558e4116101045780638da5cb5b116100a2578063e447cc1d11610071578063e447cc1d1461040c578063f047a2d91461041f578063f2fde38b14610432578063f79a8e631461044557600080fd5b80638da5cb5b146103c25780638ecbd87b146103d3578063ab846f1a146103e6578063cadf8f85146103f957600080fd5b80638a7ff2f7116100de5780638a7ff2f7146103665780638abe04e9146103795780638b93b3f51461039c5780638ce93379146103af57600080fd5b80637f0558e41461032457806380f70cba146103375780638369a0f11461035857600080fd5b8063427942a41161017c578063640b6cc91161014b578063640b6cc9146102e3578063715018a6146102f657806378707cb8146102fe5780637dce4f811461031157600080fd5b8063427942a41461028257806344864b251461029557806345228235146102a85780635a907818146102d057600080fd5b806321964473116101b8578063219644731461023657806325c955c314610249578063325529081461025c57806342148deb1461026f57600080fd5b806286d555146101de57806301a06b97146101f357806319df62ab14610206575b600080fd5b6101f16101ec366004611403565b610458565b005b6101f1610201366004611449565b610573565b610219610214366004611449565b6105f2565b6040516001600160a01b0390911681526020015b60405180910390f35b6101f16102443660046114ce565b610626565b6101f1610257366004611449565b6106ef565b6101f161026a366004611561565b610703565b6101f161027d3660046115ac565b61077f565b6101f1610290366004611601565b610834565b6101f16102a3366004611449565b6109c7565b6102bb6102b6366004611449565b610a32565b6040805192835260208301919091520161022d565b6101f16102de366004611694565b610a7a565b6101f16102f1366004611794565b610b31565b6101f1610b3c565b6101f161030c3660046117d5565b610b50565b6101f161031f366004611561565b610b5c565b6101f1610332366004611794565b610bcc565b61034a610345366004611794565b610c42565b60405190815260200161022d565b610219610345366004611794565b61034a610374366004611449565b610cb3565b61038c610387366004611449565b610ce0565b604051901515815260200161022d565b6101f16103aa366004611449565b610cfb565b6101f16103bd366004611561565b610d6b565b6000546001600160a01b0316610219565b6101f16103e1366004611449565b610dca565b6101f16103f4366004611561565b610e3e565b6101f1610407366004611449565b610e9a565b6101f161041a366004611449565b610ed2565b61038c61042d366004611561565b610f46565b6101f1610440366004611828565b610f61565b6101f1610453366004611403565b610fda565b808211801561046a575063ffffffff82105b8015610479575063ffffffff81105b6104e65760405162461bcd60e51b815260206004820152603360248201527f5346476f763a20496e76616c6964206c69717569646174696f6e506572696f64604482015272081bdc881c185d1c9a58da585b94195c9a5bd9606a1b60648201526084015b60405180910390fd5b6040805160018152602081018490529081018290526001600160a01b0380851691908616907f60a59221512cd8cbfb226200f7ba6f20dc4b38a3cf04993d17ea4e56d26aa1869060600160405180910390a3602082901b811761056b85857fe420d96e81cb4a6b2abb2366c4f93312d4e2ae878a7d4b22e73472fdad891f7884610fe2565b505b50505050565b604080516000808252602082018190528183015290516001600160a01b0383811692908516917f60a59221512cd8cbfb226200f7ba6f20dc4b38a3cf04993d17ea4e56d26aa1869181900360600190a36105ee82827fe420d96e81cb4a6b2abb2366c4f93312d4e2ae878a7d4b22e73472fdad891f78611095565b5050565b600061061f83837f9f60ae461adf056670e03ae602566409933242392cb06744f5747c9f38b05d09610c42565b9392505050565b8281146106835760405162461bcd60e51b815260206004820152602560248201527f5346476f763a2061727261797320617265206e6f74207468652073616d65206c6044820152640cadccee8d60db1b60648201526084016104dd565b60005b818110156106e7576106d7868686848181106106a4576106a4611845565b90506020020160208101906106b99190611828565b8585858181106106cb576106cb611845565b90506020020135610bcc565b6106e08161185b565b9050610686565b505050505050565b6105ee8260006106fe84611156565b611095565b60408051600181526001600160a01b03838116602083015280851692908616917f14e12f219a4f9023456dc7832e10119ab768b8ccefc8cb79bc6de0419781eeeb910160405180910390a361077a83837f9f60ae461adf056670e03ae602566409933242392cb06744f5747c9f38b05d09846111e9565b505050565b826107898161129e565b60005b8281101561056b57846001600160a01b031663787afde78585848181106107b5576107b5611845565b90506020020160208101906107ca9190611828565b6040516001600160e01b031960e084901b1681526001600160a01b039091166004820152602401600060405180830381600087803b15801561080b57600080fd5b505af115801561081f573d6000803e3d6000fd5b505050508061082d9061185b565b905061078c565b8461083e8161129e565b6001600160a01b038516156108a9576040516311a5465560e21b81526001600160a01b038681166004830152871690634695195490602401600060405180830381600087803b15801561089057600080fd5b505af11580156108a4573d6000803e3d6000fd5b505050505b60005b8381101561095457866001600160a01b03166306cecba88686848181106108d5576108d5611845565b90506020020160208101906108ea9190611828565b6040516001600160e01b031960e084901b1681526001600160a01b039091166004820152602401600060405180830381600087803b15801561092b57600080fd5b505af115801561093f573d6000803e3d6000fd5b505050508061094d9061185b565b90506108ac565b506001600160a01b038216156106e7576040516354fbc49360e01b81526001600160a01b0383811660048301528716906354fbc49390602401600060405180830381600087803b1580156109a757600080fd5b505af11580156109bb573d6000803e3d6000fd5b50505050505050505050565b816109d18161129e565b604051631ca0c40360e21b81526001600160a01b038381166004830152841690637283100c906024015b600060405180830381600087803b158015610a1557600080fd5b505af1158015610a29573d6000803e3d6000fd5b50505050505050565b6000806000610a6285857fe420d96e81cb4a6b2abb2366c4f93312d4e2ae878a7d4b22e73472fdad891f78610c42565b63ffffffff602082901c811697911695509350505050565b6001600160a01b038516610a9057610a90611882565b6002546001600160a01b031615610aa957610aa9611882565b600280546001600160a01b0319166001600160a01b038716908117909155610ad390600086610703565b610ae08560008585610458565b60005b81518110156106e7576002548251610b21916001600160a01b031690600090859085908110610b1457610b14611845565b6020026020010151610e3e565b610b2a8161185b565b9050610ae3565b61077a838383611095565b610b446112d5565b610b4e600061132f565b565b61056d848484846111e9565b610b718383610b6a8461137f565b6000610fe2565b60408051600181526001600160a01b038381166020830152600092820192909252818416918516907f168da2dec91b2e06e30d49955479383e76f71ba185807a8a5b75e2ed563e1d27906060015b60405180910390a3505050565b6040805160018152602081018390526001600160a01b0380851692908616917fc055c4a3853372c08a98805545379133f00f7261d956b9197729d67f37a82a53910160405180910390a361077a83837feae305fa863b373417e615b1044222e2806cefc7788d169ce6748a443c3f6cc484610fe2565b6001600160a01b03808416600090815260016020908152604080832093861683529281528282208483529052908120805460ff16610ca757506001600160a01b0384166000908152600160209081526040808320838052825280832085845290915290205b60010154949350505050565b600061061f83837feae305fa863b373417e615b1044222e2806cefc7788d169ce6748a443c3f6cc4610c42565b6000610cf183600061034585611156565b6001149392505050565b803b80610d545760405162461bcd60e51b815260206004820152602160248201527f5346476f763a20666163746f7279206d757374206265206120636f6e747261636044820152601d60fa1b60648201526084016104dd565b506105ee826000610d6484611156565b6001610fe2565b6040805160008082526001600160a01b03848116602084015292820152818416918516907f168da2dec91b2e06e30d49955479383e76f71ba185807a8a5b75e2ed563e1d279060600160405180910390a361077a83836106fe8461137f565b60408051600080825260208201526001600160a01b0380841692908516917fc055c4a3853372c08a98805545379133f00f7261d956b9197729d67f37a82a53910160405180910390a36105ee82827feae305fa863b373417e615b1044222e2806cefc7788d169ce6748a443c3f6cc4611095565b610e4c8383610d648461137f565b6040805160018082526001600160a01b03848116602084015292820152818416918516907f168da2dec91b2e06e30d49955479383e76f71ba185807a8a5b75e2ed563e1d2790606001610bbf565b81610ea48161129e565b6040516315a024e160e01b81526001600160a01b0383811660048301528416906315a024e1906024016109fb565b60408051600080825260208201526001600160a01b0380841692908516917f14e12f219a4f9023456dc7832e10119ab768b8ccefc8cb79bc6de0419781eeeb910160405180910390a36105ee82827f9f60ae461adf056670e03ae602566409933242392cb06744f5747c9f38b05d09611095565b6000610f5684846103458561137f565b600114949350505050565b610f696112d5565b6001600160a01b038116610fce5760405162461bcd60e51b815260206004820152602660248201527f4f776e61626c653a206e6577206f776e657220697320746865207a65726f206160448201526564647265737360d01b60648201526084016104dd565b610fd78161132f565b50565b61056d848484845b83610fec8161129e565b60408051848152600160208201529081018390526001600160a01b0380861691908716907f33afe19ae6902b933890ff48190fabdc4cf7f5ab499be9c4d9d98e3b4562e3909060600160405180910390a350604080518082018252600180825260208083019485526001600160a01b039788166000908152828252848120979098168852958652828720948752939094529093209151825460ff19169015151782559151910155565b8261109f8161129e565b826001600160a01b0316846001600160a01b03167f33afe19ae6902b933890ff48190fabdc4cf7f5ab499be9c4d9d98e3b4562e390846000806040516110f8939291909283529015156020830152604082015260600190565b60405180910390a350604080518082018252600080825260208083018281526001600160a01b03978816835260018083528584209790981683529581528382209482529390935291209051815460ff19169015151781559051910155565b6040805160208101829052603960608201527f6f72672e7375706572666c7569642d66696e616e63652e7375706572666c756960808201527f642e61707057686974654c697374696e672e666163746f72790000000000000060a08201526001600160a01b0383169181019190915260009060c0015b604051602081830303815290604052805190602001209050919050565b836111f38161129e565b60408051848152600160208201526001600160a01b03848116828401529151868316928816917f33afe19ae6902b933890ff48190fabdc4cf7f5ab499be9c4d9d98e3b4562e390919081900360600190a35060408051808201825260018082526001600160a01b03938416602080840191825297851660009081528289528481209790951685529587528284209484529390955290209251835460ff19169015151783559051910155565b6002546001600160a01b038281169116146112bb576112bb611882565b6000546001600160a01b03163314610fd757610fd7611882565b6000546001600160a01b03163314610b4e5760405162461bcd60e51b815260206004820181905260248201527f4f776e61626c653a2063616c6c6572206973206e6f7420746865206f776e657260448201526064016104dd565b600080546001600160a01b038381166001600160a01b0319831681178455604051919092169283917f8be0079c531659141344cd1fd0a4f28419497f9722a3daafe3b4186f6b6457e09190a35050565b6040805160208101829052603260608201527f6f72672e7375706572666c7569642d66696e616e63652e7375706572666c756960808201527132173a393ab9ba32b22337b93bb0b93232b960711b60a08201526001600160a01b0383169181019190915260009060c0016111cc565b6001600160a01b0381168114610fd757600080fd5b6000806000806080858703121561141957600080fd5b8435611424816113ee565b93506020850135611434816113ee565b93969395505050506040820135916060013590565b6000806040838503121561145c57600080fd5b8235611467816113ee565b91506020830135611477816113ee565b809150509250929050565b60008083601f84011261149457600080fd5b50813567ffffffffffffffff8111156114ac57600080fd5b6020830191508360208260051b85010111156114c757600080fd5b9250929050565b6000806000806000606086880312156114e657600080fd5b85356114f1816113ee565b9450602086013567ffffffffffffffff8082111561150e57600080fd5b61151a89838a01611482565b9096509450604088013591508082111561153357600080fd5b5061154088828901611482565b969995985093965092949392505050565b803561155c816113ee565b919050565b60008060006060848603121561157657600080fd5b8335611581816113ee565b92506020840135611591816113ee565b915060408401356115a1816113ee565b809150509250925092565b6000806000604084860312156115c157600080fd5b83356115cc816113ee565b9250602084013567ffffffffffffffff8111156115e857600080fd5b6115f486828701611482565b9497909650939450505050565b60008060008060006080868803121561161957600080fd5b8535611624816113ee565b94506020860135611634816113ee565b9350604086013567ffffffffffffffff81111561165057600080fd5b61165c88828901611482565b9094509250506060860135611670816113ee565b809150509295509295909350565b634e487b7160e01b600052604160045260246000fd5b600080600080600060a086880312156116ac57600080fd5b85356116b7816113ee565b94506020868101356116c8816113ee565b94506040870135935060608701359250608087013567ffffffffffffffff808211156116f357600080fd5b818901915089601f83011261170757600080fd5b8135818111156117195761171961167e565b8060051b604051601f19603f8301168101818110858211171561173e5761173e61167e565b60405291825284820192508381018501918c83111561175c57600080fd5b938501935b828510156117815761177285611551565b84529385019392850192611761565b8096505050505050509295509295909350565b6000806000606084860312156117a957600080fd5b83356117b4816113ee565b925060208401356117c4816113ee565b929592945050506040919091013590565b600080600080608085870312156117eb57600080fd5b84356117f6816113ee565b93506020850135611806816113ee565b925060408501359150606085013561181d816113ee565b939692955090935050565b60006020828403121561183a57600080fd5b813561061f816113ee565b634e487b7160e01b600052603260045260246000fd5b60006001820161187b57634e487b7160e01b600052601160045260246000fd5b5060010190565b634e487b7160e01b600052600160045260246000fdfea26469706673582212202e538a007c2842cbb8f6f38c12bb90275fd2e7b211998d09796977c5a9af9c3964736f6c634300080e0033",
    "linkReferences": {}
  },
  "methodIdentifiers": {
    "authorizeAppFactory(address,address)": "8b93b3f5",
    "batchUpdateSuperTokenLogic(address,address[])": "42148deb",
    "batchUpdateSuperTokenMinimumDeposit(address,address[],uint256[])": "21964473",
    "clearConfig(address,address,bytes32)": "640b6cc9",
    "clearPPPConfig(address,address)": "01a06b97",
    "clearRewardAddress(address,address)": "e447cc1d",
    "clearSuperTokenMinimumDeposit(address,address)": "8ecbd87b",
    "clearTrustedForwarder(address,address,address)": "8ce93379",
    "disableTrustedForwarder(address,address,address)": "7dce4f81",
    "enableTrustedForwarder(address,address,address)": "ab846f1a",
    "getConfigAsAddress(address,address,bytes32)": "8369a0f1",
    "getConfigAsUint256(address,address,bytes32)": "80f70cba",
    "getPPPConfig(address,address)": "45228235",
    "getRewardAddress(address,address)": "19df62ab",
    "getSuperTokenMinimumDeposit(address,address)": "8a7ff2f7",
    "initialize(address,address,uint256,uint256,address[])": "5a907818",
    "isAuthorizedAppFactory(address,address)": "8abe04e9",
    "isTrustedForwarder(address,address,address)": "f047a2d9",
    "owner()": "8da5cb5b",
    "registerAgreementClass(address,address)": "cadf8f85",
    "renounceOwnership()": "715018a6",
    "replaceGovernance(address,address)": "44864b25",
    "setConfig(address,address,bytes32,address)": "78707cb8",
    "setConfig(address,address,bytes32,uint256)": "f79a8e63",
    "setPPPConfig(address,address,uint256,uint256)": "0086d555",
    "setRewardAddress(address,address,address)": "32552908",
    "setSuperTokenMinimumDeposit(address,address,uint256)": "7f0558e4",
    "transferOwnership(address)": "f2fde38b",
    "unauthorizeAppFactory(address,address)": "25c955c3",
    "updateContracts(address,address,address[],address)": "427942a4"
  },
  "id": 76
}