{
  "abi": [
    {
      "anonymous": false,
      "inputs": [
        {
          "indexed": true,
          "internalType": "address",
          "name": "agreementClass",
          "type": "address"
        },
        {
          "indexed": false,
          "internalType": "bytes32",
          "name": "id",
          "type": "bytes32"
        },
        {
          "indexed": false,
          "internalType": "bytes32[]",
          "name": "data",
          "type": "bytes32[]"
        }
      ],
      "name": "AgreementUpdated",
      "type": "event"
    },
    {
      "stateMutability": "payable",
      "type": "fallback"
    },
    {
      "inputs": [
        {
          "internalType": "string",
          "name": "name",
          "type": "string"
        },
        {
          "internalType": "string",
          "name": "symbol",
          "type": "string"
        }
      ],
      "name": "initialize",
      "outputs": [],
      "stateMutability": "nonpayable",
      "type": "function"
    },
    {
      "inputs": [
        {
          "internalType": "address",
          "name": "initialAddress",
          "type": "address"
        }
      ],
      "name": "initializeProxy",
      "outputs": [],
      "stateMutability": "nonpayable",
      "type": "function"
    },
    {
      "inputs": [
        {
          "internalType": "address",
          "name": "sender",
          "type": "address"
        },
        {
          "internalType": "address",
          "name": "receiver",
          "type": "address"
        }
      ],
      "name": "setPoisonFlowId",
      "outputs": [],
      "stateMutability": "nonpayable",
      "type": "function"
    },
    {
      "inputs": [
        {
          "internalType": "bytes32",
          "name": "id",
          "type": "bytes32"
        },
        {
          "internalType": "bytes32[]",
          "name": "data",
          "type": "bytes32[]"
        }
      ],
      "name": "updateAgreementData",
      "outputs": [],
      "stateMutability": "nonpayable",
      "type": "function"
    },
    {
      "stateMutability": "payable",
      "type": "receive"
    }
  ],
  "bytecode": {
    "object": "0x608060405234801561001057600080fd5b5061085c806100206000396000f3fe6080604052600436106100435760003560e01c80634a0687ef1461005a5780634cd88b761461007a578063a1b2bf8b1461009a578063f4dd6e14146100ba57610052565b3661005257610050610113565b005b610050610113565b34801561006657600080fd5b50610050610075366004610539565b610125565b34801561008657600080fd5b506100506100953660046105a4565b61022b565b3480156100a657600080fd5b506100506100b5366004610610565b6102ff565b3480156100c657600080fd5b506100506100d536600461068f565b604080516001600160a01b03808516602083015283169181019190915260600160408051601f19818403018152919052805160209182012090555050565b61012361011e610419565b610448565b565b6001600160a01b0381166101805760405162461bcd60e51b815260206004820152601760248201527f5555505350726f78793a207a65726f206164647265737300000000000000000060448201526064015b60405180910390fd5b60006101aa7f360894a13ba1a3210667c828492db98dca3e2076cc3735a920a3ca505d382bbc5490565b6001600160a01b0316146102005760405162461bcd60e51b815260206004820152601e60248201527f5555505350726f78793a20616c726561647920696e697469616c697a656400006044820152606401610177565b610228817f360894a13ba1a3210667c828492db98dca3e2076cc3735a920a3ca505d382bbc55565b50565b6040516285fc1360e71b815230906342fe0980906102599060009060129089908990899089906004016106eb565b600060405180830381600087803b15801561027357600080fd5b505af1158015610287573d6000803e3d6000fd5b50506040805160008152602081019182905263c68d428360e01b90915230925063c68d428391506102c7903390670de0b6b3a76400009060248101610739565b600060405180830381600087803b1580156102e157600080fd5b505af11580156102f5573d6000803e3d6000fd5b5050505050505050565b61033c8383838080602002602001604051908101604052809392919081815260200183836020028082843760009201919091525061047192505050565b60408051606060208201819052600d60808301526c41677265656d656e744461746160981b60a083015233928201839052810185905260009060c0016040516020818303038152906040528051906020012090506103cd818585808060200260200160405190810160405280939291908181526020018383602002808284376000920191909152506104dc92505050565b336001600160a01b03167f0c4c547b3a4fcaa5be8353b3111472b124155bccc86de811d4a481c9e6e9faca86868660405161040a939291906107a5565b60405180910390a25050505050565b60006104437f360894a13ba1a3210667c828492db98dca3e2076cc3735a920a3ca505d382bbc5490565b905090565b3660008037600080366000845af43d6000803e808015610467573d6000f35b3d6000fd5b505050565b6020548214801561049e57506000801b81600081518110610494576104946107e9565b6020026020010151145b156104d85760405162461bcd60e51b815260206004820152600a60248201526919dbc81d1bc81a985a5b60b21b6044820152606401610177565b5050565b60005b815181101561046c5760008282815181106104fc576104fc6107e9565b6020026020010151905080828501555080610516906107ff565b90506104df565b80356001600160a01b038116811461053457600080fd5b919050565b60006020828403121561054b57600080fd5b6105548261051d565b9392505050565b60008083601f84011261056d57600080fd5b50813567ffffffffffffffff81111561058557600080fd5b60208301915083602082850101111561059d57600080fd5b9250929050565b600080600080604085870312156105ba57600080fd5b843567ffffffffffffffff808211156105d257600080fd5b6105de8883890161055b565b909650945060208701359150808211156105f757600080fd5b506106048782880161055b565b95989497509550505050565b60008060006040848603121561062557600080fd5b83359250602084013567ffffffffffffffff8082111561064457600080fd5b818601915086601f83011261065857600080fd5b81358181111561066757600080fd5b8760208260051b850101111561067c57600080fd5b6020830194508093505050509250925092565b600080604083850312156106a257600080fd5b6106ab8361051d565b91506106b96020840161051d565b90509250929050565b81835281816020850137506000828201602090810191909152601f909101601f19169091010190565b6001600160a01b038716815260ff8616602082015260806040820181905260009061071990830186886106c2565b828103606084015261072c8185876106c2565b9998505050505050505050565b60018060a01b038416815260006020848184015260606040840152835180606085015260005b8181101561077b5785810183015185820160800152820161075f565b8181111561078d576000608083870101525b50601f01601f19169290920160800195945050505050565b838152604060208201819052810182905260006001600160fb1b038311156107cc57600080fd5b8260051b8085606085013760009201606001918252509392505050565b634e487b7160e01b600052603260045260246000fd5b60006001820161081f57634e487b7160e01b600052601160045260246000fd5b506001019056fea2646970667358221220a2363cdd07286730489ec7dd18bf1108a821cbbf6c6c62d8f4c065ad67cd92cf64736f6c634300080e0033",
    "linkReferences": {}
  },
  "methodIdentifiers": {
    "initialize(string,string)": "4cd88b76",
    "initializeProxy(address)": "4a0687ef",
    "setPoisonFlowId(address,address)": "f4dd6e14",
    "updateAgreementData(bytes32,bytes32[])": "a1b2bf8b"
  },
  "id": 3
}