{
  "abi": [
    {
      "inputs": [
        {
          "internalType": "contract ISuperfluid",
          "name": "host",
          "type": "address"
        },
        {
          "internalType": "string",
          "name": "registrationKey",
          "type": "string"
        }
      ],
      "stateMutability": "nonpayable",
      "type": "constructor"
    },
    {
      "inputs": [],
      "name": "INVALIDTRANSFER",
      "type": "error"
    },
    {
      "anonymous": false,
      "inputs": [
        {
          "indexed": true,
          "internalType": "address",
          "name": "owner",
          "type": "address"
        },
        {
          "indexed": true,
          "internalType": "address",
          "name": "approved",
          "type": "address"
        },
        {
          "indexed": true,
          "internalType": "uint256",
          "name": "tokenId",
          "type": "uint256"
        }
      ],
      "name": "Approval",
      "type": "event"
    },
    {
      "anonymous": false,
      "inputs": [
        {
          "indexed": true,
          "internalType": "address",
          "name": "owner",
          "type": "address"
        },
        {
          "indexed": true,
          "internalType": "address",
          "name": "operator",
          "type": "address"
        },
        {
          "indexed": false,
          "internalType": "bool",
          "name": "approved",
          "type": "bool"
        }
      ],
      "name": "ApprovalForAll",
      "type": "event"
    },
    {
      "anonymous": false,
      "inputs": [
        {
          "indexed": true,
          "internalType": "address",
          "name": "previousOwner",
          "type": "address"
        },
        {
          "indexed": true,
          "internalType": "address",
          "name": "newOwner",
          "type": "address"
        }
      ],
      "name": "OwnershipTransferred",
      "type": "event"
    },
    {
      "anonymous": false,
      "inputs": [
        {
          "indexed": false,
          "internalType": "uint256",
          "name": "id",
          "type": "uint256"
        },
        {
          "indexed": false,
          "internalType": "address",
          "name": "holder",
          "type": "address"
        }
      ],
      "name": "Revealed",
      "type": "event"
    },
    {
      "anonymous": false,
      "inputs": [
        {
          "indexed": false,
          "internalType": "uint256",
          "name": "id",
          "type": "uint256"
        },
        {
          "indexed": false,
          "internalType": "address",
          "name": "holder",
          "type": "address"
        },
        {
          "indexed": false,
          "internalType": "uint256",
          "name": "duration",
          "type": "uint256"
        }
      ],
      "name": "Stopped",
      "type": "event"
    },
    {
      "anonymous": false,
      "inputs": [
        {
          "indexed": true,
          "internalType": "address",
          "name": "from",
          "type": "address"
        },
        {
          "indexed": true,
          "internalType": "address",
          "name": "to",
          "type": "address"
        },
        {
          "indexed": true,
          "internalType": "uint256",
          "name": "tokenId",
          "type": "uint256"
        }
      ],
      "name": "Transfer",
      "type": "event"
    },
    {
      "inputs": [],
      "name": "CFA_ID",
      "outputs": [
        {
          "internalType": "bytes32",
          "name": "",
          "type": "bytes32"
        }
      ],
      "stateMutability": "view",
      "type": "function"
    },
    {
      "inputs": [
        {
          "internalType": "uint256",
          "name": "tokenId",
          "type": "uint256"
        }
      ],
      "name": "_getColor",
      "outputs": [
        {
          "internalType": "uint256",
          "name": "",
          "type": "uint256"
        }
      ],
      "stateMutability": "nonpayable",
      "type": "function"
    },
    {
      "inputs": [
        {
          "internalType": "uint256",
          "name": "tokenId",
          "type": "uint256"
        }
      ],
      "name": "_getRarity",
      "outputs": [
        {
          "internalType": "uint256",
          "name": "",
          "type": "uint256"
        }
      ],
      "stateMutability": "view",
      "type": "function"
    },
    {
      "inputs": [
        {
          "internalType": "contract ISuperToken",
          "name": "",
          "type": "address"
        }
      ],
      "name": "acceptedToken",
      "outputs": [
        {
          "internalType": "bool",
          "name": "",
          "type": "bool"
        }
      ],
      "stateMutability": "view",
      "type": "function"
    },
    {
      "inputs": [
        {
          "internalType": "contract ISuperToken",
          "name": "_superToken",
          "type": "address"
        },
        {
          "internalType": "address",
          "name": "_agreementClass",
          "type": "address"
        },
        {
          "internalType": "bytes32",
          "name": "",
          "type": "bytes32"
        },
        {
          "internalType": "bytes",
          "name": "_agreementData",
          "type": "bytes"
        },
        {
          "internalType": "bytes",
          "name": "",
          "type": "bytes"
        },
        {
          "internalType": "bytes",
          "name": "_ctx",
          "type": "bytes"
        }
      ],
      "name": "afterAgreementCreated",
      "outputs": [
        {
          "internalType": "bytes",
          "name": "newCtx",
          "type": "bytes"
        }
      ],
      "stateMutability": "nonpayable",
      "type": "function"
    },
    {
      "inputs": [
        {
          "internalType": "contract ISuperToken",
          "name": "_superToken",
          "type": "address"
        },
        {
          "internalType": "address",
          "name": "_agreementClass",
          "type": "address"
        },
        {
          "internalType": "bytes32",
          "name": "",
          "type": "bytes32"
        },
        {
          "internalType": "bytes",
          "name": "_agreementData",
          "type": "bytes"
        },
        {
          "internalType": "bytes",
          "name": "",
          "type": "bytes"
        },
        {
          "internalType": "bytes",
          "name": "_ctx",
          "type": "bytes"
        }
      ],
      "name": "afterAgreementTerminated",
      "outputs": [
        {
          "internalType": "bytes",
          "name": "newCtx",
          "type": "bytes"
        }
      ],
      "stateMutability": "nonpayable",
      "type": "function"
    },
    {
      "inputs": [
        {
          "internalType": "contract ISuperToken",
          "name": "_superToken",
          "type": "address"
        },
        {
          "internalType": "address",
          "name": "_agreementClass",
          "type": "address"
        },
        {
          "internalType": "bytes32",
          "name": "",
          "type": "bytes32"
        },
        {
          "internalType": "bytes",
          "name": "_agreementData",
          "type": "bytes"
        },
        {
          "internalType": "bytes",
          "name": "",
          "type": "bytes"
        },
        {
          "internalType": "bytes",
          "name": "_ctx",
          "type": "bytes"
        }
      ],
      "name": "afterAgreementUpdated",
      "outputs": [
        {
          "internalType": "bytes",
          "name": "newCtx",
          "type": "bytes"
        }
      ],
      "stateMutability": "nonpayable",
      "type": "function"
    },
    {
      "inputs": [
        {
          "internalType": "address",
          "name": "to",
          "type": "address"
        },
        {
          "internalType": "uint256",
          "name": "tokenId",
          "type": "uint256"
        }
      ],
      "name": "approve",
      "outputs": [],
      "stateMutability": "nonpayable",
      "type": "function"
    },
    {
      "inputs": [
        {
          "internalType": "address",
          "name": "owner",
          "type": "address"
        }
      ],
      "name": "balanceOf",
      "outputs": [
        {
          "internalType": "uint256",
          "name": "",
          "type": "uint256"
        }
      ],
      "stateMutability": "view",
      "type": "function"
    },
    {
      "inputs": [],
      "name": "baseUrl",
      "outputs": [
        {
          "internalType": "string",
          "name": "",
          "type": "string"
        }
      ],
      "stateMutability": "view",
      "type": "function"
    },
    {
      "inputs": [],
      "name": "cfaV1Lib",
      "outputs": [
        {
          "internalType": "contract ISuperfluid",
          "name": "host",
          "type": "address"
        },
        {
          "internalType": "contract IConstantFlowAgreementV1",
          "name": "cfa",
          "type": "address"
        }
      ],
      "stateMutability": "view",
      "type": "function"
    },
    {
      "inputs": [
        {
          "internalType": "address[]",
          "name": "streamers",
          "type": "address[]"
        },
        {
          "internalType": "contract ISuperToken[]",
          "name": "supertoken",
          "type": "address[]"
        }
      ],
      "name": "emergencyCloseStream",
      "outputs": [],
      "stateMutability": "nonpayable",
      "type": "function"
    },
    {
      "inputs": [
        {
          "internalType": "address",
          "name": "",
          "type": "address"
        }
      ],
      "name": "flowRates",
      "outputs": [
        {
          "internalType": "int96",
          "name": "",
          "type": "int96"
        }
      ],
      "stateMutability": "view",
      "type": "function"
    },
    {
      "inputs": [
        {
          "internalType": "uint256",
          "name": "tokenId",
          "type": "uint256"
        }
      ],
      "name": "getApproved",
      "outputs": [
        {
          "internalType": "address",
          "name": "",
          "type": "address"
        }
      ],
      "stateMutability": "view",
      "type": "function"
    },
    {
      "inputs": [
        {
          "internalType": "address",
          "name": "owner",
          "type": "address"
        },
        {
          "internalType": "address",
          "name": "operator",
          "type": "address"
        }
      ],
      "name": "isApprovedForAll",
      "outputs": [
        {
          "internalType": "bool",
          "name": "",
          "type": "bool"
        }
      ],
      "stateMutability": "view",
      "type": "function"
    },
    {
      "inputs": [],
      "name": "locked",
      "outputs": [
        {
          "internalType": "bool",
          "name": "",
          "type": "bool"
        }
      ],
      "stateMutability": "view",
      "type": "function"
    },
    {
      "inputs": [],
      "name": "name",
      "outputs": [
        {
          "internalType": "string",
          "name": "",
          "type": "string"
        }
      ],
      "stateMutability": "view",
      "type": "function"
    },
    {
      "inputs": [],
      "name": "owner",
      "outputs": [
        {
          "internalType": "address",
          "name": "",
          "type": "address"
        }
      ],
      "stateMutability": "view",
      "type": "function"
    },
    {
      "inputs": [
        {
          "internalType": "uint256",
          "name": "tokenId",
          "type": "uint256"
        }
      ],
      "name": "ownerOf",
      "outputs": [
        {
          "internalType": "address",
          "name": "",
          "type": "address"
        }
      ],
      "stateMutability": "view",
      "type": "function"
    },
    {
      "inputs": [],
      "name": "rainbowMinted",
      "outputs": [
        {
          "internalType": "bool",
          "name": "",
          "type": "bool"
        }
      ],
      "stateMutability": "view",
      "type": "function"
    },
    {
      "inputs": [
        {
          "internalType": "uint256",
          "name": "",
          "type": "uint256"
        }
      ],
      "name": "rarityArray",
      "outputs": [
        {
          "internalType": "uint256",
          "name": "",
          "type": "uint256"
        }
      ],
      "stateMutability": "view",
      "type": "function"
    },
    {
      "inputs": [],
      "name": "renounceOwnership",
      "outputs": [],
      "stateMutability": "nonpayable",
      "type": "function"
    },
    {
      "inputs": [
        {
          "internalType": "uint256",
          "name": "id",
          "type": "uint256"
        }
      ],
      "name": "reveal",
      "outputs": [],
      "stateMutability": "nonpayable",
      "type": "function"
    },
    {
      "inputs": [],
      "name": "revealDuration",
      "outputs": [
        {
          "internalType": "uint256",
          "name": "",
          "type": "uint256"
        }
      ],
      "stateMutability": "view",
      "type": "function"
    },
    {
      "inputs": [
        {
          "internalType": "address",
          "name": "from",
          "type": "address"
        },
        {
          "internalType": "address",
          "name": "to",
          "type": "address"
        },
        {
          "internalType": "uint256",
          "name": "tokenId",
          "type": "uint256"
        }
      ],
      "name": "safeTransferFrom",
      "outputs": [],
      "stateMutability": "nonpayable",
      "type": "function"
    },
    {
      "inputs": [
        {
          "internalType": "address",
          "name": "from",
          "type": "address"
        },
        {
          "internalType": "address",
          "name": "to",
          "type": "address"
        },
        {
          "internalType": "uint256",
          "name": "tokenId",
          "type": "uint256"
        },
        {
          "internalType": "bytes",
          "name": "data",
          "type": "bytes"
        }
      ],
      "name": "safeTransferFrom",
      "outputs": [],
      "stateMutability": "nonpayable",
      "type": "function"
    },
    {
      "inputs": [
        {
          "internalType": "contract ISuperToken[]",
          "name": "tokens",
          "type": "address[]"
        },
        {
          "internalType": "bool[]",
          "name": "allowed",
          "type": "bool[]"
        }
      ],
      "name": "setAllowListBatch",
      "outputs": [],
      "stateMutability": "nonpayable",
      "type": "function"
    },
    {
      "inputs": [
        {
          "internalType": "address",
          "name": "operator",
          "type": "address"
        },
        {
          "internalType": "bool",
          "name": "approved",
          "type": "bool"
        }
      ],
      "name": "setApprovalForAll",
      "outputs": [],
      "stateMutability": "nonpayable",
      "type": "function"
    },
    {
      "inputs": [
        {
          "internalType": "string",
          "name": "newBaseUrl",
          "type": "string"
        }
      ],
      "name": "setBaseURL",
      "outputs": [],
      "stateMutability": "nonpayable",
      "type": "function"
    },
    {
      "inputs": [
        {
          "internalType": "bool",
          "name": "lockStatus",
          "type": "bool"
        }
      ],
      "name": "setLock",
      "outputs": [],
      "stateMutability": "nonpayable",
      "type": "function"
    },
    {
      "inputs": [
        {
          "internalType": "uint256[6]",
          "name": "_rarityArray",
          "type": "uint256[6]"
        }
      ],
      "name": "setRarity",
      "outputs": [],
      "stateMutability": "nonpayable",
      "type": "function"
    },
    {
      "inputs": [
        {
          "internalType": "uint256",
          "name": "_revealDuration",
          "type": "uint256"
        }
      ],
      "name": "setRevealDuration",
      "outputs": [],
      "stateMutability": "nonpayable",
      "type": "function"
    },
    {
      "inputs": [
        {
          "internalType": "bytes4",
          "name": "interfaceId",
          "type": "bytes4"
        }
      ],
      "name": "supportsInterface",
      "outputs": [
        {
          "internalType": "bool",
          "name": "",
          "type": "bool"
        }
      ],
      "stateMutability": "view",
      "type": "function"
    },
    {
      "inputs": [],
      "name": "symbol",
      "outputs": [
        {
          "internalType": "string",
          "name": "",
          "type": "string"
        }
      ],
      "stateMutability": "view",
      "type": "function"
    },
    {
      "inputs": [],
      "name": "tokenId",
      "outputs": [
        {
          "internalType": "uint256",
          "name": "",
          "type": "uint256"
        }
      ],
      "stateMutability": "view",
      "type": "function"
    },
    {
      "inputs": [
        {
          "internalType": "uint256",
          "name": "id",
          "type": "uint256"
        }
      ],
      "name": "tokenURI",
      "outputs": [
        {
          "internalType": "string",
          "name": "",
          "type": "string"
        }
      ],
      "stateMutability": "view",
      "type": "function"
    },
    {
      "inputs": [
        {
          "internalType": "address",
          "name": "from",
          "type": "address"
        },
        {
          "internalType": "address",
          "name": "to",
          "type": "address"
        },
        {
          "internalType": "uint256",
          "name": "tokenId",
          "type": "uint256"
        }
      ],
      "name": "transferFrom",
      "outputs": [],
      "stateMutability": "nonpayable",
      "type": "function"
    },
    {
      "inputs": [
        {
          "internalType": "address",
          "name": "newOwner",
          "type": "address"
        }
      ],
      "name": "transferOwnership",
      "outputs": [],
      "stateMutability": "nonpayable",
      "type": "function"
    }
  ],
  "bytecode": {
    "object": "0x60806040523480156200001157600080fd5b5060405162003799380380620037998339810160408190526200003491620003e7565b604051806040016040528060098152602001684d4f4f4e53544f4e4560b81b8152506040518060400160405280601481526020017f4d7973746572696f7573204d6f6f6e73746f6e65000000000000000000000000815250620000a6620000a06200028b60201b60201c565b6200028f565b8151620000bb906001906020850190620002df565b508051620000d1906002906020840190620002df565b50506040805180820182526001600160a01b0385168082529151635b69006f60e11b81527fa9214cc96615e0085d3bb077758db69497dc2dce3b2b1e97bc93c3d18d83efd3600482015290925060208301919063b6d200de90602401602060405180830381865afa1580156200014b573d6000803e3d6000fd5b505050506040513d601f19601f82011682018060405250810190620001719190620004b7565b6001600160a01b039081169091528151600780546001600160a01b0319908116928416929092179055602090920151600880549093169116179055805164150000000190156200021d576040516315a722b960e31b8152600481018290526001600160a01b0384169063ad3915c890602401600060405180830381600087803b158015620001fe57600080fd5b505af115801562000213573d6000803e3d6000fd5b5050505062000282565b60405163bd1c448b60e01b81526001600160a01b0384169063bd1c448b906200024d9084908690600401620004de565b600060405180830381600087803b1580156200026857600080fd5b505af11580156200027d573d6000803e3d6000fd5b505050505b50505062000556565b3390565b600080546001600160a01b038381166001600160a01b0319831681178455604051919092169283917f8be0079c531659141344cd1fd0a4f28419497f9722a3daafe3b4186f6b6457e09190a35050565b828054620002ed906200051a565b90600052602060002090601f0160209004810192826200031157600085556200035c565b82601f106200032c57805160ff19168380011785556200035c565b828001600101855582156200035c579182015b828111156200035c5782518255916020019190600101906200033f565b506200036a9291506200036e565b5090565b5b808211156200036a57600081556001016200036f565b6001600160a01b03811681146200039b57600080fd5b50565b634e487b7160e01b600052604160045260246000fd5b60005b83811015620003d1578181015183820152602001620003b7565b83811115620003e1576000848401525b50505050565b60008060408385031215620003fb57600080fd5b8251620004088162000385565b60208401519092506001600160401b03808211156200042657600080fd5b818501915085601f8301126200043b57600080fd5b8151818111156200045057620004506200039e565b604051601f8201601f19908116603f011681019083821181831017156200047b576200047b6200039e565b816040528281528860208487010111156200049557600080fd5b620004a8836020830160208801620003b4565b80955050505050509250929050565b600060208284031215620004ca57600080fd5b8151620004d78162000385565b9392505050565b828152604060208201526000825180604084015262000505816060850160208701620003b4565b601f01601f1916919091016060019392505050565b600181811c908216806200052f57607f821691505b6020821081036200055057634e487b7160e01b600052602260045260246000fd5b50919050565b61323380620005666000396000f3fe608060405234801561001057600080fd5b50600436106102325760003560e01c80635bcabf0411610130578063a22cb465116100b8578063d572c38f1161007c578063d572c38f14610514578063d86ed3e514610527578063e985e9c51461053a578063f0825ccf14610576578063f2fde38b1461058957600080fd5b8063a22cb465146104bb578063b88d4fde146104ce578063c2ca0ac5146104e1578063c87b56dd146104f4578063cf3090121461050757600080fd5b8063715018a6116100ff578063715018a61461045b5780637584fa1c14610463578063886a6de1146104995780638da5cb5b146104a257806395d89b41146104b357600080fd5b80635bcabf041461041a578063619d5194146104225780636352211e1461043557806370a082311461044857600080fd5b806323b872dd116101be57806342842e0e1161018257806342842e0e1461038457806349f2553a1461039757806353c11f99146103aa57806355586a31146103bd57806355f5e7de146103f757600080fd5b806323b872dd1461032b5780632491d53a1461033e57806330b990f51461035157806334cf3def146103645780633b7662141461037757600080fd5b806317d70f7c1161020557806317d70f7c146102b45780631aad5bc2146102cb578063215eed02146102de57806321ccc6ba14610305578063230dbd291461031857600080fd5b806301ffc9a71461023757806306fdde031461025f578063081812fc14610274578063095ea7b31461029f575b600080fd5b61024a610245366004612583565b61059c565b60405190151581526020015b60405180910390f35b6102676105ee565b60405161025691906125f8565b61028761028236600461260b565b610680565b6040516001600160a01b039091168152602001610256565b6102b26102ad366004612639565b6106a7565b005b6102bd60155481565b604051908152602001610256565b6102bd6102d936600461260b565b6107c1565b6102bd7fa9214cc96615e0085d3bb077758db69497dc2dce3b2b1e97bc93c3d18d83efd381565b6102bd61031336600461260b565b610882565b6102676103263660046126ad565b610899565b6102b2610339366004612777565b610aa9565b6102b261034c3660046127fc565b610ada565b6102b261035f36600461260b565b610bbb565b6102b2610372366004612944565b610bc8565b60175461024a9060ff1681565b6102b2610392366004612777565b610e2a565b6102b26103a5366004612a05565b610e45565b6102676103b83660046126ad565b610e59565b6007546008546103d7916001600160a01b03908116911682565b604080516001600160a01b03938416815292909116602083015201610256565b61024a610405366004612a46565b60096020526000908152604090205460ff1681565b6102676110db565b6102b2610430366004612a78565b611169565b61028761044336600461260b565b611184565b6102bd610456366004612a46565b6111e4565b6102b261126a565b610486610471366004612a46565b600a60205260009081526040902054600b0b81565b604051600b9190910b8152602001610256565b6102bd600e5481565b6000546001600160a01b0316610287565b61026761127e565b6102b26104c9366004612a93565b61128d565b6102b26104dc366004612aef565b61129c565b6102b26104ef36600461260b565b6112d4565b61026761050236600461260b565b6113e5565b600b5461024a9060ff1681565b6102bd61052236600461260b565b6114d7565b6102676105353660046126ad565b611592565b61024a610548366004612b98565b6001600160a01b03918216600090815260066020908152604080832093909416825291909152205460ff1690565b6102b2610584366004612bd1565b6117e5565b6102b2610597366004612a46565b6117fa565b60006001600160e01b031982166380ac58cd60e01b14806105cd57506001600160e01b03198216635b5e139f60e01b145b806105e857506301ffc9a760e01b6001600160e01b03198316145b92915050565b6060600180546105fd90612c4e565b80601f016020809104026020016040519081016040528092919081815260200182805461062990612c4e565b80156106765780601f1061064b57610100808354040283529160200191610676565b820191906000526020600020905b81548152906001019060200180831161065957829003601f168201915b5050505050905090565b600061068b82611873565b506000908152600560205260409020546001600160a01b031690565b60006106b282611184565b9050806001600160a01b0316836001600160a01b0316036107245760405162461bcd60e51b815260206004820152602160248201527f4552433732313a20617070726f76616c20746f2063757272656e74206f776e656044820152603960f91b60648201526084015b60405180910390fd5b336001600160a01b038216148061074057506107408133610548565b6107b25760405162461bcd60e51b815260206004820152603e60248201527f4552433732313a20617070726f76652063616c6c6572206973206e6f7420746f60448201527f6b656e206f776e6572206e6f7220617070726f76656420666f7220616c6c0000606482015260840161071b565b6107bc83836118d2565b505050565b6000806103e8446107d3600143612c98565b604080516020810193909352904090820152606080820186905233901b6001600160601b031916608082015260940160408051601f198184030181529190528051602090910120610825906001612caf565b61082f9190612cdd565b600f5490915060015b600781101561087a578183101561085157949350505050565b600f816006811061086457610864612cf1565b01546108709083612caf565b9150600101610838565b505050919050565b600f816006811061089257600080fd5b0154905081565b6060886108b4816008546001600160a01b0391821691161490565b6108d05760405162461bcd60e51b815260040161071b90612d07565b6007546001600160a01b031633146108fa5760405162461bcd60e51b815260040161071b90612d48565b6001600160a01b038b1660009081526009602052604090205460ff166109625760405162461bcd60e51b815260206004820152601a60248201527f5265646972656374416c6c3a20696e76616c696420746f6b656e000000000000604482015260640161071b565b83838080601f01602080910402602001604051908101604052809392919081815260200183838082843760009201829052509395506109a792505050888a018a612b98565b5090506000600760010160009054906101000a90046001600160a01b03166001600160a01b031663e6a1e8888e84306040518463ffffffff1660e01b81526004016109f493929190612d7f565b608060405180830381865afa158015610a11573d6000803e3d6000fd5b505050506040513d601f19601f82011682018060405250810190610a359190612da2565b5050915050610a9886868080601f016020809104026020016040519081016040528093929190818152602001838380828437600081840152601f19601f82011690508083019250505050505050838f84600761194090949392919063ffffffff16565b9d9c50505050505050505050505050565b610ab3338261196f565b610acf5760405162461bcd60e51b815260040161071b90612de6565b6107bc8383836119ee565b610ae2611b95565b600083828114610b255760405162461bcd60e51b815260206004820152600e60248201526d0c2e4e4c2f240dad2e6dac2e8c6d60931b604482015260640161071b565b80821015610bb357838383818110610b3f57610b3f612cf1565b9050602002016020810190610b549190612a78565b60096000888886818110610b6a57610b6a612cf1565b9050602002016020810190610b7f9190612a46565b6001600160a01b031681526020810191909152604001600020805460ff191691151591909117905560019190910190610b25565b505050505050565b610bc3611b95565b600e55565b610bd0611b95565b60005b82518110156107bc5760085482516000916001600160a01b03169063e6a1e88890859085908110610c0657610c06612cf1565b602002602001015130878681518110610c2157610c21612cf1565b60200260200101516040518463ffffffff1660e01b8152600401610c4793929190612d7f565b608060405180830381865afa158015610c64573d6000803e3d6000fd5b505050506040513d601f19601f82011682018060405250810190610c889190612da2565b505091505080600b0b600014610ce257610ce230858481518110610cae57610cae612cf1565b6020026020010151858581518110610cc857610cc8612cf1565b60200260200101516007611bef909392919063ffffffff16565b60085483516000916001600160a01b03169063e6a1e88890869086908110610d0c57610d0c612cf1565b6020026020010151878681518110610d2657610d26612cf1565b6020026020010151306040518463ffffffff1660e01b8152600401610d4d93929190612d7f565b608060405180830381865afa158015610d6a573d6000803e3d6000fd5b505050506040513d601f19601f82011682018060405250810190610d8e9190612da2565b505091505080600b0b600014610dce57610dce858481518110610db357610db3612cf1565b602002602001015130868681518110610cc857610cc8612cf1565b600a6000868581518110610de457610de4612cf1565b6020908102919091018101516001600160a01b0316825281019190915260400160002080546001600160601b031916905550819050610e2281612e34565b915050610bd3565b6107bc8383836040518060200160405280600081525061129c565b610e4d611b95565b6107bc601683836124a6565b6007546060906001600160a01b03163314610e865760405162461bcd60e51b815260040161071b90612d48565b6008546001600160a01b038a81169116141580610ebc57506001600160a01b038a1660009081526009602052604090205460ff16155b15610f005782828080601f0160208091040260200160405190810160405280939291908181526020018383808284376000920191909152509293506110ce92505050565b82828080601f0160208091040260200160405190810160405280939291908181526020018383808284376000920182905250939450839250610f47915050888a018a612b98565b9092509050306001600160a01b03831603610fc457610fba85858080601f016020809104026020016040519081016040528093929190818152602001838380828437600081840152601f19601f8201169050808301925050505050505082308f6007611c0f90949392919063ffffffff16565b9250809150611025565b61102285858080601f016020809104026020016040519081016040528093929190818152602001838380828437600081840152601f19601f8201169050808301925050505050505030848f6007611c0f90949392919063ffffffff16565b92505b6001600160a01b0382166000908152600d60209081526040808320548352600c9091528120600301546110589042612c98565b6001600160a01b0384166000908152600d60209081526040808320548352600c90915290204260049091015590506203f4808111156110b3576001600160a01b0383166000908152600d60205260409020546110b390611c34565b50506001600160a01b03166000908152600d60205260408120555b9998505050505050505050565b601680546110e890612c4e565b80601f016020809104026020016040519081016040528092919081815260200182805461111490612c4e565b80156111615780601f1061113657610100808354040283529160200191611161565b820191906000526020600020905b81548152906001019060200180831161114457829003601f168201915b505050505081565b611171611b95565b600b805460ff1916911515919091179055565b6000818152600360205260408120546001600160a01b0316806105e85760405162461bcd60e51b8152602060048201526018602482015277115490cdcc8c4e881a5b9d985b1a59081d1bdad95b88125160421b604482015260640161071b565b60006001600160a01b03821661124e5760405162461bcd60e51b815260206004820152602960248201527f4552433732313a2061646472657373207a65726f206973206e6f7420612076616044820152683634b21037bbb732b960b91b606482015260840161071b565b506001600160a01b031660009081526004602052604090205490565b611272611b95565b61127c6000611cdb565b565b6060600280546105fd90612c4e565b611298338383611d2b565b5050565b6112a6338361196f565b6112c25760405162461bcd60e51b815260040161071b90612de6565b6112ce84848484611df9565b50505050565b6000818152600c60209081526040808320815160a081018352815460ff161515815260018201549381019390935260028101549183019190915260038101546060830152600401546080820181905290919015611344578160600151826080015161133f9190612c98565b611353565b60608201516113539042612c98565b9050600e548111156107bc576040518060a0016040528060011515815260200161137c856107c1565b815260200161138a856114d7565b81524260208083019190915260006040928301819052958652600c8152948190208251815460ff1916901515178155948201516001860155810151600285015560608101516003850155608001516004909301929092555050565b6000818152600c6020908152604091829020825160a081018452815460ff1615158082526001830154938201939093526002820154938101939093526003810154606084810191909152600490910154608084015291906114695760166040516020016114529190612ee6565b604051602081830303815290604052915050919050565b60166114788260200151611e2c565b60408301516080840151156114a0578360600151846080015161149b9190612c98565b6114af565b60608401516114af9042612c98565b6040516020016114c29493929190612f11565b60408051601f19818403019052525b50919050565b6000806103e8446114e9600143612c98565b604080516020810193909352904090820152606080820186905233901b6001600160601b031916608082015260940160408051601f19818403018152919052805160209091012061153b906001612caf565b6115459190612cdd565b90508061030914801561155b575060175460ff16155b156115755750506017805460ff1916600117905550600890565b611580600782612cdd565b61158b906001612caf565b9392505050565b6060886115ad816008546001600160a01b0391821691161490565b6115c95760405162461bcd60e51b815260040161071b90612d07565b6007546001600160a01b031633146115f35760405162461bcd60e51b815260040161071b90612d48565b600b5460ff161561163c5760405162461bcd60e51b81526020600482015260136024820152721499589bdd5b99195c881a5cc81b1bd8dad959606a1b604482015260640161071b565b6001600160a01b038b1660009081526009602052604090205460ff166116945760405162461bcd60e51b815260206004820152600d60248201526c34b73b30b634b2103a37b5b2b760991b604482015260640161071b565b83838080601f01602080910402602001604051908101604052809392919081815260200183838082843760009201829052509395506116d992505050888a018a612b98565b5090506000600760010160009054906101000a90046001600160a01b03166001600160a01b031663e6a1e8888e84306040518463ffffffff1660e01b815260040161172693929190612d7f565b608060405180830381865afa158015611743573d6000803e3d6000fd5b505050506040513d601f19601f820116820180604052508101906117679190612da2565b50509150506117ca86868080601f016020809104026020016040519081016040528093929190818152602001838380828437600081840152601f19601f82011690508083019250505050505050838f846007611f2c90949392919063ffffffff16565b93506117d582611f51565b5050509998505050505050505050565b6117ed611b95565b611298600f82600661252a565b611802611b95565b6001600160a01b0381166118675760405162461bcd60e51b815260206004820152602660248201527f4f776e61626c653a206e6577206f776e657220697320746865207a65726f206160448201526564647265737360d01b606482015260840161071b565b61187081611cdb565b50565b6000818152600360205260409020546001600160a01b03166118705760405162461bcd60e51b8152602060048201526018602482015277115490cdcc8c4e881a5b9d985b1a59081d1bdad95b88125160421b604482015260640161071b565b600081815260056020526040902080546001600160a01b0319166001600160a01b038416908117909155819061190782611184565b6001600160a01b03167f8c5be1e5ebec7d5bd14f71427d1e84f3dd0314c0f7b2291e5b200ac8c7c3b92560405160405180910390a45050565b6040805160008152602081019091526060906119659087908790879087908790611fa3565b9695505050505050565b60008061197b83611184565b9050806001600160a01b0316846001600160a01b031614806119c257506001600160a01b0380821660009081526006602090815260408083209388168352929052205460ff165b806119e65750836001600160a01b03166119db84610680565b6001600160a01b0316145b949350505050565b826001600160a01b0316611a0182611184565b6001600160a01b031614611a655760405162461bcd60e51b815260206004820152602560248201527f4552433732313a207472616e736665722066726f6d20696e636f72726563742060448201526437bbb732b960d91b606482015260840161071b565b6001600160a01b038216611ac75760405162461bcd60e51b8152602060048201526024808201527f4552433732313a207472616e7366657220746f20746865207a65726f206164646044820152637265737360e01b606482015260840161071b565b611ad28383836120aa565b611add6000826118d2565b6001600160a01b0383166000908152600460205260408120805460019290611b06908490612c98565b90915550506001600160a01b0382166000908152600460205260408120805460019290611b34908490612caf565b909155505060008181526003602052604080822080546001600160a01b0319166001600160a01b0386811691821790925591518493918716917fddf252ad1be2c89b69c2b068fc378daa952ba7f163c4a11628f55a4df523b3ef91a4505050565b6000546001600160a01b0316331461127c5760405162461bcd60e51b815260206004820181905260248201527f4f776e61626c653a2063616c6c6572206973206e6f7420746865206f776e6572604482015260640161071b565b6040805160008152602081019091526112ce90859085908590859061210a565b60408051600081526020810190915260609061196590879087908790879087906121e1565b6000611c3f82611184565b9050611c4d816000846120aa565b611c586000836118d2565b6001600160a01b0381166000908152600460205260408120805460019290611c81908490612c98565b909155505060008281526003602052604080822080546001600160a01b0319169055518391906001600160a01b038416907fddf252ad1be2c89b69c2b068fc378daa952ba7f163c4a11628f55a4df523b3ef908390a45050565b600080546001600160a01b038381166001600160a01b0319831681178455604051919092169283917f8be0079c531659141344cd1fd0a4f28419497f9722a3daafe3b4186f6b6457e09190a35050565b816001600160a01b0316836001600160a01b031603611d8c5760405162461bcd60e51b815260206004820152601960248201527f4552433732313a20617070726f766520746f2063616c6c657200000000000000604482015260640161071b565b6001600160a01b03838116600081815260066020908152604080832094871680845294825291829020805460ff191686151590811790915591519182527f17307eab39ab6107e8899845ad3d59bd9653f200f220920489ca2b5937696c31910160405180910390a3505050565b611e048484846119ee565b611e108484848461222a565b6112ce5760405162461bcd60e51b815260040161071b90612f80565b606081600003611e535750506040805180820190915260018152600360fc1b602082015290565b8160005b8115611e7d5780611e6781612e34565b9150611e769050600a83612fd2565b9150611e57565b6000816001600160401b03811115611e9757611e97612867565b6040519080825280601f01601f191660200182016040528015611ec1576020820181803683370190505b5090505b84156119e657611ed6600183612c98565b9150611ee3600a86612cdd565b611eee906030612caf565b60f81b818381518110611f0357611f03612cf1565b60200101906001600160f81b031916908160001a905350611f25600a86612fd2565b9450611ec5565b604080516000815260208101909152606090611965908790879087908790879061232b565b60158054906000611f6183612e34565b9091555050601580546001600160a01b0383166000908152600d60209081526040808320849055928252600c9052204260039091015554611870908290612358565b855460018701546060916001600160a01b0390811691634329d2939116806350209a62888a8960005b6040519080825280601f01601f191660200182016040528015611ff6576020820181803683370190505b5060405160240161200a9493929190612fe6565b60408051808303601f1901815291815260208201805160e094851b6001600160e01b03909116179052519185901b6001600160e01b03191682526120579392509087908c9060040161301c565b6000604051808303816000875af1158015612076573d6000803e3d6000fd5b505050506040513d6000823e601f3d908101601f1916820160405261209e91908101906130b6565b50979650505050505050565b6001600160a01b0383161515806120c957506001600160a01b03821615155b806120ec57506001600160a01b0383166000908152600d60205260409020548114155b156107bc576040516356cfed3160e01b815260040160405180910390fd5b845460018601546040805160008152602081019091526001600160a01b03928316926339255d5b921690819063b4b333c69061214f9088908b908b906044810161310f565b60408051808303601f1901815291815260208201805160e094851b6001600160e01b03909116179052519185901b6001600160e01b031916825261219a939250908690600401613143565b6000604051808303816000875af11580156121b9573d6000803e3d6000fd5b505050506040513d6000823e601f3d908101601f19168201604052610bb39190810190613179565b855460018701546040805160008152602081019091526060926001600160a01b0390811692634329d29392911690819063b4b333c69061200a9089908c908c906044810161310f565b60006001600160a01b0384163b1561232057604051630a85bd0160e11b81526001600160a01b0385169063150b7a029061226e9033908990889088906004016131ad565b6020604051808303816000875af19250505080156122a9575060408051601f3d908101601f191682019092526122a6918101906131e0565b60015b612306573d8080156122d7576040519150601f19603f3d011682016040523d82523d6000602084013e6122dc565b606091505b5080516000036122fe5760405162461bcd60e51b815260040161071b90612f80565b805181602001fd5b6001600160e01b031916630a85bd0160e11b1490506119e6565b506001949350505050565b855460018701546060916001600160a01b0390811691634329d2939116806362fc305e888a896000611fcc565b6001600160a01b0382166123ae5760405162461bcd60e51b815260206004820181905260248201527f4552433732313a206d696e7420746f20746865207a65726f2061646472657373604482015260640161071b565b6000818152600360205260409020546001600160a01b0316156124135760405162461bcd60e51b815260206004820152601c60248201527f4552433732313a20746f6b656e20616c7265616479206d696e74656400000000604482015260640161071b565b61241f600083836120aa565b6001600160a01b0382166000908152600460205260408120805460019290612448908490612caf565b909155505060008181526003602052604080822080546001600160a01b0319166001600160a01b03861690811790915590518392907fddf252ad1be2c89b69c2b068fc378daa952ba7f163c4a11628f55a4df523b3ef908290a45050565b8280546124b290612c4e565b90600052602060002090601f0160209004810192826124d4576000855561251a565b82601f106124ed5782800160ff1982351617855561251a565b8280016001018555821561251a579182015b8281111561251a5782358255916020019190600101906124ff565b50612526929150612558565b5090565b826006810192821561251a579160200282015b8281111561251a57825182559160200191906001019061253d565b5b808211156125265760008155600101612559565b6001600160e01b03198116811461187057600080fd5b60006020828403121561259557600080fd5b813561158b8161256d565b60005b838110156125bb5781810151838201526020016125a3565b838111156112ce5750506000910152565b600081518084526125e48160208601602086016125a0565b601f01601f19169290920160200192915050565b60208152600061158b60208301846125cc565b60006020828403121561261d57600080fd5b5035919050565b6001600160a01b038116811461187057600080fd5b6000806040838503121561264c57600080fd5b823561265781612624565b946020939093013593505050565b60008083601f84011261267757600080fd5b5081356001600160401b0381111561268e57600080fd5b6020830191508360208285010111156126a657600080fd5b9250929050565b600080600080600080600080600060c08a8c0312156126cb57600080fd5b89356126d681612624565b985060208a01356126e681612624565b975060408a0135965060608a01356001600160401b038082111561270957600080fd5b6127158d838e01612665565b909850965060808c013591508082111561272e57600080fd5b61273a8d838e01612665565b909650945060a08c013591508082111561275357600080fd5b506127608c828d01612665565b915080935050809150509295985092959850929598565b60008060006060848603121561278c57600080fd5b833561279781612624565b925060208401356127a781612624565b929592945050506040919091013590565b60008083601f8401126127ca57600080fd5b5081356001600160401b038111156127e157600080fd5b6020830191508360208260051b85010111156126a657600080fd5b6000806000806040858703121561281257600080fd5b84356001600160401b038082111561282957600080fd5b612835888389016127b8565b9096509450602087013591508082111561284e57600080fd5b5061285b878288016127b8565b95989497509550505050565b634e487b7160e01b600052604160045260246000fd5b604051601f8201601f191681016001600160401b03811182821017156128a5576128a5612867565b604052919050565b60006001600160401b038211156128c6576128c6612867565b5060051b60200190565b600082601f8301126128e157600080fd5b813560206128f66128f1836128ad565b61287d565b82815260059290921b8401810191818101908684111561291557600080fd5b8286015b8481101561293957803561292c81612624565b8352918301918301612919565b509695505050505050565b6000806040838503121561295757600080fd5b82356001600160401b038082111561296e57600080fd5b818501915085601f83011261298257600080fd5b813560206129926128f1836128ad565b82815260059290921b840181019181810190898411156129b157600080fd5b948201945b838610156129d85785356129c981612624565b825294820194908201906129b6565b965050860135925050808211156129ee57600080fd5b506129fb858286016128d0565b9150509250929050565b60008060208385031215612a1857600080fd5b82356001600160401b03811115612a2e57600080fd5b612a3a85828601612665565b90969095509350505050565b600060208284031215612a5857600080fd5b813561158b81612624565b80358015158114612a7357600080fd5b919050565b600060208284031215612a8a57600080fd5b61158b82612a63565b60008060408385031215612aa657600080fd5b8235612ab181612624565b9150612abf60208401612a63565b90509250929050565b60006001600160401b03821115612ae157612ae1612867565b50601f01601f191660200190565b60008060008060808587031215612b0557600080fd5b8435612b1081612624565b93506020850135612b2081612624565b92506040850135915060608501356001600160401b03811115612b4257600080fd5b8501601f81018713612b5357600080fd5b8035612b616128f182612ac8565b818152886020838501011115612b7657600080fd5b8160208401602083013760006020838301015280935050505092959194509250565b60008060408385031215612bab57600080fd5b8235612bb681612624565b91506020830135612bc681612624565b809150509250929050565b600060c08284031215612be357600080fd5b82601f830112612bf257600080fd5b60405160c081018181106001600160401b0382111715612c1457612c14612867565b6040528060c0840185811115612c2957600080fd5b845b81811015612c43578035835260209283019201612c2b565b509195945050505050565b600181811c90821680612c6257607f821691505b6020821081036114d157634e487b7160e01b600052602260045260246000fd5b634e487b7160e01b600052601160045260246000fd5b600082821015612caa57612caa612c82565b500390565b60008219821115612cc257612cc2612c82565b500190565b634e487b7160e01b600052601260045260246000fd5b600082612cec57612cec612cc7565b500690565b634e487b7160e01b600052603260045260246000fd5b60208082526021908201527f5265646972656374416c6c3a20646973616c6c6f7765642061677265656d656e6040820152601d60fa1b606082015260800190565b6020808252601c908201527f5265646972656374416c6c3a20646973616c6c6f77656420686f737400000000604082015260600190565b6001600160a01b0393841681529183166020830152909116604082015260600190565b60008060008060808587031215612db857600080fd5b84519350602085015180600b0b8114612dd057600080fd5b6040860151606090960151949790965092505050565b6020808252602e908201527f4552433732313a2063616c6c6572206973206e6f7420746f6b656e206f776e6560408201526d1c881b9bdc88185c1c1c9bdd995960921b606082015260800190565b600060018201612e4657612e46612c82565b5060010190565b8054600090600181811c9080831680612e6757607f831692505b60208084108203612e8857634e487b7160e01b600052602260045260246000fd5b818015612e9c5760018114612ead57612eda565b60ff19861689528489019650612eda565b60008881526020902060005b86811015612ed25781548b820152908501908301612eb9565b505084890196505b50505050505092915050565b6000612ef28284612e4d565b6e3f72657665616c65643d66616c736560881b8152600f019392505050565b6000612f1d8287612e4d565b67267261726974793d60c01b81528551612f3e816008840160208a016125a0565b6626636f6c6f723d60c81b60089290910191820152600f81019490945250506b2673747265616d54696d653d60a01b602f830152603b820152605b0192915050565b60208082526032908201527f4552433732313a207472616e7366657220746f206e6f6e20455243373231526560408201527131b2b4bb32b91034b6b83632b6b2b73a32b960711b606082015260800190565b600082612fe157612fe1612cc7565b500490565b6001600160a01b03858116825284166020820152600b83900b6040820152608060608201819052600090611965908301846125cc565b6001600160a01b0385168152608060208201819052600090613040908301866125cc565b828103604084015261305281866125cc565b9050828103606084015261306681856125cc565b979650505050505050565b600082601f83011261308257600080fd5b81516130906128f182612ac8565b8181528460208386010111156130a557600080fd5b6119e68260208301602087016125a0565b600080604083850312156130c957600080fd5b82516001600160401b03808211156130e057600080fd5b6130ec86838701613071565b9350602085015191508082111561310257600080fd5b506129fb85828601613071565b6001600160a01b038581168252848116602083015283166040820152608060608201819052600090611965908301846125cc565b6001600160a01b0384168152606060208201819052600090613167908301856125cc565b828103604084015261196581856125cc565b60006020828403121561318b57600080fd5b81516001600160401b038111156131a157600080fd5b6119e684828501613071565b6001600160a01b0385811682528416602082015260408101839052608060608201819052600090611965908301846125cc565b6000602082840312156131f257600080fd5b815161158b8161256d56fea2646970667358221220f94b68a100ce83cc015728366865e393c28f3f3eced27ef0e798d101e281c2de64736f6c634300080e0033",
    "linkReferences": {}
  },
  "methodIdentifiers": {
    "CFA_ID()": "215eed02",
    "_getColor(uint256)": "d572c38f",
    "_getRarity(uint256)": "1aad5bc2",
    "acceptedToken(address)": "55f5e7de",
    "afterAgreementCreated(address,address,bytes32,bytes,bytes,bytes)": "d86ed3e5",
    "afterAgreementTerminated(address,address,bytes32,bytes,bytes,bytes)": "53c11f99",
    "afterAgreementUpdated(address,address,bytes32,bytes,bytes,bytes)": "230dbd29",
    "approve(address,uint256)": "095ea7b3",
    "balanceOf(address)": "70a08231",
    "baseUrl()": "5bcabf04",
    "cfaV1Lib()": "55586a31",
    "emergencyCloseStream(address[],address[])": "34cf3def",
    "flowRates(address)": "7584fa1c",
    "getApproved(uint256)": "081812fc",
    "isApprovedForAll(address,address)": "e985e9c5",
    "locked()": "cf309012",
    "name()": "06fdde03",
    "owner()": "8da5cb5b",
    "ownerOf(uint256)": "6352211e",
    "rainbowMinted()": "3b766214",
    "rarityArray(uint256)": "21ccc6ba",
    "renounceOwnership()": "715018a6",
    "reveal(uint256)": "c2ca0ac5",
    "revealDuration()": "886a6de1",
    "safeTransferFrom(address,address,uint256)": "42842e0e",
    "safeTransferFrom(address,address,uint256,bytes)": "b88d4fde",
    "setAllowListBatch(address[],bool[])": "2491d53a",
    "setApprovalForAll(address,bool)": "a22cb465",
    "setBaseURL(string)": "49f2553a",
    "setLock(bool)": "619d5194",
    "setRarity(uint256[6])": "f0825ccf",
    "setRevealDuration(uint256)": "30b990f5",
    "supportsInterface(bytes4)": "01ffc9a7",
    "symbol()": "95d89b41",
    "tokenId()": "17d70f7c",
    "tokenURI(uint256)": "c87b56dd",
    "transferFrom(address,address,uint256)": "23b872dd",
    "transferOwnership(address)": "f2fde38b"
  },
  "id": 0
}